:020000040000FA
:10000000020759C2AFF508810FFFFFC2AFF50881A3
:1000100021FFFFC2AFF5088133FFFFC2AFF50881B2
:1000200045FFFFC2AFF5088157FFFFC2AFF508815A
:1000300069FFFFC2AFF508817BFFFFC2AFF5088102
:100040008DFFFFC2AFF508819FFFFFC2AFF50881AA
:10005000B1FFFFC2AFF50881C3FFFFC2AFF5088152
:10006000D5FFFFC2AFF50881E7FFFFC2AFF50881FA
:10007000F9FFFFC2AFF508A10BFFFFC2AFF508A162
:100080001DFFFFC2AFF508A12FFFFFC2AFF508A10A
:1000900041758701002274FC12071F750A04750B55
:1000A00000780A120748740212078E7A007B0079E2
:1000B000081205577402120704850D82850E83E02D
:1000C000F47003A3E0F470030201FB850D82850E3A
:1000D00083E0F8A3E0F9E84970030201FB7402121F
:1000E0000784E0687003A3E069701075090102409D
:1000F00030C2AF75C9AB75C95B80FE53BEFBE59DD1
:10010000A2E650FAE5C654804449F5C6E59E547F00
:10011000644970F853C67FE59EA2E740FA53C68053
:10012000E59E547F70FA43BE049062707408F075C7
:100130000A00F50B780A1207487C807D017A007B63
:100140000079081205577402120704900186E0F541
:100150000AA3E0F50B7409780A120768E50A240877
:10016000FF53B4F375BC0075BC007CFC7D077A04BA
:100170007B0079081203807E09EFC3940A401C803B
:100180000774086E70027E467C007D087A007B0052
:10019000EEF91203800EEEC39F40E6A8BD850D82E6
:1001A000850E83E8F9E5BCF8E0687003A3E06970A8
:1001B0004A850D82850E83E0F8A3E0F974021207E8
:1001C00084E8F0A3E9F0850D82850E8374FFF0A327
:1001D000F07409F5D575D480750A01780A120748BC
:1001E000740212078E7A007B101205DD740212076A
:1001F00004C2AF75C9AB75C95B80FE750A04780A85
:10020000120748740212078E7A007B0079011205EA
:10021000577402120704850D82850E83E0F4700383
:10022000A3E0F47003020370850D82850E83E0F86D
:10023000A3E0F9E84970030203707402120784E036
:10024000F8A3E0F9850D82850E83E0687003A3E0D2
:10025000697010750900020830C2AF75C9AB75C965
:100260005B80FE74FF68700374FF696003020370B3
:1002700053BEFBE59DA2E650FAE5C654804449F51D
:10028000C6E59E547F644970F853C67FE59EA2E799
:1002900040FA53C680E59E547F70FA43BE049062D4
:1002A000707408F0750A00F50B780A1207487C8014
:1002B0007D017A007B007901120557740212070450
:1002C000900186E0F50AA3E0F50B7409780A12079D
:1002D00068E50A243FFF53B4F375BC0075BC007C8D
:1002E000FC7D077A047B0079011203807E02EFC354
:1002F0009403401C800774086E70027E467C007D6B
:10030000087A007B00EEF91203800EEEC39F40E6F0
:10031000A8BD850D82850E83E8F9E5BCF8E068701C
:1003200003A3E069704A850D82850E83E0F8A3E09F
:10033000F97402120784E8F0A3E9F0850D82850EB6
:100340008374FFF0A3F07409F5D575D480750A01A4
:10035000780A120748740212078E7A007B0212058F
:10036000DD7402120704C2AF75C9AB75C95B80FEAC
:1003700043BE03120091C2AF75C9AB75C95B80FE65
:1003800074F7120643E9FEAFC7740F5EF50A750BEA
:1003900000740B780A120735EA2400F8EB350BF9E4
:1003A000E82400E93480F9A2AFE433F50AC2AFEEE5
:1003B000C4540FFAE5C754F84AF5C7E9900980F02C
:1003C000E8A3F0A37470F0A374BDF0EC900985F07D
:1003D000EDFC900984E054E04CF09009867420F024
:1003E000A37442F07409F5D575D48075D601000068
:1003F00000000000000000000075D701E5D7A2E072
:1004000040FA8FC7E50AA2E092AF7F020206A9E593
:10041000096007E508D2AF024033E508D2AF020811
:1004200033E5096007E508D2AF02403BE508D2AFEB
:1004300002083BE5096007E508D2AF024043E50842
:10044000D2AF020843E5096007E508D2AF02404B8E
:10045000E508D2AF02084BE5096007E508D2AF0214
:100460004053E508D2AF020853E5096007E508D21A
:10047000AF02405BE508D2AF02085BE5096007E523
:1004800008D2AF024063E508D2AF020863E5096015
:1004900007E508D2AF02406BE508D2AF02086BE572
:1004A000096007E508D2AF024073E508D2AF020841
:1004B00073E5096007E508D2AF02407BE508D2AFDB
:1004C00002087BE5096007E508D2AF024083E50832
:1004D000D2AF020883E5096007E508D2AF02408B7E
:1004E000E508D2AF02088BE5096007E508D2AF0244
:1004F0004093E508D2AF020893E5096007E508D20A
:10050000AF02409BE508D2AF02089BE5096007E512
:1005100008D2AF0240A3E508D2AF0208A3E5096004
:1005200007E508D2AF0240ABE508D2AF0208ABE561
:10053000096007E508D2AF0240B3E508D2AF020870
:10054000B3E5096007E508D2AF0240BBE508D2AFCA
:100550000208BB0002055374F6120643890C740F9F
:10056000550CF50A750B00740B780A120735EA244E
:1005700000F8EB3480F9E82400E9350BF985C70B66
:10058000A2AFE433F50AC2AFE50CC4540FFAE5C7D5
:1005900054F84AF5C7740A120784E0FEA3E0FFEEA0
:1005A0004F602CEEFAEFFB88828983E08C828D838A
:1005B000F088828983A3A882A9838C828D83A3ACCF
:1005C00082AD83EA24FF1AEB34FFFBEA4B70D88537
:1005D0000BC7E50AA2E092AF7F030206A974F712E7
:1005E0000643ED900980F0ECA3F0A37462F0A374CD
:1005F00073F0A3E0541FF07409120784E0F50AA316
:10060000E0F50BE50A333354FC900985F074067865
:100610000A120768E50A900984F09009867412F0BE
:10062000A37442F075D11E75D601EA906271F0EBA9
:10063000A3F0906270E0D2E1F0E0A2E740FB7F021D
:100640000206A9250DC582C0E0E50E34FFC583C0B2
:10065000E0E50DC3958224F910AF0885830E8582ED
:100660000D800885830E85820DD2AFCEF0A3E520E4
:10067000F0A3780AE608F0A3DEFAEFF0A3E5812400
:10068000FBF8E608F0A3E608F0A30808E608F0A3E4
:10069000E608F0A315811581D0E0FED0E0F81581C1
:1006A0001581E8C0E0EEC0E022850E83850D82E072
:1006B000A3FEE0A3F520780AE0A3F608DFFAE0A3A2
:1006C000FFE0A3C0E0E0A3C0E0E0A3C0E0E0A3C07F
:1006D000E010AF0885820D85830E800885820D8528
:1006E000830ED2AFD083D08222250DF58210AF08C1
:1006F000F50D400C150E8008F50D4002150ED2AF19
:10070000850E832200C0D0250D10AF08F50D500CCA
:10071000050E8008F50D5002050ED2AFD0D022256F
:100720000D10AF08F50D400C150E8008F50D4002B8
:10073000150ED2AF22700422600D18C6C333C6084E
:10074000C633C6D5E0F4182274028000C0E0F40479
:100750001206E9D0E01207772275D00075813F7547
:100760000D80750E01020796600C08C6C313C618EB
:10077000C613C6D5E0F422CAC0E0E6F0A308DAFA50
:10078000D0E0FA22250DF582E4350EF58322250D01
:10079000FCE4350EFD2212009612079C000000803A
:1007A000FBFFFFFFFFFFFFFFFFFFFFFFFFFFFFFF5D
:1007B000FFFFFFFFFFFFFFFFFFFFFFFFFFFFFFFF49
:1007C000FFFFFFFFFFFFFFFFFFFFFFFFFFFFFFFF39
:1007D000FFFFFFFFFFFFFFFFFFFFFFFFFFFFFFFF29
:1007E000FFFFFFFFFFFFFFFFFFFFFFFFFFFFFFFF19
:1007F000FFFFFFFFFFFFFFFFFFFFFFFFFFFFFFFF09
:100800007806FFFF0C00007C41414141FFFFFFFFE4
:10081000FFFFFFFFFFFFFFFFFFFFFFFFFFFFFFFFE8
:10082000000102030405060708090A0BFFFFFFFF8A
:10083000020DFA021BADFFFFFFFFFFFFFFFFFFFFEF
:10084000FFFFFFFFFFFFFFFFFFFFFFFFFFFFFFFFB8
:10085000FFFFFFFFFFFFFFFFFFFFFF02231EFFFF62
:10086000FFFFFF0222F5FFFFFFFFFFFFFFFFFFFF7C
:10087000FFFFFFFFFFFFFFFFFFFFFFFFFFFFFFFF88
:10088000FFFFFF021C23FFFFFFFFFFFFFFFFFFFF34
:10089000FFFFFFFFFFFFFFFFFFFFFF0222A8FFFF99
:1008A000FFFFFFFFFFFFFFFFFFFFFF0222CEFFFF63
:1008B000FFFFFF021A0301120A0A0A02578401000D
:1008C000001C84025184010000D5151066820100CD
:1008D000008202024D84030000850202518401005F
:1008E00000D61510568203000087020251840100D1
:1008F00000D715104682030000D815120A020A0A12
:100900000257840100001684025184010000191668
:100910001066810100008A02024D840300008E02ED
:100920000251840100001A1610D6800300009002C4
:100930000251840100001C1610F6800300001D16F1
:100940000251840100001B1610E680010000910294
:10095000024D84030000A102FF0000B40000280043
:100960002800283075A000A000A000A0000008000A
:1009700008E001F00010001000100010001000103E
:100980000050005000500010001000D00700000080
:100990000000000F00010005003075070010000185
:1009A0000081FF00000000FFFFFFB725D525BD2512
:1009B000F925FF02020208025000A0000000E8032F
:1009C0000257840100003184025184010000D116D5
:1009D000024B84010000E102025184010000D216A2
:1009E000024984010000F702025184010000D3167D
:1009F000024784010000F902025184010000D4166C
:100A0000024584080000FA02025184010000D51654
:100A1000024384010000D616FF0100FF2002578424
:100A20000100002B840251840100003A1702418426
:100A30000000000000024D84030000280317006539
:100A40002C652C652C652C652C652C652C652C651E
:100A50002C652C652C652C652C232F352F1D2F1212
:100A600008080257840100002E840251840100000E
:100A70007D1710A6820100006407024D8403000068
:100A80006A070251840100007E171096820200005E
:100A90006C070251840100007F171086820200005B
:100AA0007407020202020202020202010D000000AB
:100AB00010010257840100001F84025184010000CC
:100AC000C01702398401000075070251840100003B
:100AD000C117023B84010000C5800251840100005F
:100AE000C217023D840100006D83025184010000A1
:100AF000C317023F84010000B3800251840100004B
:100B0000C417025D84010000688302518401000063
:100B1000C517025F84010000728302518401000046
:100B2000C617026784010000A18002518401000001
:100B3000C717025584010000E682025184010000BB
:100B4000C817026184010000C91701E80305771086
:100B50000A120A0A0A0257840100002884025184FA
:100B60000100006F181016820100003908024D8440
:100B70000300003F08025184010000701810068233
:100B80000300004108025184010000711810F68131
:100B90000300007218038000008070006180120A58
:100BA0000A0A0257840100002284025184010000D5
:100BB000BC1810D681010000CC08024D840300004F
:100BC000D008025184010000BD1810C68103000046
:100BD000D208025184010000BE1810B68103000043
:100BE000BF18120A0A1E0257840100003484025101
:100BF000840100000019109681010000D508024D03
:100C000084030000D9080251840100000119107604
:100C100081030000DB0802518401000002191076F4
:100C2000820300000319120A0A0A02578401000015
:100C30001384025184010000441910468101000010
:100C4000DE08024D84030000E40802518401000024
:100C50004519103681030000E608025184010000A6
:100C6000461910168103000047191C025784010021
:100C7000001984025184010000881910508002007C
:100C800000E708024D84030000E908024F840100D8
:100C900000F4820251840100008819106080020073
:100CA00000E808024D84030000EB08024F840100B5
:100CB000000183FFFFFFFFFF000130750302010603
:100CC0000000000000000000000000000000000024
:100CD000000000000000000000000000FFFF060010
:100CE000800CE8030A0953656E736F7254616705DF
:100CF0001250002003020A00020105544920424C10
:100D0000452053656E736F722054616700D007E809
:100D100003E803E803E803E803893500008F35950D
:100D2000359B35A735A135AD35B335B935104B6594
:100D30007920507265737320537461746500025793
:100D40008401000025840251840100004B1A0265D1
:100D500084000000D215024D84030000D315024F19
:100D6000840100004C1AE5C754F84405F5C7790121
:100D70002200000080FB120D66B90003020DE4E4BE
:100D800079217808B800028004F709D8FCE47929B1
:100D90007802B800028004F709D8FCE49002807859
:100DA0005679148002F0A3D8FCD9FA781C9008B6C2
:100DB0007A01BA00028007E493A3F608DAF97AD53B
:100DC0007B159008B778B079058015E493A3AD82C0
:100DD000AE838A828B83F0A3AA82AB838D828E83BB
:100DE000D8E9D9E775828B7583FF7406120E0C75EE
:100DF000827175830D7400120E0C75D00075813FE1
:100E0000751A80751B02759F00020D76C09FF59FB5
:100E1000E473D09F22D083D082C09FE493C0E0745B
:100E20000193C0E0740293F59F22E066701008A35E
:100E3000E066700A08A3E066700408A3E06622C3B7
:100E4000E7960809E7960809E7960809E79622C396
:100E5000E09608A3E09608A3E09608A3E09622C0D7
:100E60000AC3E096F50A08A3E096420A08A3E096B2
:100E7000420A08A3E096450A7001D3D00A22080866
:100E800008EAC0E0EBC0E086F0E7A4FA180986F0B3
:100E9000E7A42AFA180986F0E7A42AFA180986F0C6
:100EA000E7A42AFA1986F0E7A4FBE5F02AFA190864
:100EB00086F0E7A42BFBE5F03AFA190886F0E7A4E0
:100EC0002BFBE5F03AFA18180986F0E7A4C5F02BD9
:100ED000FBE43AFA1908E7C5F0C6A426F6E5F03BAC
:100EE000FBE43AFA1886F0E7A4F6E5F00826F6E403
:100EF0003B08F6E43A08F6D0E0FBD0E0FA22E4CF73
:100F0000C0E0E4CEC0E0E4CDC0E0E4CCC0E075F0E9
:100F100020E626F608E633F608E633F608E633F66A
:100F2000181818EC33FCED33FDEE33FEEF33FFC33E
:100F3000EC9709ED9709EE9709EF97191919400FEA
:100F4000FFEC97FC09ED97FD09EE97FE191906D500
:100F5000F0BFECF709EDF709EEF709EFF7191919EA
:100F6000D0E0FCD0E0FDD0E0FED0E0FF226016082B
:100F70000808C6C313C618C613C618C613C618C6B3
:100F800013C6D5E0EA22700908080822601618186E
:100F900018C6C333C608C633C608C633C608C63328
:100FA000C6D5E0EA22E627F60809E637F60809E69C
:100FB00037F60809E637F622E026F608A3E036F60B
:100FC00008A3E036F608A3E036F622E026F008A3F0
:100FD000E036F008A3E036F008A3E036F022C3E6DE
:100FE00097F60809E697F60809E697F60809E697DE
:100FF000F622C3E096F008A3E096F008A3E096F08E
:1010000008A3E096F022E056F608A3E056F608A3FF
:10101000E056F608A3E056F622E056F008A3E056A4
:10102000F008A3E056F008A3E056F022E0F608A38B
:10103000E0F608A3E0F608A3E0F622E6F008A3E64F
:10104000F008A3E6F008A3E6F022E0FAA3E0FBA391
:10105000E0FCA3E0FD22EAF0A3EBF0A3ECF0A3EDAB
:10106000F022E0F8A3E0F9A3E0FAA3E0FB22E8F025
:10107000A3E9F0A3EAF0A3EBF022CAC0E0E6F0A3F4
:1010800008DAFAD0E0FA22CAC0E0E0A3C582CCC5F3
:1010900082C583CDC583F0A3C582CCC582C583CD6F
:1010A000C583DAE6D0E0CA22C3E498F8E499F912DD
:1010B00010E98026C3E49AFAE49BFBE920E7E912F1
:1010C00010E9E498F8E499F922C3E498F8E499F96E
:1010D0001210E9E498F8E499F9C3E49AFAE49BFB66
:1010E00022EB20E7CFE920E7E0B90010BB0008E8D9
:1010F0008AF084F8AAF022E4FBC8FA22EB70227B83
:1011000010C833C8C933C9335007C39AC3DBF28050
:10111000069A50012ADBEAC833F4C8C933F4C9FA85
:101120002275F008E4C833C8C933C933C99AC99BCA
:101130005004C92AC93BD5F0ECFBC833F4C8E4C954
:10114000FA22600D08C6A2E713C618C613C6D5E07A
:10115000F322600C08C6C313C618C613C6D5E0F444
:1011600022700422600D18C6C333C608C633C6D524
:10117000E0F41822251A10AF08F51A400C151B8050
:1011800008F51A4002151BD2AF2200C0D0251A1054
:10119000AF08F51A500C051B8008F51A5002051B04
:1011A000D2AFD0D022251AF58210AF08F51A400C24
:1011B000151B8008F51A4002151BD2AF851B832230
:1011C000251AF582E4351BF58322251AF8E4351B30
:1011D000F922251AFAE4351BFB22251AFCE4351BFB
:1011E000FD22E473251AC582C0E0E51B34FFC583E8
:1011F000C0E0E51AC3958224F810AF0885831B85EB
:10120000821A800885831B85821AD2AFCEF0A3E5AF
:1012100020F0A3780AE608F0A3DEFAEFF0A3E58158
:1012200024FAF8E608F0A3E608F0A3E608F0A3081D
:1012300008E608F0A3E608F0A315811581D0E0FECA
:10124000D0E0F8158115811581E8C0E0EEC0E022FC
:10125000251AC582C0E0E51B34FFC583C0E0E51A4E
:10126000C3958224F910AF0885831B85821A8008F4
:1012700085831B85821AD2AFCEF0A3E520F0A37838
:101280000AE608F0A3DEFAEFF0A3E58124FBF8E616
:1012900008F0A3E608F0A30808E608F0A3E608F0C3
:1012A000A315811581D0E0FED0E0F815811581E805
:1012B000C0E0EEC0E022851B83851A82E0A3FEE039
:1012C000A3F520780AE0A3F608DFFAE0A3FFE0A385
:1012D000C0E0E0A3C0E0E0A3C0E0E0A3C0E0E0A382
:1012E000C0E010AF0885821A85831B800885821AAA
:1012F00085831BD2AFD083D082020E12851B8385DB
:101300001A82E0A3FEE0A3F520780AE0A3F608DF46
:10131000FAE0A3FFE0A3C0E0E0A3C0E0E0A3C0E0E8
:10132000E0A3C0E010AF0885821A85831B80088582
:10133000821A85831BD2AFD083D08222C0D0251AD7
:10134000C582C0E0E51B34FFC583C0E0E51AC39544
:101350008224F310AF0885831B85821A8008858359
:101360001B85821AD2AFC8F0A3E9F0A3EAF0A3EB81
:10137000F0A3790AE709F0A3D8FAECF0A3EDF0A303
:10138000EEF0A3EFF0A3D0E0F0A3D0E0F0A3D0E024
:10139000F0A3E520F0A3E5F0F0A322851B83851AD6
:1013A00082E0C0E0A3E0F9A3E0FAA3E0FBA3780A9F
:1013B000E0F608A3DFFAE0FCA3E0FDA3E0FEA3E073
:1013C000FFA3E0C0E0A3E0C0E0A3E0F5D0A3E0F518
:1013D00020A3E0A3F5F010AF0885831B85821A8057
:1013E0000885831B85821AD2AFD082D083D0E0F8E3
:1013F000D0E03274048006740280027401C0E0F40C
:10140000041211A5D0E012107A2274048004740230
:101410008000CCC0E0EDC0E0E51AC39CCCAD1B5011
:10142000011D10AF068C1A8D1B80068C1A8D1BD2E5
:10143000AF121087D0E0FDD0E0FC22D083D082E94B
:10144000C0E0E493A3C386F0C5F095F0F908E493F7
:10145000A386F0C5F095F0700BE493A3C399400503
:10146000E9048002A3E475F002A42582F582E5F088
:101470003583F583D0E0F9E493A3C0E0E493C0E0C2
:1014800022D083D082ECC0E0EDC0E0E493A3FCE482
:1014900093A3FDED4C600D1214CDEC24FFFCED3454
:1014A000FFFD80EFE493A3FCE493A3FDED4C600DFE
:1014B00012150CEC24FFFCED34FFFD80EFD0E0FDB5
:1014C000D0E0FCE493A3C0E0E493C0E022C0E0C31A
:1014D000E49396087401939618400FE4936670089D
:1014E00008740193661870007019A3A3C3E493965F
:1014F000087401939618A3A3400DD0E0D0E0D0E08B
:101500000214BDA3A3A3A3A3A3D0E022C0E0C0F014
:1015100088F0E4936670080874019366187000A858
:10152000F0A3A3700BD0F0D0E0D0E0D0E00214BD67
:10153000A3A3D0F0D0E022FF74F6121250EAFEEB23
:10154000FF8C0A8D0BEE2434F8E43FF9E8FCE9FD4A
:10155000EE243512184BFAEE243712184BF8850A90
:10156000F0A4C885F00C850BF0A4250CF9EA28F846
:10157000E439F97A257B001210E9EA8C828D83F038
:10158000FA131313541FF8EE28F8E43FF9E8245D2A
:10159000F582E439F583E0C0E074075AF8D0E0B88A
:1015A00000028004C313D8FCA2E0EE50082434F5F6
:1015B00082E43F8018243612184BF5F0EA84A8F034
:1015C000EE28F8E43FF9E82438F582E439F583E0C1
:1015D000F97F030212FC74F7121250EAFEEBFFEEE1
:1015E000243412184BC0E0EE2435F582E43FF58335
:1015F000D0E0F08E828F83A3A3A3A3A3A3A3C08272
:10160000C0838E828F83A3A3A3A3A3E0F8A3E0F9F2
:10161000D083D082E0C398F50AA3E099F50BEE24BD
:101620007F12184B6401703EEE2480F582E43FF592
:1016300083C082C0838E828F83A3A3A3A3A3E0244D
:101640000108A3E03400F9D083D082E0687003A3DE
:10165000E06970127CD37D04122BA5EE247FF58205
:10166000E43FF583E4F0AC0AAD0BEEFAEFFB1215A4
:1016700038E9F912229A7F020212FCC082C08385E7
:101680001A82851B83E0F8A3E0F9C3EA9CEB9D5026
:1016900010C3EC98ED99401BC3EA98EB9950148065
:1016A0000EC3EA98EB994007C3EC98ED9940047992
:1016B0000180027900D083D08222EAC39CFAEB9D9C
:1016C000FB2274EF121250900398E064086005E06A
:1016D0006407702A9061C8E060249003C6E0F4605B
:1016E0001DE0F875F00BA4C8AAF02AF974C828FE0A
:1016F000740339FF8E828F83A3A3A3E070030217C4
:10170000D0906060E0C0E0EE2468F582E43FF583AD
:10171000D0E0F0750E43750F05750A00750B00E5F6
:10172000D914F50CE5D95403F51060127403651053
:101730006043E50C600AEE246712184B7002807556
:1017400090053EE06401601F12184860047A04802E
:10175000027A00E50CC39AFA95E0FB122A4F8A0A36
:101760008B0BEA450B7005122DEB80641218487044
:10177000048A0E8B0FE50C6012850E82850F83F5AF
:101780000DE5D9F0A3150DE50D70F612184860446B
:1017900074FC250CF50C780E1213F7AC0CA910EEA6
:1017A000FAEFFB122C5F740212118AE97026AA0A62
:1017B000AB0B123427793D8E828F83A3A3A3A3E0C2
:1017C000FA7B001228B1EEFAEFFB122BC9122C7132
:1017D0007900806F740365106051850C12751300D9
:1017E00078121213F7AC0EAD0FAA0AAB0B122C2312
:1017F000740212118AEE246812184B64807004740B
:101800007F8001E0F50E780E1213FBE510F50E78DF
:101810000E1213FBA90CAC0AAD0B9003C6E0FA7BC9
:1018200000122887740212118A8013900398E064D2
:1018300008600BAC0EAD0FEEFAEFFB122CE9122D87
:10184000F779017F0A0212FCEE2483F582E43FF56A
:1018500083E02274F212125074FC121174EAFEEB4F
:10186000FF890BA2AFE433F50AC2AF02191DE06095
:101870001B780E1213F7AC0DA910EEFAEFFB122C29
:1018800059740212118A7404250DF50D7401250D89
:10189000F5D98510D9E50D6018F50C850E82850FF8
:1018A00083E0F5D9A385820E85830F150CE50C70B6
:1018B000EA75E195EE2463F8E43FF97A007B00A233
:1018C000AFE433F50DC2AF88828983E0FCA3E0FD6D
:1018D000EC4D603A88828983E0FAA3E0FB8A828B30
:1018E00083E0FCA3E0FD88828983ECF0A3EDF08A1D
:1018F000828B83E4F0A3F088828983E0FCA3E0FD7F
:10190000EC4D700A88828983A3A3E4F0A3F0E50D6F
:10191000A2E092AF1234279004DAE004F0EE2463E0
:1019200012184BF8A3E0F9E8496064EE246312183A
:101930004B2402F8A3E03400F988828983E58224ED
:1019400002F50EE43583F50FE0F50DA3E0F510EE9A
:10195000246212184B640170369061D0E0F81218BE
:101960004860047C0480027C007480C398FA95E08F
:10197000FBE50D2CF8E43400F9E82402F8500109E5
:10198000C3EA98EB99A2D265D033400302186E9057
:1019900004DAE0604D9004DBE0F89004DAE0C398EC
:1019A000500C7402650B703A9004DCE060348E8257
:1019B0008F83A3A3A3A3E0851A82851B831219F248
:1019C00074021211C0E81219F29004D9E028F074E0
:1019D000021211DAAA1AAB1B79011228DB9004DA81
:1019E000E4F0E50AA2E092AF740412118A7F0702C4
:1019F00012FCF0A3E4F09004DAE0F8228521878558
:101A000022C622C0E074EB12133CA2AFE433F50A05
:101A1000C2AF759B00906182E0A2E05030E591A2D8
:101A2000E0502A7591FE740165217021121B9612F7
:101A30002D37121B8412140A122044740412118AC6
:101A4000E9640170057901122D7F1216C29061823E
:101A5000E0A2E5505DE591A2E550577591DF900356
:101A600098E064076005E06408702F121B9674010B
:101A70006521703E122D37121B8412140A12204465
:101A8000740412118AE9640170057901122D7F79BD
:101A900001EEFAEFFB1218538018E0640D701390FA
:101AA00003BAE004F064287002E4F07A00E0F9126E
:101AB0002DFD906182E0A2E64003021B59E591A250
:101AC000E64003021B597591BF900398E0640570CE
:101AD00008122D1F122D2B8003122D2575210012A7
:101AE0002D8BE9900399F07900122D7F122B157A36
:101AF000017B00900397E0F91233F7907803E064DC
:101B0000427056900542E014F0704EC2AF121B10A6
:101B100000782AD0E0F618D0E0F6E59F5407F87078
:101B200005750FFF8003750F7FC4C0E07829E6F5C7
:101B30000C08E6550FF50D740B780C121152D0E01D
:101B4000250CF8906270E0A2E740F8E8C333906299
:101B500072F0906270E0D2E0F0906181E0A2E35018
:101B600009E5E9A2E3500375E9F7A3E0A2E750090C
:101B7000E591A2E7500375917FE50AA2E092AF7F5D
:101B80000802139B8E828F83E0F8A3E0C82416F529
:101B900082E438F583229003C6E0F875F00BA4C800
:101BA000AAF02AF974C828FE740339FF22C0E0C0E5
:101BB000D0C082C083906183E0A2E05009E5BFA25B
:101BC000E0500375BFFEE0A2E15009E5BFA2E1507D
:101BD0000375BFFDE0A2E25009E5BFA2E250037524
:101BE000BFFBE0A2E35009E5BFA2E3500375BFF7D6
:101BF000E0A2E45009E5BFA2E4500375BFEFE0A204
:101C0000E55009E5BFA2E5500375BFDFE0A2E6504D
:101C100009E5BFA2E6500375BFBFD083D082D0D004
:101C2000D0E032C0E074F212133CE5A7A2E6500FF8
:101C3000E5A1A2E6500953A7BF75A1BF121C77E525
:101C4000A7A2E5500CE5A1A2E5500653A7DF75A1B8
:101C5000DFE5A7A2E15009E5A1A2E1500375A1FDCE
:101C6000E5A7A2E2500CE5A1A2E2500653A7FB753E
:101C7000A1FB7F0102139B74F71212507521019092
:101C80000398E064067015122C958A828B83A3A3B7
:101C9000A3A3A3A3E0FAA3E0FB122D0DA2AFE433AC
:101CA000FED2AF90039EE0640170187A207B009012
:101CB0000397E0F91235117A207B00900397E0F941
:101CC0001233FD906182E0D2E6F090053FE06021A2
:101CD00085C622801690039DE064017008E5C65415
:101CE000F84405F5C653BEFC1219FC740165216069
:101CF000E4EEA2E092AF7F020212FCFF8E238F245B
:101D0000858228858327851A82851B83E0CEA3E000
:101D1000CF852882852783EBC9EAC8EDCBECCA754D
:101D2000F010C3E833C8E933C9EA33CAEB33CBC395
:101D3000EA9EF526EB9FF525B35004AB25AA26ECC9
:101D400033CCED33CDD5F0DAAE23AF242274E912D3
:101D5000125074FA121174EAFEEBFF8C0C8D0D1206
:101D60002D43EAF8EBF9ECFAEDFB8E828F8312102B
:101D70006E900398E024F7C394055006751601028F
:101D80001EB4122C958A0A8B0BEA450B7003021EB7
:101D9000B1EEFCEFFDAA1AAB1B122D3D850A828520
:101DA0000B83A3A3780E12102C9083AF780E121021
:101DB00006851A82851B83781212102C9083AF78C7
:101DC00012121006780E7912120E3F501F780E79FB
:101DD00012120FDE9083C7780E120E5F4047850EF9
:101DE00016850F1785101885111980459083C785B2
:101DF00012168513178514188515197816790E1281
:101E00000FDE7816120E5F501C75160075170075E0
:101E1000180075190178167912120FDE7816790EEE
:101E2000120FA5800C75160175170075180075192D
:101E30000074097816120F869083FB780E12102C0E
:101E40007816790E120EFE850A82850B83A3A3A352
:101E5000A3A3A3121ED21210E9880E890FE4F51075
:101E6000F5117816790E120FA574041211C0121E06
:101E7000D21210E9E8FA8A0EE4F50F7816790E12FC
:101E80000E3F50077816790E120FDE900398E0642B
:101E900008600AE064066005E0640570209083BF76
:101EA0007816120E5F50169083BB7816120FB8800A
:101EB0000C751600751700751800751900850C82D1
:101EC000850D83781612103B740612118A7F10025A
:101ED00012FCE0F8A3E0F97AD07B032274F7121227
:101EE00050122D5590053DE064017010906245E45C
:101EF000F0A3F053F4F343FE0C5390F3122CFBE5E4
:101F0000C654B84441F5C6E59E5447644170F89004
:101F10006185740FF090053BE0F47002A3E0604E21
:101F200090053CE0600814601B14602E8040750A28
:101F300001750B0090053BE0780A121161E50AF487
:101F40005280802A750A01750B0090053BE0780AE3
:101F5000121161E50AF452908014750A01750B00A4
:101F600090053BE0780A121161E50AF452A079006D
:101F70007F020212FC74F7121250E9FEEAFF122DE2
:101F80005574016E700C7A807B00900397E0F91213
:101F900033F7903608E493F46008E493F9122B09C0
:101FA000800953C6B8E59E544770FA122D0190057A
:101FB0003DE064017003122B2790053BE0F47002B2
:101FC000A3E0604B90053CE0600814601A14602C9C
:101FD000803D750A01750B0090053BE0780A1211EF
:101FE00061E50A42808028750A01750B0090053B67
:101FF000E0780A121161E50A42908013750A0175B2
:102000000B0090053BE0780A121161E50A42A0122C
:102010002C958A0A8B0BA80AA90BE8496014E5E104
:1020200070FCE82414F582E439F583E0F46003E001
:10203000F5E174016F700A7A01900397E0F91234A8
:1020400081021F7074F11212508A0A8B0B8C0C8D56
:102050000D9083AF780A121006740F1211C0780E1B
:1020600012102C9083AF780E121006780A790E1297
:102070000E3F9083C75010780A790E120FDE780A4F
:10208000120E5F4014800E780E790A120FDE780E61
:10209000120E5F50047901800279007F080212FC61
:1020A00074ED1212508A0A8B0B8C0C8D0D9083AF3D
:1020B000780A12100674131211C0780E12102C90A8
:1020C00083AF780E121006780E790A120E3F401177
:1020D000780A790E120FDEAA0AAB0BAC0CAD0D809C
:1020E00022751200751300751400751501781279A8
:1020F0000E120FDE7812790A120FA5AA12AB13ACDA
:1021000014AD157F0C0212FC9083AF780A12102CCC
:102110008A828B83780A1210197F040212FC74F5EC
:102120001212508C828D83780A12102C8A828B8333
:10213000780A120FF2122176C3E09CF0A3E09D1200
:10214000216840229083A7780A12102C8A828B8300
:10215000780A120FCB8A828B83A3A3A3A3E0242047
:10216000F0A3E0344EF080A0F088828983C3E0942D
:1021700020A3E0944E22EA2404F8E43BF98C828DFB
:1021800083A3A3A3A3E0FCA3E0FD88828983227438
:10219000F5121250E9FE9004F5E0FAA3E0FBEE29F7
:1021A000F8E433F974D628F582748239F583E02A8D
:1021B000F50AA3E03BF50B780A1213F790839F1200
:1021C000104A121CFC740212118A8A0A8B0B8C0CA6
:1021D0008D0D7410780A120F6DAA0AAB0B7F0402E2
:1021E00012FC74F11212508A0E8B0F8C108D117428
:1021F000111211C012140E74111211C0E02401F555
:102200000AA3E03400F50BE4F50CF50D780E790A1D
:10221000120E7E9083B7780A12102C780E790A126B
:102220000E7EAA0EAB0FAC10AD11121CFC74021284
:10223000118A8B0BEA450B60047A0180027A00EC6C
:102240002AFCE43DFD74131211C0E0F8A3E0F9E8A4
:10225000FEE9FFECF8EDF97A717B021210E9880AC9
:10226000890BE4F50CF50D8E828F83780A12103BF2
:10227000ECF8EDF97A717B021210E98A0A8B0B7483
:1022800005780A1211618E828F83A3A3A3A3E50AA6
:10229000F0A3E50BF07F080212FCC082C083E99036
:1022A0006000F0D083D08222C0E074F212133CA20E
:1022B000AFE433FED2AFE589A2E050031232477596
:1022C0008900C2C5EEA2E092AF7F0102139BC0E07D
:1022D00074F212133CA2AFE433FED2AFE58AA2E659
:1022E0004006E58AA2E75003123247758A00758AD4
:1022F00000C2EB80CFC0E0C0D0E8C0E0E9C0E0A9F8
:10230000A8D2AF758B00C2E8E9A2E7E433F8E9A2EE
:10231000E792AFD0E0F9D0E0F8D0D0D0E032C0E022
:10232000C0D0E8C0E0E9C0E0A9A8D2AFC2C7751C20
:1023300000E9A2E7E433F8E9A2E792AFD0E0F9D0F0
:10234000E0F8D0D0D0E032C2AF02000022120E1569
:10235000CAAA07120E15FCAA07120E1525AB071202
:102360000E15C4AB07120E1505AC07120E15E8AC1E
:1023700007120E15CC8C07120E15FE8C07120E15C7
:10238000278D07120E151E8E07120E15728E07125C
:102390000E15628F07120E15B69807120E15C99802
:1023A00007120E15FA9807120E15349907120E151A
:1023B0008D9907120E15D49907120E151C9A071243
:1023C0000E154B9A07120E157A9A07120E15B19A2E
:1023D00007120E15F89A07120E15119B07120E150B
:1023E000669B07120E157F9B07120E15CD9B0712D9
:1023F0000E15079C07120E1590F605120E1593F791
:1024000005120E15CCF705120E15EFF705120E1575
:1024100001F805120E153FF805120E15BBF805124E
:102420000E1583F905120E15A5F905120E153CFAC5
:1024300005120E158EFA05120E15BFFA05120E15AD
:10244000CCFA05120E1536FB05120E158DFB051282
:102450000E1590FB05120E15C9FB05120E15CCFBCF
:1024600005120E15D6FB05120E152AFC05120E15C7
:102470006BFC05120E159EFC05120E15DBFC0512F9
:102480000E15DDFD05120E1581FE05120E15EAFE74
:1024900005120E1528FF05120E15D59007120E1500
:1024A000FD9007120E152A9107120E156291071260
:1024B0000E15C09107120E150C9207120E1573928D
:1024C00007120E15B39207120E15F09207120E1591
:1024D0001E9307120E15C89307120E15D2930712FA
:1024E0000E15DF9307120E15129407120E151E9487
:1024F00007120E15369407120E15409407120E158A
:1025000066E007120E1574E007120E158CE0071234
:102510000E15A3E007120E151FA905120E15C9A965
:1025200005120E15DCAA05120E1558AB05120E1574
:1025300076AC05120E15B2AC05120E154DAD051296
:102540000E1531AE05120E15FDAE05120E158BB02F
:1025500005120E15FCB005120E15B6B105120E15BA
:10256000A8B205120E15E8B205120E159CB305129D
:102570000E15CEB305120E15C4B505120E1506B60E
:1025800005120E1524B605120E158AB605120E1583
:1025900059B705120E151DB805120E153CBA0512D5
:1025A0000E15F6F804120E15E0F904120E158BFA4A
:1025B00004120E15DCFA04120E158CFB04120E1513
:1025C000FDFB04120E15E2FC04120E1516FD04129A
:1025D0000E150FFE04120E154CFE04120E1528FFE8
:1025E00004120E1567FF04120E1583FF04120E1558
:1025F00025C707120E15A9C707120E15D4C7071253
:102600000E15EEC807120E15CE9407120E15E4949F
:1026100007120E15029507120E15139607120E15C6
:102620001D9607120E15489707120E153F980712B0
:102630000E15AC9807120E1515DD06120E154BDEA1
:1026400006120E1582DE06120E15D9DE06120E15C2
:10265000EEE006120E15698405120E15F5840512BA
:102660000E15598605120E15658605120E15A086E3
:1026700005120E150F8705120E15188805120E1576
:10268000218905120E15E88905120E15458B0512D4
:102690000E15638B05120E15808B05120E152D8CF1
:1026A00005120E15AA8C05120E15D28C05120E15E8
:1026B0009C8F05120E15A18F05120E15BA910512E9
:1026C0000E15089205120E15789205120E15B69287
:1026D00005120E15929305120E15529405120E1541
:1026E0009E9405120E15A19405120E15E59405127F
:1026F0000E152D9505120E156C9505120E158E955D
:1027000005120E15C29505120E15259605120E1509
:1027100028E806120E1536E806120E1589E806128C
:102720000E15A8E806120E15EDE806120E1531EA90
:1027300006120E15CCEA06120E1510EB06120E1537
:102740003AEB06120E15A9EB06120E15EFEB061268
:102750000E1566EC06120E1517ED06120E1500B0DA
:1027600004120E1510B004120E15B1B004120E159D
:102770000DB104120E15CAB104120E15E6B2041200
:102780000E1518B304120E1547B304120E15F4B447
:1027900004120E156BB704120E15DBB904120E15D8
:1027A000CDBA04120E15C6BB04120E15CDBD04120F
:1027B0000E15C1C004120E15F0C104120E15F4C39B
:1027C00004120E1504C504120E1593C604120E153C
:1027D00084C704120E15D2C704120E1541C8041284
:1027E0000E1565C804120E15B6C804120E1557CD85
:1027F00004120E1558CE04120E15B9CE04120E1581
:10280000E4CE04120E15AACF04120E1592880712F8
:102810000E159C8807120E15E18807120E15F58813
:1028200007120E15858907120E15BE8907120E159F
:10283000F98907120E15228A07120E15768A0712D9
:102840000E158B8A07120E15AD8A07120E15C28A55
:1028500007120E15D68A07120E15EB8A07120E15EF
:10286000258B07120E15518B07120E159A8B071226
:102870000E150C8C07120E154F8C07120E15798C45
:1028800007120E15A48C07120E158EDB07120E15FB
:10289000CEB106120E15B1B206120E152CB30612E9
:1028A0000E1567B306120E15B8B406120E1546B50E
:1028B00006120E15D8B706120E158AB806120E1596
:1028C00096B906120E1509BB06120E1562BB06124A
:1028D0000E15008007120E15438007120E15C780D3
:1028E00007120E159E8307120E1561BE07120E15F4
:1028F00013BF07120E150FC007120E154EC0071298
:102900000E15A8C007120E15F3CA07120E1556CBE6
:1029100007120E15F3CB07120E1528CC07120E1551
:1029200058CC07120E1593CC07120E15B3CC071214
:102930000E1529ED06120E15B5ED06120E1574EEE4
:1029400006120E158CEF06120E15A6F106120E15C4
:102950003A9B06120E155F9B06120E152C9C061252
:102960000E15009D06120E156D9D06120E15AD9DDD
:1029700006120E15499E06120E157D9F06120E15A3
:1029800058A006120E15B7A006120E1543A1061286
:102990000E15B1A106120E153DA206120E1583A248
:1029A00006120E15F5A206120E1587A306120E15B5
:1029B00028A406120E1548A406120E1590A406129D
:1029C0000E15D9A406120E15F5A406120E151BA598
:1029D00006120E1595A506120E15A3A506120E15C4
:1029E00032A606120E159BA606120E15DDF1061272
:1029F0000E1562F206120E15A4F206120E1588F3D9
:102A000006120E15F5F306120E1539F406120E1500
:102A10007DF406120E15AAF406120E15D2F4061253
:102A20000E150AF506120E1548F506120E156FF56D
:102A300006120E15E9F506120E1533F606120E15DE
:102A400049BA05120E15E8BB05120E1520BE051277
:102A50000E1574BE05120E159FBE05120E157BBF16
:102A600005120E15ABBF05120E15DABF05120E15B5
:102A7000EDBF05120E152EC005120E155BC0051216
:102A80000E15A9C005120E15E5C005120E152AC1B6
:102A900005120E1577C105120E15F1C105120E159E
:102AA00032C405120E151CC605120E1558C60512A5
:102AB0000E15E7C705120E152CC805120E159FC876
:102AC00005120E15F4C805120E15F9C805120E15DB
:102AD00083C905120E15A2CA05120E15B3CA051236
:102AE0000E150BBC06120E1584BC06120E153EC246
:102AF00006120E1549C306120E15F2C406120E1563
:102B000080C506120E15E3E404120E1564E50412E6
:102B10000E1591E504120E15DAE504120E15DBE62A
:102B200004120E1534E704120E15B0E804120E1547
:102B300032E904120E154DE904120E15BEE9041215
:102B40000E157BEA04120E153EEB04120E15CCEBAB
:102B500004120E1583EC04120E1596EC04120E15D9
:102B60002FED04120E15C6ED04120E15EDED041234
:102B70000E1556EE04120E15A0EE04120E15EEEE12
:102B800004120E1593EF04120E1531F004120E15F7
:102B9000BEF004120E152FF104120E1576F1041278
:102BA0000E15CEF104120E1500F204120E15BAF233
:102BB00004120E15C1F304120E150AF404120E15B8
:102BC00027F404120E1546F404120E1579F50412BA
:102BD0000E1530F604120E1555F604120E156AF68F
:102BE00004120E15DAF604120E151BF704120E1558
:102BF0003FF804120E15C0F804120E150C36001220
:102C00000E15573600120E15633600120E153737A3
:102C100000120E154E3700120E158B3700120E15CE
:102C2000BC3700120E15F43700120E154A38001288
:102C30000E15603800120E159C3800120E15AF38B4
:102C400000120E15D63800120E150A3900120E1594
:102C5000303A00120E157A3B00120E15763C001227
:102C60000E15933D00120E15FCFF04120E15D6CA68
:102C700005120E1511CB05120E1563CE05120E1599
:102C8000BFCF05120E157ED005120E15E5D3051225
:102C90000E15CFD405120E151BD505120E1535D500
:102CA00005120E1572D505120E157DD505120E15DD
:102CB000BCD505120E15C5D505120E156FD6051219
:102CC0000E1546D705120E159AD705120E15F7D711
:102CD00005120E1569D805120E15FD9605120E1572
:102CE0005C9A05120E15629A05120E1593A1051233
:102CF0000E159AA505120E156F9C07120E15059D4F
:102D000007120E151B9D07120E15749D07120E1546
:102D1000B89D07120E15F29D07120E158A9E071216
:102D20000E15F99E07120E15029F07120E150E9F23
:102D300007120E15289F07120E15529F07120E1527
:102D4000679F07120E15C99F07120E15F09F0712F5
:102D50000E15508407120E155D8407120E15778428
:102D600007120E15AA8407120E15E88407120E1515
:102D70004D8507120E15628507120E156D85071217
:102D80000E157A8507120E15918507120E159F856F
:102D900007120E15AA8507120E15B68507120E1515
:102DA000C58507120E15D08507120E15F38507127B
:102DB0000E15978607120E15A78607120E15C186E7
:102DC00007120E15DE8607120E15F98607120E156C
:102DD0001E8707120E15298707120E153E87071248
:102DE0000E15528707120E15B38707120E15B987F5
:102DF00007120E15BF8707120E15C58707120E158D
:102E0000DD8707120E15108807120E15B78D0612F2
:102E10000E154E8E06120E15E68E06120E15D68F64
:102E200006120E150D9006120E15209006120E15A4
:102E30008E9006120E15299206120E155092061249
:102E40000E15F29206120E15279306120E153893E0
:102E500006120E15B19306120E15D29306120E1518
:102E6000EA9306120E15429506120E154B9706129E
:102E70000E159B9906120E159E9A06120E15ED9AC6
:102E800006120E15B8D905120E15B5DA05120E1573
:102E9000A0DB05120E15AADB05120E15CCDB051200
:102EA0000E15D8DB05120E152ADD05120E1559DD9B
:102EB00005120E1589DE05120E15CBDE05120E1554
:102EC000F7DF05120E15CDE005120E151FE10512F4
:102ED0000E157EE105120E15B5E105120E15F0E195
:102EE00005120E158BE505120E15A4E505120E153B
:102EF00026E605120E1534E605120E1589E60512B2
:102F00000E1597E605120E1504E705120E1576E765
:102F100005120E15BCE705120E15BEA606120E15FB
:102F2000E0A606120E15CAA806120E156FAC061200
:102F30000E15B2AD06120E158CAE06120E15C1CCD2
:102F400007120E15E6CC07120E1557CD07120E15F7
:102F5000AAC506120E15B3C506120E15BCC506127B
:102F60000E15EDC606120E150CC906120E1542C935
:102F700006120E157CC906120E15B2C906120E15E0
:102F8000ECC906120E1520CA06120E154CCA0612FE
:102F90000E1595CA06120E15CFCA06120E1517CBBE
:102FA00006120E156DCB06120E15A2CB06120E15CB
:102FB000FDCB06120E1537CC06120E1588CC061264
:102FC0000E15BECC06120E15F8CC06120E1526CD27
:102FD00006120E1549CD06120E154EFF05120E15DE
:102FE0007AFF05120E15D5FF05120E15DFFF05122B
:102FF0000E15EFFF05120E1571B507120E15A3B5CC
:1030000007120E15C0B507120E156EB607120E1573
:10301000BAB607120E1574B707120E15ABB8071221
:103020000E15D2B807120E15FCB807120E15D4E211
:1030300007120E1516D004120E157ED204120E15AC
:1030400031D404120E158ED404120E158BD5041231
:103050000E151BD604120E15A0D604120E15C5D6D9
:1030600004120E15BDD904120E1533DA04120E1512
:1030700024DB04120E155EDB04120E159EDB041217
:103080000E1544DD04120E1599DD04120E15E6DD51
:1030900004120E1554DE04120E157BDE04120E15FA
:1030A00095DE04120E15ABDF04120E15BBDF041201
:1030B0000E1547E104120E1569E104120E159FE189
:1030C00004120E154DE304120E158CE304120E15B6
:1030D000BEE404120E1501FB06120E1559FB061272
:1030E0000E15A1FC06120E1510FD06120E15BFFDE1
:1030F00006120E15DEFD06120E1532FE06120E1514
:1031000070FE06120E153DA707120E156FA70712C7
:103110000E1598A707120E1537A807120E1578A8D6
:1031200007120E155BA907120E157BD307120E1599
:103130008BD307120E15C4D307120E1588D40712AD
:103140000E1567D607120E159CD607120E15B9D6A6
:1031500007120E1535D707120E1555D707120E1583
:10316000E4FF04120E15F0FF04120E1582E307129D
:103170000E158DDF07120E159DDF07120E15ACDF41
:1031800007120E1560E007120E15A2DC07120E15CD
:1031900026DD07120E158CDD07120E151DC907124C
:1031A0000E1531C907120E156BC907120E15C0C9CD
:1031B00007120E155BCA07120E157ECA07120E15EE
:1031C0008ACA07120E15BDCA07120E150FD90712AB
:1031D0000E154AD907120E15B5D907120E15E9D9E1
:1031E00007120E151FDA07120E1547DA07120E1511
:1031F000BFD707120E15F3D707120E151CD80712EA
:103200000E1593D807120E1502D907120E1505C315
:1032100007120E151FC307120E1547C307120E150E
:103220006EC307120E1509C407120E1549C4071202
:103230000E1502D507120E152AD507120E159CD5AC
:1032400007120E15B7D507120E1511D607120E1557
:103250005BD607120E155ED607120E151EA00712BA
:103260000E152CA007120E15A5A007120E1572A19F
:1032700007120E152BA307120E1570A307120E15B9
:103280009DA307120E152BD007120E1531D0071271
:103290000E1577D007120E15ABD007120E15C3D03E
:1032A00007120E1545D107120E155EDA07120E151C
:1032B000A9DA07120E1501DB07120E1565DB0712DE
:1032C0000E15F83F00120E15D3C007120E155BC283
:1032D00007120E15BCC207120E1502C307120E15F7
:1032E000B0A307120E15E2A307120E150BA40712C6
:1032F0000E15AAA407120E15EBA407120E15CEA5E3
:1033000007120E1557AE07120E1589AE07120E15CD
:10331000B2AE07120E1551AF07120E1592AF07127B
:103320000E1575B007120E15E4B107120E1516B280
:1033300007120E153FB207120E15DEB207120E1558
:103340001FB307120E1502B407120E15BDD50612D3
:103350000E1546D606120E155DD606120E1525D789
:1033600006120E15FFD706120E1551D906120E15AC
:1033700026DA06120E1587DB06120E150DDC061274
:103380000E159CDE07120E15C5DE07120E15EEDEB9
:1033900007120E1506DF07120E1548DF07120E156D
:1033A000B5E206120E15BFE206120E15FFE2061276
:1033B0000E1548E306120E1582E306120E15D8E329
:1033C00006120E15F7E306120E1500E406120E158E
:1033D00051E406120E157AE406120E158FE4061259
:1033E0000E15FFE406120E158DE506120E15D1E539
:1033F00006120E15F9E506120E1578E606120E15E0
:10340000BBE606120E15F8E606120E150AE70612BE
:103410000E1529E706120E1532E706120E15FCE707
:1034200006120E15DDD107120E152ED207120E153B
:10343000B7D207120E151DD307120E159DBB07122A
:103440000E15C7BB07120E15C1BC07120E15F0BC36
:1034500007120E1576BD07120E15A5DD07120E1503
:1034600023C507120E1559C507120E1592C507126E
:103470000E15EBC607120E1533E107120E1549E1C2
:1034800007120E1553E107120E15A9E107120E15CA
:1034900075E207120E15D7CD06120E1594CE061240
:1034A0000E15CFCE06120E15F7CE06120E1559CFF9
:1034B00006120E15A5CF06120E1505D006120E1512
:1034C00096D006120E1592D106120E151FD30612B3
:1034D0000E15A2D306120E1506D406120E151DD413
:1034E00006120E1513D506120E155FD506120E150F
:1034F00073F606120E1588F606120E1538F7061228
:103500000E1578F706120E1591F706120E15C4F770
:1035100006120E1511F806120E1545F806120E15B4
:1035200087F806120E158EFA06120E15F4FA061218
:103530000E1545E805120E15FCEB05120E158EED65
:1035400005120E15DEED05120E15F5ED05120E1520
:1035500014EE05120E1592EE05120E1524F005124A
:103560000E1508F105120E1519F505120E15EDF5DB
:1035700005120E15008006120E15248206120E1575
:10358000C78506120E15EC8506120E15C2860612A8
:103590000E157F8806120E15118906120E157389F5
:1035A00006120E15EB8906120E15608A06120E150C
:1035B000CF8A06120E153A8B06120E15C68B06120E
:1035C0000E151B8C06120E15C18C06120E1577CE29
:1035D00007120E15DECE07120E1543CF07120E1579
:1035E000CACF07120E15DAE107120E1539E20712DB
:1035F0000E151EE307120E15CC3F00120E1564E3E4
:1036000007FFFFFFFFFFFFFFFFFFFFFF74F7121130
:10361000E474FF29F804C313FE6032EA28FCE43B9B
:10362000FDEAF8EBF9EEFF88828983E0FA8C828D5F
:1036300083E088828983F0EA8C828D83123F68A8B8
:1036400082A983EC24FFED34FF1CFDDFDA80031236
:103650002C357F010212B6C082C08390618FE0F9E1
:1036600002378474F41211E4890AE97005791202B0
:10367000372590619AE0643F70047E0180027E00ED
:10368000906186E0FF53B4F390619A743FF0A374A5
:103690005AF09061A0E4F0906184F0E5E170FC756F
:1036A000E102750B009061BFE07009050BE50BC3EB
:1036B00094FA40F174FA650B6029750B00E0F50C83
:1036C000E0F50DF9E50CF849600A740368700374BD
:1036D00080697009050BE50BC394FA40E074FA6544
:1036E0000B7004791F803EEAF8EBF9850A0B9061B4
:1036F000BF12372A12372AE5BC88828983F0A3A833
:1037000082A983150BE50B70E5E5E170FC75E1011D
:10371000850DBC850CBC122B03EEF9122B1BEF9010
:103720006186F079007F040212B6E0F5BDE0F5BDD8
:10373000E0F5BDE0F5BD22C082C083786379051253
:103740003765646B7003E9640570F4023784C082E6
:10375000C083786B7905123765646F7003E964057F
:1037600070F402378488828983E08A828B83F088B0
:10377000828983A3A882A9838A828B83A3AA82AB2E
:1037800083E822F0D083D082020E1274F71211E483
:10379000ECFEEDFF122C41750A10780A1213FBEEB5
:1037A000FCEFFD7910740A1211C0E0FAA3E0FB12DD
:1037B0002C2F740112118A790002364FC082C08307
:1037C0009008547470F0A374B1F0A3E0541FF0900B
:1037D0000858741DF0A37442F0A37470F0A374B27F
:1037E000F090085EE0541FF0900860741EF0A3741F
:1037F00012023783C082C083EA6C7002EB6D6036C0
:10380000123839F0ED90084AF0ECA3F0EBA3F0EA9F
:10381000A3F0851A82851B83E0F8A3E0F9E89008FD
:103820004FF0E990084EF075D11E75D60175D7019D
:10383000E5D1A2E050FA02378490084EE0541FF020
:103840009008507420F0A3745222C082C083EB9081
:103850000852F0EAA3F0E9900857123B630237845C
:1038600074F71211E4ED900852F0ECA3F074091211
:1038700011C0E0900857123B71EB90085CF0EAA38E
:10388000F0E990085FF090085EE054E0F075D11D1B
:1038900075D11B75D60275D604023652E5B354F8BD
:1038A00049F5B343B301E5B3A2E350FA020E12C0E7
:1038B00082C083E5B3548F4450F5B37480900852AE
:1038C000F074301238FB4406F5B343B301E5B3A2FC
:1038D000E350FA023784C082C083E5B3548F44407A
:1038E000F5B3EB900852F0EA1238FB4404F5B34309
:1038F000B301E5B3A2E350FA023784A3F09008576E
:103900007410123B67E5B354F82274F21211E47498
:10391000E01211748A0A8B0B890DECFEEDFF740F17
:10392000550D6004780180027800E9C4540F28F531
:103930000C750E10750F00780E1213F77C307D8019
:1039400074121211D2122C23740212118A741012E2
:1039500011C0123A201213F7AC0AAD0B74131211F6
:10396000C0AA82AB83122C23740212118A123B4527
:10397000E91211D2122C297906122C35750A107809
:103980000A1213FB742F1211C0123C6C1211D212C6
:103990002C2F740112118A7900122C35741F121108
:1039A000C0123B507910E91211D2122C297906125B
:1039B0002C35E50CC454F0F9F50A780A1213FBEE25
:1039C000FCEFFDEEFAEFFB122C2F740112118AE5C9
:1039D0000C6011FA53B3F843B3011AE5B3A2E350F4
:1039E000FAEA70F0A80DEE28F8E43FF9851A82850E
:1039F0001B83E088828983F074011211C0123A2976
:103A0000F074021211C0123A29A3F074031211C00B
:103A1000123A29A3A3F0742012118A7F060212B66B
:103A20007401F0750E0D780E22E088828983A3223E
:103A300074F21211E474E0121174EAFEEBFF890BC8
:103A40008C0C8D0D740F550B60047801800278008A
:103A5000E9C4540F28F50A750E10750F00780E1280
:103A600013F77C307D8074021211D2122C23740261
:103A700012118A851A82851B83123A201213F7EEDF
:103A8000FCEFFD74031211C0AA82AB83122C2374C5
:103A90000212118A123B45AA1AAB1B122C29790675
:103AA000122C35742E1211C0E0FEA3E0FF750E102B
:103AB000780E1213FBEEFCEFFD791074111211D287
:103AC000122C2F740112118A7900122C35741012E5
:103AD00011C0E08E828F83F074111211C0123B5C12
:103AE000F074121211C0123B5CA3F074131211C0D7
:103AF000123B5CA3A3F0740F1211C0123B50123C96
:103B00005E7410123B637906122C35E50AC454F03A
:103B1000F9F50E780E1213FBAC0CAD0DAA0CAB0D23
:103B2000122C2F740112118AE50A6016F8E5B354BD
:103B3000F84402F5B343B30118E5B3A2E350FAE841
:103B400070EB023A16E5B3548F4410F5B3791022A6
:103B50007401F0E5B3548F4430F5B322E08E828FC8
:103B600083A322123B6722123B7175D11D75D602C9
:103B700022F0900856E054E0F02274F21211E4743E
:103B8000E0121174EAFEEBFF890A8C0B740F550BDF
:103B90006004780180027800ECC4540F28F50C1200
:103BA0002C3B750E20750F00780E1213F77C307DBC
:103BB0008074021211D2122C23740212118A851AF7
:103BC00082851B837449123A221213F7EEFCEFFD33
:103BD00074031211C0AA82AB83122C237402121137
:103BE0008A740F1211C0E50BF074111211C0740128
:103BF000F074121211C0E50AF0123C5E7420123B00
:103C0000637900122C357900122C35E50CC454F080
:103C1000F50D780D1213FB742F1211C0123C6C12AB
:103C200011D2122C2F740112118AE50C6024AAB350
:103C3000150CE50C6004785080027800748F5A48A7
:103C4000F5B353B3F843B301E5B3A2E350FAE50C7F
:103C500070DC74301211C0E0F8A3E00239EBE51B10
:103C6000900852F0E51AA3F090085722E0FCA3E078
:103C7000FD791074012274F01211E474F8121174B9
:103C8000EAFEEBFF890B8C0AEE24B3FAE43FFB1249
:103C90002C41123F7D7026123D83121062851A82DC
:103CA000851B8312106E123F921211C0123FB61282
:103CB00011C0123FC41211C0123FA18029123F6FE0
:103CC0007025123D83121062851A82851B831210A3
:103CD0006E123F921211C0123FB61211C0123FC4B1
:103CE0001211C0123F8DF0E50AC39411A80A5004C6
:103CF000741080027420C398F50C95E0F50D7418CB
:103D00001211C0E0F50EA3E0F50F780C1213F77C4A
:103D1000307D80A80AE50E28FAE4350FFB122C232B
:103D2000740212118AEE24A6F50CE43FF50D74041A
:103D30001211CA8810891178101213F7780E121315
:103D4000F7AC0AA90BAA0CAB0D122C537404121178
:103D50008A78101213F7AC0EAD0FA90AAA0CAB0D9E
:103D6000122C47740212118A9083EF780E12102CD5
:103D7000EE123D8A780E120FCB740812118A7F085A
:103D80000212B6123F5B123D8A2224D5F582E43F2F
:103D9000F5832274F01211E474F4121174EAFEEB4C
:103DA000FF890B8C0AEE24B3FAE43FFB122C41127C
:103DB0003F7D7026123F4B121062851A82851B834D
:103DC00012106E123F921211C0123FB61211C012A1
:103DD0003FC41211C0123F8D8029123F6F7025120F
:103DE0003F4B121062851A82851B8312106E123FA0
:103DF000921211C0123FB61211C0123FC41211C06C
:103E0000123FA1F0741C1211C0E0F50CA3E0F50DF7
:103E1000A80AE50C28F8E4350DF988828983E0C00A
:103E2000E074041211C0D0E0123F68E0C0E07405F5
:103E30001211C0D0E0123F68A3E0C0E07406121176
:103E4000C0D0E0123F68A3A3E0C0E074071211C025
:103E5000D0E0F0E50AC39411A80A5004741080025F
:103E60007420C398F50E95E0F50F780E1213F77CC9
:103E7000307D80A80AE50C28FAE4350DFB122C23CE
:103E8000740212118A74041211CA881089117810F0
:103E90001213F7AC0CAD0DA90AEE24A6FAE43FFB11
:103EA000122C4D740212118A850E10850F11781094
:103EB0001213F77C307D80A80AE50C28FAE4350D52
:103EC000FB122C23740212118A74081211CA880E74
:103ED000890F780E1213F7780C1213F7AC0AA90B9E
:103EE000EE24A6FAE43FFB122C53740412118A74D8
:103EF000041211C0E0F874081211C0E06870307448
:103F0000051211C0E0F874091211C0E06870207445
:103F1000061211C0E0F8740A1211C0E06870107443
:103F2000071211C0E0F8740B1211C0E06860047948
:103F30000080139083EF780E12102CEE123F52780F
:103F40000E120FCB7901740C023D7B123F5B123FC6
:103F5000522224D9F582E43FF58322EE24A6F8E428
:103F60003FF9E8FCE9FDEE22F088828983A3228EE6
:103F7000828F83A3E0F5838882E06440228E828F63
:103F800083E0F8A3E0F5838882E0648022123FA7F3
:103F9000E422851A82851B83E08C828D83F0740174
:103FA00022123FA7748022123FBDA3A3F08C828D02
:103FB00083A3A3A3A322123FBDF0740222E08C824C
:103FC0008D83A322123FBDA3F0740322C082C0835D
:103FD000851A82851B83E0F8A3E0F9E84960128A1C
:103FE000828B83ECF0A3E824FF18E934FFF94870D2
:103FF000F2D083D082020E12851C87C2AF020E124D
:020000040002F8
:10300000C082C083E9901739F0D083D082020E12BB
:1030100074F61211E4E990030AF090036AE0F50AED
:10302000750B007402780A121161AA0AAB0B1234F4
:103030006990030B12B9C390030B12BDB0606F907F
:10304000036AE075F003A4FAABF012346990032828
:1030500012B9C390032812BDB0700B90030B12BDC0
:103060008112346F804890032812CD157AFF7BFFC0
:103070001230D37A0080198A0A750B007402780A1C
:1030800012116112C7BD74FF12B1C3E4F0A3F00ABC
:1030900090036AE0F8EAC39840DD7905122773903F
:1030A000030AE0F912265F7AFD7B271229EF02C896
:1030B0006074F41211E48A0A8B0BEB548060479021
:1030C000030AE0F91233DF8A0C8B0DAE0CAF0DEE64
:1030D0004F602A8E828F83E064B0701A122785E9D0
:1030E00060148E828F83A3A3A3A3E0F9EE2405FAD4
:1030F000E43FFB122755EEFAEFFB1233CDAA0AE5A7
:103100000B6480FB80047A007B0002B31374F2121C
:1031100011E474FB121174EAFEEBFFEE4F6045748C
:10312000031211C0EEF0A3EFF0851A82851B83EC29
:10313000F0A3EDF074021211C0E9F0AA1AAB1B1251
:103140002659E9F50A707574131211C0E0F50CA345
:10315000E0F50DE50C450D60638E828F8312B74C50
:10316000EE4F7005750A0280537A067B00123469AF
:103170008A0E8B0FA80EA90FE8497005750A1380F7
:103180003B88828983E412B1C3EEF0A3EF12B2DF71
:10319000E50CF0A3E50DF090030E12B2D890030EEB
:1031A0006017E0FCA3E08003EAFCEBFD8C828D83DA
:1031B00012B2D870F38C828D8312C3D8A90A740519
:1031C00002CF95F0A312CCF7A32274F21211E48976
:1031D0000A890E750F007403780E121161850E0CAA
:1031E000850F0D90030DF090030B12C1E312B2D6C0
:1031F000602E12346F7900801D890E750F007402E5
:10320000780E12116190030B12C67C8882F583A39D
:10321000A3E4F0A3F00990036AE0F8E9C39840D969
:1032200090036AE0FA850CF0A4CAA8F0850DF0A41A
:1032300028FB1234698A0E8B0FAE0EAF0FEE4F7063
:103240000302B2CC90036AE0FC850CF0A4CCA8F099
:10325000850DF0A428FD79001233BB7C0080318DF0
:103260000E750F007403780E1211618A828B83121F
:10327000B2D188828983E4F012B2DEA3A3F0A3F076
:103280000DEDC3950A40D8EE250CFEEF350DFF0C71
:1032900090036AE0F8ECC39850288C0E750F007408
:1032A00002780E12116190030B12B2D1E824025081
:1032B0000109FAE9FB8A828B83EEF0A3EFF07D002F
:1032C00080BFE50A90030DF079008002791302CFE8
:1032D0009812C680F922A3A312BD85EA4B22A3123D
:1032E000CCF7A3A3A32274F41211E47900EAA2E0BC
:1032F000501F750A3E750B83780A1213F779107CFC
:10330000047D007A3B7B1712276D740212118AE943
:10331000F980007F040212B6C082C08390030E12AF
:10332000BDB0601C88828983A3A3E06A7003A3E018
:103330006B8882898370E8A3A3A3A312BD81800454
:103340007A007B0002B00974F21211E474FD1211CC
:1033500074EAFEEBFF851A82851B83E4F0A3F07408
:10336000021211C07401F012BDAD7014122929129D
:10337000346990031112B9C312BDAD700302B4D900
:1033800012BAC3EE2404F50CE43FF50D850C82F56A
:1033900083E024FE603C24FC607424FE607E24FEF6
:1033A000700302B42924FE700302B43624FE7003B5
:1033B00002B44324FE700302B45024FE700302B42E
:1033C0005D24FC700302B47E24FE700302B49602F6
:1033D000B4D2122929900313EAF0A3EB12B4E51238
:1033E00023A1E9600302B4D290031312140E8E825B
:1033F0008F83A3A3A3A3A312CD15850A82850B8374
:1034000012BD8112273D740212118A02B4D2AC1A85
:10341000AD1BEEFAEFFB12278B02B4A1AC1AAD1B69
:10342000EEFAEFFB1227918078AC1AAD1BEEFAEFA3
:10343000FB122797806BAC1AAD1BEEFAEFFB12273D
:103440009D805EAC1AAD1BEEFAEFFB1227A38051F4
:10345000AC1AAD1BEEFAEFFB1227A98044740212DE
:1034600011CA880E890F780E1213F774021211DA3E
:10347000EEFAEFFB1227AF740212118A8023AC1A06
:10348000AD1BEEFAEFFB1227B5E9F87016740212C5
:1034900011C0E4F0803CAC1AAD1BEEFAEFFB122732
:1034A000BBE9F8E8602C8E828F83A3E0641460226D
:1034B000850C82850D83E0900313F0851A82851BAD
:1034C0008312BD8190031412B9C3E8A312B4E512AC
:1034D000239BEEFAEFFB12271374021211C0E0F9DE
:1034E000740302CF95F07C137D03850A82850B83DC
:1034F00012BD852274E81211E474FA121174740476
:103500001211C0ECF0A3EDF08A148B15EA2405F536
:1035100010E43515F511EA2402F512E43515F5131A
:10352000851282F58312BD811224918A0C8B0D7550
:103530000A007C037D0079007A137B031233BBE51C
:10354000102402F518E43511F51974021211CA8815
:103550000E890F780E1213F7851082851183A3A3AD
:10356000A3A3E0F50E750F00780E1213F7E51024F3
:1035700005F50EE43511F50F780E1213F785188254
:1035800085198312C088122677740612118A8A0E52
:103590008B0FE50E450F700302B7158020851A8248
:1035A000851B83E088828983F0050A851A82851B42
:1035B00083A3E0C0E012B756D0E0F0050AE50C2482
:1035C000FBFAE50D34FFFBC3E50A9AE49B400302D6
:1035D000B7157E007F00851482851583A3A3A3A35E
:1035E000E0F50B780B1213FBE4F516F517781612BD
:1035F00013F775161075170378161213F790031149
:1036000012140E74091211C012140EE50C24F9F9EB
:10361000AC0EAD0F85128285138312BD811227E592
:10362000740912118AE9600302B6B6851082851109
:1036300083A3A3A3A3A3A3A3E0F8900310E068705F
:1036400075E0F5168E1778161213F712CD12851045
:1036500082851183A3A3A3A3A3A3A3A312BD811255
:1036600033B5740212118AE9604C90031412BDB094
:10367000703BE4F51678161213F77CFF7DFF79078F
:1036800085128285138312BD8112274F7402121195
:103690008A12BDB6701785108285118312CEAF7461
:1036A000041211C012C77012C0B902B749850E8248
:1036B000850F8312B74CA81AA91B8816891778168C
:1036C0001213F774041211C012140E851882851992
:1036D0008312B9B9122683740412118A8A0E8B0FD1
:1036E000EE4F700302B59212B756EE12B76112C0D8
:1036F0006FEF12B761F8A3E03400F9E50E450F60F3
:103700000302B59D8882898374FFF0050A12B756BB
:1037100074FFF0050AE50A601A1313543F12B9C981
:103720001223ADE9600990031412BD811234277988
:1037300000801685108285118312CEAF7404121199
:10374000C012C77012C3D8790A02C042A3A3A3A3B0
:10375000E0FEA3E0FF22A80A900314E02812C06F45
:1037600022F0050A08900314E0282274E81211E4FC
:1037700074FA12117474021211C012B9C3740412D3
:1037800011C0ECF0A3EDF074021211C0E024051298
:10379000C058E0F50EA3E0F50F74021211C0E0244A
:1037A00002F512A3E03400F513851282F58312BDF1
:1037B00081122491750A00750B00EA24FCFEEB349B
:1037C000FFFF8008050EE50E7002050FA80AC3EE84
:1037D00098EF9400500302B975A81AA91B881089A4
:1037E0001178101213F7851682851783A3A3A3A35C
:1037F00012CD191213F7E5162405F510E43517F567
:103800001178101213F785168285178312B9B71233
:103810002677740612118A8A108B11EA45117003FB
:1038200002B975EA2404F518E43511F519851882F2
:10383000F583E0F50EA3E0F50F851A82851B831250
:10384000CD158A828B83A3A3A3E0F9851282851309
:103850008312BD81122665E9F50B600302B9757408
:10386000021211C012C07FF50B780B1213FBE4F5A6
:1038700014F51578141213F77514107515037814D0
:103880001213F790031112140E74071211C01214C0
:103890000EEEF9AC10AD1185128285138312BD8135
:1038A0001227E5740912118AE9F50B600302B97554
:1038B000E50A703FE4F510F51178101213F77CFF5C
:1038C0007DFF790985128285138312BD8112274FEE
:1038D000740212118A12C0A5700D74041211C01264
:1038E000B9AC791102B9A9900310E0240290031435
:1038F000F08014900314E0FA900310E079002402A1
:103900005001096A497072A80A900310E0FAE82A87
:10391000FAE43400FBEE9AEF9B405A851882851931
:1039200083E0C0E090031512B75BD0E0F0050A8594
:103930001882851983A3E0C0E00890031512B75BD5
:10394000D0E0F0050A90031012CD191213F712CD32
:1039500012A80A12C04C1233A3740212118A9003E7
:1039600010E0250AF50A74FF650E700474FF650FF8
:10397000600302B7C4E50A601F900314E0F5F0E5A8
:103980000A8412B9C91223B3E9600990031512BD64
:103990008112342779008011E50B7003750B0A74CE
:1039A000041211C012B9ACA90B02C04212C1E7E562
:1039B0000EF0A3E50FF022A3A312CFA4AA0EAB0F23
:1039C00022A3A3EAF0A3EBF022900313F07C137D73
:1039D0000385128285138312BD852274EC1211E4D3
:1039E00074FC12117412C4E874021211DA12BD7B55
:1039F00012267D8A0E8B0FEA450F700302BAB312AE
:103A0000BAC3A81AA91B8812891378121213F77C5B
:103A1000FF7DFF790B850A82850B8312BD811227FA
:103A20004F740212118A12BBB9700C850C82850D7D
:103A30008312C0B602BAC08E828F83A3A3A3A3E071
:103A4000F51478141213FBE4F514F5157814121319
:103A5000F775141375150378141213F778121213EF
:103A6000F774091211C012140E74091211C0E0F992
:103A7000AC0EAD0F850A82850B8312BD811227E53E
:103A8000740912118AE9FE70157C137D03850A8280
:103A9000850B8312BD811223B9E970098020741649
:103AA0006E70027E0090031412BD81123427EE70F6
:103AB00004800B7E01850C82850D8312C3D5EEF93F
:103AC00002C3EAEE2402F50AE43FF50B2274EC127D
:103AD00011E474FC121174EAFEEBFF8C108D11EEF0
:103AE0002405F50AE43FF50B74021211DA850A8207
:103AF000850B8312BD8112267D8A0E8B0FEA450F3E
:103B0000700302BBA9EE2402F50CE43FF50DA81AE0
:103B1000A91B8812891378121213F77CFF7DFF7995
:103B20000D12BD7B12274F740212118A12BBB9709D
:103B30000B850A82850B8312C0B6807A8E828F83B2
:103B4000A3A3A3A3E0F51478141213FB850A8285BE
:103B50000B83A3A312140E75141375150378141296
:103B600013F778121213F774091211C012140E749D
:103B7000091211C0E0F912BD771227E5740912117C
:103B80008AE9FE700F7C137D0312BD7B1223BFE90F
:103B90007009802074166E70027E0090031412BDAE
:103BA00081123427EE7004800B7E01850A82850B1A
:103BB0008312C3D5EEF902C3EA12BDC0F512A3E029
:103BC000F513EA45132274E81211E474FE1211741D
:103BD0008A188B198C168D17EA2405F50EE4351911
:103BE000F50FEA2402F510E43519F511851082F578
:103BF0008312BD811224918A0A8B0B750D007C0300
:103C00007D0079007A137B031233BB750C00E50A43
:103C100014F5120424FFF50AE50B34FFF50B80546C
:103C2000900313E0FA900310E0F8EA28F8E4340077
:103C3000F9E50A98E50B99500D900313E0F8E512A9
:103C4000C398900310F0E0F5147515007814121362
:103C5000F712CD12900314E02AFAA3E03400FB120D
:103C600033A3740212118A900310E0F8900313E05A
:103C700028F0050C850E82850F83A3A312C68C4005
:103C80000302BD5C900313E0C3950AE4950B400367
:103C900002BD5CAE0CEE2EFEE433FF12BD9BAC1AEF
:103CA000AD1B12CD2DE439FB12267D8A148B15AC89
:103CB00014AD15EC4D701B750D0112BD8B12C3D9DF
:103CC00090031412B2D86003123427A90D740202B3
:103CD000C044851882851983A3A3A3A3E0F50D78BA
:103CE0000D1213FBE4F514F51578141213F775147F
:103CF0001075150378141213F790031112140E7433
:103D0000071211C012140EA9128510828511831298
:103D1000BD811227E5740912118AE9F50D709B9097
:103D2000031412BDB0600302BC20E4F514F515784D
:103D3000141213F77CFF7DFF790F851082851183A4
:103D400012BD8112274F740212118A12BDB6600390
:103D500002BC2012BD8B12C0BA02BCCD7C137D0305
:103D600085108285118312BD811223C5E96003028B
:103D7000BCC0790002BCCDAC0EAD0F850C82850DA8
:103D80008312BD8522E0FAA3E0FB2212BD9BE0FA7C
:103D9000A3E0F9EA85168285178322850E82850FB6
:103DA00083E02EF8A3E03FF98882898322900311F3
:103DB00012CEB3E8492212BDC0F8A3E0F9E84922C7
:103DC000900314EAF0A3EBF0900314E02274E812DD
:103DD00011E474FA12117474041211C012B9C38C74
:103DE000188D1974041211C0E02405F510A3E034F5
:103DF00000F51174041211C0E0240212C05812BD63
:103E0000811224918A0C8B0D7F007E00A81AA91BB9
:103E1000880A890B780A1213F7851082851183A30B
:103E2000A3A3A3E0F50A8E0B780A1213F7E510247A
:103E300005F50AE43511F50B780A1213F78510829F
:103E4000851183A3A312C088122677740612118AE3
:103E50008A0E8B0F802912C079F00F12C079F00FF3
:103E600090031012C3C41213F712CD12EFF812C050
:103E70004C1233A3740212118A900310E02FFFE555
:103E80000E450F700302BF08851A82851B8312C47A
:103E9000FAA3A3A3E0F985168285178312BD8112C8
:103EA0002665E9FEE50E2404F512E4350FF513EE60
:103EB000705074041211C012C07FF50A780A1213F0
:103EC000FBE4F50AF50B780A1213F7750A10750B67
:103ED00003780A1213F790031112140E74071211CB
:103EE000C012140EE50C24FAF9AC0EAD0F85168243
:103EF00085178312BD811227E5740912118AE9FE24
:103F0000603912C09512C3D8EF700302C02F90031E
:103F100014E0F5F0EF84900313F07C137D03851615
:103F20008285178312BD811223CBE96009900315A6
:103F300012BD81123427790002C0428F0AEF703B14
:103F4000E4F514F51578141213F77CFF7DFF791151
:103F500085168285178312BD8112274F74021211B4
:103F60008A12C0A5700912C09512C0B902C0429051
:103F70000310E02404900314F08035900310E0F85F
:103F8000900314E0FAE82404FCE43400FDEC6A4DEC
:103F9000600302BF0EE50C24FAFAE50D34FFFBE5E1
:103FA0000A28F8E43400F9EA98EB99500302BF0EAE
:103FB000851282851383E0C0E0900315E02FF8A3FB
:103FC000E034008882F583D0E0F00F8512828513FB
:103FD00083A3E0C0E012C066D0E0F00F74021211BB
:103FE000CA880A890B780A1213F774021211C012D8
:103FF000140E85108285118312B9B71226837404BA
:1040000012118A8A0E8B0FEA450F700302BE567496
:10401000021211C0E0C0E012C066D0E0F00F7402DE
:104020001211C0A3E0C0E012C066D0E002BE5EEE96
:1040300070027E0A85108285118312C09B12C3D83C
:10404000EEF9740612118A7F100212B6900315E081
:1040500028FAA3E03400FB22F516A3E03400F5179C
:10406000851682F5832212C06A22900315E02FFA8A
:10407000A3E034008A82F5832212C06A74FF221200
:10408000C1E7A3A3A3A3E02212CFA48510828511C8
:104090008312BD852285128285138312CEB38518C3
:1040A0008285198322900315EAF0A3EBF0900315A3
:1040B00012CEB3E8492212C3DEE8F0A3E9F0791189
:1040C0002274EA1211E474FE1211748A0A8B0B8CAA
:1040D000148D15EA2405FEE4350BFFAC1AAD1B8EDA
:1040E000828F8312BD8112267D8A0E8B0FEE2406ED
:1040F000F510E43FF511EA450F700302C1B9E50A76
:104100002402F50CE4350BF50D8A828B83A3A3A35F
:10411000E0A2E55028851A82851B8312BD811227F3
:10412000D98A128B13EA45136020791212BD778564
:1041300012828513831211E2E9F50E707F851082D9
:10414000851183E0600979528011750E0E806D85AE
:104150000A82850B83A3A3A3A3E0F9E4F50AF50B78
:10416000780A1213F78E828F83A3A3E0F50A780AE8
:104170001213F78E828F83A3A3A312140E8E828F45
:104180008312CD1512BD7B1227EB740612118AE93A
:10419000F50E7011851082851183E0702D12BD7BA4
:1041A0001223D180257416650E7011750E007418D7
:1041B0001211C012C1E3E48010750E0112CEAB855E
:1041C0001482851583E8F0A3E9F0851082851183B8
:1041D000E0600479008002A90E740212118A7F0E39
:1041E0000212B612C1E722E0F8A3E0F5838882222A
:1041F00074EC1211E474F71211748A0C8B0D8C128A
:104200008D13EA2405FEE4350DFF750E00AC1AADE2
:104210001B8E828F8312BD8112267D8A0A8B0BEA48
:10422000450B700302C3AFE50C2402F50C500205E8
:104230000D8A828B83A3A3A3E0A2E5502F851A8267
:10424000851B8312BD811227D98A0E8B0FEA450F79
:10425000604F7912AC0AAD0B12BD7B850E82850FC3
:10426000831211E2E9F50E600302C3B2850C828568
:104270000D83E0F50AA3E0F50BAA0AFB1227CDEAAD
:104280004B70197AFF7BFF1227CDEA4B700302C3F4
:10429000A58A828B83E50AF0A3E50BF0750A0080FE
:1042A00008750E0E02C3B2050A90030DE0F8E50A88
:1042B000C398400302C3A5850A10751100740378E2
:1042C000101211618A828B83A3A3E02510F8A3E06A
:1042D000351112C77970D08E828F8312C3CD12B977
:1042E000C38E828F83A3A312C3CD12B9C1EE24045F
:1042F000F50AE43FF50B850A82F583E0888289831D
:10430000A3A3A3A3F0A3E4F0EE2405F510E43FF586
:1043100011851082F58312C3CDA3A3A3A312B9C143
:1043200075140775150078141213F7EEFCEFFD7481
:10433000041211D21233A3740212118AE4F5147814
:10434000141213F7850A82850B83E0FC7D00791730
:1043500012BD7B12274F740212118A74071211C00A
:1043600012B9C374071211C0E0FA4B603D850A828E
:10437000850B8312C3C41213F78510828511831233
:10438000CD151233A3740212118A74021211DA12BB
:10439000BD7B1223D7E9602674071211C012BD81BC
:1043A0001234278019750E098008750E1180037567
:1043B0000E0112CEAB85128285138312C3D8A90ECB
:1043C00074098028E0F50A750B00780A2212BD8571
:1043D000888289832212C3DEE8F0A3E9F022E0F8A4
:1043E000A3E0F985108285118322740412118A7F5B
:1043F0000C0212B674EC1211E412C4E8751200EE4D
:104400002402F50EE43FF50F850E82F58312BD817F
:104410001227CD8A0A8B0BEA450B700302C4CC85A8
:104420000C82850D83E06401600302C4C1AC0AAD57
:104430000BAA0CAB0D1227C1E9606E850A82850BB1
:104440008312B74EEE2406F50CE43FF50D8E828FF5
:1044500083A3A312140E8E828F83A3A3A3A312148B
:104460000E850C82850D8312140E79188E828F832F
:1044700012C4FA12BD811227EB740612118AE9F8F0
:10448000741668700B850C82850D83E4F0A380148C
:10449000E860128E828F8312BD8185108285118320
:1044A000EAF0A3EBF08812801878101213F7AC0A28
:1044B000AD0BEEFAEFFB1227C7740212118AE9F571
:1044C00012AA0AAB0B1227D3E512700E850E828555
:1044D0000F8312BD811223DD8009741665127003EB
:1044E000751200A91202C3EFEAFEEBFF8C108D11CA
:1044F000EE2405F50CE43FF50D2212CFA4850E82C3
:10450000850F832274EA1211E4750A00750B007E90
:10451000007F00750C00EC2402F512E43DF51380D9
:1045200035EC650A7003ED650B600302C5B988823E
:104530008983A3A3E06A7003A3E06B707C888289FF
:1045400083A3A3A3A312CEAFEE28FEEF39FFEA2880
:10455000FAEB39FB050C12C689503A850C0E750F23
:10456000007403780E12116185128285138312C6BE
:104570007C12C779601FE50A450B70A58C0A8D0B6C
:104580008882898312B74C88828983A3A3E02EFA9C
:10459000A3E03F80BEE50CC39402500302C67775CA
:1045A0000A00750B00EE4F6010EEFAEFFB1234219B
:1045B0008A108B11EA45117005790002C679750DD4
:1045C0000002C64C850D0E750F007403780E121193
:1045D00061851282851383E0250EF50EA3E0350F69
:1045E000F50FE50E2406F516E4350FF5178516824E
:1045F000F58312C77E6042E50E2404F514E4350FFE
:10460000F515851482F58312140EE510250AFAE5D6
:1046100011350BFB1233A3740212118A85148285A3
:104620001583E0250AF50AA3E0350BF50B85168204
:1046300085178312BD81123427E50D600D7C087D3E
:10464000007900AA0EAB0F1233BB050DE50DC39523
:104650000C500302C5C485128285138312CEAF8825
:10466000828983A3A3A3A3A3A3E510F0A3E511125A
:10467000B2DFEEF0A3EFF0790102C1DE12C68022B4
:10468000E0250EF8A3E0350F2290030DE0F8E50CCD
:10469000C3982274F01211E48A108B118C0C8D0DCA
:1046A000750F00750E0080507916EE2406F50AE4A9
:1046B0003FF50B8E828F83A3A312140E8E828F83FD
:1046C000A3A3A3A312140E850A82850B8312140ED2
:1046D000851082851183A3A312BD811227EB740676
:1046E00012118AE9F50F7416650F706C850A8285C0
:1046F0000B83E4F0A3F0050E90030DE0F8E50EC384
:10470000985066AA0E8A0A750B007403780A121173
:1047100061850C82850D83A3A312C7C8E8FEE9FF5B
:104720008E828F8312C77E6040EA2401F50AE4344A
:1047300000F50B90030DE0650A7002E50B6014882C
:10474000828983A3A3A3A3A3A3A3A312BDB06003E1
:1047500002C6A8791802C6AAE9609B12CEAB7410F3
:104760001211C012C77012C3D8A90F7F080212B667
:10477000E0FAA3E0F5838A8222F98882898312CF46
:10478000A4EC4D2274F61211E47C0080010C90031D
:104790006AE0F8ECC398501E8C0A750B007402781E
:1047A0000A12116112C7BDE06A7003A3E06B70DDED
:1047B000E8FAE9FB80047A007B0002C86090030BF2
:1047C00012C7C88882898322E0250AF8A3E0350B46
:1047D000F92274F21211E48A0A8B0B750C008027FF
:1047E0008E828F83A3A3A3A312B2D66003123427B1
:1047F0007C087D007900EEFAEFFB1233BB8E828FCE
:1048000083E4F0A3F0050C12C6895027850C0E75C1
:104810000F007403780E121161850A82850B83A341
:10482000A3E0250EFEA3E0350FFF8E828F8312BD1D
:10483000B070AD850A82850B8374FFF0A3F002CFC0
:104840009874F61211E412277F8A828B83E58245E1
:104850008370067A007B008007A3A3A3A312BD8107
:104860007F020212B674F41211E4890A8C828D83DD
:10487000E06402703C12CE4EFEA3E0F9EEF8740242
:104880006870037429697029750C02750D00780C25
:104890001213F774101211C012140E74101211C0FA
:1048A00012140EA90A1230E5740612118AE9F98071
:1048B00002790102B31374E81211E474FB1211744B
:1048C000E9851A82851B83F08A188B19ECFEEDFFAF
:1048D0007512008E828F83A3A3A3E0A2E4502D74EF
:1048E0001D1211C012BD811227D98A828B83E582E5
:1048F0004583700302CCED790AEEFCEFFDAA18ABFC
:10490000191211E2E9F512600302CCF0741F1211C2
:10491000C0E0F50AA3E0F50B74211211C0E0F50C1C
:10492000A3E0F50D74231211C0E0F510A3E0F5111A
:104930008E828F83E06402600302CC8EA312CEAF1E
:10494000850A82850B83A3858214858315EE240650
:10495000F50EE43FF50F8882898312CD2DF516E41C
:1049600039F517781612148101000028012890C922
:104970000700022855CA0328C3C9002984CB01298E
:10498000AFCB022950CB032984CB042928CC8ECC71
:10499000E5104511600302CC89850E82850F8312D4
:1049A000CEAFE8FAE9FB8A828B83E0850C82850D25
:1049B0008312CD381213F78A828B83A3E0FCA3E025
:1049C00002CC12E5104511600302CC89850C82856A
:1049D0000D837401F012CD22850A82850B83F07C51
:1049E000007D008E828F83A3A3A3A3E02401FAA3FA
:1049F000E03400FB12267DEA4B60408A828B83E024
:104A00002402F8850C82850D83E028F0EA2404F85E
:104A1000E43BF988828983E085148285158312CD71
:104A20004612CD381213F78A828B83A312CD15E577
:104A30000A2403FAE4350BFB02CC17850C82850DA2
:104A400083E02404F07C047D007900AA14AB1512E5
:104A500033BB02CCF0E5104511600302CC8912CDC6
:104A600022FEA3E0FF850C82850D837404F0EE85A1
:104A70000A82850B83F0EF851482851583F0740319
:104A80001211DAEEFAEFFB12267D8A0E8B0FEA4541
:104A90000F700302CB338A828B83A3A312B74C74AB
:104AA000011211CA8810891178101213F7740512B7
:104AB00011C012140E7CFF7DFF12268374041211A4
:104AC0008A8B11EA45117033850E82850F8312CDD2
:104AD000191213F7850E82850F83A312140E7C0220
:104AE0007D007A537B8412247F740412118AE9704A
:104AF0000A74011211C074FFF0A3F08E828F83E05C
:104B000064027039750E02750F00780E1213F78E5D
:104B1000828F83A312CD15E50A2404FAE4350BFB3A
:104B20001233A3740212118A850C82850D83E0244E
:104B300002800974011211C0EEF0A3EFF0740112AB
:104B400011C012CD0774011211C012CCFE02CC8329
:104B5000E5104511600302CC89850E82850F831212
:104B6000CF9DAA18AB191230EB850C82850D83748A
:104B700002F0850A82850B83EAF08514828515830D
:104B8000EB02CC86E5104511600302CC8912CD22E0
:104B9000F8A3E0F9850C82850D837402F0E8850A9C
:104BA00082850B83F0E985148285158302CC868586
:104BB0000E82850F8312BD8112339DEAFAF8C395E8
:104BC00010E49511405CE86510451170047A00808E
:104BD00021851A82851B83E0FCE5102CFCE435114D
:104BE000FDC3EC98ED94005003E08005E510CAC3C6
:104BF0009AFAEA850C82850D83F08A0C750D00788F
:104C00000C1213F7850E82850F83E02510FCA3E0BC
:104C10003511FDAA0AAB0B1233A3740212118A02DA
:104C2000CCF075120702CCF0E5104511705B850ED3
:104C300082850F8312CEAF850C82850D837407F0B9
:104C40008882898312CCFF12CCF7E0851482851507
:104C500083F0E82402FAE439FB8A828B8312CD07C1
:104C60008A828B8312CCFEA3A312B2DE12CD0CF08B
:104C7000E82405F85001098882898312CD0CA3121B
:104C8000CD46A3A3A3A3F0806775120B8062741DA9
:104C90001211C012BD8112277F8A828B83E5824563
:104CA00083604A12CEAF880E890FE8450F603E74CC
:104CB000251211C0E0F51278121213FB78101213AE
:104CC000F7780C1213F7780A1213F774071211C051
:104CD000E0F9EEFCEFFDAA18AB19850E82850F8373
:104CE0001211E2740712118AE9F512800375120E8F
:104CF000A912740502C044F088828983A322A3E02C
:104D0000850A82850B832212CD4DF02212CD4DA350
:104D1000A32290031112CFA422E0F51075110078A0
:104D20001022850E82850F8312C1E7E022E0FAA3EC
:104D3000E0F8E4C8F9EA2822F08A828B83E0F50CD7
:104D4000750D00780C2212CCF712CD4D22E0850AA9
:104D500082850B83A3A32274EE1211E474FE121158
:104D6000748A0A8B0BECFEEDFF890CAC1AAD1BEEBE
:104D7000FAEFFB12267D8A0E8B0FEA450F700302B5
:104D8000CE3F851A82851B8312BD8112277F8A82BE
:104D90008B83E5824583700302CE3AA3A312CEAF84
:104DA00088108911E84511700302CE3A741412116B
:104DB000C0E0F512A3E0F513E50CF50D780D121324
:104DC000FB74191211C012140E78121213F7741B0F
:104DD0001211C0E0F9AC0EAD0FAA0AAB0B85108220
:104DE0008511831211E2740512118AE9F50D7052D2
:104DF00074FE650C604C850E82850F83E064027042
:104E00004112CE4EFAA3E0F9EAF874026870037416
:104E10002969702E85128285138312CD2DF50EE43B
:104E200039F50F780E1213F7EEFCEFFDAA0AAB0B63
:104E3000122803740212118A8008750D0E80037502
:104E40000D01A90D740212118A7F0A0212B6A31273
:104E5000CEB388828983E02274F61211E474FE12C4
:104E60001174740C1211C012CEAFE8851A82851B22
:104E700083F074011211C0E9F0E4F50AF50B780A29
:104E80001213F7750A02780A1213F774041211CA82
:104E9000880A890B780A1213F779FE1227EB740639
:104EA00012118A740212118A02C8608E828F8312D4
:104EB000CEB322E0F8A3E0F92274F71211E4EAFE7F
:104EC000EBFF890A90032812CD151230EBEA540249
:104ED000600BA90AEEFAEFFB122671800279017FBE
:104EE000010212B674F21211E474FE121174EAFE99
:104EF000EBFF890C7401650C60147402650C60038F
:104F000002CF937901122A0DE9600302CF93EEFAE2
:104F1000EFFB1227CDEA4B60031227D3A81AA91B77
:104F2000880A890B780A1213F7750A02750B007844
:104F30000A1213F7750A4D750B84780A1213F77C61
:104F4000FF7DFF7A017B00122677740612118A809A
:104F500038850A82850B83A3A3A3A3A3A312CF9DA5
:104F6000EEFAEFFB1230D3E4F50EF50F780E1213C4
:104F7000F774021211C012140E7CFF7DFFAA0AAB57
:104F80000B122683740412118A8A0A8B0BE50A45D8
:104F90000B70BE740212118A7F060212B612C1E7AC
:104FA00012CFA422E0FCA3E0FD2274F41211E48AE3
:104FB0000A8B0BECFEEDFF901739E0F4604B7A0999
:104FC0007B001233C7EA4B60408A828B8374B1F056
:104FD000A3E412D00CF08A828B83A3A3E50AF0A38A
:104FE000E50B12D00CA3EEF0A3EFF0740C1211C07D
:104FF00012CEAF8A828B83A3A3A3A3A3A3A312C3BE
:10500000D8901739E0F91233D302B313F08A828BA8
:1050100083A3A3A3A32274F01211E474FA121174EF
:10502000890BECFEEDFF750A008A0C8B0D780C12D3
:10503000143B0004103CD259D077D091D0A9D0C7EE
:10504000D0DFD002D11AD12ED158D1D3D1E4D1FBA7
:10505000D116D23CD23CD26ED17401650B600302F2
:10506000D2378E828F83E0F8C39403400302D23795
:10507000E890186802D2137402650B600302D237FD
:105080008E828F8312D278901869E8F0A3E902D259
:10509000137401650B600302D23712D26940030218
:1050A000D237E890077E02D2137401650B600302C9
:1050B000D2378E828F83E0F8C39405400302D23743
:1050C000E890077F02D2137401650B600302D237A8
:1050D00012D269400302D237E890078002D21374DB
:1050E00010650B600302D237750C10750D00780C3B
:1050F0001213F77A817B071233A3740212118A020A
:10510000D25D7401650B600302D23712D26940038D
:1051100002D237E890079102D2137401650B600345
:1051200002D2378E828F83E090186C02D2137404FF
:10513000650B600302D2378E828F83780E12102C9B
:1051400090839F780E120E5F500302D23790079320
:10515000780E12103B02D25DE9600302D2371226AC
:1051600017E9700512309780559008268061740702
:10517000650B600302D237750C06750D00780C12B2
:1051800013F78E828F83A3AC82AD8374021211D287
:105190001233A9740212118A7C007D00AA1AAB1B7B
:1051A0008E828F83E0F9123043E9FEC3940A4003F4
:1051B00002D25A122617E9700CEEF912309D79507E
:1051C0001234E7806D74272EF582E43408F5837479
:1051D0000180407401650B705E12D2695059E890ED
:1051E0000792802F7401650B704D8E828F83E0F8DB
:1051F000C3940A5042E890186B80187401650B70D4
:10520000368E828F83E0F874F928C3940A5028E818
:1052100090186DF080477401650B701B900825E0B5
:10522000F88E828F83E0900825F0E87030E064010A
:10523000702B12308B8026750A188021C3EA9427C0
:10524000EB940050157402650B700F8E828F8312E1
:10525000DD3E122497E9F50A8003750A02A90A7453
:105260000612118A7F080212B68E828F83E0F8C37D
:10527000940222A90A02D616E0F8A3E0F92274F0FB
:105280001211E474B11211748C0E8D0F90835C7442
:10529000201211DA740612108774201211DA1230FB
:1052A00043E9F50A745F1211C0E0F50CE9C3940AF2
:1052B000400302D3FC75F006E9A4F50B744112110A
:1052C000DA7A0E7420250BF91234E1E97009744D75
:1052D0001211C0E0FF80027F00901868E064027045
:1052E0000575100180037510007408650C70047456
:1052F0002280027421250BF5117C1B7D007900743E
:10530000261211D21233BBEFA2E0E433FE74261250
:1053100011DA7A1BA9111234E1E9702574401211D7
:10532000C0E024F9C3940A501878101213FB7427B4
:105330001211DAEEF9AA0EAB0F122539740112110F
:105340008A7C147D007900740C1211D21233BB7464
:105350000C1211DA7A107424250BF91234E1E97079
:10536000307C1079FF740C1211D212341BE97021B9
:10537000741C1211C0AC82AD837A047425250BF91C
:105380001234E1740C1211DAEEF9AA0EAB0F1225E9
:1053900021AC1AAD1B7A0C7470250AF91234E1E9BC
:1053A0007049AA1AAB1B1230737E00EE75F003A48D
:1053B000F8A9F0851A82851B83E58228F8E5831217
:1053C000DB5712DD38601D88828983A3A3E0F50ACC
:1053D000750B00780A1213F7AA0EAB0F1227F1749F
:1053E0000212118A0EEEC3940440C0EFA2E1500CE9
:1053F00090077DE0F9AA0EAB0F1227F77404650C35
:105400007028901868E0640270207A00900791E09C
:1054100060027A0190077EE06004780480027800E0
:10542000E84AF9AA0EAB0F1225ED7900744F02D2AB
:105430006174F71211E4122617E9704F900826E004
:1054400064017015123097900826E4F07C0AFDF98B
:105450007A277B081233BB802A750A00A80A7427B2
:1054600028FEE43408FF8E828F83E06401700BA96C
:105470000A12309D8E828F83E4F0050AE50AC394F8
:105480000A40D979501234E712308B02DE7674F07C
:105490001211E474F0121174EAFEEBFF8C0A8D0B0A
:1054A000750C0AE9600C14600914603B14607D02FD
:1054B000D584123085E9F50CC3940A400302D584E3
:1054C000E50A450B700302D584750E06750F00784A
:1054D0000E1213F7EEFCEFFDAA0AAB0B1233A37406
:1054E0000212118A02D584750E007510067511001E
:1054F00078101213F7EEFCEFFDE50E75F00EA4F830
:10550000A9F0749F28FA740739FB1233B57402129C
:10551000118AE9700B050EE50EC3940A506680CA25
:10552000850E0CE50CC3940A505A8049750E00ACE8
:105530001AAD1B7A1075F006E50EA42423F9123477
:10554000E1E9701C7C1079FFAA1AAB1B12341BE92D
:10555000700EEEFCEFFDAA1AAB1B1224FDE9600BE6
:10556000050EE50EC3940A501B80C4850E0CE50C95
:10557000C3940A500FE50A450B6009AA0AAB0BA9B0
:105580000C12307FA90C741002D26174F41211E471
:10559000890B750A1574FF6A700374FF6B70277EA0
:1055A00000AC0B7A027B00EEF9123061E960037502
:1055B0000A000EEEC3940A40E8E50B60537AAF7B15
:1055C00030122A31804A122A018A0C8B0DAE0CAFA0
:1055D0000DEE4F60387C007D00EE2405FAE43FFBC1
:1055E0008E828F83A3A3A3A3E0F9123043E9F9C30A
:1055F000940A500CAC0B7A027B00123061750A00E1
:10560000E50B600CEEFAEFFB1230AF8003750A1465
:1056100002D27312118A7F040212B674F21211E4DC
:10562000ECFEEDFF750A15740E1211C0E0F50CA327
:10563000E0F50D74FF6A700374FF6B7021750B0049
:10564000AC0CAD0DEEFAEFFBA90B123067E960036D
:10565000750A00050BE50BC3940A503F80E2122A3D
:10566000018A828B83E5824583602D7C007D00E585
:10567000822405FAE43583FBA3A3A3A3E0F9123047
:1056800043E9F9C3940A5013AC0CAD0DEEFAEFFBED
:10569000123067750A008003750A14A90A02DB1F1D
:1056A000C082C083900797EAF0A3EBF090077DE0FB
:1056B000FC7D007A267B0012249790077DE0F9128A
:1056C000275B02E19874EF1211E474EC121174EA92
:1056D000FEEBFFEE240CF50EE43FF50FEE2405F58E
:1056E00010E43FF511EE2409F50CE43FF50DEE242E
:1056F00003F50AE43FF50B8E828F83A3A3E024FA1F
:10570000700302D99B24FD700302D8BD14700302FC
:10571000D79B14601024FD700302D891147003020B
:10572000D8F402D9A112E4B36049E0F5838882126B
:10573000D27888108911E845116038850E82850F6E
:1057400083E0F50E780E1213FBEE240BF582E43F96
:10575000F583E0F9850C82850D8312DD3E0A0A0A85
:10576000AB0B8510828511831211E2740112118A2C
:1057700002D9A1850C82850D8312140E9007931215
:10578000104A122533740212118AE9700302D9A15A
:105790007901850C82850D8302D96B7512008E828A
:1057A0008F83A385820C85830DE0600302D85E851C
:1057B0001082851183E0A2E0400302D85E90083198
:1057C00012E4B6600302D85E7C0E7D007900AA1A4E
:1057D000AB1B1233BB850E82850F8312E163EA4B4C
:1057E0006010750E06750F00780E1213F7EA24107C
:1057F000801B12E15D122A01EA4B700302D9A175E8
:105800000E06750F00780E1213F7EA2405FCE43B30
:10581000FD74021211D21233A3740212118A851080
:1058200082851183E0A2E25004D2F08002C2F0A28D
:10583000F0E433F8740C1211C0E048F0EEFCEFFD18
:10584000AA1AAB1B123079E970117A027B0090071B
:105850007DE0F91233F7790002D9A375121512E42D
:10586000B3700302D9A112E127700302D9A1850CFC
:1058700082850D83E0FC790112D9AD1211E2E512A7
:10588000700302D9A1FC790312E15D12E10D02D986
:105890009612E4B3700302D9A112E13A12D27889C8
:1058A0000DE8450D700302D9A18E828F83A3E0FC21
:1058B000790212E15D8882850D8302D9967C007D94
:1058C00000EE2404FAE43FFB850A82850B83E0F9AD
:1058D000123043E9F8C3940A400302D9A1EE240A26
:1058E000FCE43FFD7A0475F006E8A42425F912349F
:1058F000DB02D9A112E15D900792E0600790186B7E
:10590000E0F9806A901868E0700479058060122AD6
:10591000018A0E8B0FA80EA90FE849700302D9A1C6
:10592000E82404F50EE439F50F8E828F83A3A3A338
:10593000A3A3A3A3E0A2E0503A850E82850F83E0E3
:10594000FE6030850C82850D83A3E05402702474C0
:105950000E1211DAE82405FAE439FBEEF9123043AD
:10596000E970107903850A82850B8312E1631225A1
:105970002D802EAC10AD11850E82850F83E0F912BB
:10598000E15D1230BB12E4B3601712E12760127CB4
:1059900000790012D9AD1211E2800612E15D1230D9
:1059A0003D7901741412118A7F090212B6850A82A8
:1059B000850B83E0FAA3E0FB8E828F832274F512BD
:1059C00011E474F2121174EAFE8C0C75F006E9A46D
:1059D0002420F50AAC1AAD1B7A0EF91234E1E970F5
:1059E000467C0679FFAA1AAB1B12341BE970387487
:1059F0000C1211C012E163EAF8E50C6005EEC8482C
:105A00008004EEF4C858F8EA687001EB6015740C75
:105A10001211C0E8F0A3E4F0AC1AAD1B7A0EA90A8B
:105A20001234DB790180027900740E12118A7F032F
:105A30000212B674F21211E474E6121174890C8A1F
:105A40000A8B0BECFEEDFF740C1211DA7A0E75F076
:105A500006E9A42420F91234E1E9600302DB187C92
:105A60000679FF740C1211D212341BE9600302DBB9
:105A7000187470250CF50DAC1AAD1B7A0CF91234A4
:105A8000E1E9600302DB14AA1AAB1B123073E50ACA
:105A9000450B701D7C0C7900AA1AAB1B12341BE954
:105AA00070727C0C7D007900AA1AAB1B1233BB808C
:105AB00051AC1AAD1BAA0AAB0B12306D8A0E8B0FBC
:105AC000A80EA90FE8497022EE4F604CAC1AAD1B2E
:105AD0007A007B0012306DEAF8EBF9EA4B60398806
:105AE000828983E50AF0A3E50BF012DB93FAEE6AF4
:105AF0007001EF601FEEF04F700888828983E4F038
:105B0000A3F0AA1AAB1B123073AC1AAD1B7A0CA906
:105B10000D1234DB790180027900741A12118A7F28
:105B2000060212B674F71211E47E00EE75F003A4BB
:105B3000F8A9F0EC28F8ED12DB57E06A7003A3E057
:105B40006B7006E8FAE9FB800B0EEEC3940440DBB1
:105B50007A007B0002DE7639F9888289832274F725
:105B60001211E47C00EC75F003A4F8A9F0EA28F81F
:105B7000EB12DB57E0F4FEA3E0F4FF88828983EEAA
:105B8000F0A3EFF012DB93F4F00CECC3940440D5D7
:105B900002DE76E82402F582E439F583E02274F42B
:105BA0001211E474F4121174EAFEEBFF8C0A8D0BEF
:105BB00090083112E4B6704FEE4F700302DD17EC1F
:105BC000450B700302DD17123085E990186EF0C3A3
:105BD000940A4033750D007C0679FFE50D75F00ED3
:105BE000A4FAABF074992AFA74073BFB12341BE950
:105BF000600302DC78050DE50DC3940A40D9750CED
:105C00000AE50C90186EF090186EE0C3940A4003F9
:105C100002DD1775F006E0A4FB90083112E4B670BF
:105C20005CEEFCEFFD7A0E74202BF91234DB7C0C59
:105C30007D0079FFAA1AAB1B1233BBAC1AAD1B7ADD
:105C40000C90186EE02470F91234DB750C0E750D93
:105C500000780C1213F7EEFCEFFD90186EE012DDE9
:105C6000D61233A3740212118A900831E50AF0A308
:105C7000E50BF0790002DD19850D0C8084E0C82465
:105C80000612DD3260197A1B74212BF91234DB12F3
:105C9000DD1E2406F582E438F583E4F0A380D312F8
:105CA000DD1E240A12DD3260107A1B74222BF912D9
:105CB00034DB12DD1E240A80DB12DD1E240C12DD13
:105CC0003260107A1074232BF91234DB12DD1E249B
:105CD0000C80C112DD2712DD3260307A1074242B63
:105CE000F91234DB12DD27F582E438F583E0241065
:105CF000FCA3E03400FD7A0475F00690186EE0A471
:105D00002425F91234DB12DD278089900825E06014
:105D1000031230C11230B57901740C02D613900809
:105D200031E0F8A3E0C822900831E0F8A3E0C824ED
:105D30000822F582E438F58312DD3EEC4D22E0FCCA
:105D4000A3E0FD2274F41211E474F2121174EAFE5D
:105D5000EBFFE9C3940A5004EE4F700479028034DB
:105D6000AC1AAD1B7A0E75F006E9A42420F91234A2
:105D7000E1E9F50A701C750C06750D00780C12131C
:105D8000F774021211DAEEFAEFFB1233A374021267
:105D9000118AA90A740E02D61374F41211E4EAFEF1
:105DA000EBFF750A00750C06750D00780C1213F7E1
:105DB000EEFCEFFDE50A12DDD61233B574021211C6
:105DC0008AE96004A90A800B050AE50AC3940A401F
:105DD000D4790A02D61675F00EA4F8A9F0749928A1
:105DE000FA740739FB2274F71211E4750A00E50A08
:105DF00075F00EA4F8A9F0749928FE740739FFEE27
:105E0000FCEFFD7A0E75F006E50AA42420F91234A1
:105E1000E1E960297C067D0079FFEEFAEFFB1233A1
:105E2000BB7C067D0079FFEE2CFAE43FFB1233BB0E
:105E3000EE240CF582E43FF583E4F0A3F0050AE5D7
:105E40000AC3940A40A8900825E060031230C112EA
:105E500030B5802274F71211E47E007F007C06EFDB
:105E600012DDD674FFF912341BE970010E0FEFC377
:105E7000940A40E9EEF97F010212B674F71211E4B8
:105E80007E00EEF912309DE9F90EEEC3940A50033C
:105E9000E960EF80E174F31211E474CB121174899C
:105EA0000A90186EE0650A701B7A017B0090077DEE
:105EB000E0F91233FD7A027B0090077DE0F912339E
:105EC000FD1230CD75F006E50AA4FF74202FFE7494
:105ED000271211DA7A0EEEF91234E1E9600302DFDB
:105EE0009D7C0679FF74271211D212341BE96003DE
:105EF00002DF9D7C0E7D0079FF74271211D21233D0
:105F0000BB7C1B7D0079FF740C1211D21233BB7C59
:105F10000C7D0079FFAA1AAB1B1233BB7427121138
:105F2000DA7A0EEEF91234DBE9FE740C1211DA7A29
:105F30001B74212FF91234DBE9F50B740C1211DA02
:105F40007A1B74222FF91234DBE9F50C740C121150
:105F5000DA7A1074232FF91234DBE9F50D740C1280
:105F600011DA7A1074242FF91234DBE9F50E740C6F
:105F70001211DA7A0474252FF91234DBE9FFAC1A16
:105F8000AD1B7A0C7470250AF91234DBE9F8E50BC5
:105F9000450C450D450E4F48CE4EFE80027E00EE6C
:105FA000F9743512118A7F050212B674F71211E4E2
:105FB000E990077DF012308B02DE7674F41211E462
:105FC000EAFEEBFF5480700302E07E90077DE0F96B
:105FD0001233DF8A0A8B0BEA450B700302E0777AF3
:105FE00001E50A2404F8E4350BF9880C890D850ACB
:105FF000828B83E02450604014600624E160678057
:106000006C88828983E07068850A828B83A3A3A34E
:10601000A3A3A3A312140E850A828B83A3A3A3A315
:10602000A312DD3E850A828B83A3A312E1631230A3
:106030004F740212118A803888828983E0641E704E
:106040000F7900850A828B83A3A312E16312304982
:10605000850C82850D83E0F9E50A2405FAE4350B09
:10606000FB122755800AAA0A12305BE9FAEA600798
:10607000AA0AAB0B1233CDEEFAEF6480802AEE54FD
:10608000026028EE6402FE7C007D007A007B001234
:106090003079E960047A0180027A027B0090077D02
:1060A000E0F91233F7EEFAEFFB805FEEA2E0504C1E
:1060B0006401F50AEFF50B12E11B1230C7E9602A03
:1060C00012E4B3602012E127601B7C00790112E129
:1060D0001B8E828F831211E27C00790312E11B1266
:1060E000E10D1211E21230CD800C7A017B00900795
:1060F0007DE0F91233F7AA0AAB0B800E5404600658
:10610000EE6404FA80047A007B0002D616900797AA
:10611000E0F8A312E132F58388822290083112E47C
:10612000A3E0FAA3E0FB2212E132F9E8FEE9FFEE78
:106130004F2212E13AE0F8A3E022E0F5838882A33F
:10614000A3227F020212B6C082C08390077DE0F9CD
:106150008A828B83A312E1631227F7803B850A8230
:10616000850B83E0FAA3E0FB22C082C08374FF1298
:106170001174123091E9C39402851A82851B834001
:106180000474028002740AF0AC1AAD1B7A0179051E
:10619000122635740112118AD083D082020E127435
:1061A000F21211E474E8121174EAFEEBFF890C8C10
:1061B0000A8D0B7C187D007900AA1AAB1B1233BB29
:1061C000851A82851B83EEF0A3EFF090077FE0C075
:1061D000E074021211C0D0E0F0900780E0C0E074DB
:1061E000031211C0D0E0F090186DE0C0E0741712F7
:1061F00011C0D0E0F074151211C0E054FEFAA3E013
:10620000FB90186CE0A2E0E433F8EA48F8EBF9748C
:10621000151211C012E343A2E15004D2F08002C271
:10622000F0E854FDFAA2F0E43325E0F8EA48F87407
:10623000151211C012E343A2E45004D2F08002C24E
:10624000F0E8FAE954FEFBA2F0E433F9EB49F97403
:10625000151211C012E343A2E55004D2F08002C22D
:10626000F0E954FDFBA2F0E433F50E750F0074095C
:10627000780E121161EAF8EB450FF974151211C08E
:1062800012E343A2E65004D2F08002C2F0E954FBCC
:10629000FBA2F0E433F50E750F00740A780E1211AC
:1062A00061EAF8EB450FF974151211C012E343A22D
:1062B000E25004D2F08002C2F0E854FBFAA2F0E40B
:1062C00033F50E750F007402780E121161EA450E57
:1062D000F874151211C0E8F0A3E9F0900780E060AF
:1062E0001D750E10780E1213F77C817D077406124F
:1062F00011C0AA82AB831233A3740212118A9007D1
:1063000091E06011E50C600974151211C0E04402BF
:10631000F078018002780074141211C0E048F09007
:10632000077EE0600478048002780074141211C0C3
:10633000E048F0AC0AAD0BAA1AAB1B122527741863
:1063400002DB1CE8F0A3E9F090186CE02274F7126D
:1063500011E412284B750A00E50A75F00EA4F8A99D
:10636000F0749928FE740739FF7C0679FFEEFAEF86
:10637000FB12341BE97009EEFAEFFB790012285189
:10638000050AE50AC3940A40CF02DE7674F61211BC
:10639000E474FD121174EAFEEBFF90083312E4B6C8
:1063A0007039750A35750B08780A1213F7750A02E9
:1063B000750B00780A1213F7750A4D750B84780A6D
:1063C0001213F77CFF7DFF7A017B0012267774069B
:1063D00012118A900833EAF0A3EBF090083312E42C
:1063E000B6700302E495750AFF780A1213FBE4F510
:1063F0000AF50B780A1213F774051211CA880A8974
:106400000B780A1213F774051211CA880A890B78DF
:106410000A1213F790083512140E790290083312FD
:10642000E4AB1227E5740912118AE97036851A82E5
:10643000851B83E0FA74011211C0E0F8E4C8F9EAA0
:1064400028F50AE439F50BEA450B6017780A1213B0
:10645000F790083312E4A3A312E4AB12304F740296
:1064600012118AE4F50AF50B780A1213F790083531
:1064700012140E7CFF7DFF90083312E16312268315
:10648000740412118A900833EAF0A3EBF0900833F9
:1064900012E4B67004790180027900740312118A43
:1064A00002E142E0F8A312E13AA32212DD3EEEFA45
:1064B000EFFB22900797E0F8A3E0F9E84922C082B9
:1064C000C08390083112E4B6601090083112E16385
:1064D0001233CD900831E4F0A3F090186E740AF0F6
:1064E00002E198C082C0839061907404F0A3744864
:1064F000F0A37402F09061807440F09061BC74036A
:10650000F09061877419F0906265741BF090624995
:10651000E0C3941390619C40107409F0906066741D
:1065200001F090619F7428800D740BF0906066E418
:10653000F090619F742CF012E6CE7009C291900326
:106540009C7467800590039C7461F012E71F90367D
:1065500008E493F46006E493F9122B097905122DEF
:10656000DF02E72DC082C083E9540FF9906185E016
:10657000696012E5C654B84441F5C6E59E544764C7
:106580004170F8E9F053C6B8E59E544770FA02E747
:106590002DC082C083A8A853A87E906181E412F325
:1065A000AEC2BA539AFEC289759B00C2C275E90099
:1065B00075910075BF0075A91175B905906181F0DD
:1065C000A374C0F0A3E4F0D2BA439A017480584295
:1065D000A802E72DF0A3F002E72DC082C08374F873
:1065E00012117490039A12F8AE700302E6C690037B
:1065F0009AE0544060177908AA1AAB1B122C05AA1E
:106600001AAB1B12286F90039AE054BFF0E054803D
:106610006010790C7A637B05122C0590039AE05484
:106620007FF0E0A2E0501E12E6CE7009C291900306
:106630009C7467800590039C7461F0122875900328
:106640009AE054FEF0E05402601E12E7127009D284
:106650009190039C7471800590039C746AF01228D9
:106660007590039AE054FDF0E054046010903604F5
:1066700012E72212287B90039AE054FBF0E05408C2
:10668000601090360512E72212287B90039AE0549E
:10669000F7F0E05410600D12E71F12287B90039A68
:1066A000E054EFF0E05420600A12287B90039AE057
:1066B00054DFF0A3E05401600D122B2712288190C3
:1066C000039BE054FEF0740812118A02E72D9061DA
:1066D0009A12E91F90053DE0640122C082C083E95F
:1066E0006005146017802912E6CE7009C2919003EC
:1066F0009C7467801A90039C7461801312E7127077
:1067000009D29190039C7471800590039C746AF087
:10671000801B90619A12E91190053DE0640122907E
:106720003606E493906186F022A2E092AFD083D047
:1067300082020E1274EA1211E474F412117490833E
:10674000E3AC1AAD1B740412108790360493F46006
:106750000302E8A6907808E0C39402500302E88A96
:1067600090830B74041211DA7408121087A81AA906
:106770001B8816891774041211CA880A890BAE0A7D
:10678000AF0B7512FF7513FF7510FF7C00750E4877
:10679000750F78801274086C700302E82074096C1D
:1067A000607E740A6C6079850E82850F83780A1288
:1067B000102C8E828F83A90BE50CC9F888147418ED
:1067C000780A120F6DE514450AF8C3E098A3E09922
:1067D000850E82850F83780A12102C40188E828FC6
:1067E000837418780A120F6DE514450AF8E0C3980F
:1067F000F8A3E0801A7418780A120F6DE514450AA0
:10680000FAE9FB8E828F8312F575EAC398F8EB994B
:10681000F9C3E89512E995135006881289138C1074
:106820000CE50E2404F50E5002050FECC394135032
:106830000302E79574FF6512700474FF651360240A
:1068400085100A7402780A1211617448250AF582CB
:106850007478350BF583780A12102C85168285170B
:1068600083E50AF0EE2402FE50010F85168285179B
:1068700083A3858216858317740C1211C0E5826E7E
:106880007003E5836F600302E782750A01750B00F0
:10689000780A1213F774021211DA7A817B0D123121
:1068A0008D740212118A740C12118A7F0E0212B6B4
:1068B000C082C0839061AE7468F0A3746AF0906285
:1068C0004574FBF0A304F053F4FD43FE0290053D34
:1068D0007401F09061A0E0643A90619A701912E935
:1068E0001F740164017009C29190039C7467801E3B
:1068F00090039C7461801712E9117401640170099E
:10690000D29190039C7471800590039C746A02E597
:10691000D6743FF0A3745AF09061A0747FF0227493
:1069200033F0A37455F09061A0743AF0227F040212
:1069300012B6C082C0839004EFE06401700A900434
:10694000F4E06004790C8002790002E72DC082C077
:106950008375E1F19004F2E0605114600914605510
:1069600014604D147054122B399004E1E0F97AE26E
:106970007B04122D619083DB12104A122D979083B5
:106980007B12104A122D6D9004F3E0F9122D7979E3
:1069900001122DD312EA6C241AF582E438F58374BF
:1069A00051F0A3742BF0790002E72D122B3F80B930
:1069B000122B4580B4122B4B80AF791280EA74F40D
:1069C0001211E475D90D9004E8E0A2E0E43313134A
:1069D000F812EBA4484401F5D97582E275830412DC
:1069E000EBAE7004E583640470F57582E975830489
:1069F00012ECEDE58264EF7004E583640470F175D8
:106A0000E1959004E8E0F97AE97B04122D6790178C
:106A10005D74DFF0A3742A12EAE312EB2D12EB246B
:106A200012EC679004F2E064019004DF700B12EA4C
:106A30007512102C9083D7800912EA7512102C90D1
:106A40008393780A120FB89083AF780A1210061257
:106A5000EA6C12EB1B780A12103B12EA6C12EB1272
:106A60007413F09003987402F002E92D9004DFE0B3
:106A7000F8A3E0C82212F81D780A2274F71211E474
:106A800012EB94F5D97582E275830412EBAE7004B3
:106A9000E583640470F59004F8E0600A78F97904FD
:106AA000FA12EB88DAFB12EC3512EBAE7004E583D8
:106AB000640470F5900518E0600A78197905FA12F7
:106AC000EB88DAFB75E19590175D74EBF0A3742AFF
:106AD00012EAE312EAED7412F09003987401F0FFE9
:106AE0000212B612EC5074E5F0A3742A2212EB2DB8
:106AF00012EB2412EC6B9004DFE0F8A3E0C812EB79
:106B00001B74FF12F39C9004DFE0F8A3E0C812EBC3
:106B100012222414F582E438F58322240EF582E44F
:106B200038F58322F0A374FDF0A3742A2212EB310E
:106B30002212EB3522F0A37465F0A3742C2274F7B3
:106B40001211E412EB944402F5D97582E2758304C4
:106B500012EBAE7004E583640470F59004F8E06015
:106B60000A78F97904FA12EB88DAFB75E195901747
:106B70005D12EBB6F0A312EBB612EAF07414F090CB
:106B800003987404F002EEE98882898312ECF1A87C
:106B900082A983229004F812EB9B22E02407F5D906
:106BA00012EBA4229004E1E0C4333354C02212EC6F
:106BB000F1E58264E82274F712EBC312EBC3F0A391
:106BC000742A22F0A3742AF0A374F72274F7121126
:106BD000E412EB944406F5D97582E275830412EB56
:106BE000AE7004E583640470F59004F8E0600A7800
:106BF000F97904FA12EB88DAFB12EC3512EBAE707D
:106C000004E583640470F5900518E0600A7819794A
:106C100005FA12EB88DAFB75E19590175D74F1F0D7
:106C2000A3742A12EC4612EAED7415F090039874DE
:106C300003F002EEE990051812EB9B4404F5D975B8
:106C400082E27583042212EC507465F0A3742C2246
:106C500012EC542212EC617465F0A3742C12EC61F6
:106C60002212EB35F0A32212EC6B22F090176B741A
:106C700065F0A3742C12EC547465F0A3742C12EB21
:106C800031F022C082C08312EA6C2406F582E43817
:106C9000F583E402E5D474F71211E49003C612F50B
:106CA0006774C828F8740339F9E82405FAE439FB55
:106CB0008A828B8312F62A88828983A3A3A3A3A343
:106CC000A3A3A3A3ECF0A3ED12ECE6A3A3A3A3A3B9
:106CD000A3E024FFF8A3E034FFF98A828B83E8F075
:106CE000A3E9F002EEE9F088828983A32212ECF195
:106CF00022E0F5D9A3229061D0E0F87480C398FC1B
:106D000012ED0922F012ED0922EA2483F582E43B18
:106D1000F583E02212ED1F2404F8E43583F922F50F
:106D200082E43FF583E5822212ECF1E86582227469
:106D3000F71211E4EAFEEBFF9061D0E0707875D9AC
:106D40000E75D90375D904EE248C12EDBB12ED2813
:106D50007003E9658370F6EE248412ED1412ED28B9
:106D60007003E9658370F675E1957908EE248CFA75
:106D7000E43FFB122BF97904EE2484FAE43FFB1282
:106D80002BF97C00EE24ABF8E43FF9ECFAC3E49A6B
:106D9000FA95E0FBEE2AFAEF3BFBEA248B12F83778
:106DA00088828983F00CA3A882A983ECC39408404D
:106DB000DA12EECA8002790002EEE912ED1F240811
:106DC000F8E43583F922C082C08375D90275D903EE
:106DD00075D90575E195EA246FF582E43B12F573E8
:106DE000EA2471F582E43B12EED702E72D74F61225
:106DF00011E4EAFEEBFF900543740612EE4C121309
:106E0000F77C017903122C59740212118A75D90684
:106E100075D90375824375830512EE447004E583CA
:106E2000640570F575E195900398E064087010EEC4
:106E3000246FF582E43F12F573EE247112F6AB79FC
:106E40000102F01212ECF1E582644822F0750A4367
:106E5000750B05780A2274F61211E4EAFEEBFF9036
:106E600061D0E070367801900543740BF090039880
:106E7000E064077019750A43750B05780A1213F759
:106E80007C017903122C59740212118A780512F1CF
:106E90001A12ECEDDAFB12EEC78002790002F01252
:106EA00074F71211E4EAFEEBFF75D90375D9037587
:106EB000D90DEE24DE12F811F5D975E19579041299
:106EC0002D9D12EECA802275E195EE246F12F8B462
:106ED000EE2471F582E43FF583E8F0A3E9F079014F
:106EE00022F0EEA2E092AF79007F010212B674F6B2
:106EF0001211E412F01F6004780480027800E82484
:106F00000BF8EAC39840457C09900543EC12EF6604
:106F100012EF75DDFB12F80E601B750A43750B0549
:106F2000780A1213F77903EEFAEFFB122C59740268
:106F300012118A7C0D12EF5112F01770FB75E1955A
:106F40007904122D9D12F09A79018002790002F0E5
:106F50001212EF578C0A2274012CF5D975D90375DA
:106F6000824375830522F0EE24E3F8E43FF97A4486
:106F70007B057D082212EF792288828983E08A824C
:106F80008B8312ECE6A882A9838A828B83A3AA82D0
:106F9000AB832274F61211E412F01F6004780480AF
:106FA000027800E82408F8EAC3984064780690055F
:106FB00043740CF09003B5E0900544F09003B6E004
:106FC000900545F09003B7E0900546F09003B8E0D7
:106FD000900547F09003B9E090054812F0AE601BB1
:106FE000750A43750B05780A1213F77C067903EED0
:106FF000FA122C59740212118A780A12F0A812F0AF
:107000001770FB75E1957904122D9D12EECA80026E
:1070100079007F020212B612ECF1150AE50A22EAA3
:10702000FEEBFF9061D0E0F87480C398FA12F0B3E1
:107030002274F61211E412F01F60047804800278C2
:1070400000E82404F8EAC398404B7802900543E82E
:10705000F0EE24F512F81190054412F0AE601B75A5
:107060000A43750B05780A1213F77C027903EEFACE
:10707000122C59740212118A780612F0A812F01715
:1070800070FB75E19512F09A7904122D9DEE240D96
:1070900012EECD8002790002F012EE241DF582E49A
:1070A0003FF583E4F0A3F02212F120880A22F012C7
:1070B000F0B322EE2483F582E43FF583E02274F6F8
:1070C0001211E412ECF66004780480027800E824DF
:1070D00004F8ECC398403E78029005437407F0EA48
:1070E00024F612F83790054412ED046019750A432E
:1070F000750B05780A1213F77C027903122C597468
:107100000212118A780612F11A12ECEDDAFB75E11F
:107110009579018002790002F01212F120E8FA223A
:10712000740128F5D975D9037582437583052274D6
:10713000F71211E4E9FFA2AFE433FEC2AF7C008096
:10714000010C12F1C65011ECF8EA28F8E43BF912F0
:10715000F1BCE06F70EB8016EA246EF8E43BF9E0D6
:10716000FCEA2CFAE43BFB12F1E9EF12F2ADEEA2DD
:10717000E092AF02EEE9C082C083A2AFE433FDC269
:10718000AF12F83414F07C00801BECF8EA28F8E425
:107190003BF9E8246BF582E439F583E0C0E012F1B5
:1071A000BCD0E0F00C12F1C640E0EA246DF582E4B8
:1071B0003BF58374FF12F1F3ED02E729E8246AF549
:1071C00082E439F5832212F834F8ECC39822C082A5
:1071D000C083A8A8C2AF12F1E9E912F1F3E8A2E76F
:1071E000E433FAE8A2E702E72BEA246AF582E43BFB
:1071F000F58322F0EA2469F582E43BF583E4F0228A
:1072000074F31211E4EAFEEBFFECFAEDFB8A828BD9
:1072100083A3A3A3A3E0541FF0EE2436F582E43F3A
:10722000F583E4F0750C00EE245DFCE43FFD8A82FA
:107230008B83E08C828D83F0750D00E50C33333346
:1072400054F8F50E8A828B83E0F50A750B00E50D84
:10725000780A121142E50AA2E05027EE2436F8E43B
:107260003FF988828983E0F50AEE250AF50AE43FB2
:10727000F50BE50A2438F582E4350BF583E50E12AB
:10728000F2AD050D050EE50DC3940840B7050C8A57
:10729000828B83A3AA82AB838C828D83A3AC82ADC5
:1072A00083E50CC3940540867F050212B612F2B343
:1072B00004F022F088828983E02274F71211E490AE
:1072C00003C4E06401700302F3949003CAE0600316
:1072D00002F3947401F0A3E4F0A3F090042A04F004
:1072E00090042FF09003CD12F39B9003D704F090FD
:1072F00003FDE4F09003E012F3A2A3F0900447F042
:1073000090043BF090044AF09004307480F0A3E4C1
:10731000F0900436F09004B312F3B99004BCF090EE
:10732000044BF090049B12F3B9A3F0A3F09004A7D0
:10733000F09004A9F09004A5F09004BF12F3B99066
:1073400004D2F09004CC12F3A274FF9004327804BB
:10735000F0A3D8FC7A257B0478D3790412F3B464C3
:10736000D87003E9640470F47AAB7B0478AC7903D9
:1073700012F3B464B47003E9640370F49003C4E0DE
:1073800004F0640170089003CCE09003C6F07AC862
:107390007B0380047A007B0002EEE9E412F3AEA3E3
:1073A000F02212F3A62212F3AEA312F3AE22F0A340
:1073B000F0A3F02212EF79E82212F3A6A3F0A3F0D3
:1073C00022C082C0838A828B83A3A3A3E0600F8A3A
:1073D000828B83A3A3A3E4F09003C5E014F0900391
:1073E000C4E014F070069003C674FFF08A828B83A9
:1073F000A3A3E4F09004D8E0700D9003C5E064010D
:1074000070057900122D7F02E72DC082C0839003A2
:10741000CBE4F09003CAF09003C4F0A3F0A374FF90
:10742000F075E1F102E72DC082C083780079009009
:1074300003CBE0600478C8790388828983A3A3A37F
:10744000A3E0F902E72D74EE1211E48A0C890E9084
:1074500003C5E0F8E9C398502278FF79FF9003CB89
:10746000E0601390043BE0640170059004418003E8
:107470009003F612F575E8FEE98011E96009A312A0
:10748000F56712F5588005EA2AFEEB33FF8E108F60
:1074900011740378101211529003C5E0F8C3E5107F
:1074A00098E5119400500302F544E50C25E0F50C35
:1074B000EB33F50DEC2CF50AED33F50BAC0CAD0D03
:1074C0008007EC2402FCE43DFDC3E50A9CE50B9D2E
:1074D0004060C3EC9EED9F403FECF8EDF9EEFAEF13
:1074E000FB1210E98B11EA451160068E108F118096
:1074F00006751000751100ECF8EDF9EEFAEFFB12CD
:1075000010E98A128B13EC9512F8ED9513F9E82522
:1075100010FCE93511FD801AE0F8E50EC398501211
:10752000EEF8EFF9ECFAEDFB1210E98B11EA4511D8
:107530007090C3EC950CED950D4009C3E50A9CE5F0
:107540000B9D50067AFF7BFF8009ECFAEDC313FB1D
:10755000EA13FA7F0A0212B674F628F58274033928
:10756000F583E0FEA3E022E0F875F00BA4C8AAF0D2
:107570002AF922F58312F8BA2274F61211E474FC87
:10758000121174EAFEEBFF803CEE2463F8E43FF94D
:107590007A007B00A2AFE433F50A12F624EC4D60CA
:1075A0000F12F873700A88828983A3A3E4F0A3F012
:1075B000E50AA2E092AF1234279004D9E004F090DB
:1075C00004DAE004F0EE2463F582E43FF58312F878
:1075D000AE70B69004DAE060358E828F83A3A3A3E9
:1075E000A3E0851A82851B83F0A3E4F09004DAE01F
:1075F000F874021211C0E8F0A3E4F074021211DA78
:10760000AA1AAB1B79011228DB9004DAE4F0EEFA37
:10761000EFFB122BB1EEFAEFFB122C8F7404121158
:107620008A02F012C2AF88828983E0FCA3E0FD22C7
:1076300074F71211E4EAFEEBFF8E828F83A3A3A3FB
:10764000A3E0FA7B001228B1EEFAEFFB122BC9126D
:107650002C7102EEE9C082C083E49003AC7808F09C
:10766000A3D8FC9003AC0402E5D674F61211E4EA48
:10767000FEEBFFEC2403F8E43DF9880A890BEC24C7
:1076800007F8E43DF9E8FCE9FD12F6B71210E9EE5F
:10769000240D12F6AB12F6B71210E98B0BEA450B6C
:1076A0006006EE240D12F6CA02F012F582E43FF5F0
:1076B00083E8F0A3E9F0228C828D8312F8BA850A60
:1076C00082850B83E0FAA3E0FB22F582E43FF58399
:1076D000E02401F0A3E03400F02274F61211E4EA91
:1076E000FEEBFFEE242EF582E43FF58312F62A78B6
:1076F0000079FAECFAEDFB1210E9EE246F12F6AB0A
:10770000780079FAECFAEDFB1210E98B0BEA450BE5
:107710006006EE246F12F6CA02F01274F41211E43D
:10772000EAFEEBFF122D378A0A8B0B8C0C8D0D9025
:10773000838F780A120FB89083AF780A12100678F8
:107740000A1213F38E828F8312F81912104A122034
:1077500044740412118AE9600302F8098E828F834F
:10776000E02402F8A3E03400F9E8FAE9FB740C1213
:1077700011C0780A12102C8A828B83780A120FCBE0
:107780009083AF780A12102C8A828B83780A1210A9
:1077900019EE240BF582E43FF583C082C0838E820C
:1077A0008F83A3A3A3A3A3E02401F8A3E03400F9EB
:1077B000D083D082E0687003A3E06970047901800F
:1077C0004A8E828F83A3A3A3A3A3A3A312F6D0EE12
:1077D000247312F81164017013EE247412F82370EC
:1077E00003A3E0697006EE247412F6CAEE247F1239
:1077F000F81164017013EE248012F8237003A3E0E3
:10780000697006EE248012F6CA790002E92DEE2492
:1078100083F582E43FF583E02212F81D2212F85826
:10782000A3A32212F8B48E828F83A3A3A3A3A3A33E
:10783000A3E06822EA246EF582E43BF583E022743B
:10784000F71211E412F8A38A828B836005A3A312B6
:10785000F85812F86102EEE1E0F8A3E0F5838882BF
:107860002212F899A3A3ECF0A3EDF08C828D83E4AF
:10787000F0A32288828983E0FAA3E0FB8A828B83CB
:10788000E0FCA3E0FD8882898312F899E4F0A3125A
:10789000F2B3FCA3E0FDEC4D22ECF0A3EDF08A8204
:1078A0008B8322A2AFE433FEC2AF8A828B8312F8AD
:1078B000BAE84922F582E43FF583E0F8A3E0F92233
:1078C00074F71211E4E96006F812F8D5D8FBECFA67
:1078D000EDFB02EEE98C828D83E08A828B8312F8C5
:1078E000EB8A828B83A3AA82AB8322F08C828D8366
:1078F000A3AC82AD832274F41211E4890AEAFEEB90
:10790000FF12FFDA6005791102F9CC9002A5E0546C
:107910000560309002D412FFDD600512FBF870059F
:10792000791002F9CC9002A5E0A2E04006122617D9
:10793000E960158E828F83E0F8740368600A740230
:10794000686005791202F9CC7A0C7B0012346990D8
:1079500002C012FB8612FFDA606E12FD10E50A12F9
:10796000F9CFE4F0750C0AF50D780C1213F7EEFC64
:10797000EFFD9002C0E02402FAA3E03400FB1233D2
:10798000A3740212118A1225BDE9FE60051225E1D9
:1079900080389002A6E0640370307A1D7B001224C8
:1079A0009D9002A712FB869002A712FFDD601B903C
:1079B00083E712140A7A047B009002DAE0F91235A8
:1079C0000B740412118A80027E13EEF902FF0DF08F
:1079D0009002C012F9D72212FF23F5838882A322D6
:1079E00074EE1211E4890E8A0C8B0D8C108D11909F
:1079F00002A5E05405700302FA847401650C700D51
:107A00009002D412FFDD607C9002D4800B9002D6ED
:107A100012FFDD606F9002D6E0FEA3E0FFEBC3949F
:107A2000205008EB6009EC4511700479028057E59D
:107A30000E9016C7F08E828F83A385820A85830BF2
:107A40007C1F7D007900AA0AAB0B1233BB850D1297
:107A500075130078121213F7AC10AD11AA0AAB0B14
:107A60001233A3740212118A8E828F83E50DF0F90E
:107A7000E50CAA0AAB0B6005122839800312283FD7
:107A8000E9F9800279127F0A0212B674F71211E442
:107A900012FFD870047912803912FBF86E600479F5
:107AA00003802F7A027B009002DAE0F91235119000
:107AB00002D8E4F0A3F07A04FB9002DAE0F9123580
:107AC000119002A7E4F0A312F9CF7403F079001229
:107AD000284502FB7ED083D082020E1274F7121169
:107AE000E49002D412FFDD600D12FF1712346F9084
:107AF00002D4E4F0A3F09002D612FFDD60109002F1
:107B0000D612FF1A12346F9002D6E4F0A3F090025E
:107B1000A5E05405605F7AC87B1612262F7E009080
:107B200002A5E05405604A7A207B0012346912FBFA
:107B3000839002D412FFDD60367C207D0079001234
:107B400033BB7A207B001234699002D612FB8690F8
:107B500002D612FFDD600B7C207D0079001233BB62
:107B6000800F12FF1712346F9002D4E4F0A3F07E5E
:107B700013EEF980097A007B0012262F79007F012D
:107B80000212B69002D4EAF0A3EBF02274F61211BE
:107B9000E47E018A828B83A3A3A3E0FCA3E0FD8C97
:107BA0000A8D0B780A12143B062004EBFBB7FBEBA3
:107BB000FBC9FBC9FBBFFB12FF551225C380061290
:107BC000FF551225C9E9FE802474086C70037420E7
:107BD0006D70047901800279008A828B83A3A3A34C
:107BE000A3A312FBF5FA1225CF80027E00EEF90264
:107BF000FF129002D4E0F8A312FD10E02274F212FA
:107C000011E412FFDA700302FCCF12FD0BA3E0F5C2
:107C10000D122617E960137A0A7B0012249D8A0A46
:107C20008B0BAE0AAF0B7A0B802A1225E7E96013A3
:107C30007A067B0012249D8A0A8B0BAE0AAF0B7A60
:107C40000780117A087B0012249D8A0A8B0BAE0AEA
:107C5000AF0B7A097B0012249D8A0A8B0B9002A637
:107C6000E07005750C008003750C019002C0E024E3
:107C700004FAA3E03400FB12F9D0A3A3E0F9122424
:107C8000C1E9F912FF20C8240B12FCD61213FB1213
:107C9000FF20C8240A12FCD61213FB9002C0E02475
:107CA00004F50EA3E03400F50F780E1213F7E9F592
:107CB0000E780E1213FB780C1213FBA90DAC0AAD53
:107CC0000BEEFAEFFB122833740612118A80027948
:107CD000017F060212B6F582E438F583E0F50E78EE
:107CE0000E2274F71211E412FFD8601AEE700C1213
:107CF000FD0B7401F0F9122845E9FEEE6004F9125B
:107D000025DB79018002790002FB7E12FD10A3229F
:107D1000E0F58388822274F01211E412FFD8700318
:107D200002FDF712FD0BE06401600302FDD0122595
:107D3000E7E960557A017B0012249D8A0A8B0BE4E7
:107D4000F50CF50DC3EA9442EB9400402B9083E7C9
:107D500012140A7A027B009002DAE0F912350B74F1
:107D60000412118AE50A24C4F8E50B34FFF99002E5
:107D7000D8E8F0A3E9F08041908387780E12102CA8
:107D8000780A790E120E7E80107A007B0012249DF4
:107D90008A0A8B0BE4F50CF50DE50A450B450C45FD
:107DA0000D6016780A1213F37A027B009002DAE073
:107DB000F9123505740412118A12F9D07402F09088
:107DC00002A9E07007EEF91225DB8027E4F080239A
:107DD0009002A9E0701D7A037B001233C7EA4B6062
:107DE0000F12FDFE7404F09002C012FF5E1233D336
:107DF0001225E17901800279007F080212B68A8299
:107E00008B8374D0F0EEA3F08A828B83A3A32274B9
:107E1000F61211E4E9FEEAFF9016C7E0F4602A7A50
:107E2000047B001233C7EA4B601F8A828B8374D0B5
:107E3000F0EF12FE067402F0EE8A828B83A3A3A3F6
:107E4000F09016C7E0F91233D302FF1274F4121146
:107E5000E4E9FE74016E600302FEE89002D812FFAE
:107E6000DD60069002A9E0601212FFDA700302FFE3
:107E70000B12FBF8F91225AB02FF0B9002D8C3E0FE
:107E8000943CA3E09400400D9002D8E024C4F0A3F9
:107E9000E034FF80507A027B009002DAE0F912357C
:107EA000119002D8E0F50AA3E0F50BE50A75F0E8B9
:107EB000A4C50AA8F075F003A428F875F0E8E50B4E
:107EC000A428F50BE4F50CF50D780A1213F37A02E9
:107ED0007B009002DAE0F9123505740412118A90E1
:107EE00002D8E4F0A3F0802312FFDA601E9002A50E
:107EF000E0A2E250167A027B009002DAE0F9123535
:107F0000119002D8E4F0A3F01225E180007F040272
:107F100012B67F020212B69002D4E0FAA3E0FB226E
:107F20009002C0E0F8A3E02274F61211E412FFD828
:107F300060207A037B001233C7EA4B600F12FDFE0C
:107F40007403F09002C012FF5E1233D3EE6003128E
:107F500025E102FF128A828B83A3A3A3A3A3E0F8E7
:107F6000A312FD10E0F922C082C08312FFDA601074
:107F70009002C012FF1A12346F9002C0E4F0A3F016
:107F800002FAD574F61211E474FF1211749002D43F
:107F900012FFDD60399002D4E02401F50AA3E03439
:107FA00000F50B780A1213F712FBF2FC740212119F
:107FB000D2790112250F740212118A8A828B83E50D
:107FC0008245836009E0A2E05004790180027900D3
:107FD000740112118A02FF12E9FE9002C012FF23FF
:107FE000F9E84922A8BDE8F9E5BCFAE9FB020E125E
:107FF00053B4F3EBF5BCEAF5BC020E12020E12FF0D
:108000000124AD260D24B3261924B9262524BF2624
:108010003124C5264324C5264F24CB262524D1262A
:108020003D24D726000000006124D7266D24DD26DC
:108030000000000000000000000000000000000040
:108040000000000000000000000000000000000030
:1080500000000000000000B000405104C1FF00F02B
:1080600000000000000000B000405104C2FF00F01A
:1080700001010201020101020102030304010301E3
:10808000010101010303020103432A7B31DD2F3F7C
:108090003435291126412F1F275335A930672777FB
:1080A00035546578617320496E737472756D656EB1
:1080B000747300312E3620284A756E202039203204
:1080C00030313629004343323534312053656E73E5
:1080D0006F725461670000000000000000B00040B3
:1080E000510442AA00F000000000000000B000406F
:1080F000510443AA00F000000000000000B000405E
:10810000510444AA00F000000000000000B000404C
:108110005104C0FF00F000000000000000B000406B
:10812000510433AA00F0FB349B5F800000800010F4
:1081300000000000000000000000000000B000404F
:10814000510432AA00F000000000000000B000401E
:10815000510431AA00F000000000000000B000400F
:10816000510430AA00F000000000000000B0004000
:10817000510441AA00F000000000000000B00040DF
:10818000510402AA00F000000000000000B000400E
:10819000510440AA00F000000000000000B00040C0
:1081A000510401AA00F000000000000000B00040EF
:1081B000510400AA00F000000000000000B00040E0
:1081C000510423AA00F000000000000000B00040AD
:1081D000510422AA00F000000000000000B000409E
:1081E000510421AA00F000000000000000B000408F
:1081F000510420AA00F000000000000000B0004080
:10820000510453AA00F000000000000000B000403C
:10821000510452AA00F000000000000000B000402D
:10822000510451AA00F000000000000000B000401E
:10823000510450AA00F000000000000000000000FF
:1082400000000000008700000000000000B00040B7
:10825000510413AA00F000000000000000B000402C
:10826000510412AA00F000000000000000B000401D
:10827000510411AA00F000000000000000B000400E
:10828000510403AA00F000000000000000B000400C
:108290005104C3CC00F000000000000000B000401A
:1082A0005104C2CC00F000000000000000B000400B
:1082B0005104C1CC00F000000000000000B00040FC
:1082C0005104C0CC00F000000000000000B00040ED
:1082D000510410AA00F0F401FA00960064004B006B
:1082E00032001E001400FE006578706572696D65CD
:1082F0006E74616C496D67204964656E7469667956
:1083000000496D6720426C6F636B007869E0AB5089
:10831000C3F0D20C00000000001B65236B2300009B
:108320003D334333000089238F2300004F335533FF
:10833000000047264D2600000D30133000000000DD
:10834000DF270000F532FB3200001B312131000035
:10835000D735DD35000019331F3300000000000061
:1083600000002530000000004E2E412E004E2E4110
:108370002E004E2E412E000500000055555500F1EF
:10838000FFFFFFB80B0000E80300000000FF000241
:108390000000000400000050000000140000004035
:1083A000420F0013010000FFFFFFFF00001000FF5D
:1083B000FFFF003C00000071020000F4FFFFFF0D12
:1083C000000000F8FFFFFF01C8000003000000F6F6
:1083D000FFFFFFE7FFFFFF00080000D6BE898E0702
:1083E00000000031B1E1FF60EA00000A0000000176
:1083F000000000B40000006400000019000000004C
:10840000000100430000000100FF007D0000001A91
:1084100000000010568110868110068110C682026D
:10842000378410E68102638410268202598410B6D4
:1084300082025B8410A6810A18232A242A252A2670
:108440002A052A042A032A022A012A002A022901CB
:1084500029032801282A2A002801180018272A2879
:108460002A502AE0FFE1FF292AC082C0839003043A
:10847000E075F005A4FAABF0123469900300EAF05D
:10848000A3EBF090030012891B70047913805A7AD1
:1084900000801574FFF0A31284ECF088828983A316
:1084A000A31284ECA3E4F00A900304E0F8EAC39872
:1084B0005020EA75F005A4F8A9F0900300E028F830
:1084C000A3E039F9EA8882898370C874FEF0A304B6
:1084D00080C57AA77B2612270D7AFB7B261223956F
:1084E0007A077B271229EF79000294DEF0888289CF
:1084F00083A3A3A32274F21211E4EAFEEBFF8E829F
:108500008F8312891B6055EE240312943C12864E11
:10851000750D00780C1213F78A828B83A312140E48
:108520007C027D007A577B8412247F740412118AA6
:10853000E9702E850A82850B8312864E780C121301
:10854000F78A828B83A312140E7C027D007A537B00
:108550008412247F740412118AE97005790202865C
:108560003E8E828F83A3A3E024F9C3940A40057949
:108570001802863E90173712891B600CC3E498FAE4
:10858000E499FB1286415005790102863E7A077B09
:10859000001234698A0C8B0DEA450D7005791302BF
:1085A000863E7A007B00803D9017371291738A0EC9
:1085B0008B0F7403780E121161850A82850B83E09C
:1085C000250EF8A3E0350F8882F583A3A3A3A3ECBF
:1085D000F0A3EDF0901737E02401F0A3E03400F0B1
:1085E0000AEA70010B12864140BE850C82850D831C
:1085F000E4F0A3F0750A05F50B780A1213F7EEFC08
:10860000EFFDE50C2402FAE4350DFB1233A37402EE
:1086100012118A90030212891B9003026017E0FA7C
:10862000A3E08003E8FAE9FB8A828B8312891B703E
:10863000F38A828B83E50CF0A3E50DF079000288C4
:108640000C8E828F83129191C3EA98EB9922128C3F
:10865000A48A828B83E0F50C22C082C083E9901744
:1086600036F00294DE74F61211E48A0A8B0BE9FFED
:10867000ECFAEDFB74145F600712268F7401800919
:10868000EFA2E6500E12268FE4FCAA0AAB0B122AC8
:108690002B800AA2E04004790280027900028CCD8E
:1086A00074F61211E48A0A8B0BE9FFECFAEDFBEF8A
:1086B000A2E5500F12268F7401FCAA0AAB0B122AF6
:1086C0002B804974885F603974085FFE12268FEE34
:1086D000FCAA0AAB0B122A2BE9F9602E740A1211BC
:1086E000C0128CA08A828B83A3A3A3A3A3A3E06060
:1086F0001B8A828B83A3A3A3A3A3E06401600B80E6
:108700000BEFA2E14004790380027900028CCD7462
:10871000F21211E474FB1211748A0A8B0B890CE4B7
:10872000F50EF50F780E1213F7750E02780E121370
:10873000F7750E41750F84780E1213F77CFF7DFFDD
:108740007A017B00122677740612118A8A0E8B0F2B
:10875000AE0EAF0FEE4F7003028803E4F50EF50F77
:10876000780E1213F77C047D00791DAA0AAB0B1258
:10877000274F740212118A74031211C0EAF0A3EB9E
:10878000F074031211C012891B60748E828F8312E1
:108790009189851A82851B83E8F0A3E9F07402129F
:1087A00011C07404F0141211C0128F8F7401F07490
:1087B000031211C0128F8FA3E4F074031211C012C0
:1087C0008F8FA3A374FFF074031211C01288117469
:1087D000FFF0E50CF50D780D1213FB790074011212
:1087E00011DAAA0AAB0B122695740112118AE9FE5E
:1087F000601374031211C0128CA012342780067EFD
:108800001580027E01EEF9740512118A7F060212AC
:10881000B6128F93A3A3A32274EA1211E48A148BD5
:10882000158C128D13900302E0F50AA3E0F50B748A
:10883000161211C0E0F516A3E0F51774181211C056
:10884000E0F50CA3E0F50D800D850A82850B83E031
:10885000F50AA3E0F50BE50A450B70030289127EC9
:10886000007F00E50A2405F510E4350BF5118005BD
:108870000EEE70010F850A82850B8312918BC3EE79
:1088800098EF9950C48E0E8F0F7403780E121161F9
:10889000851082851183E0250EF50EA3E0350FF5D6
:1088A0000F850E82F583129189C3E89514E9951519
:1088B00040BEC3E51298E5139940B5E50C450D603F
:1088C00023780C1213F778161213F7850E82850F92
:1088D00083E0FC7D00A3128CA012247F740412118B
:1088E0008AE9608C741A1211C012891B601E8510EF
:1088F00082851183E0FAA3E0F5838A82A3A3A3A370
:10890000128CA088828983EAF0A3EBF0AA0EAB0F49
:1089100080047A007B007F0E0212B6129191E84922
:108920002274EE1211E4ECFEEDFF900302E0FCA3D2
:10893000E0800A8C828D8312918DE8FCE9FDEC4D7C
:1089400070030289DF8C828D83A3129189880A8942
:108950000B8882F583A3A3A3A3E0F50EA3E0F50F94
:10896000C3EA950EEB950F40CA8C828D83A3A3E0DA
:10897000F510A3E0F511E50E2510F8E50F3511F916
:10898000C3EA98EB9950AC750C00750D0080080592
:108990000CE50C7002050DC3E50C9510E50D951165
:1089A0005091850C12850D1374037812121161E534
:1089B0000A2512F8E50B3513F988828983A3A3A34E
:1089C000A3E06A7003A3E06B70C5EE4F600B8E826C
:1089D0008F83E50EF0A3E50FF0E8FAE9FB80047A57
:1089E000007B007F0A0212B674F01211E474FE12CA
:1089F0001174EAFEEBFF750A00750B00851A82857B
:108A00001B83E4F0A3F0EE2404F50EE43FF50F859C
:108A10000E82F58312961DA385820C85830D74FF4B
:108A20006A700374FF6B6038A81AA91B880A890B47
:108A3000780A1213F78E828F83E0F50A750B00789F
:108A40000A1213F7850C82850D8312140EEA240195
:108A50000A50010B122677740612118A8A0A8B0BB0
:108A60008E828F83E0F51075110078101213F78550
:108A70000C82850D8312140E7C027D007A577B8454
:108A800012247F740412118AE970288E828F83E089
:108A9000F51078101213F7850C82850D8312140ED1
:108AA0007C027D007A537B8412247F740412118A25
:108AB000E9600B850E82850F83128CA080458E8223
:108AC0008F83E0F51078101213F7850C82850D83E3
:108AD00012140E7C027D007A517B8412247F740470
:108AE00012118AE9603674121211C0128CA0E50AC4
:108AF000450B600F851A82851B83E06A7003A3E033
:108B00006B60051226A1801F850A82850B83A3A3B3
:108B1000A3A3E024FFFAA3E034FF800A850E828538
:108B20000F83E0FAA3E0FB74141211C012918D8838
:108B3000828983E58245836005EAF0A3EBF0AA0A07
:108B4000AB0B02944874F61211E41226E38A828B6E
:108B500083E58245836005128CA080047A007B0047
:108B6000028CCD74F61211E41226E38A828B83E51F
:108B70008245836006A3A3E0F980027910028CCDC0
:108B800074F21211E474FC121174EAFEEBFF8C0A09
:108B90008D0B890C74021211DA1226E9E9F50D70B9
:108BA0007FE50C6022128C8C12267D851A82851B33
:108BB00083128CA012268FE9F97C01EEFAEFFB12EA
:108BC0002A2BE9F50D7059AC0AAD0BEEFAEFFB124A
:108BD00023E9E9F50D704974021211C0128C277453
:108BE000121211C0E0F50A74FF650A6033EE240228
:108BF000F50EE43FF50F780E1213F7750E1E750F84
:108C000000780E1213F7EEFCEFFD7A017B27122796
:108C100031740412118A8E828F83A3A3A3E50AF014
:108C2000A90D7404028809E0FEA3E0FF2274F51286
:108C300011E474FC121174EAFEEBFF8C0A8D0B89AF
:108C40000C74021211DA1226E9E9F974176960321C
:108C5000E50C6021128C8C12267D851A82851B837F
:108C6000128CA012268FE9F97C01EEFAEFFB122A92
:108C70002BE9F9700DAC0AAD0BEEFAEFFB1223E312
:108C8000E9F9740412118A7F030212B6851A8285EB
:108C90001B83E4F0A3F0AC1AAD1B850A82850B831D
:108CA000128CA422E0FAA3E0FB2274F61211E4EA8B
:108CB000FEEBFF122689EA4B600FEE24FFF8EF343B
:108CC000FFF9EA28FAEB398003EEFAEFFB7F0202A4
:108CD00012B674EC1211E474E61211748A0A8B0B4A
:108CE0008C0E8D0F7E007F00EC2402F50CE4350F16
:108CF000F50D850C82F583E0F8741E68705C122611
:108D0000EF8A0E8B0FAE0EAF0FEE4F7003028DADDC
:108D10008E828F83A3A3E0F874FE687003028DAD8A
:108D200074FF687003028DADE4F50EF50F780E1236
:108D300013F7850C82850D83E0FD7C00AA0AAB0B3E
:108D40008E828F83A3A3A3E0F912272B7402121142
:108D50008AEEFAEFFB1226F580538C828D83A38571
:108D600082128583137412687005E06401604312F7
:108D700026EF8A108B11AE10AF11EE4F6034EE2447
:108D800004F510E43FF511851082F583E0FC6022C4
:108D9000A2E74019850C82850D83E0F9AA0AAB0B86
:108DA000122743851082851183E0D2E7F079000213
:108DB0008F85901736E0F46068850C82850D83E01E
:108DC000FA74FE2AC394175058EAC313F5107511AC
:108DD000007402781012116174002510F874803547
:108DE00011F9E824FCF510E934FFF511851082F53E
:108DF00083129173EC4D6029E824FEF582E934FF7B
:108E0000F58312891B601A850E82850F83E0FB7043
:108E10000B851282851383E06401700A74126A6004
:108E2000057906028F8574041211CA881489157891
:108E3000141213F7850E82850F83A3A3A312140EB9
:108E4000850E82850F83A3A3A3A3A312917385121A
:108E500082851383E0FAEBF9851082851183128FE6
:108E60008F1211E2740412118AE9F50E6003028F69
:108E70008374041211DAAA0AAB0B850C82850D8368
:108E8000E0C313F50E750F007402780E12116174B1
:108E9000FE250EF582747F350FF583128F8F121128
:108EA000E2E9F50E6003028F2B850C82850D83E0CD
:108EB000FD74046D7003028F8374041211CA880E4E
:108EC000890F780E1213F77C00AA0AAB0B901736A5
:108ED000E0F912272B740212118AE9F50E600302E1
:108EE0008F83850C82850D83E0F974041211D212F0
:108EF00027498B0BEA450B600A742E1211C0128FA2
:108F00008FE4F0850C82850D83E0F8741268700B95
:108F1000851282851383E064016068EE4F6064E827
:108F20008E828F83A3A3A3A3F0805885128285131A
:108F300083E0704F850C82850D83E0851A82851B46
:108F400083F074031211C0E9F0850C82850D83E073
:108F5000F8740468600D740668600874086860033B
:108F600074106874041211C012918D74011211C032
:108F7000E8F0A3E9F0AC1AAD1BAA0AAB0B12239BD5
:108F8000750E00A90E741A12118A7F0C0212B61205
:108F90008F9322E0F8A3E0F5838882227900020E05
:108FA0001274EA1211E474FA1211748A128B138C7F
:108FB000828D83128CA0EC2402F514E43DF5158516
:108FC0001482F583C3E09AA3E09B4004EA4B70054A
:108FD000790102916B851A82851B83E4F074021279
:108FE00011C0E4F0A3F08007E82401FAE439FBE4BF
:108FF000F50AF50B780A1213F7780A1213F7780AB4
:109000001213F785148285158312917312267774D3
:109010000612118A8A0A8B0BEA450B700302910C27
:109020008A828B83A3858210858311EA2404F50C40
:10903000E4350BF50D851A82851B83E060030291F0
:109040001974041211CA880E890F780E1213F77C56
:10905000FF7DFF7905AA12AB1312274F740212117C
:109060008A8A0E8B0FAE0EAF0FEE4F70057911028C
:10907000916B74021211C0EEF0A3EFF0850A8285A5
:109080000B83E06402702374011211C07401F07448
:10909000041211C0E0F516A3E0F517740278161259
:1090A000115285160E85170F807974011211C07444
:1090B00002F074041211C012918D7A127B0012100A
:1090C000E9880E890F129197750A10750B00780ABE
:1090D0001213F71291791233A3740212118AEE243B
:1090E00010FE50010F851A82851B83E004F0C395A2
:1090F0000EE4950F5016850C82850D8312918D74A8
:10910000FF68700374FF696003028FE8851A828527
:109110001B83E0703B790A805274011211C0E06435
:109120000170A2850A82850B83E0640270DE1291D1
:1091300097750A02750B00780A1213F712917912CB
:1091400033A3740212118AEE2402FE50980F809508
:10915000AC1AAD1BAA12AB131223A7E9600B740261
:109160001211C0128CA01234277900740612118AD1
:10917000028916E0FCA3E0FD22851082851183E0C0
:10918000FCA3E0FDEEFAEFFB22A3A3A3A3129191AF
:1091900022E0F8A3E0F922850C82850D83E08E821F
:1091A0008F83F0A3AE82AF83850C82850D83A3E00D
:1091B0008E828F83F0A30EAF832274F61211E41215
:1091C00092624004EA4B700479018039E4F50AF5B3
:1091D0000B780A1213F78C828D83A3A3A3A3E0F567
:1091E0000A780A1213F71292561213F7EEFCEFFDEB
:1091F000122677740612118A8B0BEA450B700479DC
:109200000A80027900028CCD74F61211E412926287
:109210004004EA4B700479018039E4F50AF50B78D3
:109220000A1213F78C828D83A3A3A3A3E0F50A7817
:109230000A1213F71292561213F7EEFCEFFD1226E4
:1092400077740612118A8B0BEA450B7004790A8039
:10925000027900028CCDEC2405F50AE43DF50B788B
:109260000A228C828D83A3A3128C278C828D831279
:109270008CA4C3EE9AEF9B2274F61211E474FE12D2
:109280001174EAFEEBFF8C828D83AC1AAD1B128C3D
:10929000A012267D8A0A8B0BA80AA90BE849700444
:1092A0007901800A12937DEEFAEFFB1226657402B3
:1092B00012118A028CCD74F01211E474FE12117432
:1092C0008A0C8B0D8C0A8D0B750E008002050E85A5
:1092D0000A82850B83A3A3E0F8E50EC3985075AE10
:1092E0000EEE2EFEE433FF850A82850B83E02EF816
:1092F000A3E03FF988828983AC1AAD1BE0FAA3E0B2
:10930000F8E4C8F9EA28E439FB12267D8A108B11AB
:10931000A810A911E849701812936BE0888289831C
:10932000F012936BA3E088828983A3F079018026F1
:1093300012937DAA0CAB0D122665E9F9608F12938A
:1093400059E08A828B83F0129359A3E08A828B833F
:10935000A3F080027900029448850A82850B83126B
:109360008CA4EA2EF582EB3FF58322850A82850BD9
:1093700083129191E82EF582E93FF58322851A82C6
:10938000851B83E0FCA3E0FD88828983A3A3A3E07F
:10939000F92274F01211E4ECFEEDFF8E828F83123D
:1093A000918D129439C3E098A3E0994004E8497084
:1093B000057901029437EE2405F510E43FF511EE2E
:1093C0002404F50CE43FF50D850C82F583E0F50EE1
:1093D000750F00780E1213F778101213F77C027DC8
:1093E000007A577B8412247F740412118AE9700476
:1093F00079108043E4F50E780E1213F7850C828500
:109400000D83E0F50C750D00780C1213F77810122F
:1094100013F7850A82850B831291738E828F8312D4
:109420008CA0122677740612118A8B0BEA450B70FA
:1094300004790A800279008014EE2402F50AE43FE0
:10944000F50B850A82F58322740212118A7F0802C5
:1094500012B674F41211E474FE121174EAFEEBFFFA
:109460008C0A8D0B128C9612267DEA4B70047901C2
:109470008022780A1213F774021211C01291738AB3
:10948000828B83A3A3A3E0F9EEFAEFFB12266B74A1
:109490000212118A740212118A7F040212B6028F1C
:1094A0009CC082C0839003028004888289831289D1
:1094B0001B602788828983A3A3A3A3A3E0FCA3E066
:1094C000F5838C82A3A3A3A3E06A7003A3E06B706F
:1094D000D9E82402FAE439FB80047A007B00D083C7
:1094E000D082020E1274F61211E4ECFEEDFF122689
:1094F000EF8A0A8B0BA80AA90BE849602BEE4F6094
:10950000098E828F83E8F0A3E9F088828983A3A380
:10951000E0F874FE6870047917800F74FF687004B7
:1095200079008006791680027902028CCDC082C053
:10953000837C0080010C900304E0F8ECC398502574
:10954000EC75F005A4F8A9F0900300E028F8A3E07A
:1095500039F988828983E06A7003A3E06B70D6E8EA
:10956000FAE9FB80047A007B000294DE74F71211A2
:10957000E4EAFEEBFFEE2402FAE43FFB1227378E0B
:10958000828F83A3A3A374FFF07F010212B674F647
:109590001211E4E9FE1226EF8A0A8B0BA80AA90B26
:1095A000E849601BE82404F582E439F583EEF8E02D
:1095B0007B00240150010B684B7004E05480F002E2
:1095C0008CCD74F41211E4EA4B604FEA2402F50AE0
:1095D000E43BF50B850A82F583E0F874FF68603A96
:1095E00074FE686035EA2403FEE43BFFE4F50CF505
:1095F0000D780C1213F77D1E7C178A828B831296CE
:109600001DE0F912272B740212118A850A82850B3C
:109610008374FEF08E828F8304F0029499128CA4DE
:109620008E828F832274F01211E48A0C8B0D890EC6
:1096300074FE650C700474FF650D70030296FAE900
:10964000702B1226EF8B0BEA450B701E7AFF7BFF07
:109650001226EF8A0A8B0BAE0AAF0BEE4F600B8E11
:10966000828F83E50CF0A3E50DF00296FA74016594
:109670000E701A1226EF8A0A8B0BAE0AAF0BEE4F52
:1096800060788E828F8374FFF0A3F080217402656E
:109690000E70677901122A0DE9705FAA0CAB0D12EA
:1096A00026EF8A0A8B0BAE0AAF0BEE4F604C12947A
:1096B00039E0F874FF68603874FE686023E4F510E0
:1096C000F51178101213F77D1E7C14AA0CAB0D8EC9
:1096D000828F83A3A3A3E0F912272B740212118AAD
:1096E000EEFAEFFB1226F5850A82850B8374FFF0F4
:1096F0008E828F83A3A3A3A3E4F002944D74F4128B
:1097000011E4907803E064427056900542E014F052
:10971000704EC2AF12971700782AD0E0F618D0E04A
:10972000F6E59F5407F87005750BFF8003750B7FF6
:10973000C4C0E07829E6F50A08E6550BF50B740B72
:10974000780A121152D0E0250AF8906270E0A2E780
:1097500040F8E8C333906272F0906270E0D2E0F0BB
:109760009003C6E0F470030299F812A12DEE2402D2
:10977000F582EF3401129A54601CEE2402F582EF58
:109780003401F58312A09BEE2401F582EF3401F53C
:1097900083E0F91233F78E828F83A3A3A3A3A3A33D
:1097A000A3129A3812A064906054E090039FF09046
:1097B0006055E09003A0F0906056E09003A1F09017
:1097C0006057E09003A2F0906058E09003A3F090FF
:1097D0006059E09003A4F090605AE09003A5F090E7
:1097E000605BE09003A6F090605CE0FA9003A7F065
:1097F00090605DE0FC9003A8F090605EE0FD900357
:10980000A9F090605FE0FB9003AAF09003A5E02A26
:10981000F50AE43400F50BE50A2DF50AE4350BF5FD
:109820000BE50A2CFCE4350BFDEC2BFCE43DFDEED6
:1098300024F712A50C2CF0A3E03DF0EE24F912A5BC
:109840000C2AF0A3E03400F0EE24FB129A45603BB2
:10985000129A2AF582E91299FD3DF0906000E0FA33
:109860009003A7E0FCEA2AFAE433FBE82AFAE93B92
:10987000FBEA244AF582E41299FD3400F0129A2A98
:10988000F8E93BF9E82494129A17F09003A5E070E8
:109890000E9003A8E07008A3E07004A3E060568E69
:1098A000828F83A3A3A3A3A312A178129A067003A5
:1098B00012A8EA9003A0E0601FEE241C12A8571221
:1098C000A88EE07013EE247312A50C700BEE247FAB
:1098D00012A50C700312A8EAEE248212A50C7003E4
:1098E0000299736402707A9003A8E07074EE248287
:1098F00012A4F5807D12A03FF09003A7E0600A1249
:109900009A06702412A0F8801EEE24FD129A45607B
:1099100017906000E0F825E0F8E433F9EE24FF1238
:10992000A07A24DE129A17F012A031129A38E06859
:109930007003A3E06960030298B312A50960128E58
:10994000828F83A3A3A3A3A3E064057002A3E060B6
:109950000479088002793EEEFAEFFB122BCF0299D0
:10996000F89003A8E0700CEE2482F582E43FF583C2
:109970007402F0906062E060248E828F8312A8F8F7
:10998000E82406FCE439FDE82402FAE439FB122D50
:10999000318E828F8312A0EAE4F0A3800612A03FEA
:1099A00012A06AF0906060E0C0E0EE2468F582E406
:1099B0003FF583D0E0F09061C8E060061216C2E97E
:1099C00070F48E828F83A3A3A3E0602C9061C8E023
:1099D00070069060607480F0EEFAEFFB122CEFE9F5
:1099E000640160147902EEFAEFFB121853122CE3B3
:1099F000E964016003122C717F040212B63BF58307
:109A0000E02CF0A3E022EE240FF582E43FF583E49E
:109A100012A06FE0640122F582E439129A1F22F548
:109A200083E02401F0A3E0340022906000E0FA25F6
:109A3000E0FAE433FBE82A2212A8FC8E828F83A38B
:109A4000A3A3A3A322F582E43F129A1FF0EE24FF02
:109A5000F582E43FF58312A8FCE8492253BFEF02E8
:109A60000E1274F01211E49003C612A12D9061D071
:109A7000E07008EE2463129A50600512A03F802324
:109A8000EE246912A50C701CEE247312A50C701440
:109A9000EE247F12A50C700CEE241C12A53070046D
:109AA00012A0F8F08E828F83A3A3A3A3A312A09386
:109AB000241D12A07A240108500109EE2407F50A9A
:109AC000E43FF50B850A8212A06212A031C3E09830
:109AD000A3E09950208E828F83A3A3A3A3A3A3A363
:109AE000C082C08312A03112A8F8D083D08212A9FC
:109AF00016501B802112A031C082C0838E828F83BA
:109B0000A3A312A8F3D083D08212A9025008900414
:109B1000DEE06401700312A153EE247312A53070CD
:109B20005312A01B12140E12A10E12167B740212F5
:109B3000118AE9603F8E828F83A3A3A3A3A3A3A36B
:109B4000C082C08312A0CCD083D082E0687003A30F
:109B5000E0697003029C02EE247412A50C68700385
:109B6000A3E0697003029C02EE2474F50CE43F85C7
:109B70000C828059EE247F12A5306003029C02EE15
:109B80002480F582E43FF58312140E12A10E121602
:109B90007B740212118AE960698E828F83A3A3A36A
:109BA000A3A3A3A3C082C08312A0CCD083D082E0A1
:109BB000687003A3E069604AEE248012A50C687007
:109BC00003A3E069603CEE2480F582E43FF583E086
:109BD00024FFFAA3E034FFFB850A82850B83EAF0B9
:109BE000A3EBF08E828F83A3A3A3A3A3E0FCA3E047
:109BF000FD1216BAEA24FFF8EB34FFF9EE241D1229
:109C0000A05EEE248212A50C600312A153EE247311
:109C100012A5306003029D6912A01BC082C083128E
:109C2000A0CCD083D082E0687003A3E06960030217
:109C30009D69EE2474F50CE43FF50D850C82F583E7
:109C400012A8F8850A82850B8312A064EE2476FCA4
:109C5000E43FFDEEFAEFFB122BDBEE247B12A08D2E
:109C60002420F582E43FF583E8F0A3E912A06A120C
:109C7000A546240F12A518850A82850B8312A178A8
:109C80008E828F83A3A3A3A3A3E0FCA3E0FD850C96
:109C900082850D8312A09B1216BA8A0A8B0B12A022
:109CA0001112A09BE4F50CF50D8A0E8B0FF510F543
:109CB00011780A790E120E7EEE247712A054780ADB
:109CC000790E120FA5EE247912A50C6A7003A3E099
:109CD0006B701812A0BDE0687003A3E069700C12ED
:109CE000A0A1E0687003A3E0696043EE247DF582E3
:109CF000E43FF58312A55B121152780E1213F7EEB2
:109D0000247BF582E43FF58312140EEE247912A52C
:109D10000CFCA3E0C313FDEC13FC8E828F83A3A382
:109D2000A3A3E0FA7B001228D5740412118AEE2452
:109D30007612A50CC0E0EE242BF582E43FF583D02B
:109D4000E0F0EE247912A08D242E12A05E12A0A1C4
:109D500012A06412A0BD12A064EEFAEFFB122BE178
:109D6000EE247312A4F5F0800312A14112A0251273
:109D70000E2A7014EE241F12A50CF8EE241D12A555
:109D80000C687002A3E06030EE2412F50EE43FF59B
:109D90000F780E1213F7EE2410F582E43FF58312CC
:109DA000140E12A04612140EAA0AAB0BAC0CAD0D89
:109DB0001221E2740612118A12A02512103BEE2421
:109DC0001D12A50CC0E0EE241FF582E43FF583D000
:109DD000E0F0EE2412FCE43FFD12A07F12211E9061
:109DE0006062E0600A7C147D8312A07F12211E8EC7
:109DF000828F8312A8F888828983A3A3E82408FCB1
:109E0000E439FD74061210878E828F83E02402F8F5
:109E1000A3E03400F9E8FAE9FBEE241D12A054E4B3
:109E2000F510F5119083EF780E120FB8780E790ABD
:109E3000120E7E8A828B83780E120FCB9083AF78BE
:109E40000E12102C8A828B83780E1210199004D86F
:109E5000E064016003029F907901122D7F12A097A8
:109E6000750AFF750BFF750CFF750DFFEA240EF5E3
:109E700082E43BF583780A12103BEA2412F8E43BB3
:109E8000F9E8FAE9FBEE2412F582E43FF583780A5B
:109E900012102CE50A75F0E2A4C50AA8F075F004CA
:109EA000A428F875F0E2E50BA428F50B8A828B83D1
:109EB000E0250AF0A3E0350BF0EE241612A50CF510
:109EC0000AA3E0F50B7404780A121152E50A240182
:109ED000F8E4350BF98A828B83E028F0A3E039F0AF
:109EE000906062E08E828F837003029FE912A0E38C
:109EF000F0A3E03401F012A509602CEE242B12A58A
:109F00000CF875F071A4C8AAF075F002A42AF98EB5
:109F1000828F83E0FAA3E0CA2412F582E43AF58343
:109F2000E028F0A3E039F012A0978A828B83A3A3E4
:109F3000C082C08312A141D083D082780A120FB8A8
:109F40009083C3780A120FB89083AF780A12100674
:109F5000EA2416F582E43BF583780A12103BEA24E2
:109F600014F582E43BF5837410F08E828F83E0F861
:109F7000A3E0C8241AF582E438F5837457F0A3747B
:109F80002BF0EEFAEFFB1215D679007F080212B61D
:109F9000908397780A120E5F5003029E5DEE241D97
:109FA000129A506003029E5D780A1213F3EEFAEFE4
:109FB000FB122BE7740412118AE964016003029E0C
:109FC0005D12A50960128E828F83A3A3A3A3A3E0D1
:109FD00064057002A3E0600479088002793EEEFA1D
:109FE000EFFB122BCF790180A212A0E3F8A3E0349B
:109FF000FFF97A717B021210E9880A890B12A0110D
:10A0000012A8F8C3E50A98E50B995003029EF68062
:10A01000C7EE242EF582E43FF58322EE2474F58208
:10A02000E43FF58322EE2418F582E43FF583780AB5
:10A030002212A03522EE240BF582E43FF583221292
:10A04000A046E4F0A32212A04A22EE241DF582E4E9
:10A050003FF5832212A510F50EA3E0F50F22F5823D
:10A06000E43FF583E8F0A3E9F02212A06FE422F0C8
:10A07000EE241CF582E43FF5832212A189E8228EAA
:10A08000828F83E02402FAA3E03400FB22F582E40D
:10A090003FF58312A0B6228E828F83E0FAA3E0FB05
:10A0A00022EE247B12A0B02430F582E43FF5832217
:10A0B000F582E43FF583E0F8A3E0F9EE22EE247D9B
:10A0C00012A0B02432F582E43FF5832212A0D02200
:10A0D0008E828F83A3A3A3A3A3E02401F8A3E0347B
:10A0E00000F92212A0EAE0241022E0F8A3E0C8243C
:10A0F00012F582E438F5832212A0FC22EE2420120D
:10A10000A510F8A3E0F912A04AE8F0A3E9228E8294
:10A110008F83A3A3A3A3A3A3A3E0FCA3E0FD8E824C
:10A120008F83A3A3A3A3A3E0FAA3E0FB22E0F87527
:10A13000F00BA4C8AAF02AF974C828FE740339FFEA
:10A1400022EE242E12A510F50AA3E0F50BE4F50C7F
:10A15000F50D2212A16A12A0D08E828F83A3A3A331
:10A16000A3A3A3A3E8F0A3E9F022EE241DF582E463
:10A170003FF583E4F0A3F02212A0B6240D12A189CA
:10A1800012A035E8F0A3E9F02212A51028F8A3E008
:10A1900039F92274EC1211E4EAFEEBFF8C828D8314
:10A1A000E0F8A385820A85830B603B14700302A24A
:10A1B000FB14700302A4C014700302A34224FD70B8
:10A1C0000302A40214700302A4EE14700302A42973
:10A1D00024FE700302A40714700302A42014700369
:10A1E00002A46E02A4DEEE2476F512E43FF513E03D
:10A1F00085128285138312A54CEE2477F510E43F77
:10A20000F5117902AC0AAD0BAA10FB122BF38A0AE6
:10A210008B0BEE2479F50EE43FF50F7902AC0AAD15
:10A220000BAA0EFB122BF38A0A8B0B7902AC0AAD38
:10A230000BEE247BFAE43FFB122BF38A0A8B0BEE26
:10A24000247D12A51D122BF38A0A8B0B85128285A1
:10A250001383E0C333F085108285118312A57085C6
:10A26000108285118312A064850E82850F8312A54A
:10A2700070850E82850F8312A064850C82850D8304
:10A2800012A55B121161850C82850D83E50EF0A38A
:10A29000E50FF0EE247412A51D122BF3850C8285B8
:10A2A0000D83C082C08312A8EFD083D08212A5672D
:10A2B0005079EE247D12A144EE247B12A50C2401DA
:10A2C000F50EA3E03400F50FE4F510F511EE247956
:10A2D000F582E43FF58312A57088128913E4F51422
:10A2E000F515780E7912120E7E780A790E120E3F4D
:10A2F0004004793B8037EE2473803C7905AC0AAD8D
:10A300000B7AD37B04122BF38A0A8B0BEE24801278
:10A31000A51D122BF3850C82850D83C082C083128C
:10A32000A8EFD083D08212A56740097928EEFAEF12
:10A33000FB02A4D9EE247F12A85712A5462482025C
:10A34000A423EE24E212A50C700D12A4FD12A57A2E
:10A350007003EB640370F6EE24E312A50CA2E0EEAA
:10A36000401024DEF582E43FF583741AF0790D0283
:10A37000A4BA12A53624E112A5187908AC0AAD0BCF
:10A38000EE249CFAE43FFB122BF38A0A8B0B790232
:10A39000AC0AAD0BEE24A4FAE43FFB122BF38A0ABD
:10A3A0008B0BEE2494F50CE43FF50D7908AC0AAD67
:10A3B0000BAA0CFB122BF38A0A8B0B7908AA0CABA5
:10A3C0000D122BF9EE2488F50CE43FF50D7904AC61
:10A3D0000AAD0BAA0CFB122BF37904AA0CAB0D12DD
:10A3E0002BF9EE248CFAE43FFB122C0BEE2484FABA
:10A3F000E43FFB122C1190039AE04480F0790402B0
:10A40000A4BAEE24DF801CEE12A53624D312A88451
:10A4100024DD12A87C24D412A4F5F0790B02A4EB5D
:10A42000EE24E012A51802A4EE12A4FD12A57A7083
:10A4300003EB640370F612A4FD8A828B83E0FC8533
:10A440000A82850B83E05C8882898312A54C8A820C
:10A450008B83A3AA82AB8388828983A3A882A983E2
:10A46000EA64B47003EB640370CF7909804CEE2486
:10A47000EB12A5306068850A82850B83E0C0E0128C
:10A48000A8E0D0E012A54C7902AC0AAD0BEE24EFA7
:10A49000FAE43FFB122BF38A0A8B0B7902AC0AAD6C
:10A4A0000BEE24F1FAE43FFB122BF3EE24EB12A89F
:10A4B0007C24ED12A50C7036790CEEFAEFFB802BA4
:10A4C000EE24F5F8E43FF9E088828983F0EE24F485
:10A4D00012A51888828983E0F9122BCF8010EE2410
:10A4E000F6F582E43FF583E8F07907122B937F0CB1
:10A4F0000212B624DFF582E43FF583E422EE24E382
:10A50000F8E43FF97AAC7B0322EE240F12A5102267
:10A51000F582E43FF583E02212A857F022F50CE41F
:10A520003FF50D7902AC0AAD0BAA0CFB22EE2469B3
:10A5300012A5106401222462F582E43FF583E4123F
:10A54000A8AAE4F0EE22F012A16AEE22F0850A82B7
:10A55000850B83A385820A85830B22E0F50EA3E099
:10A56000F50F7404780E2212A90B94FFE9947F2250
:10A5700012A8FCE828F8E933F9228A828B83E08864
:10A58000828983F08A828B83A3AA82AB83888289A3
:10A5900083A3A882A983EA64B42274F61211E4EAC0
:10A5A000FEEBFF02A706EEFAEFFB122B8702A83A9A
:10A5B00012A52D703C9003A2E0700302A795EEFA5D
:10A5C000EFFB122B99EE24A4F50AE43FF50B780A71
:10A5D0001213F7EE249CFCE43FFD8E828F83A3A32D
:10A5E000A3A3E0FA7B001228BD740212118A02A70D
:10A5F00006EEFAEFFB122B5D02A83A12A52D702E83
:10A600009003A2E06011EE248312A87C24D512A846
:10A6100074EE24D912A874EE24DF12A53060030270
:10A62000A7957906EEFAEFFB122B9F02A706EE2400
:10A63000D312A530701BEEFAEFFB122B63E9640115
:10A64000600302A850EE12A4F312A88E740102A8AF
:10A650003EEE24D412A50C700302A850EE24B3F5EC
:10A660000AE43FF50B780A1213F7EE248CFCE43F62
:10A67000FDEE24C3FAE43FFB122C17740212118A78
:10A68000EE24D312A857805A12A52D70589003A219
:10A69000E0700302A79512A8EAEEFAEFFB122B99DD
:10A6A00012A89DEE24DD12A530701379008E828FE2
:10A6B00083A3A3A3A3E0FA7B001228C980137C0123
:10A6C00079008E828F83A3A3A3A3E0FA7B001228D4
:10A6D000C3EE24DD12A88424E112A88412A88212F9
:10A6E000A4F3F08021EEFAEFFB122B6902A83A12D4
:10A6F000A52D7066EE24E012A530600302A795EE4A
:10A70000FAEFFB122B99EE246E12A50C700302A82F
:10A7100050EE246A12A50C24FE602C24FE70030265
:10A72000A5B014700302A5FB14700302A688147070
:10A730000302A84124FE607424FE60B31470030277
:10A74000A7CC14603280BF12A52D600302A5A6908D
:10A7500003A1E06040791602A823EEFAEFFB122B6A
:10A760006FE96401600302A850EE12A882248312EC
:10A77000A884246902A68312A52D70269003A2E066
:10A78000600AEE248312A4F5F012A89D9003A1E0C4
:10A79000600302A6FF12A8B5129A56600302A850E1
:10A7A000807FEEFAEFFB122B7502A83A12A52D70EE
:10A7B000129003A2E060DEEE24E212A51812A8EACD
:10A7C00002A6FFEEFAEFFB122B7B806E12A52D7016
:10A7D0005DEE24EB12A5307027EE24EC12A530605C
:10A7E0000302A6FF12A86012140E12A86A12140E19
:10A7F00012A8CE79001228B7740412118A02A6FF9B
:10A8000012A8B5129A56704812A86012140E12A817
:10A810006A12140E12A8CE79221228B774041211EB
:10A820008A7922EEFAEFFB122BCF79018024EE24F5
:10A83000ED12A87CFAEFFB122B8112A893E9F080AD
:10A840000FEEFAEFFB122B8DE96401700302A6FFF5
:10A8500079007F020212B6F582E43FF5837401228B
:10A86000EE24F1F582E43FF58322EE24EFF582E455
:10A870003FF5832212A16DA3F0A3F02212A857F096
:10A88000EE2224E0F582E43FF583E4F0EE22F012BC
:10A89000A89322EE2469F582E43FF58322EE246238
:10A8A00012A85712A8AA7401F022F0EE2467F582CC
:10A8B000E43FF58322EE2471F8E43FF9888289832E
:10A8C000E024FFF0A3E034FFF0888289832212A8FD
:10A8D000E0E0FC8E828F83A3A3A3A3E0FA7B002297
:10A8E000EE24EEF582E43FF5832212A0FCF0228EE6
:10A8F000828F83A3A3A3A3A312A8FC22E0F8A3E062
:10A90000F92212A90B94ABE9941022E0C398F8A3A2
:10A91000E099F9C3E82212A90B94AAE994102274D1
:10A92000F21211E4890BEAFEEBFF8C0C750A12742B
:10A93000FE6E700374FF6F70189002C612B5BE6091
:10A940007212A9B8606D7AFE7BFFA90B1211E2802A
:10A950005A74FF6E700374FF6F70359002C612B5A3
:10A96000BE601312A9B8600E7AFF7BFFA90B12110B
:10A97000E2E9F50A600CAA0CA90B122569E9F50AAF
:10A980007031E50B9002D2F0E50C9002D3F08023F9
:10A99000122A018A828B83E58245836016E0650B6B
:10A9A000700EA90CEEFAEFFB122815E9F50A8003E8
:10A9B000750A03A90A02B1AAE0F583888212B29D42
:10A9C00088828983E58245832274EE1211E4EAFECF
:10A9D000EBFFEE2402F510E43FF511EE2404F50E32
:10A9E000E43FF50FEE2406F50CE43FF50DEE2408E8
:10A9F000F50AE43FF50B850A82F58312140E850CE7
:10AA000082850D8312140E850E82850F8312B0F697
:10AA100085108285118312B3C41228E774041211C1
:10AA20008AE97005790202AAD9790112B3C0122A03
:10AA30000DE97005791402AAD912B3C0122A13E9DC
:10AA4000640470579016C5E0F47003A3E0F4600549
:10AA5000791102AAD98E828F8312B1AF12B2938577
:10AA6000108285118312B2999002CA12B293850E98
:10AA700082850F8312B2999002CC12B293850C8218
:10AA8000850D8312B2999002CE12B293850A828507
:10AA90000B8312B2999002D012B293E4F512F5131F
:10AAA00078121213F778121213F7850A82850B8336
:10AAB00012140E850C82850D8312140E850E82856C
:10AAC0000F8312140E85108285118312B0F612B313
:10AAD000C01228FF740A12118A02B72074F21211F0
:10AAE000E4890A8C0C8D0D9002A5E064026005E0FB
:10AAF000640170047912805DEC450D700479028068
:10AB000054122A018A0E8B0FAE0EAF0FEE4F700457
:10AB100079148041E50A600B8E828F83A3A3A3E0A2
:10AB2000D2E1F0750E10750F00780E1213F7AC0C11
:10AB3000AD0DEE2410FAE43FFB1233A374021211A0
:10AB40008A12BA24121062EE2420F582E43FF583C3
:10AB500012106E790002B1AA74F01211E4EAFEEB51
:10AB6000FF8C0C8D0DEE4F7005790202AC6712B3AD
:10AB7000C0122A018A0A8B0BEA450B700579140270
:10AB8000AC679002A5E06402601FE06401601AEA0D
:10AB9000240BF50EE4350BF50F850E82F583E0648A
:10ABA00008700BE50C450D6005791202AC67900248
:10ABB000C412B5BE6005791102AC677A1F7B001222
:10ABC00034699002C412B3789002C412B5BE700505
:10ABD000791302AC677C1F7D0079001233BB12B37E
:10ABE000C012AC6AA312B3787510167511007810F4
:10ABF0001213F7EE2402FCE43FFD9002C4E02403AC
:10AC0000FAA3E03400FB1233A3740212118A12ACCF
:10AC10006A7402F0850E82850F83E06408700479FF
:10AC200001800279009002C4E02403F50EA3E03411
:10AC300000F50F780E1213F78E828F8312B0F69004
:10AC400002DAE0FA122E81740212118AE9FEE50C92
:10AC5000450D600BAC0CAD0DAA0AAB0B122EBDEE70
:10AC60006003122575EEF902B2889002C4E0F8A3E1
:10AC7000E0F58388822274F41211E474FF121174D7
:10AC8000EAFEEBFF890A122A018B0DEA450D7004DA
:10AC900079148014851A82851B83E50AF0AC1AADFD
:10ACA0001BEEFAEFFB122EA5740112118A7F04022B
:10ACB00012B674F01211E474F01211748A0E8B0F34
:10ACC0008C108D1174201211C0E0FEA3E0FFEEFA8B
:10ACD000EFFB122A018B0BEA450B70047912806599
:10ACE00090839F780E120E5F5004790280577C107B
:10ACF0007D007900AA1AAB1B1233BB851A82851B13
:10AD000083E50EF0850F0BE50BF50A74011211C0F7
:10AD1000E50AF0850E0A85100C85110D7410780A6D
:10AD2000120F6D74021211C0E50AF07418780E1239
:10AD30000F6D74031211C0E50EF0EEFCEFFDAA1AC0
:10AD4000AB1B122E87741012118A02B28874F11292
:10AD500011E48A0C8B0D89108C0E8D0F9002A5E0EA
:10AD600064026005E064017005791202AE1BEC45D7
:10AD70000F7005790202AE1B122A018A0A8B0BAEF4
:10AD80000AAF0BEE4F7005791402AE1BEE2424F5CA
:10AD90000AE43FF50B850A8212AE29600312346F74
:10ADA0007C1B7D00AA0EAB0F1233AF850A82850B88
:10ADB0008312B37812B0F0EC4D70047913805C12FA
:10ADC000B809E06408703D740F1211C0E06035EC02
:10ADD0002412F50AE43DF50B780A1213F7EC24105F
:10ADE000F582E43DF58312140EEC241AF582E43D5D
:10ADF000F583E0F9AA0CAB0D122EC3740412118A6C
:10AE0000E9F980027900EE2403F582E43FF583E05E
:10AE1000D2E2F0E5106004E0D2E1F07F070212B662
:10AE200012BA1B241BF582E438F58312B3C8EA4B2F
:10AE30002274EE1211E4122A018A0A8B0BAE0AAFB9
:10AE40000BEE4F700302AEE0EE2420F50AE43FF56E
:10AE50000B74121211C0121062850A82850B8312C4
:10AE6000106E7A267B0012249DEAF50C70078E8204
:10AE70008F83E0F50C850A82850B83780E12102CE7
:10AE80008E828F83A3A3A3A3E0F50D7A0E7B00121D
:10AE900033C78A0A8B0BEA450B604512AEE374098F
:10AEA00012AEF4E50D12B8131213F7EE2405FCE40C
:10AEB0003FFDEA2404FAE4350BFB1233A3740212BB
:10AEC000118A850A82850B83A3A3A3A3A3A3A3A3AB
:10AED000A3A3780E12103BAA0AAB0BA90C1233D312
:10AEE00002B7208A828B8374D0F0A3E4F08A828B2D
:10AEF00083A3A322F08A828B83A3A3A32274EA12E2
:10AF000011E48A0E8B0FEA450F700302B0868A8225
:10AF10008B83A3A3A3A3A3A3E07005750D088003EF
:10AF2000750D049002C212B5BE600512AC708003AC
:10AF3000901676E0F50C9002DB12B5BE600F12ACF5
:10AF400070A3A312A9BD600579001211E2E50E24D9
:10AF500007F510E4350FF511E50E2408F50AE43580
:10AF60000FF50BAA0AFB851082851183E0F91224E4
:10AF7000C7E9FB851082851183F0E50E2403FEE40A
:10AF8000350FFFE50E2404F516E4350FF517E50E31
:10AF9000240EF512E4350FF513E50E2414F582E4C2
:10AFA000350FF583E0F51475150078141213F7E5E5
:10AFB0000E2412F582E4350FF58312140EE50E24EB
:10AFC00010F582E4350FF58312140E851282851375
:10AFD0008312140EE50DF50E780E1213FB85168202
:10AFE00085178312140EAC0AAD0BAA0C8E828F83C8
:10AFF000E0F9122557740B12118A8E828F83E0704C
:10B0000041750E17750F00780E1213F785128285A1
:10B01000138312140E780D1213FB780A1213F7859E
:10B020001082851183E0FD7C0185168285178312CD
:10B03000B3C4A90C1229F5740712118AE98E828F04
:10B0400083F09002C212B5BE600312257B9002D23B
:10B05000E060339002D3E0FA9002D2E0F912256961
:10B06000E960238E828F83E0FB74316B6013851659
:10B070008285178312B0F69002D2E0FAEBF912251E
:10B080005D9002D2E4F07F0E0212B674F61211E463
:10B09000E4F50AF50B780A1213F7780A1213F7EAA7
:10B0A000240CF582E43BF58312140E8A828B83A371
:10B0B000A3A3A3A3A3A3A3A3A312140E8A828B8387
:10B0C000A3A3A3A3A3A3A3A312140E8A828B83A377
:10B0D000A3A3A3A3A312B0F68A828B83A3A3A3A3E3
:10B0E00012B3C41228F9740A12118A7F020212B62E
:10B0F000850A82850B83E0FCA3E0FD2274F2121125
:10B10000E4EAFEEBFF750C00EE2403F8E43FF98857
:10B110000A890B8882F58312B3C4122A018A828BB2
:10B1200083E5824583600FE0F50C850A82850B83F9
:10B1300012B3C41229FB9002D2E06019650C70159D
:10B140009002D3E0FA9002D2E0F9122569E9602476
:10B150009002D2E4F0E50C601B8E828F83A3A3A340
:10B16000A3A3E0FB12B0F0AA0C8E828F83A3A3E00E
:10B17000F912255D9002C412B5BE600312257585D3
:10B180000A82850B8312B3C4122A13E96404701A6D
:10B19000850A82850B8312B1AFE0687003A3E06972
:10B1A00070089016C574FFF0A3F07F060212B61265
:10B1B000B29D9016C52274F01211E4890B8A0E8B91
:10B1C0000A8C0C8D0D7A147B001233C78A108B11F8
:10B1D000AE10AF11EE4F700302B2888E828F83746F
:10B1E000D012B364A3A3740512B35DE50AF0EE2494
:10B1F00004FAE43FFBE50C450D6019751006751166
:10B200000078101213F7AC0CAD0D1233A3740212B8
:10B21000118A80097C067D0079001233BB741012FC
:10B2200011C012B2998E828F83A3A3A3A3A3A3A359
:10B23000A3A3A312B29374121211C0E0C0E012B71C
:10B24000FFD0E0F074131211C012B2A3240D12B299
:10B250008D74151211C012B2A3240F12B28D74177F
:10B260001211C012B2A3241112B28D74191211C09E
:10B27000E0C0E0EE2413F582E43FF583D0E0F0EE89
:10B28000FAEFFBA90E1233D37F080212B6F582E45F
:10B290003FF583E8F0A3E9F02212B29D22E0F8A383
:10B2A000E0F92212B29DEE2274F21211E4890B8AA7
:10B2B0000AECFEEDFF8B0C7A067B001233C7EA4BDB
:10B2C00060238A828B8374D0F0A3E50B12AEEC74FA
:10B2D0000612AEF4EEF0A3EF12AEF4A3A3E50CF069
:10B2E000A90A1233D302B1AA74F01211E4890E8AAA
:10B2F0000A8B0B8C0C8D0D7A0C7B001233C78A10D5
:10B300008B11AE10AF11EE4F6050AA0AAB0B122A90
:10B31000018A828B83E58245837003901676E0F97B
:10B320008E828F8374D0F0A3E50E12B57A74071263
:10B33000B35DA3E50A12B36412B37E74101211C098
:10B3400012B38C12B37874121211C012B38CA3A36F
:10B3500012B378EEFAEFFB1233D302B28812B36C59
:10B36000A3A3A322F0A3E50B12B36C22F08E828F6D
:10B370008322F582E438F583EAF0A3EBF022A3A35D
:10B38000A3A3A3A3E50CF0A3E50DF02212B3C88E8E
:10B39000828F83A3A3A3A3A3A3A3A32274F6121152
:10B3A000E4EAFE122A078A828B83E5824583600BDA
:10B3B000EEF9A312B3C41228158002791202B0EB81
:10B3C0008E828F8312B3C822E0FAA3E0FB2274ECD2
:10B3D0001211E489138A0C8B0D8C12122A018A1027
:10B3E0008B11EA4511700302B5759002C412B5BE07
:10B3F000700302B5757A0E7B00E0C8241912B5B847
:10B4000060027A2912B5B36008EA2414FAE4340021
:10B41000FB74141211C0E0F50EA3E0F50FE50E4524
:10B420000F6007EA241BFAE43BFB12BA3612B5B8E8
:10B430006007EA2416FAE43BFB1233C78A0A8B0B37
:10B44000AE0AAF0BEE4F700302B5757C0E7D00792E
:10B45000001233BB7A267B0012249D8A0A8B0BEAEA
:10B46000450B7009851082851183E0F50A8E828F65
:10B470008374D0F0A3E51312B57A740A12B36C1278
:10B48000B3818E828F83A3A3A3A3A3E512F0EE243E
:10B490000EF50CE43FF50D9002C4E0241912B580BE
:10B4A00012B5BE6018EE240612B58B1213F78C820B
:10B4B0008D8312B0F61233A3740212118A9002C463
:10B4C000E0241D12B58012B5BE6038EE2408F8E401
:10B4D0003FF98882898312B3848882898312B3C436
:10B4E000EA2414F50CE43BF50D7510147511007881
:10B4F000101213F78C828D8312B0F61233A37402EC
:10B5000012118AE50E450F6015EE240A12B58B1252
:10B5100013F7AC0EAD0F1233A3740212118A90020E
:10B52000C4E0241BF8A3E03400F9E8FAE9FB8A82BE
:10B530008B8312B5BE6032EE240CF8E43FF9880E1E
:10B540008882F58312B384750C16750D00780C1281
:10B5500013F78A828B8312B0F6850E82898312B329
:10B56000C41233A3740212118AEEFAEFFBA90A1275
:10B5700033D31225757F0C0212B612B36CA3A3222B
:10B58000FCA3E03400FD8C828D8322F8E43FF9882F
:10B59000828983E50CF0A3E50DF08882898312B3DC
:10B5A000C8EA241BF50CE43BF50D75101B75110062
:10B5B00078102212BA1B241DF582E438F58312B2EA
:10B5C0009DE84922C082C0839002C412B5BE602F9C
:10B5D000E0C8241912AE25600312346F12AE206049
:10B5E0000312346F12BA3012AE25600312346F901A
:10B5F00002C412B3C412346F9002C4E4F0A3F0D0BA
:10B6000083D082020E12C082C0839002C212B5BEE5
:10B6100060109002C212B3C412346F9002C2E4F000
:10B62000A3F080DB74F01211E4890E8A0C8B0D12EA
:10B630002A018A0A8B0BEA450B604C7A267B0012A2
:10B64000249D8A108B11AE10AF11EE4F7008850A41
:10B6500082850B83E0FE7A057B001233C78A0A8B52
:10B660000BEA450B60217C057D0079001233BB128B
:10B67000B730740EF0850A82850B8312B381AA0A53
:10B68000AB0BEEF91233D302B28874EE1211E489D7
:10B690000EEAFEEBFF8C0C8D0D122A018A108B1125
:10B6A000EA4511607B7A0B7B001233C78A0A8B0B49
:10B6B000EA450B606B7C0B7D0079001233BB7A2668
:10B6C0007B0012249D8A128B13A812A913E84970DB
:10B6D00008851082851183E0F812B730740F12B715
:10B6E0002BEEF0A3EF12B725E50C12B725A3E50D5D
:10B6F000F074121211C012B74AF074131211C01272
:10B70000B74AA3F074141211C0E50A2409FCE43509
:10B710000BFD7402121087AA0AAB0BE8F91233D39F
:10B720007F0A0212B612B72BA3A32212B740A3229C
:10B73000850A82850B8374D0F0A3E50E12B74022F0
:10B74000F0850A82850B83A3A322E0850A82850BFC
:10B7500083A3A3A3A3A3A3A32274EE1211E48A0CD0
:10B760008B0D8910122A018A0E8B0FEA450F700388
:10B7700002B7FC7A0D7B001233C78A0A8B0BAE0A24
:10B78000AF0BEE4F60767A267B0012249D8A0A8BDF
:10B790000BEA450B7009850E82850F83E0F50A8E52
:10B7A000828F8374D0F0A3E412B57A740B12B813AD
:10B7B0001213F7E50E2405FCE4350FFDEE2403FA21
:10B7C000E43FFB1233A3740212118A8E828F83A38B
:10B7D000A3A312B37E12B809E510A2E050047401CD
:10B7E0008001E4F012B7FFE510A2E150047401807B
:10B7F00001E4F0EEFAEFFBA90A1233D302B720EE10
:10B80000240CF582E43FF58322EE240BF582E43F1D
:10B81000F58322F075120675130078122274E8126F
:10B8200011E489128A11ECFEEDFF8B10EEFAEFFBAA
:10B83000122A018A0A8B0B74181211C0E0F50EA3AC
:10B84000E0F50F741A1211C0E0F516A3E0F51774B5
:10B850001C1211C0E0F518A3E0F519741E1211C0F6
:10B86000E0F50CA3E0F50DEA450B700302B949E5DC
:10B8700012600302B949EA2403F582E4350BF5832B
:10B88000E0D2E4F0E510A2E2E05004D2E18002C28E
:10B89000E1F0E50E450F7012E5164517700CE5183E
:10B8A00045197006E50C450D606AE0D2E2F0E50C42
:10B8B000450D603412BA24121062E50A2420F58284
:10B8C000E4350BF58312106E75141075150078149D
:10B8D0001213F7AC0CAD0DE50A2410FAE4350BFB9E
:10B8E0001233A3740212118AE50A2424F50A5002C5
:10B8F000050BE50E450F6021E511701D850A828557
:10B900000B8312AE2B600312346F7C1B7D00AA0EDA
:10B91000AB0F8027E0C2E2802FE5164517602A743E
:10B920000165117024850A82850B8312AE2B60039A
:10B9300012346F7C1B7D00AA16AB171233AF850A39
:10B9400082850B83EAF0A3EBF09002C412B5BE70BF
:10B950000302BA16E50E450F6039E0C8241912B586
:10B96000B8700F7A1B7B0012346912BA1B241912AB
:10B97000B37212BA1B241912AE256017750A1B7513
:10B980000B00780A1213F7AC0EAD0F1233A374023A
:10B9900012118AE5184519603112BA3612B5B8701D
:10B9A0000D7A167B0012346912BA3612B37212AED7
:10B9B000206017750A16750B00780A1213F7AC1879
:10B9C000AD191233A3740212118AE50C450D6031D2
:10B9D00012B5B3700D7A147B0012346912BA3012AA
:10B9E000B37212BA3012AE256017750A14750B00C7
:10B9F000780A1213F7AC0CAD0D1233A374021211B6
:10BA00008A78161213F7AC10EEFAEFFBA912122582
:10BA10006F740212118A7F100212B69002C4E0F80D
:10BA2000A3E0C822E50C2410F582E4350DF583224D
:10BA300012BA1B241D2212BA1B241B22C082C083EF
:10BA40009002C812B37802B5FF74F41211E4E990C1
:10BA50000397F0122D4F907800E0C4540F54076400
:10BA6000037004793F8002797F750A06750B0078B0
:10BA70000A1213F77C857D037AEA7B0712318774FB
:10BA80000212118A900385E0F47049A3E0F4704437
:10BA9000A3E0F4703FA3E0F4703AA3E0F47035A3A0
:10BAA000E0F4703090780EE0900385F090780FE02D
:10BAB000900386F0907810E0900387F0907811E082
:10BAC000900388F0907812E0900389F0907813E06A
:10BAD00090038AF090038B12BBDF12C9529003B51A
:10BAE0007406F0A3740D12C42C7442F0A37401F018
:10BAF0009004E212BBDF9004E1E4F09004EFF0A3C5
:10BB000074A012C42C7403F0A3740712C42C7428FC
:10BB100012C42C04F0A3E4F0900518F090053B74D7
:10BB2000FFF0A3E4F090053DF090053F04F0900590
:10BB3000407490F0A37401F0122B21122A55122C9C
:10BB4000F579017A427B05122C05900542E075F0EB
:10BB50001484E5F004F0790C7A637B05122C05124D
:10BB60002C1D7A00900397E0F9123481907803E05D
:10BB700064427056900542E014F0704EC2AF12BBA2
:10BB80008100782AD0E0F618D0E0F6E59F5407F857
:10BB90007005750BFF8003750B7FC4C0E07829E644
:10BBA000F50A08E6550BF50B740B780A121152D002
:10BBB000E0250AF8906270E0A2E740F8E8C333900D
:10BBC0006272F0906270E0D2E0F09003C2E4F0A301
:10BBD000F07A80FB900397E0F91233F702C0A47467
:10BBE000FF12BF72F0A3F02274F41211E4EAFEEB2C
:10BBF000FFEEA2E05040900399E0C39480E0500F24
:10BC000025E0F8E433F9745D28F5827417800EF4AA
:10BC100025E0F8E433F9746B28F582741739F5835D
:10BC200012C7D91211E27A00900397E0F912348119
:10BC3000EE640102BDFC54026037750A00780A12F6
:10BC400013FBE4F50B780A1213F7780A1213F7784E
:10BC50000A1213F7780A1213F77D007C017A007B31
:10BC600000793C1228AB740912118AEE640202BDFD
:10BC7000FCEE5404700302BD059003C6E0F875F0B5
:10BC80000BA4C8AAF02AF974C828FA740339FBEA8D
:10BC9000242AF582E43BF583E0F50A780A1213FBC7
:10BCA000EA243212BE08F50B7404780A1211527895
:10BCB0000A1213F7EA2420F582E43BF58312140EEE
:10BCC000EA242E12BE08C313F50BE50A13F50A7811
:10BCD0000A1213F7EA2404F50AEB3401F50B780A8B
:10BCE0001213F712BE14FD7C018A828B83A3A3A3D7
:10BCF000A3E0FA7B0079001228AB740912118AEED6
:10BD0000640402BDFCEE54406037750A00780A12E4
:10BD100013FBE4F50B780A1213F7780A1213F7787D
:10BD20000A1213F7780A1213F77D007C017A007B60
:10BD300000793B1228AB740912118AEE644002BDEF
:10BD4000FCEE5480603790054012C424602A7900CC
:10BD500012347B900540E0F50AA3E0F50BE4F50C06
:10BD6000F50D780A1213F37A007B01900397E0F93E
:10BD7000123505740412118AEE6480807FEF54013D
:10BD8000600C790112347BEEFAEF64018070EF549D
:10BD900002600AC2AF75C9AB75C95B80FEEF54047F
:10BDA000600A122347EEFAEF6404805290039EE08B
:10BDB0006401704DEE54206048900398E0146012C6
:10BDC00014600F14600C14600924FD601114600EDF
:10BDD00080277900122AA97901122AA9801B793FAC
:10BDE0009003C6E0FA75F00BA4CAA8F028FB74C84B
:10BDF0002AFA74033BFB122BCFEE6420FAEFFB8090
:10BE0000047A007B0002C0A4F582E43BF583E0F5F0
:10BE10000AA3E022EA240AF582EB3401F583E0224A
:10BE200074F61211E4EA540F60047801800278007D
:10BE3000E8F98A0A8B0B7404780A121152E50A2970
:10BE4000F50A750B007404780A121161E50A2408DA
:10BE5000FAE4350BFB1234218A0A8B0BA80AA90BD2
:10BE6000E8496009E82404FAE439FB80047A007B9D
:10BE70000002C5BB74F61211E4EA2405FA50010B66
:10BE80001234218A0A8B0BA80AA90BE8496009E839
:10BE90002405FAE439FB80047A007B0002C5BBC0AC
:10BEA00082C083C2AF122D25E5E170FC75E101125D
:10BEB0002B0F75E1F1122D5B122B037907122DCD9B
:10BEC0007901122DD37902122D85122DA3122DC1C5
:10BED0007900122DC77901122DC790837B12104A69
:10BEE000122D6D9004EFE4F0A3F0A3F09004F3742E
:10BEF00007F09004F27403F09004F8E4F09004F773
:10BF0000F0900518F0122BB7122C6B122BD579007C
:10BF1000122DD99004D374FF12BF72741FF0906079
:10BF200012E4F0A3F0906063F0752100900398F0A4
:10BF30009004D8F09004D9740CF09004DAE4F090F6
:10BF400004DB04F09004DCE4F09004DD04F09004E1
:10BF5000DEE4F090039AF0A3F090039DF090039E2E
:10BF600004F09003B404F090053EE4F0D2AFF9027F
:10BF7000C8EDF0A3F0A3F0A3F0A322C082C0839089
:10BF8000038512C0DE90038612C108F09003871269
:10BF9000C11390038812C11990038912C11E900326
:10BFA0008A12C108A3A3A3A302C8EAC082C0838ADD
:10BFB000828B83E090038B12C930E090038C12C017
:10BFC000D890038D12C93790038E12C94390038F06
:10BFD00012C93EE090039002C8EAC082C083122BCF
:10BFE0002DE9F97005122DA3790002C8ED74F7123E
:10BFF00011E4EAFEEBFF890A122B2DE9F9702CE51A
:10C000000A600A7401650A600A7912801E7C007950
:10C010000080047C007901EEFAEFFB122DA9E9F80B
:10C02000740368700479078002790002C7E274F62D
:10C030001211E4EA4B600EEC4D600A740A1211C052
:10C0400012C92470047912800F780A1213F7122C87
:10C0500017740212118A790002C5BB74F41211E43C
:10C06000EAFEEBFF890A900398E064096014E0643B
:10C070000A600FE0640B600AE0640C6005E0640D88
:10C080007004790C801E122C958B0DEA450D700BF7
:10C09000A90AEEFAEFFB122C05800990039AE044FE
:10C0A00040F0790D7F040212B674F61211E4EA4BE7
:10C0B0006003E970047912801CEAFEEBFF890A1222
:10C0C0002BFFE98E828F83F0A3AE82AF83150AE542
:10C0D0000A70EC790002C5BB12C930A3E022E08AE5
:10C0E000828B83F022C082C083E9F8740168700BF0
:10C0F00090053E7401F0790002C8EDE870069005E5
:10C100003EE480F1791280F012C10C22E08A828B29
:10C1100083A32212C10CA3F02212C124F02212C167
:10C1200024A3F02212C10CA3A322C082C0839003D7
:10C1300098E0640C701290618EE0F874806870254D
:10C140008C828D83747F8029C3EB940F5013EA4B4C
:10C15000700F9003CBE07004790280189004308057
:10C16000D87912800F90039CE0F9E8C3998C828DF6
:10C1700083F0790002C8ED74F71211E4E9FE74054A
:10C180006E601E74136E601974146E601474156EF4
:10C19000600F741A6E600A74296E6005743B6E70CD
:10C1A00026C3EB940F5020EA4B701C9003CBE07039
:10C1B0000479028026900431E064017016A3E064E3
:10C1C000027008793A80147912801012C1DE122BA5
:10C1D0009F800612C1DE122B93790002C7E2EE9017
:10C1E00004BDF09003E5E4F0A3F079027AC87B0384
:10C1F0002274EC1211E4EC4D6014E9C3941C500E4F
:10C2000074141211C0E0F8600A74016860057912B4
:10C2100002C40AC3EB940F5019EA4B70159003CB7C
:10C22000E070047902800D9004D9E0700A79070269
:10C23000C40A791202C40AEC24FEFCED34FFFD8C22
:10C24000828D83E9F0E87004740280027401A3F027
:10C25000EC24FEFCED34FFFD7A2B7B04122BEDA9C0
:10C26000A8C2AF9004D9E014F0E9A2E7E433F8E9FA
:10C27000A2E792AF900398E064086008E06407606A
:10C280000302C4089003C6E0600302C40879007A80
:10C29000C87B031218539061D0E0700302C4089069
:10C2A00004DDE06401600302C4089003E512C424C5
:10C2B000700302C408A2AFE433F50EC2AF122C958E
:10C2C0008A0A8B0BAE0AAF0B122D378A0A8B0B8CA6
:10C2D0000C8D0D8A128B138C148D159083EF7812B0
:10C2E000120FB878121213F38E828F83A3A3121049
:10C2F0004A122044740412118AE96401600302C4E2
:10C30000029003F6E02406F512A3E03400F513E4EE
:10C31000F514F515780A7912120FA5780A1213F39D
:10C320008E828F83A3A312104A1220447404121128
:10C330008AE96401600302C402EE2408F510E43FB8
:10C34000F511851082F58312140AAA0AAB0BAC0C06
:10C35000AD0D1220A0740412118A9003F612140E6F
:10C36000121CFC740212118A8A0A8B0B8C0C8D0D24
:10C370007410780A120F6D9003D112C40F9003CD80
:10C38000E8F0A3E9F0E82CF8E9350BF9A3E8F0A30D
:10C39000E9F0851082851183C082C08312C4151212
:10C3A0000E7ED083D082780A120FB89083AF780ABD
:10C3B0001210068E828F83A3A3780A12103B12C438
:10C3C00015120FA59083C3780A120FB89083AF7827
:10C3D0000A121006EE2416F582E43FF583E50AF012
:10C3E000A3E50BF0A3E50CF0A3E50DF09003FDE051
:10C3F0009003FCF07AC87B031215D6EEFAEFFB121D
:10C400002C77E50EA2E092AF79007F0C0212B6E025
:10C41000F8A3E0F9229003F6E0F512A3E0F5137813
:10C420000A791222E0F8A3E0F9E84922F0A3E4F047
:10C43000A32274F61211E4EAFEEBFF890B740B12CF
:10C4400011C0E0F50A740C1211C012C40FE50B60A4
:10C45000487401650B60127403650B6026740265F5
:10C460000B60207404650B707DE8496079E50A6013
:10C47000067401650A706F7403650B6006740265CB
:10C480000B702AEE2460FAEF12C5CB5059EC2460F1
:10C49000FAED12C5CB4016804DEE24E0FAEF12C53E
:10C4A000C05043EC24E0FAED12C5C05039C3EC9EF5
:10C4B000ED9F4032740A1211C0E0FC600574016CFB
:10C4C0007024740F1211C0E0FA600F74016A600AE0
:10C4D00074026A600574036A700C740E1211C0E075
:10C4E000FB74075B7005791202C5BB9004EFE06432
:10C4F000017005790C02C5BB74075B9004F3F0E58D
:10C500000B9004F2F0EA9004F4F0EC9004E1702F48
:10C51000E4F0900385E09004E2F0900386E090045C
:10C52000E3F0900387E09004E4F0900388E0900447
:10C53000E5F0900389E09004E6F090038A802E7481
:10C5400001F090038BE09004E2F090038CE0900403
:10C55000E3F090038DE09004E4F090038EE090040B
:10C56000E5F090038FE09004E6F0900390E09004F3
:10C57000E7F07401650B700B12C5D69004F0E4F07F
:10C58000A380357404650B700512C5D68023EA704C
:10C59000047900801974016A7004790180107402B2
:10C5A0006A70047902800774036A70057903122D9A
:10C5B000AF9004F0EEF0A3EFF079007F020212B624
:10C5C00034FFFBC3EA94E1EB943F2234FFFBC3EA60
:10C5D0009461EB943F22E50AA3F088828983E0907E
:10C5E00004E912C60BE09004EA12C60BA3E0900423
:10C5F000EB12C60BA3A3E09004EC12C612E0900469
:10C60000ED12C612A3E09004EEF022F08882898336
:10C61000A322F088828983A3A3A3A32274F6121114
:10C62000E4E9FEC39420500BEE9004F8F0601EEA9B
:10C630004B70047912801E12C8231213F7EAFCEB28
:10C64000FD7AF97B041233A3740212118A9004F765
:10C650007401F0790002C5BB74F41211E4E9FF9093
:10C660000398E06409700302C762E0640A70030281
:10C67000C762E0640B700302C762E0640C700302DF
:10C68000C762E0640D700302C7629004F2E06016B6
:10C6900064016012E06403600DE064026008E0641D
:10C6A00004600302C7D59004E1E060076401600301
:10C6B00002C7D59004F2E064036005E064027010E4
:10C6C0009004F0C3E094A0A3E09400500302C7D507
:10C6D000EF700302C76E14600302C7D59004EFE049
:10C6E0006401607E9004F2E0600964016005E0642A
:10C6F000047008122CA1E954FD70677901122C898D
:10C700009004DFEAF0A3EBF09004EF7401F09003E3
:10C7100098E07055122D378A0A8B0B8C0C8D0D907A
:10C7200083CB780A120FB89083AF780A1210069064
:10C7300004DF12C7D9A3A3780A12103B9004DFE0EC
:10C74000F8A3E0C82406F582E438F583E4F0A3F00A
:10C75000122B33E960107ADF7B04122C8F9004EFE8
:10C76000E4F079218005122C71790002C0A49004B4
:10C77000EFE060EEA2AFE433FEC2AF7ADF7B0412DB
:10C780002C8F9004EFE4F0122CADE97041122D25AE
:10C79000906182E0C2E6F0E5E170FC75E10175911F
:10C7A000BF75E1F190039EE0640170187A207B0070
:10C7B000900397E0F91235117A207B00900397E0FF
:10C7C000F91233FD7A00900397E0F9123481EEA25A
:10C7D000E092AF809479128092E0F8A3E0F583882C
:10C7E00082227F010212B674F61211E4E9FEC394AC
:10C7F00020500BEE900518F0601EEA4B7004791281
:10C80000801E12C8231213F7EAFCEBFD7A197B0590
:10C810001233A3740212118A9004F77401F07900A4
:10C8200002C5BBE0F50A750B00780A22C082C083FE
:10C83000900398E064076004790C805CEC4D605BC9
:10C84000C3EB940F5055EA4B70519003CBE070044A
:10C85000790280447A008C828D83E0C0E0EAF8C3DC
:10C86000E498F895E0F9749628F582740439F58314
:10C87000A3A3A3A3D0E0F00A8C828D83A3AC82ADE6
:10C8800083EAC3941040CF90049C7401F079057A38
:10C89000C87B03122B93790002C8ED791280F9C08E
:10C8A00082C083900398E064076004790C8039C3E8
:10C8B000EB940F5020EA4B701C9003CBE07004798E
:10C8C0000280259004A5E06401700E9004BD7406FA
:10C8D000F07902800A7912800FA37406F0790D7A3C
:10C8E000C87B03122B9379008003F07900D083D0AA
:10C8F00082020E12790C020E12C082C083E9F890F7
:10C90000053FE07004790C800EE8600E1470119001
:10C91000039D7401F0790002C8ED90039DE480F45A
:10C92000791280F3E0F50AA3E0F50BE50A450B2246
:10C93000F08A828B83A32212C930A3A3E02212C9FA
:10C9400048A32212C948E022F08A828B83A3A3A3C2
:10C95000A322900385E0900391F0900386E090037A
:10C9600092F0900387E0900393F0900388E09003A7
:10C9700094F0900389E0900395F090038AE090038F
:10C9800096F02274F71211E474FF121174EA4B60EE
:10C99000078A828B837401F0EC4D60099003C5E037
:10C9A0008C828D83F0740A1211C012C424700302A9
:10C9B000CA8F7F007E0080787401F0E0C0E0E82C30
:10C9C000F582E439F583D0E0F0EA240412BE17C002
:10C9D000E012CA99D0E0F00FEA240512BE17C0E0B9
:10C9E00012CA99D0E0F00FEA240612BE17C0E01276
:10C9F000CA99D0E0F00FEA240712BE17C0E012CAAD
:10CA000099D0E0F00FEA240812BE17C0E012CA99CC
:10CA1000D0E0F00FEA240912BE17C0E012CA99D084
:10CA2000E0F00F12BE14C0E012CA99D0E0F00F0E71
:10CA30009003C5E0FAEEC39A5055EEFAC3E4940FA2
:10CA400050EDEA70EA9003CBE060E4EE75F00BA4E1
:10CA5000CAACF02CFB74C82AFA74033BFBEFFCE869
:10CA60002CF582E439F583EEF074012CFC74012C72
:10CA7000FF8A828B83E0FDA3E0F5838D82E06480F2
:10CA8000851A82851B83600302C9B8E402C9BA799A
:10CA900000740112118A02C7E2E82FF582E439F529
:10CAA0008322C082C083EA4B60069003C512C0DEB9
:10CAB00002C8EB74F61211E47901122BC38A0A8BB7
:10CAC0000B74FF650A700474FF650B7004791280A3
:10CAD00002790002C5BBC082C08378747905888260
:10CAE0008983A3E412CFAD74FFF0E8241CF8500151
:10CAF0000964C87003E9640570E490057174FFF07F
:10CB0000900570E4F090056FF0900572F0A302D5E7
:10CB10001374F01211E4900572E0F50CA3E0F50D2A
:10CB2000E50C450D7006122B1502CE26850C82856C
:10CB30000D83E014601814601524FE601124C47085
:10CB40000302CC7424C0700302CC7402CE26E0F938
:10CB5000122C838A0A8B0BAE0AAF0B9003C5E060E0
:10CB600074122BBD12CE41AC0AFDEEFAEFFB122C73
:10CB70007DE9F5107402651060468E828F83E06453
:10CB800001600302CE26EE650C7003EF650D6003B5
:10CB9000122B33E5107026122D378A0E8B0F8C1056
:10CBA0008D119083CB780E120FB89083AF780E1250
:10CBB00010068E828F83A3A3780E12103B02CD063F
:10CBC00012CE31122CD18E828F83E0FA9003C6F000
:10CBD000790202CD56EE650C7003EF650D7003020D
:10CBE000CE238E828F83E06401600302CE26122B57
:10CBF00033122D378A0A8B0B8C0C8D0D9083EB78BA
:10CC00000A120FB8780A1213F38E828F83A3A3122D
:10CC1000104A122044740412118AE97054122D37FC
:10CC20008A0A8B0B8C0C8D0D9083CB780A120FB86F
:10CC30009083AF780A1210068E828F83A3A3780A9E
:10CC400012103B900398E0640270238E828F83A3BE
:10CC5000A3780A12102C9083D7780A120FB8908309
:10CC6000AF780A12100612CE2B12103B800312D49A
:10CC7000C202CE199003C5E0700302CD71122BBD24
:10CC800012CE419003C6E0F875F00BA4C8AAF02AB2
:10CC9000F974C828F50C740339F50D900570E0544B
:10CCA000076076A3E0F9122C838A108B11AE10AFC7
:10CCB00011AC0AAD0B122C7DE9F510740265106001
:10CCC00058850C82850D83A3A3A3A3E0F9122CCB76
:10CCD0008E828F83E064017040122B33E510702642
:10CCE000122D378A0E8B0F8C108D119083CB780EFE
:10CCF000120FB89083AF780E1210068E828F83A326
:10CD0000A3780E12103B850A82850B83A3A3780AB1
:10CD100012102C90837F02CE01E50E650C7004E5A5
:10CD20000F650D602A850C82850D83A3A3A3E060A7
:10CD30000F850C82850D83A3A3A3A3E0F9122CCB4E
:10CD400012CE31122CD18E828F83E09003C6F079FF
:10CD5000029003C6E0FA75F00BA4CAA8F028FB7491
:10CD6000C82AFA74033BFB121853AA0AAB0B02CE73
:10CD700023900570E05407700302CE26A3E0F91259
:10CD80002C838A0A8B0BAE0AAF0B8E828F83E064F2
:10CD900001600302CE26122B33122D378A0A8B0B29
:10CDA0008C0C8D0D9083EB780A120FB8780A121351
:10CDB000F38E828F83A3A312104A122044740412AC
:10CDC000118AE97054122D378A0A8B0B8C0C8D0D49
:10CDD0009083CB780A120FB89083AF780A121006AE
:10CDE0008E828F83A3A3780A12103B900398E0648D
:10CDF0000270238E828F83A3A3780A12102C908353
:10CE0000D7780A120FB89083AF780A12100612CEA4
:10CE10002B12103B800312D4C29005717401F0EE06
:10CE2000FAEFFB122C777F080212B612CFA2780A13
:10CE300022E50E2404FEE4350FFF8E828F83E0F995
:10CE400022E9F875F00BA4C8AAF02AF974C828F5ED
:10CE50000E740339F50F850E82F583E0F50AA3E021
:10CE6000F50B2274F01211E4EAFEEBFFEE2402F857
:10CE7000E43FF9880A890BEE2406F8E43FF9880CB0
:10CE8000890D8882F58312140E850A82850B831220
:10CE9000104A122D13740212118A850C82850D839B
:10CEA00012140E850A82850B8312104A122D077404
:10CEB0000212118A12CFA212104A122D198E828FDD
:10CEC00083E064407019EE2412F8E43FF988828907
:10CED00083E090606412CFADA3E09060658006901F
:10CEE0006064E4F0A3F0900572EEF0A3EF12D4B703
:10CEF00012D9871211E2906054E412CFB3A312CF7B
:10CF0000B3906182E0C2E6F07591BF12D4ADE064E7
:10CF1000017003122D55E5E170FC12D49DE0F46020
:10CF200003E0F5E112D4A7F090039EE06401706F76
:10CF3000122D378A0A8B0B8C0C8D0D780A1213F385
:10CF40008E828F83A3A312104A1220A074041211A0
:10CF50008A8A0A8B0B8C0C8D0D908377780E1210B9
:10CF60002C780A790E120E7E7403780A120F6DE582
:10CF70000A24F4F50AE50B3401F50B90053FE06057
:10CF800003123457E4F50CF50D780A1213F37A20E6
:10CF90007B00900397E0F9123505740412118A02A0
:10CFA000CE26EE240EF582E43FF58322A3F088829C
:10CFB000898322F0A3F0A3F0A3F0A3F0A3F02274DE
:10CFC000EC1211E4EAFEEBFF8C0A8D0BEE4F7003BE
:10CFD00002D077122D378A0E8B0F8C108D11908313
:10CFE000EF780E120FB89083AF780E12100690846F
:10CFF0000FC082C083780E1213F3850A82850B83DB
:10D00000A3A312104A1220A0740412118A8A128B50
:10D01000138C148D15D083D0827812120E5F505766
:10D02000850A82850B83A3A3780A12102C9083D3E0
:10D03000780A120FB8780A1213F38E828F83A3A393
:10D0400012104A122044740412118AE97029908344
:10D05000DF780E120FB8780E1213F38E828F83A32F
:10D06000A312104A122044740412118AE970047940
:10D070000080067901800279027F0C0212B674F0FA
:10D080001211E4890A74FF650A600302D137900522
:10D0900070E05407700302D3CB7904122C9BE9642F
:10D0A0000170087904122CA702D3CF7901122C9BAE
:10D0B000E96401703C7A007874790588828983E09C
:10D0C00064017006A3E0640160150AE8241CF850AE
:10D0D0000109EAC3940340E37A007B0002D3CFEA5C
:10D0E00075F01CA4F8A9F0747428FA740539FB8053
:10D0F000EB7902122C9BE96401703C7A0078747918
:10D100000588828983E064027006A3E064016015EB
:10D110000AE8241CF8500109EAC3940340E37A00AA
:10D120007B0002D3CFEA75F01CA4F8A9F074742830
:10D13000FA740539FB80EB7A007874790588828966
:10D1400083E0650A7006A3E0640160210AE8241CFC
:10D15000F8500109EAC3940340E37E007F00A90A66
:10D16000122C9BE964017017750B018015EA75F0AC
:10D170001CA4F8A9F0747428FE740539FF80DF75CB
:10D180000B00E50A14601014700302D25B24FE70D9
:10D190000302D2DC02D3CB7902122C9BE96401702A
:10D1A0006C7A007874790588828983E0640270065D
:10D1B000A3E0640160520AE8241CF8500109EAC3A4
:10D1C000940340E3750C00750D00E50BA2E05031AF
:10D1D000850C82850D83A3A3780E12102C9083CF2B
:10D1E000780E120FB8780E1213F38E828F83A3A3DA
:10D1F00012104A122044740412118AE9700302D3F7
:10D20000C5AA0CAB0D02D3CF12D3D280BD790412C4
:10D210002C9BE9640170317A0078747905888289E1
:10D2200083E064047006A3E0640160170AE8241C2C
:10D23000F8500109EAC3940340E3750C00750D0032
:10D2400002D30F12D3D280F8E50BA2E05006EEFA1B
:10D25000EFFB80047A007B0002D3CF7904122C9B71
:10D26000E9640170307A007874790588828983E0F6
:10D2700064047006A3E0640160160AE8241CF850F8
:10D280000109EAC3940340E3750C00750D00807F2B
:10D2900012D3D2807A7901122C9BE96401702A7A28
:10D2A000007874790588828983E064017006A3E0C0
:10D2B000640160100AE8241CF8500109EAC39403D1
:10D2C00040E3804512D3D28046E50BA2E05006EE43
:10D2D000FAEFFB80047A007B0002D3CF7901122C95
:10D2E0009BE9640170657A00787479058882898386
:10D2F000E064017006A3E0640160C90AE8241CF838
:10D30000500109EAC3940340E3750C00750D00E574
:10D310000BA2E0400302D201850C82850D83A3A3FA
:10D32000780E12102C9083CF780E120FB8780E1250
:10D3300013F38E828F83A3A312104A122044740425
:10D3400012118AE9600302D201807A7902122C9BC1
:10D35000E96401706A7A007874790588828983E0CB
:10D3600064027006A3E0640160500AE8241CF850CF
:10D370000109EAC3940340E3750C00750D00E50B49
:10D38000A2E0400302D201850C82850D83A3A3781D
:10D390000E12102C9083CF780E120FB8780E121345
:10D3A000F38E828F83A3A312104A122044740412B6
:10D3B000118AE9600302D201800B12D3D280BFE54B
:10D3C0000BA2E05006EEFAEFFB80047A007B00022D
:10D3D000CE26EA75F01CA4F8A9F0747428F50C7434
:10D3E0000539F50D2274F71211E4890A7A007E746A
:10D3F0007F058E828F83A3E0600302D4838E828FA9
:10D4000083E0F46010900572E0F8A3E0F9EE687034
:10D4100002EF69606E8E828F83E50AF0122D37EA83
:10D42000F8EBF9ECFAEDFB8E828F83A3A312106E5A
:10D430008E828F83A3A3A3A3A3A3E4F0A3F012D4AB
:10D44000C212D49D7401F012D4A712D4B7E4F0A391
:10D45000F08E828F83A304F0900570E0450AF0906F
:10D46000056FE004F06401600C7480650A60067466
:10D4700040650A7008900572EEF0A3EFF0EEFAEF47
:10D48000FB80150AEE241CFE50010FEAC3940350E2
:10D490000302D3F27A007B007F010212B6EE24145D
:10D4A000F582E43FF5832212D4AD740122EE2415F7
:10D4B000F582E43FF58322F0EE241AF582E43FF58D
:10D4C000832212CFA274FFF0A3F0A3F0A3F022C036
:10D4D00082C0838A828B83E0F8A3E0F98A828B83FF
:10D4E000E4F012CFAC12CFACE0F4F8900570E05845
:10D4F000F090056FE014F07014900572E4F0A3F062
:10D50000900398F0FA900397E0F91234818005EDCA
:10D510009061C6F0D083D082020E12C082C0839088
:10D52000056FE0600A900572E0FAA3E0FB80047AE0
:10D53000007B0080DFC082C083E9FB7800758274C5
:10D54000758305E06B7016E875F01CA4F8A9F074FB
:10D550007528F582740539F583E0F9801308E582B2
:10D56000241CF58250020583E8C3940340D579005A
:10D5700080A2C082C083900570E0F98097C082C00D
:10D580008378007A747B058A828B83E0697018A3A4
:10D59000E064017012E875F01CA4FAABF074742A10
:10D5A000FA74053BFB801208EA241CFA50010BE8D0
:10D5B000C3940340D27A007B0002D514C082C0839A
:10D5C00090056F80B474F71211E4EAFEEBFF9061EE
:10D5D000D0E0C0E0EE240012D714D0E0F09061D784
:10D5E000E0F89061D512D740C0E0EE240112D714C4
:10D5F000D0E0F09061D612D740F812D664E8F0700F
:10D60000109061C5E0A2E45008E0A2E7500312D7F1
:10D6100027122DE5EE2401F582EF12D790701C122F
:10D62000D664E070169061C5E0A2E4500EE0A2E777
:10D63000500912D727EE240112D72A75E1957A00F6
:10D6400080149061D3E0C0E0EAF8EE28F582E43F70
:10D65000F583D0E0F00AEE240012D71C40E475E117
:10D660009102D498EE2402F582EF3401F5832274FE
:10D67000F71211E4EAFEEBFF9061C8E0C0E0EE248F
:10D680000312D714D0E0F09061CFE0F89061CD1292
:10D69000D740C0E012D735D0E0F09061CE12D7402D
:10D6A000F8EE240512D714E8F070139061C5E0A2DB
:10D6B000E0500BE0A2E35006EE240512D72A122D0B
:10D6C000EB12D735E07024EE2405F582EF12D790E7
:10D6D00070199061C5E0A2E05011E0A2E3500CEE99
:10D6E000240512D72A12D7357480F0122DF17A0052
:10D6F00080149061CBE0C0E0EAF8EE28F8E43F1235
:10D70000D7E1D0E0F00AEE240312D71C40E475E123
:10D710008102D498F582EF3401F58322F582EF126D
:10D72000D794F8EAC39822EE2402F582EF3401F58B
:10D73000837480F022EE2404F582EF3401F5832215
:10D74000E0C398547F22C082C0839061C6E0FDE0B0
:10D75000540FF075E1917C008010ECF8EA28F58216
:10D76000E43BF583E09061D2F00CEA240012D7ECA0
:10D7700040E8EA240212D78D60049061D6F0EA24D2
:10D780000112D78D60049061D5F002D50FF582EBC0
:10D7900012D794223401F583E022C082C0839061C5
:10D7A000C6E0FDE054F0F075E1817C008010ECF8FB
:10D7B000EA28F8E43B12D7E1E09061CAF00CEA24D1
:10D7C0000312D7EC40E8EA240512D78D600490617B
:10D7D000CEF0EA240412D78D60049061CDF002D51A
:10D7E0000FF9E82480F582E439F58322F582EB1203
:10D7F000D794F8ECC3982274F41211E412D96C1285
:10D800002CB9EEFAEFFB122CB3750C80750D007875
:10D810000C1213F77C007D60EE2406FAEF3401FB56
:10D82000122C23740212118A906195E0C0E0EE245C
:10D830008612D714D0E0F0906196E0C0E0EE248725
:10D8400012D714D0E0F0906197E0C0E0EE24881287
:10D85000D714D0E0F0906198E0C0E0EE248912D7B0
:10D8600014D0E0F07F040212B674F21211E412D95F
:10D870006C122CC5EEFAEFFB122CBF750E09750F5A
:10D8800000780E1213F7EE2406FCEF3401FD7A0047
:10D890007B60122C23740212118A750E18780E12F6
:10D8A00013F7EE2410FCEF3401FD7A0A7B60122C92
:10D8B00023740212118A750E2C780E1213F7EE24BF
:10D8C0005AFCEF3401FD7A547B60122C237402124F
:10D8D000118AEE2486F582EF12D964EE2487F58250
:10D8E000EF12D95CEE2488F582EF12D954EE248928
:10D8F000F582EF12D94DF0E50A75F00BA4C50AA820
:10D90000F028F50B74C8250AF5827403350BF583EE
:10D9100012D987E0648070079003987408801E9085
:10D92000175D12D99012D9907465F0A3742C12D996
:10D930009674DDF0A3742CF09003987407F09017A0
:10D940006B12D9A1A312D9A17F060212B612D794E5
:10D950009061982212D794906197F02212D79490F8
:10D960006196F02212D794906195F022890AA80A54
:10D97000E875F08AA4C8AAF02AF974C828FE7405CC
:10D9800039FFEEFAEFFB22E0F8A3E0F5838882226C
:10D9900074D7F0A3742CF0A374D7F0A3742CF0A365
:10D9A00022746512D9AF12D9AFF0A3742CF022F013
:10D9B000A3742CF0A374652274EE1211E4890D8A0D
:10D9C0000E8C108D11750C0012DAAC600579110205
:10D9D000DA8674121211C0E0F50AA3E0F50BE50A2D
:10D9E000450B60307A217B0012249DE50A2415FE48
:10D9F000E4350BFF8E828F83E0C39AE49B40157A57
:10DA0000227B0012249D8E828F83E0F8C3EA98EB7C
:10DA1000940050047902806E7A637B00123469901E
:10DA20000755EAF0A3EBF012DAAC700479138056D4
:10DA30007C637D0079001233BB12DA8BE4F090072F
:10DA400055E012E113E50D12DAA0E50E12DAA0A3FB
:10DA5000E510F0A3E511F012E564E50AF0A3E50B8B
:10DA6000F012E54FE4F0A3F012E576E4F0E50D6086
:10DA700006122EC9E9F50C12DA8B7401F0E50C6080
:10DA800003122EFFA90C7F0A0212B612DA8F22129D
:10DA9000DA9322900755E0F8A3E0F5838882A32269
:10DAA000F012DAA52212DA93A322E9FE90075512AA
:10DAB000DE83E8492274F61211E47E0012DAAC60CB
:10DAC0001412E580E0F8740268600F740368600A5D
:10DAD0007404686005791202DB7B12DB8C6C7003C6
:10DAE000A3E06D6005790202DB7B750A108E0B786E
:10DAF0000A1213F7EAFCEB12DB7E1233A374021254
:10DB0000118A7910900755E0242BFAA3E03400FB2A
:10DB1000122E3F900755E0241BF50AA3E03400F5D0
:10DB20000B780A1213F712E1E412DB7E122EB7749F
:10DB30000212118A900755E0240112E544E0FA90A0
:10DB40000755E0FBA3E0F5838B82E0600D74036A68
:10DB50007027888289837402801974046A70098826
:10DB60008289837402F0801174036A700C88828940
:10DB7000837405F0122ECFE9FEEEF902E621FD9046
:10DB80000755E02407FAA3E03400FB22900755E094
:10DB9000F8A312DB9622E0F5838882A3A3A3E022F8
:10DBA000C082C08390075702DEBF74F71211E412DF
:10DBB000DAAA601312DB926A7003A3E06B70087438
:10DBC000016E7003122EFF7F010212B6C082C08365
:10DBD0007917122F0502DEC474F41211E474ED12E9
:10DBE0001174EAF8EBF9851A82851B83E4F08882C8
:10DBF0008983A3A3A3A3A3A312E0C78A828B83E094
:10DC0000F50AE82402FEE439FFE50A1460271460EF
:10DC10002414603A14605A14606114606814606FD0
:10DC200014607614607D14700302DCAD147003027E
:10DC3000DCB702DCC174011211DA122F5FE9F8744B
:10DC400012687014851A82851B837406807B7401A8
:10DC50001211DA122F6BE9F8E8600302DD08750B88
:10DC60000712E0C3122A01EA4B7061750A0802DC50
:10DC7000FF74011211DA122F7780DB74011211DAAE
:10DC8000122F8380D174011211DA122F8F80C77482
:10DC9000011211DA122F9B80BD74011211DA122FBA
:10DCA000AD80B374011211DA122FB380A97401127E
:10DCB00011DA122FBF809F74011211DA122FCB805C
:10DCC00095851A82851B837407F08045EA240BF53D
:10DCD00082E43BF583E06408700590075980039067
:10DCE000075712DAAF601512E11512DE77600D7476
:10DCF000011211DAA90A1211E2E9F50B850B0A8566
:10DD00001A82851B83E50AF0851A82851B83E060F1
:10DD10000CAC1AAD1B12E0C3122EA58003122E1BF1
:10DD2000741312118A7F040212B674F61211E4EC15
:10DD3000FEEDFF750A7D750B2F780A1213F7790235
:10DD4000122FD1740212118AE9F50A8E828F83E0B4
:10DD5000F9122F05A90A02E62174F41211E4EAFE71
:10DD6000EBFF890A12DAAC700302DE4812DB926E16
:10DD70007003A3E06F600302DE48900755E02401C2
:10DD800008A3E03400F9E8FAE9FB8A828B83E0F823
:10DD9000740668600302DE3512DFEC607F90075680
:10DDA00012E83C12DE83900755E0FCA3E0CC241877
:10DDB000F582E43CF583E0FCA3E0FDE82413F58262
:10DDC000E439F583E0F8A2E050168C828D83A3A39A
:10DDD000A3A3A3E0A2E050088A828B837407803457
:10DDE000E8540260168C828D83A3A3A3A3A3E054FE
:10DDF0000260088A828B8374098019E854046017D2
:10DE00008C828D83A3A3A3A3A3E0540460098A8218
:10DE10008B83740BF080159007598003900757127D
:10DE2000DAAF600812DE7260031211E212DEB8701F
:10DE30003C7900800E741168700EE50A6003750A63
:10DE400032A90A122F058025E50A7018EEFAEFFBB9
:10DE5000122A018A828B83E58245836007A3A3A3EC
:10DE6000E0D2E4F0EEFAEFFBA90A12258179010273
:10DE7000DD2512E119A3A312DE8388828983E5825E
:10DE8000458322E0F8A3E0F922C082C08312DAAC15
:10DE9000602412E16B7005900757800390075912B8
:10DEA000DAAF600812DE7260031211E212DEB8709F
:10DEB000057900122F05800C12DA8FE0641222EA35
:10DEC000F0A3EBF0D083D082020E1274E81211E4BA
:10DED00074EB1211748A188B198C168D1712DAAC28
:10DEE0007005791202DFE212E176122A018A0A8BAA
:10DEF0000BAE0AAF0BEE4F7005791402DFE2AA1ADF
:10DF0000AB1B122F11EE2405F514E43FF515EE249A
:10DF100004F512E43FF51312DFEC602FA81AA91BD9
:10DF2000880E890F12E56BFEA3E0FF1224E5E9F5E8
:10DF30001079001224EB8A0A8B0B851282851383D9
:10DF4000E0F51185140C85150D803690075612E505
:10DF500071F50EA3E0F50FA81AA91B880A890BAE6C
:10DF60000AAF0B1224E5E9F51179001224EB8A0CB3
:10DF70008B0D851282851383E0F51085140A8515B3
:10DF80000B740E1211DAEEFAEFFB122F5374071214
:10DF900011DAAA0EAB0F122F4D742D1211C01214EC
:10DFA0000E780C1213F7E511F50C780C1213FB78B0
:10DFB0000A1213F7740E1211CA880A890B780A1212
:10DFC00013F774171211CA880A890B780A1213F70B
:10DFD000A910AC16AD17AA18AB19122E2D740B127E
:10DFE000118A741512118A7F100212B6900755E03B
:10DFF000F8A312E119E02274F61211E474F7121179
:10E0000074EAFEEBFF8C0A8D0B90075712DAAF70A3
:10E010000302E0BE12E11512DAAF700302E0BE8C1B
:10E02000828D83E0C0E074021211C0D0E0F08C82D7
:10E030008D83A3E0C0E074031211C0D0E0F08C82A5
:10E040008D83A3A3E0F974041211C0AA82AB8312DA
:10E050002E4B850A82850B83A3A3A3E0C0E0740640
:10E060001211C0D0E0F0850A82850B83A3A3A3A37D
:10E07000C082C08374071211C0AC82AD83D083D03C
:10E0800082740212108774021211DA7901EEFAEF2B
:10E09000FB90075712DFEF12E1131211E2E9851A24
:10E0A00082851B83F0601774011211C0E9F07401BE
:10E0B0001211DA8E828F83A312E0C7122EA5740983
:10E0C00002E61E8E828F83E0FAA3E0FB2274F71231
:10E0D00011E4890A90075912DAAF603212E115A3F0
:10E0E000A3A3A312DE83E8FEE9FFEE4F6020740BCA
:10E0F0001211C012140E740B1211C012140EA90AC0
:10E100008E828F831211E2740412118A80027902C6
:10E1100002DBC7F8A312E11922E0F583888222749A
:10E12000F61211E474F912117412DAAC6033AA1AFF
:10E13000AB1B122F1112E17012E1686008750A4DD5
:10E14000750B2F8006750A53750B2F780A1213F77B
:10E1500074021211DA7907122FD1740212118A8017
:10E16000027901740702E61E90075612E119E022B7
:10E17000900755E0F8A312DB96FAA3E0FB2274F6B1
:10E180001211E474F0121174750A10750B00780AFC
:10E190001213F7900755E0241BFCA3E03400FD7434
:10E1A000021211D21233A3740212118A750A657514
:10E1B0000B2F02E60574F61211E474F01211747557
:10E1C0000A10750B00780A1213F712E1E4FD7402CD
:10E1D0001211D21233A3740212118A750A71750BCF
:10E1E0002F02E605900755E0242BFCA3E034002223
:10E1F00074F01211E48A0A8B0B750C0012E54F12B1
:10E20000DAAF600302E4FB7A077B001234699007FF
:10E2100055E0241812E544EAF0A3EBF088828983E4
:10E22000E0FA4B700302E4F612E564E0FEA3E0FFBF
:10E23000750E07750F00780E1213F7AC0AAD0B12AE
:10E2400033A3740212118A12DFEC600302E468EE59
:10E250002413FCE43FFD90075612E5712405F50EEA
:10E26000A3E03400F50F8C828D8312DE83850E824D
:10E27000850F83E0A2E092F0E8A2E020F001B35025
:10E2800007A2E0E433FA80027A00E854FE4AF88CF0
:10E29000828D8312E505C313A2E092F0E8C313A2B6
:10E2A000E020F001B35012E854026004D2F0800282
:10E2B000C2F0A2F0E433FA80027A00E854FDF8EAF2
:10E2C00025E0FAE433FBE84AF8E94B12E525543F30
:10E2D000A2E092F0E81313543FA2E020F001B35003
:10E2E00013E854046004D2F08002C2F0A2F0E433D8
:10E2F000F5108003751000751100E854FBFAE9FB76
:10E3000074027810121161EA4510F8EB451112E51C
:10E310002513541FA2E092F0E8131313541FA2E038
:10E3200020F001B35013E854086004D2F08002C218
:10E33000F0A2F0E433F5108003751000751100E8C9
:10E3400054F7FAE9FB74037810121161EA4510FAE8
:10E3500012E511A3E0A2E092F0EBA2E020F001B3FD
:10E36000501154016004D2F08002C2F0A2F0E433F4
:10E37000F880027800EB54FEFBE8F9EB4912E53136
:10E3800074097810121152E510A2E092F08A108BF5
:10E390001174097810121152E510A2E020F001B3B7
:10E3A0005013EB54026004D2F08002C2F0A2F0E4F9
:10E3B00033F5108003751000EB54FDFB74097810E1
:10E3C000121161EB451112E531740A7810121152E5
:10E3D000E510A2E092F08A108B11740A78101211E5
:10E3E00052E510A2E020F001B35013EB5404600496
:10E3F000D2F08002C2F0A2F0E433F5108003751071
:10E4000000EB54FBFB740A781012116112E511E065
:10E41000F50EA3E0F50F740B780E121152E50EA263
:10E42000E092F08A0E8B0F740B780E121152E50EEB
:10E43000A2E020F001B35013EB54086004D2F08046
:10E4400002C2F0A2F0E433F50E8003750E00EB5427
:10E45000F7FB740B780E121161EAF8EB450FF98C9B
:10E46000828D83E8F0A3E9F0850A82850B83A3E01F
:10E47000600F8E828F83A3E0600712E576740580BB
:10E480006D850A82850B83A3A3E054047015EE24E6
:10E4900012F582E43FF583E0A2E2400712E57674CC
:10E4A00001804B12DFEC8E828F83600CE0FA850ACC
:10E4B00082850B83E0F8800AE0F8850A82850B8369
:10E4C000E0FAEAC394055029E8C394055023E8759F
:10E4D000F005A4F8A9F0747028F8748039F9E82AD6
:10E4E000F582E439F583E0C0E012E576D0E0F08013
:10E4F0000D750C188008750C138003750C11A90C90
:10E500007F080212B6F0A3E9F0850E82850F83E042
:10E5100022EB4511FB8C828D83EAF0A3EBF0850E94
:10E5200082850F8322F98C828D83E812E50513130F
:10E5300022FB8C828D83EAF0A3EB12E508F510A391
:10E54000E0F51122F8A3E03400F988828983229053
:10E550000755E0F8A312E55922E0C82418F582E433
:10E5600038F5832212DAA5A3A3A322900755E0F879
:10E57000A312E559E022900755E0F8A312E58022A6
:10E58000E0C8241AF582E438F5832274F61211E407
:10E59000750A89750B2F780A1213F77911122FD18A
:10E5A0007402807A74F61211E474EE121174EAFEA9
:10E5B000EBFF851A82851B83ECF0A3EDF0750A084A
:10E5C000750B00780A1213F7741E1211C0E0FCA339
:10E5D000E0FD74041211C0AA82AB831233A374024B
:10E5E00012118A750A95750B2F780A1213F77402A7
:10E5F0001211DA790BEEFAEFFB122FD1740212111D
:10E600008A74128019780A1213F774021211DA79D7
:10E610001112E170122FD1740212118A74101211AA
:10E620008A7F020212B674F61211E4750AA1750B04
:10E630002F02E59674F41211E474F9121174EAFED3
:10E64000EBFF851A82851B83E9F0750C06750D00BA
:10E65000780C1213F774031211C0AA82AB83123321
:10E66000A3740212118A750CA7750D2F780C121362
:10E67000F774021211DA7908EEFAEFFB122FD17457
:10E680000212118A740702DD2274F61211E4750A6F
:10E69000B9750B2F02E596C082C08312DAAC6050C8
:10E6A000E0C8241812E6F6600312346F12E76D24F6
:10E6B0005B12E6F6600312346F12E76D245D12E61A
:10E6C000F6600312346F12E76D245F12E6F6600302
:10E6D00012346F12E76D246112E6F6600312346F94
:10E6E00090075512E0C712346F900755E4F0A3F07D
:10E6F000122E2102DEC4F582E438F583E0FAA3E0AD
:10E70000FBEA4B2274F71211E412DAAA605CE0C84B
:10E710002461F582E438F58312140E12E76D245F4C
:10E72000F582E438F58312140E12E76D245DF5824C
:10E73000E438F58312140E12E76D245BF582E43899
:10E74000F58312140E12E76D2417F582E438F58371
:10E75000E0FB12DB8CFCA3E0FD12E168FAEEF9129B
:10E760002593740812118A122EFF02DBC7900755F9
:10E77000E0F8A3E0C822C082C08379109007551248
:10E78000E6FC603512E56BFAA3E0FBEAFCEBFDEC7E
:10E790004D602612E56412E6FC601EEA2415F5823F
:10E7A000E43BF583E0F88C828D83A3A3A3A3E0FA76
:10E7B000C3985003EA8001E8F902DEC474F612112E
:10E7C000E4EAFEEBFF12DAAC606612E83C12DAAF64
:10E7D000605E880A890B88828983E08E828F83F04D
:10E7E00088828983A3E08E828F83A3F0E82412F5C8
:10E7F00082E4350BF583E0F9EE2402FAE43FFB12E4
:10E800002E4BE50A2415F582E4350BF583E08E8264
:10E810008F83A3A3A3A3F0E50A2413F582E4350BA9
:10E82000F583EE2405FCE43FFD7402121087800995
:10E830007C077D0079001233BB02E62112E119A3A7
:10E84000A3A3A3A32274F21211E4E9FF8C0A8D0B97
:10E850007E008F0C8E0D8A0E8B0F780E12143B01EA
:10E86000031AB6EB9AE8B1E8C8E8B6EBE0E8A4E929
:10E87000B5E9EEE930EA4DEA6AEA89EAA6EAB6EBDA
:10E88000C3EA05EB21EB36EB45EB5FEBB6EBB6EB02
:10E89000B6EBB6EB7BEBB6EB29E974106F600302C5
:10E8A000EBB2750C10780C1213F77A537B1502EA51
:10E8B0007E74106F600302EBB2750C10780C1213AB
:10E8C000F77A637B1502EA7E74046F600302EBB291
:10E8D0008C828D8312106290157312106E02EBD42D
:10E8E00074016F600302EBB290157DE06401700368
:10E8F00002E99F9019D7E0F88C828D83E09019D7B8
:10E90000F0E86010E0600302EBD4901551E064027F
:10E91000704B8051E0700302EBD4901551E064011C
:10E92000606EE064047061806774016F600302EBE5
:10E93000B29019D7E06401606690157DE0F88C8292
:10E940008D83E090157DF0E86026E0600302EBD453
:10E95000901551E06403600DE064076008E0640511
:10E96000600302EBD4901550E0F91225AB02EBD412
:10E97000E0700302EBD4901551E064016012E06492
:10E9800004600DE064066008E06405600302EBD4F7
:10E990007A017B00901550E0F91233F702EBD47E38
:10E9A0001202EBD474026F600302EBB212F4CB904C
:10E9B00019D802EB59EFC39420400302EBB27C1F3D
:10E9C0007D0079007ADB7B191233BB780C1213F7C8
:10E9D000AC0AAD0B7ADB7B191233A3740212118AD5
:10E9E000EF9019DAF07CDB7D19FB7A018037EFC3F9
:10E9F0009420400302EBB27C1F7D0079007A7F7B7C
:10EA0000151233BB780C1213F7AC0AAD0B7A7F7B6F
:10EA1000151233A3740212118AEF90157EF07C7FD9
:10EA20007D15FB7A00901550E0F91225A502EBCE7A
:10EA300074016F600302EBB28C828D83E0F8C394A3
:10EA400005400302EBB2E890159E02EB7874016F6B
:10EA5000600302EBB28C828D83E0F8C39404400320
:10EA600002EBB2E890159F02EB7874066F60030228
:10EA7000EBB2750C06780C1213F77AA07B151233E3
:10EA8000A3740212118A02EBD474016F600302EBCB
:10EA9000B28C828D83E0F8C39408400302EBB2E8A5
:10EAA0009015A602EB7874016F600302EBB28C82C2
:10EAB0008D83E0F8C39404400302EBB2E89015A7FD
:10EAC00002EB7874026F600302EBB212F4CB901584
:10EAD000A812F4B3E849700302EBD4901551E06436
:10EAE00006600302EBD49015A812F505780A1213FC
:10EAF000F37A027B00901550E0F912350574041288
:10EB0000118A02EBD474016F600302EBB28C828D28
:10EB100083E0F8C39402400302EBB2E89015B080A2
:10EB20005712EBEF600302EBB212EBE3400302EB90
:10EB3000B29019FC803E12EBEF707712EBE350724B
:10EB40009019FE802F12F4CB74026F7065C3E894A5
:10EB5000F4E99401505C9015B1E8F0A3E980191232
:10EB6000EBEF704EEA24F612EBDB9477E9940C504D
:10EB700041901A00EAF0A3EBF0805974016F7032F3
:10EB80008C828D83E0640170297A087B0090155097
:10EB9000E0F9123517EA4B4C4D70137900123565C8
:10EBA0007A047B00901550E0F912351180267E160C
:10EBB00080227E18801EC3EA9427EB9400501374C1
:10EBC000026F700E8C828D8312F01E122497E9FE64
:10EBD00080027E02EEF97F060212B6F8EB34FFF9EE
:10EBE000C3E822EA24FA12EBDB947BE9940C228C32
:10EBF000828D83E0FAA3E0FB74026F2274F4121199
:10EC0000E4ECFEEDFF750A008A0C8B0D780C1214F3
:10EC10003B00031B5DED4EEC54EC66EC78EC88ECAD
:10EC20009AECA6ECACECBBECCAECD0ECD6ECE7EC86
:10EC3000ECECF1ECF6ECFBEC08ED0DED12ED17ED64
:10EC40001CED39ED3EED43ED5DED53EDA0EC90157F
:10EC50005202ED56750C10750D00780C1213F77CEE
:10EC6000537D1502ED2B750C10750D00780C1213E9
:10EC7000F77C637D1502ED2B9015731210628E8266
:10EC80008F8312106E02ED77750C06750D00780CEF
:10EC90001213F77C777D1502ED2B9019D702ED56F4
:10ECA00090157D02ED569019D802ED469019DA12B2
:10ECB000ED7B1213F77CDB7D19807090157E12EDD1
:10ECC0007B1213F77C7F7D15806190159E02ED56B7
:10ECD00090159F02ED56750C06750D00780C1213F9
:10ECE000F77CA07D1580449015A6806A9015A780BA
:10ECF000659019FA80509015A8804B9015B0E08E61
:10ED0000828F83F0A3E480699019FC80399019FE0A
:10ED100080349015B1802F901A00802A750C0675EA
:10ED20000D00780C1213F77CAA7D15EEFAEFFB129A
:10ED300033A3740212118A803E9015B38008901597
:10ED4000B580039015B712F4CF8E828F83E8F0A3BD
:10ED5000E9801E901551E08E828F838014C3EA945F
:10ED600027EB9400500E12249D8E828F83EAF0A32D
:10ED7000EBF08003750A02A90A800EE0F50C750D10
:10ED800000780C22740A12118A7F040212B674F6FB
:10ED90001211E4901551E0703EEA4B60089015BAEC
:10EDA000EAF0A3EBF0750A73750B15780A1213F7E6
:10EDB000750A63750B15780A1213F77C537D157B62
:10EDC00000901552E0FA901550E0F912302B7404BF
:10EDD00012118A7900800279117F020212B6C08274
:10EDE000C083EA4B60089015BCEAF0A3EBF0D08337
:10EDF000D082020E12C082C083901551E06406706A
:10EE00000F7C1312F4C2901550E0F9122515800200
:10EE1000791280DA74F71211E4E9901550F0901528
:10EE200051E4F09019FA74FFF0A3F0122605901542
:10EE3000527404F07C107D0079007A537B151233F4
:10EE4000BB7C107D0079007A637B151233BB901573
:10EE500073E4F0A3F0A3F0A3F090159EF090159F3B
:10EE6000F09015A67407F09015A7E4F07C537D157B
:10EE70007A1079021234E17C637D157A10790312DD
:10EE800034E17C737D157A0479041234E17F010248
:10EE900012B674F41211E474F6121174EAFEEBFF68
:10EEA00054806023901550E0F91233DF8A0A8B0BEF
:10EEB000EA450B600A123559AA0AAB0B1233CDEEA4
:10EEC000FAEF648002F014EF544060137C737D15F8
:10EED0007A0479041234DBEEFAEF644002F014EEA7
:10EEE000A2E0400302EF919019D7E0700990157DE0
:10EEF000E0700302EF8B90157DE0600B851A828530
:10EF00001B837403F0803990159EE0851A82851B5F
:10EF100083F090159FE0C0E074011211C0D0E0F0C2
:10EF2000750A06750B00780A1213F77CA07D15741C
:10EF3000041211C0AA82AB831233A3740212118A85
:10EF40009015A6E0C0E074081211C0D0E0F0901552
:10EF5000A7E0C0E074091211C0D0E0F0AA1AAB1B00
:10EF6000901550E0F912259FE96020901551740822
:10EF7000F012F510601512F4BC12F4CF8882898368
:10EF8000E5824583600579081211E2EE640102F022
:10EF90001254026035901551E06406702812F4C2D4
:10EFA0001228279015A812F513601A9015A812F4CC
:10EFB000FD1213F37A027B00901550E0F91235052B
:10EFC000740412118AEE64028048EE5404600A79D7
:10EFD00000123565EE64048039EE540860399015EE
:10EFE000B9E01460081470271235478022901A0087
:10EFF00012140E9015B112140E79019019FE12F030
:10F000001E9019FC12F4C512356B740412118AEEAD
:10F010006408FAEFFB80047A007B0002ED84E0FCD8
:10F02000A3E0FD2274F41211E4EA2405F8E43BF9AC
:10F030008A828B83E0246F600B24EF606D24D260A2
:10F040006402F105A3E0640E600302F1058A828B7D
:10F0500083A3A3A3E064057004A3E0641460030227
:10F06000F1058882898312F4B9A3A3A3E0F990156E
:10F0700051E06406600302F105747F69700302F1D8
:10F08000059015BA12F4C5EA4B607A9015BA12F4DD
:10F09000B9A3A312F4C58A828B83E5824583606598
:10F0A0001211E2806012355F805B88828983E064A0
:10F0B0001370528A828B83A3A3A3A3A3A3E064014A
:10F0C0007002A3E070199015B9E0640270117A081B
:10F0D0007B00901550E0F912351112354780267AE1
:10F0E000057B0012249D8A0A8B0BE4F50CF50D7844
:10F0F0000A1213F37A087B00901550E0F9123505D7
:10F10000740412118A02ED8974EC1211E4EAFEEB28
:10F11000FF8E828F83A3A3E0F8EE2403F50EE43F75
:10F12000F50FEE240AF50CE43FF50D8E828F83A3D4
:10F1300085820A85830BE8602724FE700302F1D7DD
:10F1400014700302F23D14700302F23D14700302C6
:10F15000F2AC14700302F3BB14700302F43080723B
:10F16000E0704B7C537D157A1079021234DB7C639E
:10F170007D157A1079031234DB750A06750B007859
:10F180000A1213F7AC0EAD0F7A777B151233A37406
:10F190000212118A9015517401F07CDB7D199019CF
:10F1A000DAE0FB7A01901550E0F91225A5E9600339
:10F1B00002F23412F510601A12F4BC12F4CFE8FA1D
:10F1C000E9FBEA4B600C901551E0F98A828B8312BF
:10F1D00011E27F0C0212B6E07051850E82850F831A
:10F1E000E0601D7C7F7D1590157EE0FB7A00901518
:10F1F00050E0F91225A5E9850A82850B83F0802B62
:10F20000901551E064026023E06407601E7A017B80
:10F2100000901550E0F9123517EA4B4C4D700C7AFE
:10F22000017B00901550E0F91233F7850A82850BB7
:10F2300083E0609E9015517408F002F1B3E070F421
:10F24000740368701D901551E064067004740780A3
:10F25000E89019D7E09015516004740280DB7403C4
:10F2600080D79019D812F5139019D76025E0700651
:10F2700090157DE060269019D812F4FD1213F37AF0
:10F28000017B00901550E0F9123505740412118AC3
:10F29000800AE06401600390157DE4F0901551E070
:10F2A00064077004740680917404808DE0F8600334
:10F2B00002F3A8EE2404F50AE43FF50B7510067579
:10F2C000110078101213F7AC0AAD0B7AAA7B151255
:10F2D00033A3740212118A850C82850D8312F4CF38
:10F2E0009019FA12F4B39015517406F09015A81203
:10F2F000F51360259015A8E0F512A3E0F513E4F5E9
:10F3000014F51578121213F37A027B00901550E071
:10F31000F9123505740412118AEE240DF582E43FCA
:10F32000F58312F4F1EE240FF582E43FF58312F435
:10F33000E5EE2411F582E43FF58312F4D99015B07F
:10F34000E06401703B7A1F7B0012249D8A12EA75EB
:10F35000F0E8A4C512A8F075F003A428F875F0E849
:10F36000EBA428F513E4F514F51578121213F37ACB
:10F37000047B00901550E0F9123505740412118ACF
:10F3800075100478101213FB850C82850D8312F022
:10F390001EAA0AAB0B850E82850F83E0F912303767
:10F3A000740112118A02F1B3743168600302F234FD
:10F3B0009019D7E4F090155102F2A812305B7C0648
:10F3C0007D0079007AAA7B151233BB9015B3E4F067
:10F3D000A3F09015B5F0A3F09015B7F0A3F07A0460
:10F3E000FB901550E0F91235117A087B009015500A
:10F3F000E0F91235119019FA74FFF0A3F090157D21
:10F40000E0600690155102F25E8E828F83A3A3A363
:10F41000A3A3E0640890155170047405800274047D
:10F42000F07A017B00901550E0F91233F702F1B346
:10F430007A087B00901550E0F9123511850A828513
:10F440000B83E0600302F1D28E828F83A3A3A3A378
:10F45000A3A312F4F18E828F83A3A3A3A3A3A3A3D8
:10F46000A312F4E5850C82850D8312F4D97A047B0E
:10F4700000901550E0F9123517EA4B4C4D6003022D
:10F48000F1D29015BC12F513700302F1D29015B7AA
:10F4900012140E9015B512F01E9015B312F4C5900B
:10F4A00015BC12F4B912F4B91211E2740212118AE5
:10F4B00002F1D2E8F0A3E9F022E0F8A3E0F58388B6
:10F4C00082229019FAE0FAA3E0FB228C828D83124B
:10F4D000F4D322E0F8A3E0F92212F4D39015B7E8B0
:10F4E000F0A3E9F02212F4D39015B5E8F0A3E9F007
:10F4F0002212F4D39015B3E8F0A3E9F02212F50537
:10F50000F50D780A22E0F50AA3E0F50BE4F50C22EC
:10F510009015BA12F4D3E8492274F41211E474F687
:10F52000121174E9FE9019FC12F4CF7583157582DF
:10F53000B3C3E098A3E09940389015B312F4CF75A7
:10F5400083197582FEC3E098A3E09940249015B515
:10F5500012F4CF9015B1E0687003A3E069701290C7
:10F5600015B712F4CF901A00E0687003A3E0696049
:10F57000797A057B0012249D8A0A8B0B9019FA1266
:10F58000F4CF851A82851B8312F4B39019FC12F410
:10F59000CF74021211C012F4B39019FE12F4CF749A
:10F5A000041211C012F4B39015B112F4CF74061204
:10F5B00011C012F4B3901A0012F4CF74081211C0E3
:10F5C00012F4B3AA1AAB1B12251BEE9015B9F0E486
:10F5D000F50CF50D780A1213F37A087B009015509C
:10F5E000E0F9123505740412118A02ED8474F412E4
:10F5F00011E4E9FE901551E064066005791402F605
:10F6000084EA24FAF8EB12F6875077EC24FAF8ED46
:10F6100012F687506D740C1211C0E0F50CA3E0F5E2
:10F620000DC3E50C94F4E50D94015056740E1211BF
:10F63000C0E0F50AA3E0F50BE50A24F6F8E50B12A5
:10F64000EBDD9476E9940C50399019FCEAF0A3EBC9
:10F65000F09019FEECF0A3EDF09015B1E50CF0A3DD
:10F66000E50DF0901A00E50AF0A3E50BF0EEF912B3
:10F6700035657A047B00901550E0F9123511790058
:10F680008002791802ED8912EBDD947AE9940C225C
:10F6900074F21211E4ECFEEDFF8A828B83A3A3A324
:10F6A000A3A3A3A3A3E0F50C700302F78CEA24063E
:10F6B000F8E43BF9880A890B8882F583E0FCA3E033
:10F6C000FD8C828D83E0F50DA2E75049E50CC394D3
:10F6D0000D500302F78C74F4250CF50CF8EC28F5AA
:10F6E0000EE43DF50F780E1213F7E50CF50E780ECB
:10F6F0001213FB79018A828B83A3A312FA36122E8E
:10F7000063740312118AE98E828F837004740180FE
:10F7100009740280058E828F83E4F0E50DA2E65025
:10F7200004D2F08002C2F0A2F0E433A3F0743F559B
:10F730000D8E828F83A3A3F0EE2403F8E43FF9E853
:10F74000FAE9FBE50C24FFF8E434FFF98A828B83A5
:10F75000E8F0A3E9F0EE2405F8E43FF98A828B8310
:10F7600012FA36EA4B6019850A82850B83E0240180
:10F77000FAA3E03400FB88828983EAF0A3EB8007D8
:10F7800088828983E4F0A3F07900800279017F0602
:10F790000212B674F71211E48C828D8312F8A38CD6
:10F7A000828D83A3A882A98312F8B38C828D83A350
:10F7B000A312F7BB7A047B0002F83AA312FA87225D
:10F7C000C082C08312FA737A0202F875C082C083C5
:10F7D000851A82851B83E064027002A3E0700B121D
:10F7E000FAB11211C012F7F18002790402F87780A1
:10F7F000CFE0FAA3E0F5838A82E8F0A3E9F079008C
:10F800002274F71211E474091211C0E0640470024A
:10F81000A3E0700A740B1211C012FB588002790425
:10F82000801874F71211E412F87E8C828D83A3A3E2
:10F83000A3A3E02404FAE43400FB7F010212B674AF
:10F84000F61211E48C828D83A3A882A98312F7BCDF
:10F8500088828983E0640170047804800278128CC5
:10F86000828D83E0F50AE8850AF0A4A9F02401FA64
:10F87000E43902F99F7B00D083D082020E1212FA83
:10F8800077A30AAB83EC2402F8E43DF988828983EC
:10F8900012F8942212FA87A30AAB83888289831212
:10F8A000FA862212F8A722E08A828B83F0A3AA822A
:10F8B000AB832212F894A30AAB832274F21211E4F0
:10F8C000ECFEEDFF740E1211C0E0F50CA3E0F50D97
:10F8D000C3E50C9406E50D9400500302F97E741004
:10F8E0001211C0E0F50AA3E0F50B8E828F83E0FAD7
:10F8F000A3E0F9EA850A82850B83F0A3E9F08E8202
:10F900008F83A3A3E0FA8E828F83A3A3A3E0F8E4FE
:10F91000C8F9EA850A82850B83A3A3F0A3E912FE46
:10F92000E1A3A3A37402F0F50E880F780E1213F76B
:10F93000EE2404FCE43FFDE50A2405FAE4350BFB64
:10F940001233A3740212118AE50C24FAF8850A8294
:10F95000850B83A3A3A3A3A3A3A3F0E50A2408F51F
:10F9600082E4350BF583E8600DEE2406F8E43FF9F8
:10F97000E8F0A3E98003E4F0A3F0790080027904C1
:10F9800002F78E74F61211E48C828D83E0F50A750D
:10F990000B007402780A121161AA0AAB0B8001FBFA
:10F9A0007F020212B674F61211E4740C1211C01226
:10F9B000FA36EA2404F8E43BF9740A1211C0E0FEB6
:10F9C000A3E0FF74066E4F705B888289837402F037
:10F9D0008C828D8312FC628A828B83F0A3EF12FBF0
:10F9E00084F50A8C828D83A3A3A3E0FEE4CEFFE519
:10F9F0000A8A828B83A3A3F0A3EFF088828983E035
:10FA0000F50A8E0B780A1213F7EC2404FC50010D52
:10FA1000EA2405FA50010B1233A3740212118A79F9
:10FA20000002F9A074146E4F7008888289837410E4
:10FA3000809D790480EBE0FAA3E0FB22C082C083C2
:10FA40008C828D83A3E0F9F5F08C828D83E0A4F89D
:10FA5000E98A828B83F0E824018010C082C083127F
:10FA6000FA738C828D83A3A3E02402FAE43400FBB2
:10FA700002F87712FA77228C828D8312F8A78C8293
:10FA80008D8312FA8622A3E08A828B83F022C082C1
:10FA9000C083851A82851B83E064027002A3E07034
:10FAA0000B12FAB11211C012F7F18002790402F8B8
:10FAB000778C828D83E0FAA3E0F9EAF8740222C021
:10FAC00082C0838C828D83E0FA02F87574F412117F
:10FAD000E4890D8A0C740C1211C012FCB1402F7411
:10FAE0000E1211C012FB1EA3A3A3A3A3E50DF08861
:10FAF000828983A3A3A3A3A3A3E50CF012FCBE6099
:10FB00000512FB128003E4F0A3F07900800279046F
:10FB1000801FEC2402F8E43DF9E8F0A3E92212FB8F
:10FB20002222E0F8A3E0F98882898322741012115E
:10FB30008A7F040212B674F71211E474091211C01C
:10FB4000E064047002A3E0700A740B1211C012FB8F
:10FB5000588002790402F83A12FCAB8C828D83E063
:10FB6000FEA3E0FBEE88828983F0A3EB12FB84FE08
:10FB70008C828D83A3A3A3E0FBEE88828983A3A359
:10FB800012FBCF22F08C828D83A3A3E02202FABF66
:10FB9000C082C08312FCA1E8A2E04028E9C313E8B8
:10FBA00013FAC39402401D74021211C012FCA7EA9A
:10FBB00088828983A3A3F088828983ECF0A3EDF087
:10FBC00079008002790402F87702FABF02FA3CF069
:10FBD000A3EBF079002274F61211E4740A1211C03A
:10FBE00012FA36C3EA9404EB94004039740C1211F3
:10FBF000C012FCA78C828D8312FC528C828D83A351
:10FC0000A3E0F50A8C828D8312FC40EA24FCFA12F0
:10FC1000FC2DEA6008EC240412FB158003E4F0A339
:10FC2000F079008002790402F9A002F82288828922
:10FC300083A3A3A3A3F0E82405F582E439F5832286
:10FC4000A3A3A3E0FFE50A88828983A3A3F0A3EF1F
:10FC5000F02212FC562212FC6288828983F0A3EF04
:10FC6000F022E0F50AA3E0FFE50A22C082C0838506
:10FC70001A82851B83E064017002A3E0701B8C82F2
:10FC80008D83E0C0E074021211C0E0F8A3E0F583B8
:10FC90008882D0E0F079008002790402F87702FAD5
:10FCA0005B851A82851B8312FCAB22E0F8A3E0F986
:10FCB00022E0FAA3E0FBC3EA9402EB9400228C82D8
:10FCC0008D8312FC56EA24FEFA88828983A3A3F06E
:10FCD000E82403F582E439F583EA2274F01211E492
:10FCE00074FA1211748A108B118C0E8D0F890D7499
:10FCF000181211C0E0FEA3E0FFEE4F6005750C0086
:10FD00008019750C017A177B001229E38A0A8B0B84
:10FD1000AE0AAF0BEE4F700302FDCEEEFAEFFB75AD
:10FD20000A01750B008A828B83E50DF0A3AA82ABD2
:10FD300083E50E450F601E74161211C0E0FCA3E0AF
:10FD4000FD850E82850F831211E28B0BEA2401F5EB
:10FD50000A5002050BE50DA2E7502D7910AA10AB51
:10FD600011122A0DE97062EE250AFCEF350BFDA990
:10FD70000AEEFAEFFB122E5DE9F50E703DE50A245E
:10FD80000CF50AE4350BF50B851A82851B83740488
:10FD9000F0A3E4F074021211C0EEF0A3EFF07404CB
:10FDA0001211C0E50AF0A3E50BF0AC1AAD1BAA10C6
:10FDB000AB1112290BE9F50E6017E50CA2E050110A
:10FDC000EEFAEFFB1234278008750E1980EC750EE1
:10FDD00013A90E740612118A7F080212B674F41267
:10FDE00011E474F0121174EAFEEBFF74026C7001FE
:10FDF000ED600674106C4D7018741E1211C012FC68
:10FE0000A77402687001E9600C7410687001E96001
:10FE10000479008069741C1211C0E0F50AA3E0F5B2
:10FE20000BE86C7002E96D700F8C0C8D0D780C1264
:10FE300013F7AC0AAD0B803E74106C4DAC1AAD1BC1
:10FE4000701DAA0AAB0B122485750A10750B007879
:10FE50000A1213F774021211DAEEFAEFFB8017128E
:10FE60002485750C10750D00780C1213F7740212AE
:10FE700011DAAA0AAB0B1233B5740212118A02FB13
:10FE80002C74F41211E48A0A8B0BECFEEDFFEA45A8
:10FE90000B6049EE4F6045750C10750D00780C1223
:10FEA00013F77C267D81EEFAEFFB1233A374021266
:10FEB000118A850A82850B83E0C0E0EE240CF5826E
:10FEC000E43FF583D0E012FEE1E0C0E0EE240DF562
:10FED00082E43FF583D0E0F079018002790002FBF3
:10FEE00031F0850A82850B83A32274F41211E48A0F
:10FEF0000A8B0BECFEEDFF74FE650A700474FF655F
:10FF00000B6020C3EE9417EF94004017122929C309
:10FF1000EA9EEB9F400DEEFCEFFDAA0AAB0B122A06
:10FF20001F8002790102FB3174F61211E474FE6A3B
:10FF3000700374FF6B6011122A258B0BA90BEA4921
:10FF400070097A177B00800312292902F9A074F73F
:10FF50001211E4E990075CF090075DE4F090075E11
:10FF6000F090075FF0900760F0900761F01228CFE3
:10FF700090032AE4F07F010212B674F41211E48AAD
:10FF80000A8B0BEB5480604490075CE0F91233DF7E
:10FF90008A0C8B0DAE0CAF0DEE4F60278E828F83D7
:10FFA000E0F874036860057401687010A3A3A3A34C
:10FFB000A3A3A3A3E0FAA3E0FB123427EEFAEFFB1E
:10FFC0001233CDAA0AE50B6480FB80047A007B0023
:10FFD0007F040212B6C082C083E990075E8008C029
:10FFE00082C083E990075FF0D083D082020E12C0F6
:10FFF00082C083E990076080EEFFFFFFFFFFFFFFF5
:020000040003F7
:1000000074F71211E474EC121174E99015BEF07CCF
:10001000087D007A1F7B0012249774051211C0E43A
:10002000F0740E1211C0E4F0A3F074041211C0E4D5
:10003000F0740C1211C07450F0A3E4F0740A1211A1
:10004000C07420F0A37403F074081211C0E4F0A38C
:10005000F074061211C074E8F0A37403F074051272
:1000600011DA79017A057B0312352F740E1211DA39
:1000700079027A067B0312352F7C027D1A79147A75
:10008000087B0312352F7C167D1A79037A077B03D0
:1000900012352F74041211DA79017A107B031235AC
:1000A0002F740C1211DA79027A117B0312352F7436
:1000B0000A1211DA79027A127B0312352F740812B0
:1000C00011DA79027A137B0312352F74061211DAD2
:1000D00079027A147B0312352F7C197D1A7A1279F2
:1000E000001226357CA07D007A067B001224977CC6
:1000F000A07D007A077B001224977CA07D007A08FF
:100100007B001224977CA07D007A097B0012249743
:1001100074101211C0E4F0A3F0A3F0A3F074031262
:1001200011C07401F0041211C07401F01211C0E486
:10013000F0851A82851B8304F074101211DA790499
:100140007A087B0412303174031211DA79017A00D3
:100150007B0412303174021211DA79017A027B04C5
:1001600012303174011211DA79017A037B041230F2
:1001700031AC1AAD1B79017A067B041230319083C1
:10018000A712104A12263B9083A712104A12277911
:1001900012301912330112234D1232DD123325129F
:1001A00023711231039083A712104A1235CB122FFC
:1001B000F51233491235C59015BEE0F912338B7A2A
:1001C00000790312325F12320B1231C912328312DC
:1001D000312712313F1231997A3D7B1A1233077A57
:1001E000437B1A12332B7A3F7B1A1223537A417BBB
:1001F0001A1232E37A3B7B1A1223777A457B1A1262
:1002000031097A477B1A122FFB7A497B1A12354142
:1002100079011228697A017B009015BEE0F912334A
:10022000F70289E174F41211E474F3121174EAFE16
:10023000EBFF5480603A9015BEE0F91233DF8A0A72
:100240008B0BEA450B60218A828B83E064C07011BE
:10025000A3A3A3E0FA850A828B83A3A3E0F9123556
:1002600083AA0AAB0B1233CDEEFAEF64800285A7A6
:10027000EE548060179015C8E0600AC2AF75C9AB34
:1002800075C95B80FEEE6480FA0285AEEEA2E05096
:10029000147A377B1A12353B7ACE7B15123055EE25
:1002A00064010285A55402700302832E9015C0E0FC
:1002B0006059123223E96402702FAA1AAB1B123262
:1002C0001DE9600BAC1AAD1B7A04790012330D9056
:1002D0001A2FE024EDF50AA3E034FEF50BE4F50C4B
:1002E000F50D780A1213F3800F123223E9703912D8
:1002F00032119083A312140A7A027B009015BEE09B
:10030000F9123505740412118A801D1232177D040A
:100310007C0079007A007BAA1235BF7D017C0079D0
:10032000017A007BAA1235BFEE64020285A5EE5465
:100330000460599015C2E06033740A1211D2123170
:1003400033E9600C740A1211DA7A03790012235926
:10035000901A2D1285B81213F37A047B009015BE03
:10036000E0F9123505740412118A801A7D037C00AD
:1003700079007A107BAA1235BF7D017C0079017A61
:10038000107BAA1235BFEE64040285A5EE54086006
:10039000779015C4E060519015C7E0F91231CF9005
:1003A00015C7E064027025AA1AAB1B1231D5E960AB
:1003B0000BAC1AAD1B7A0479001232E99015C7E430
:1003C000F0901A311285B81213F38009E004F0900E
:1003D000839B12140A7A087B009015BEE0F912354F
:1003E00005740412118A801A7D047C0079007A2039
:1003F0007BAA1235BF7D017C0079017A207BAA128D
:1004000035BFEE64080285A5EE5410606F9015C1EB
:10041000E06046123289E96402701974041211D244
:1004200012329BE9601774041211DA7A067900120D
:1004300033318009123289E9700312328F901A2BFE
:100440001285B81213F37A107B009015BEE0F912F2
:100450003505740412118A801D1232957D067C00C8
:1004600079007A307BAA1235BF7D017C0079017A50
:10047000307BAA1235BFEE64100285A5EE542060D1
:100480007A9015C3E060479015C6E06022E4F0AAB8
:100490001AAB1B12314BE9600BAC1AAD1B7A047915
:1004A0000012237D901A331285B81213F3800C7456
:1004B00001F012314590839712140A7A207B009044
:1004C00015BEE0F9123505740412118A80277D04E7
:1004D0007C0079007A407BAA1235BF7D017C0079CF
:1004E000017A407BAA1235BF7D107C0079037A40E7
:1004F0007BAA1235BFEE64200285A5EE544070033E
:100500000285AA1231B7E9F50A9015C5E06076E9CF
:10051000700D9015C9E0F91231BD12319F804D90D8
:1005200015CAE0600D9015C9E0F91231BD9015CAE9
:10053000E4F07402650A703174041211D21231AB06
:10054000E9600C74041211DA7A06790012310F9006
:100550001A35E024C4F50AA3E034FFF50BE4F50CEA
:10056000F50D780A1213F380091231B19083B3129A
:10057000140A7A407B009015BEE0F9123505740428
:1005800012118A801D1231A57D067C0079007A50F7
:100590007BAA1235BF7D017C0079017A507BAA12BB
:1005A00035BFEE6440FAEFFB80047A007B00740DE7
:1005B00012118A7F040212B6E0F50AA3E0F50BE4FB
:1005C000F50CF50D780A22C082C0831232B3901563
:1005D000CBEAF0A3EBF07A00790212325F9015CBF0
:1005E000E0FAA3E0FBD083D082020E1274F712115E
:1005F000E474FD121174EAFE74011211C0E4F0EE0D
:10060000A2E0400302868B9015C87401F0908383AA
:1006100012140A7A807B009015BEE0F91235057439
:100620000412118A9015CDE070589015BFE0640651
:10063000603574021211DA7A057B031235357402C3
:100640001211C0E0851A82851B8370047401800139
:10065000E4F0AC1AAD1B79017A057B0312352F90BB
:1006600015BFE064067024851A82851B837401F02F
:10067000123547AC1AAD1B79017A057B0312352F71
:10068000800974011211C0E0D2E2F0EEA2E150093B
:1006900074011211C0E0D2E0F0EEA2E25009740140
:1006A0001211C0E0D2E1F0EEA2E040059015C8E4DE
:1006B000F074011211DA7A0179001235D174030253
:1006C00089E374F71211E474EC121174E9FE1460FA
:1006D0001714700302877124FE700302880D24FE34
:1006E000700302877B028877AC1AAD1B7A047B0308
:1006F000123535851A82851B83E0C0E0740C121117
:10070000C0D0E0F074011211C0E0C0E0740D12110D
:10071000C0D0E0F074021211C0E0C0E0740E1211FB
:10072000C0D0E0F074101211C0E4F0740F1211C0C8
:10073000E4F074051211C0E0C0E074131211C0D0CF
:10074000E0F074041211C0E0C0E074121211C0D0C5
:10075000E0F074031211C0E0C0E074111211C0D0B7
:10076000E0F0740C1211DA7A08790012301F028856
:10077000777A01790112325F0288777A0079011263
:10078000325F740A1211DA7A167B03123535740857
:100790001211DA7A137B0312353574061211DA7AE4
:1007A000187B03123535740A1211C0E0851A828550
:1007B0001B83F0740A1211C0A3E0C0E0740112118F
:1007C000C0D0E0F074081211C0E0C0E07402121151
:1007D000C0D0E0F074081211C0A3E0C0E0740312AE
:1007E00011C0D0E0F074061211C0E0C0E074041231
:1007F00011C0D0E0F074061211C0A3E0C0E074058F
:100800001211C0D0E0128C11123001806A12322312
:10081000E970069015C0E060081232179015C0E428
:10082000F09015C2E06002E4F0123289E97006909F
:1008300015C1E060081232959015C1E4F09015C51D
:10084000E060081231A59015C5E4F09015C3E06092
:100850000812313F9015C3E4F09015C4E06008120F
:1008600031C99015C4E4F09015C9E4F09015CAF0B0
:100870009015CDF01235C5EE9015BFF00289E174E8
:10088000F41211E474FF121174E914600514606A23
:10089000807AAA1AAB1B7901122383851A82851BE1
:1008A00083E0600814601214602680609015C3E035
:1008B000605AE4F07A20FB800D9015C3E0704D740F
:1008C00001F07A207B009015BEE0F91233F7803CEE
:1008D0007A107B001234698A0C8B0DAE0CAF0DEED2
:1008E0004F6029123151EEFCEFFD7A10790312238B
:1008F0007DEEFAEFFB12346F8012AA1AAB1B79025D
:10090000122383128A4E901A33128A5A7401028576
:10091000B074F71211E474FF121174E91460051435
:10092000603C804CAA1AAB1B7901123313851A82E2
:10093000851B83E0700D9015C0E06034E4F07A020E
:10094000FB8011640170299015C0E070237401F0E0
:100950007A027B009015BEE0F91233F78012AA1AD2
:10096000AB1B7902123313128A4E901A2F128A5A35
:10097000028A4A74F71211E474FF121174E91460C8
:10098000051460498059AA1AAB1B790112235F85AF
:100990001A82851B83E09015C27012E06041E4F07A
:1009A0007A04FB9015BEE0F91233F78032E0700C48
:1009B0007A047B009015BEE0F91233F7851A828520
:1009C0001B83E09015C2F0F912312D8012AA1AABE8
:1009D0001B790212235F128A4E901A2D128A5A80B6
:1009E00069741412118A7F010212B674F71211E4AD
:1009F00074FF121174E914600514603C804CAA1A4B
:100A0000AB1B7901123337851A82851B83E0700D89
:100A10009015C1E06034E4F07A10FB80116401703D
:100A2000299015C1E070237401F07A107B009015B5
:100A3000BEE0F91233F78012AA1AAB1B7902123307
:100A400037128A4E901A2B128A5A74018095851A91
:100A500082851B83E075F00AA422F0A3E5F0F02262
:100A600074F71211E474FF121174E9146005146034
:100A70003F804FAA1AAB1B79011232EF851A82858B
:100A80001B83E0700C9015C4E06037128AC41233E7
:100A9000F7851A82851B83E0640170269015C4E0F7
:100AA00070207401F09015C7128AC41233F78012B7
:100AB000AA1AAB1B79021232EF128A4E901A311227
:100AC0008A5A8086E4F07A08FB9015BEE0F9227419
:100AD000F71211E474FF121174E9146005146045F3
:100AE0008055AA1AAB1B7901123115851A82851B14
:100AF00083E09015C5700AE0603DE4F07A40FB8029
:100B00001A7401F0851A82851B83E054079015C979
:100B1000F09015CA7401F07A407B009015BEE0F9A0
:100B20001233F78012AA1AAB1B7902123115128AFE
:100B30004E901A35128A5A028A4A74F41211E474D9
:100B4000F8121174890A7401650A705CAA1AAB1B49
:100B5000790112300774061211C0E0FA74071211FD
:100B6000C0128BB61213F774061211C0E0FA7407A4
:100B70001211C0128BB61213F7790074061211C04D
:100B8000E0FC74071211C0E0FBEC29E43BFD7404A7
:100B90001211C0E0FE74051211C0E0FBEEFA12352E
:100BA0006B740412118A80097402650A700312358D
:100BB0004774080285B0E0F8E4C8F9EA28F50CE4C7
:100BC00039F50D780C22C082C08374FA121174EAD0
:100BD000851A82851B83F074011211C0EBF0740238
:100BE0001211C0ECF074031211C0EDF07406121172
:100BF000C0E0F8A3E0F974041211C0E8F074051223
