:020000040000FA
:0600000002011A0221A119
:03002B000226FFAB
:030033000226E1C1
:030053000222176F
:03006B000226B8B2
:10008300021FF7E5C754F84401F5C77901220000C0
:100093000080FB120086B90003020104E4791B7897
:1000A30002B800028004F709D8FCE4791D7802B88D
:1000B30000028004F709D8FCE490028178247919BE
:1000C3008002F0A3D8FCD9FA781A90014A7A01BACF
:1000D30000028007E493A3F608DAF97AA47B1A9066
:1000E300014B78DB79018015E493A3AD82AE838A5B
:1000F300828B83F0A3AA82AB838D828E83D8E9D9C6
:10010300E77582437583D7740312012C7582917549
:100113008300740012012C75D00075813F7518811E
:10012300751902759F00020096C09FF59FE473D076
:100133009F22D083D082C09FE493C0E0740193C018
:10014300E0740293F59F2201C903D5030B04050450
:10015300FF0000B4000028002800283075A000A08C
:1001630000A000A00000080008E001F0001000104B
:10017300001000100010001000500050005000103C
:10018300001000D0070000000000000F0001000570
:1001930000307507001000010081FF00000000FF20
:1001A300FFFF020202FC82010000E88202048301D5
:1001B3000000FE1A02F282010000B8020204830169
:1001C3000000FF1A02F082010000CE02FFFF0100CF
:1001D300FF2002FC82010000EB8202048301000085
:1001E3002D1B02EE82000000000002F482030000D7
:1001F300FA021700090C090C090C090C090C090C6B
:10020300090C090C090C090C090C090C090C010E49
:100213001F0EFB0D01E803057710020AFFFFFF0025
:10022300FEFF120135B9BF03120135CCBF03120122
:1002330035EDBF0312013558C00312013599C003D0
:10024300120135BAC003120135DBC0031201351C9C
:10025300C103120135B4C103120135FCC1031201FC
:1002630035A0B003120135B3B003120135E4B00376
:100273001201351EB10312013577B103120135BEE8
:10028300B10312013506B20312013535B20312016F
:100293003564B2031201359BB203120135E2B20396
:1002A300120135FBB20312013550B3031201357E3F
:1002B300B303120135B8B3031201353BAF02120188
:1002C300353EB0021201356BB002120135BCB002EB
:1002D300120135DFB002120135F1B002120135F41B
:1002E300B00212013532B102120135A6B102120178
:1002F3003512B202120135DAB202120135F6B20238
:100303001201352DB30212013567B302120135FE16
:10031300B30212013550B40212013581B402120145
:100323003584B402120135B5B402120135C2B402E8
:10033300120135DAB40212013544B5021201354710
:10034300B50212013554B50212013557B502120137
:1003530035AEB502120135BFB502120135F8B5024B
:10036300120135FBB5021201352FB60212013532E7
:10037300B60212013586B602120135CFB60212015A
:1003830035DFB60212013512B7021201351FB7026B
:1003930012013522B7021201358AB7021201358CD8
:1003A300B80212013530B90212013599B9021201AE
:1003B30035D7B90212013555C4021201354DC502B4
:1003C30012013581C50212013517C60212013562C9
:1003D300C602120135C6C60212013550C702120108
:1003E3003509C8021201352BCB02120135A8CC0204
:1003F300120135CBCC021201358A9C031201352F31
:100403009E031201354F9E03120135709F031201A3
:1004130035C39F03120135D2A403120135FAA40395
:1004230012013527A5031201355FA503120135BD5E
:10043300A50312013509A60312013570A6031201A3
:1004430035B0A603120135EDA6031201351BA70330
:10045300120135C5A703120135CFA703120135DCFD
:10046300A7031201350FA8031201351BA8031201BC
:100473003533A8031201353DA80312013517D30301
:1004830012013525D3031201353DD303120135552E
:10049300D3031201356CD3031201354DD701120179
:1004A30035F7D70112013573D80112013591D901FE
:1004B300120135CDD90112013568DA011201354C2B
:1004C300DB011201350FDC0112013587DC0112015A
:1004D3003515DE0112013586DE0112013540DF01DB
:1004E30012013532E00112013572E00112013526A5
:1004F300E10112013558E1011201354EE301120108
:100503003590E301120135AEE30112013533E40105
:10051300120135F7E40112013516E701120135B86E
:10052300AC03120135CEAC03120135ECAC0312015E
:1005330035FDAD0312013507AE0312013532AF03AA
:1005430012013529B00312013596B0031201350AA1
:100553008503120135AE8503120135E585031201CA
:10056300353C860312013551880312013508830196
:10057300120135B98301120135D583011201359E6C
:100583008401120135A88401120135C284011201CC
:1005930035CD8401120135A3850112013580860111
:1005A300120135DD86011201356D870112013524F3
:1005B3008801120135328B01120135218D0112019F
:1005C30035D38D011201359C8E01120135E1910164
:1005D3001201358B9201120135B49301120135706A
:1005E30095011201351096011201355E9601120133
:1005F300359D9601120135709701120135A49701BB
:1006030012013531980112013518C501120135A4C3
:10061300C50112013508C70112013514C7011201C2
:10062300354FC701120135BEC701120135C7C801D5
:10063300120135D0C90112013597CA01120135F4EF
:10064300CB0112013512CC011201352FCC0112015D
:1006530035FACC0112013522CD01120135ECCF015F
:10066300120135F1CF011201350AD20112013558B9
:10067300D201120135C8D20112013506D30112018C
:1006830035E2D301120135A2D401120135EED401B2
:10069300120135F1D40112013535D5011201357D31
:1006A300D501120135BCD501120135DED501120188
:1006B3003512D60112013575D601120135008003BA
:1006C3001201350980031201351780031201356ABF
:1006D3008003120135898003120135CE8003120194
:1006E30035128203120135AD8203120135F1820303
:1006F3001201351B83031201358A8303120135D09E
:100703008303120135478403120135F88403120170
:1007130035382700120135482700120135E9270033
:100723001201354528001201350229001201351E38
:100733002A00120135502A001201357F2A001201C6
:10074300352C2C00120135A32E0012013513310074
:10075300120135053200120135FE32001201350552
:100763003500120135F9370012013528390012011D
:10077300352C3B001201353C3C00120135CB3D00CA
:10078300120135BC3E001201350A3F0012013579D2
:100793003F001201359D3F00120135EE3F0012016B
:1007A300358F4400120135904500120135F14500A3
:1007B3001201351C4600120135E24600120135CB09
:1007C300A803120135D5A8031201351AA903120192
:1007D300352EA903120135BEA903120135E6A9037B
:1007E30012013521AA031201354AAA031201357EEB
:1007F300AA0312013593AA03120135FEAA031201BB
:10080300351FAB0312013533AB0312013548AB037C
:1008130012013582AB03120135E7AB031201352A0E
:10082300AC0312013554AC0312013590AC03120131
:100833003509D0031201357B99021201355E9A0204
:10084300120135D99A02120135149B021201356542
:100853009C02120135EE9C02120135069F02120121
:100863003598A1021201354AA20212013569A30289
:10087300120135C2A302120135F9F6021201353C09
:10088300F702120135C0F70212013593F802120183
:10089300356AFB02120135AABA0312013557BB03AD
:1008A30012013564BC03120135A3BC03120135FDEB
:1008B300BC03120135D0C70312013533C80312013B
:1008C30035D0C803120135FEC8031201351FC90311
:1008D3001201355AC9031201357AC90312013500D1
:1008E3008A031201358C8A031201354B8B031201E3
:1008F30035638C031201357D8E03120135B0F5018A
:10090300120135D5F501120135A9F601120135168B
:10091300F7011201356CF70112013508F8011201D4
:10092300353CF90112013517FA0112013576FA0146
:1009330012013547FB01120135D3FB01120135D6F4
:10094300FB0112013520FC0112013592FC01120159
:10095300353DFD011201355DFD01120135A5FD0196
:10096300120135C1FD011201353BFE01120135496A
:10097300FE01120135D8FE0112013541FF011201BA
:1009830035669303120135EB93031201352D94035E
:100993001201351195031201357E9503120135C2FB
:1009A300950312013506960312013533960312019E
:1009B300355B9603120135939603120135D19603E5
:1009C300120135F89603120135729703120135BCF3
:1009D3009703120135935F00120135606100120124
:1009E300354E6300120135A26300120135CD630059
:1009F3001201357B6400120135AB6400120135DA54
:100A03006400120135ED64001201352E65001201F8
:100A1300355A6500120135A86500120135DF6500FE
:100A23001201352B66001201358A66001201351D4D
:100A33006700120135076800120135F668001201DC
:100A430035D66A00120135F56F001201354E70007C
:100A53001201353772001201350674001201358810
:100A63007400120135D67500120135E775001201C5
:100A73003548BD0312013533BE0312013576BE037B
:100A8300120135C5BE0312013516BF0312013567C6
:100A9300BF031201354E4700120135CF4700120143
:100AA30035FC47001201354548001201354649001F
:100AB300120135954900120135114B00120135938E
:100AC3004B00120135F04B00120135434C0012016B
:100AD30035324D00120135C74E00120135914F00DA
:100AE300120135A14F00120135CB4F00120135CE53
:100AF3004F00120135B150001201359C5100120113
:100B030035495200120135A65200120135FF520039
:100B13001201356353001201350B5400120135A73E
:100B23005400120135345500120135A95500120144
:100B3300350556001201356456001201358B5600F7
:100B43001201354957001201353A59001201358314
:100B53005900120135B35900120135265A0012010A
:100B630035AC5B001201355C5C00120135815C0021
:100B7300120135C05C00120135D55C001201351835
:100B83005D00120135885D00120135D25D0012014E
:100B930035DC5E001201355D5F001201350A760017
:100BA3001201355576001201356176001201353593
:100BB30077001201354C7700120135897700120155
:100BC30035BA7700120135F2770012013548780003
:100BD3001201355E78001201359A7800120135ADA5
:100BE3007800120135D4780012013508790012011A
:100BF300352E7A00120135787B00120135747C00A2
:100C0300120135917D00120135FBFF01120135CC34
:100C1300F1021201357AF502120135AEF602120124
:100C230035888D021201354B900212013551900225
:100C33001201350E9302120135689502120135B483
:100C43008E031201354B8F031201350990031201F4
:100C53003533900312013569920312013527990147
:100C6300120135629901120135B6A3011201352231
:100C7300A5011201351FA601120135A4A901120114
:100C8300358AAA01120135D6AA01120135F0AA014B
:100C930012013531AB011201353AAB01120135EACC
:100CA300AB01120135BAAC0112013501AD011201DC
:100CB3003567AD01120135D9AD011201351CFC02B6
:100CC300120135B2FC02120135C8FC0212013521B2
:100CD300FD0212013565FD021201359FFD0212016D
:100CE3003537FE02120135A6FE02120135AFFE02B0
:100CF300120135BBFE02120135D5FE02120135FF8A
:100D0300FE0212013514FF0212013576FF021201B1
:100D1300359DFF02120135CBE502120135D8E502FC
:100D2300120135F2E50212013525E602120135639F
:100D3300E602120135C8E602120135DDE6021201B0
:100D430035F4E60212013502E70212013511E7021A
:100D530012013526E7021201353BE702120135463F
:100D6300E70212013552E7021201355FE702120171
:100D7300356EE70212013579E7021201359EE7026B
:100D830012013542E80212013557E8021201356CAF
:100D9300E80212013586E802120135A3E8021201C6
:100DA30035C0E802120135CBE80212013577E902BA
:100DB30012013558EA021201357DEA021201358823
:100DC300EA021201359DEA02120135B1EA0212016B
:100DD3003512EB0212013518EB021201351EEB023C
:100DE30012013524EB021201353CEB021201356F7F
:100DF300EB02120135FDB9021201351FBA021201CD
:100E030035E7BA02120135A1BD02120135B7BE02A0
:100E1300120135D8BF02120135B2C0021201356189
:100E2300C1021201350580021201359C80021201B4
:100E3300353481021201352482021201355B8202AC
:100E43001201356E8202120135DC820212013577FE
:100E530084021201359E840212013540850212017B
:100E630035758502120135868502120135FF85022B
:100E7300120135208602120135388602120135909F
:100E83008702120135998902120135E98B02120199
:100E930035EC8C021201353B8D0212013523E7013B
:100EA30012013520E8011201350BE9011201351554
:100EB300E90112013537E90112013543E901120154
:100EC3003595EA01120135C4EA01120135F4EB014B
:100ED30012013536EC0112013562ED01120135388C
:100EE300EE011201358AEE01120135E9EE0112011C
:100EF3003520EF011201355BEF01120135F6F201E6
:100F03001201350FF30112013591F3011201359FDF
:100F1300F301120135F4F30112013502F401120158
:100F2300356FF401120135E1F40112013527F501A2
:100F330012013588C903120135ADC9031201351EEB
:100F4300CA03120135EECD02120135F7CD021201AB
:100F53003500CE0212013531CF0212013550D102D4
:100F630012013586D102120135C0D102120135F6C4
:100F7300D10212013530D20212013564D2021201BC
:100F83003590D202120135D9D20212013513D302A0
:100F93001201355BD302120135B1D302120135E6DA
:100FA300D30212013541D4021201357BD40212015E
:100FB30035CCD40212013502D5021201353CD502DB
:100FC3001201355FD50212013592D503120135BEE8
:100FD300D50312013519D60312013523D6031201A5
:100FE3003533D603120135F1EB0212013530EC0231
:100FF300120135B9EC02120135CEEC02120135199A
:10100300ED021201354DED021201358CED02120194
:10101300359BED0212013550EE02120135A9EE02A5
:10102300120135F8EE0212013551EF021201355E5D
:10103300F00212013557F10212013594F102120147
:101043003564FF0112013525AF01120135A5B10148
:1010530012013519B30112013576B3011201351F9F
:10106300B4011201351CB501120135A4B5011201F9
:101073003529B6011201354EB6011201359EB6016E
:1010830012013557B901120135C8B901120135B43E
:10109300BA01120135EEBA011201352EBB0112015C
:1010A30035D4BC0112013505BD011201355ABD010C
:1010B300120135A7BD0112013518BE011201353CDD
:1010C300BE0112013556BE011201356CBF0112017A
:1010D300357CBF01120135FAC0011201351AC10175
:1010E30012013550C10112013507C30112013580C8
:1010F300C301120135BFC301120135EAC401120154
:101103003503C60312013567C60312013516C7033B
:1011130012013535C70312013589C703120135DEC4
:10112300D403120135EFD4031201359BD703120107
:1011330035DAD70312013502D803120135FCD30384
:101143001201350CD40312013524D403120135D80E
:10115300D4031201351DD103120135A1D1031201AC
:101163003507D2031201353ECB0312013567CB039A
:10117300120135CDCB03120135ECCB0312013540FF
:10118300CC0312013599CC03120135D4CC031201DF
:1011930035D7CC031201357BB70312013590B70362
:1011A300120135B4B8031201351EB9031201359289
:1011B300B903120135ACB903120135C3B9031201E6
:1011C30035D6B903120135EEB90312013503BA035B
:1011D30012013524BA0312013575BA03120135D051
:1011E300A003120135E7A00312013560A103120128
:1011F3003535A20312013507A4031201356CA4038C
:10120300120135BFA403120135F87F0012013529FD
:10121300C4031201359FC50312013500C603120131
:10122300357FCE03120135A8CE03120135D1CE038B
:101233001201356ACF0312013582CF03120135C47F
:10124300CF03120135EDD502120135F7D502120194
:101253003537D60212013580D602120135BAD602CD
:1012630012013510D7021201352FD702120135B4FE
:10127300D902120135BDD9021201350EDA0212016B
:101283003537DA021201354CDA02120135BCDA02C3
:101293001201354ADB021201358EDB02120135B62B
:1012A300DB0212013535DC0212013578DC02120152
:1012B30035B5DC02120135C7DC02120135E6DC026A
:1012C300120135EFDC02120135B9DD02120135E1FD
:1012D300CC0312013532CD03120135BBCD0312010C
:1012E3003521CE0312013520B4031201354AB4036C
:1012F30012013544B50312013569B5031201350AEC
:10130300B60312013590B60312013520D203120140
:101313003527C2031201355DC20312013596C2039C
:10132300120135EFC3031201353DD60312013553C4
:10133300D6031201355DD603120135B3D60312016C
:1013430035E4D603120135E5DD02120135A2DE02D2
:10135300120135DDDE0212013505DF0212013567A8
:10136300DF02120135B3DF0212013513E00212016D
:1013730035A4E002120135A0E1021201352DE3028A
:10138300120135B0E30212013514E4021201352BC8
:10139300E40212013521E5021201356DE502120165
:1013A30035FC9703120135119803120135C19803D7
:1013B3001201350199031201351A99031201354DB2
:1013C30099031201359A9903120135CE990312013B
:1013D30035109A03120135179C031201357D9C03C6
:1013E3001201356BA40212013560A50212013528E2
:1013F300A602120135A5A80212013591A902120114
:1014030035B4A902120135F5AB0212013547AC021E
:10141300120135DAAC0212013526AE02120135C1D2
:10142300AE02120135CA7F00120135C4FF01120159
:1014330035CBFF02120135E4D703E066701008A331
:10144300E066700A08A3E066700408A3E06622C39E
:10145300E7960809E7960809E7960809E79622C37D
:10146300E09608A3E09608A3E09608A3E09622C0BE
:1014730008C3E096F50808A3E096420808A3E0969F
:10148300420808A3E09645087001D3D00822080853
:1014930008EAC0E0EBC0E086F0E7A4FA180986F09A
:1014A300E7A42AFA180986F0E7A42AFA180986F0AD
:1014B300E7A42AFA1986F0E7A4FBE5F02AFA19084B
:1014C30086F0E7A42BFBE5F03AFA190886F0E7A4C7
:1014D3002BFBE5F03AFA18180986F0E7A4C5F02BC0
:1014E300FBE43AFA1908E7C5F0C6A426F6E5F03B93
:1014F300FBE43AFA1886F0E7A4F6E5F00826F6E4EA
:101503003B08F6E43A08F6D0E0FBD0E0FA22E4CF59
:10151300C0E0E4CEC0E0E4CDC0E0E4CCC0E075F0D0
:1015230020E626F608E633F608E633F608E633F651
:10153300181818EC33FCED33FDEE33FEEF33FFC325
:10154300EC9709ED9709EE9709EF97191919400FD1
:10155300FFEC97FC09ED97FD09EE97FE191906D5E7
:10156300F0BFECF709EDF709EEF709EFF7191919D1
:10157300D0E0FCD0E0FDD0E0FED0E0FF2260160812
:101583000808C6C313C618C613C618C613C618C69A
:1015930013C6D5E0EA227009080808226016181855
:1015A30018C6C333C608C633C608C633C608C6330F
:1015B300C6D5E0EA22E627F60809E637F60809E683
:1015C30037F60809E637F622E026F608A3E036F6F2
:1015D30008A3E036F608A3E036F622E026F008A3D7
:1015E300E036F008A3E036F008A3E036F022C3E6C5
:1015F30097F60809E697F60809E697F60809E697C5
:10160300F622C3E096F008A3E096F008A3E096F074
:1016130008A3E096F022E657F60809E657F608090C
:10162300E657F60809E657F622E056F608A3E05611
:10163300F608A3E056F608A3E056F622E056F008B3
:10164300A3E056F008A3E056F008A3E056F022E02A
:1016530066F608A3E066F608A3E066F608A3E0666C
:10166300F622E0F608A3E0F608A3E0F608A3E0F606
:1016730022E6F008A3E6F008A3E6F008A3E6F022CA
:10168300E0FAA3E0FBA3E0FCA3E0FD22EAF0A3EB76
:10169300F0A3ECF0A3EDF022E0F8A3E0F9A3E0FA65
:1016A300A3E0FB22E8F0A3E9F0A3EAF0A3EBF02226
:1016B300CAC0E0E6F0A308DAFAD0E0FA22CAC0E032
:1016C300E0A3C582CCC582C583CDC583F0A3C58203
:1016D300CCC582C583CDC583DAE6D0E0CA22C3E494
:1016E30098F8E499F91217228026C3E49AFAE49B46
:1016F300FBE920E7E9121722E498F8E499F922C3F9
:10170300E498F8E499F9121722E498F8E499F9C3F4
:10171300E49AFAE49BFB22EB20E7CFE920E7E0B968
:101723000010BB0008E88AF084F8AAF022E4FBC8A2
:10173300FA22EB70227B10C833C8C933C933500770
:10174300C39AC3DBF280069A50012ADBEAC833F45A
:10175300C8C933F4C9FA2275F008E4C833C8C933D9
:10176300C933C99AC99B5004C92AC93BD5F0ECFBBC
:10177300C833F4C8E4C9FA22600D08C6A2E713C649
:1017830018C613C6D5E0F322600C08C6C313C618E7
:10179300C613C6D5E0F422700422600D18C6C33305
:1017A300C608C633C6D5E0F41822251810AF08F5CD
:1017B30018400C15198008F51840021519D2AF22EC
:1017C30000C0D0251810AF08F518500C0519800873
:1017D300F51850020519D2AFD0D0222518F5821082
:1017E300AF08F518400C15198008F51840021519B3
:1017F300D2AF851983222518F582E43519F58322A2
:101803002518F8E43519F9222518FAE43519FB22CD
:101813002518FCE43519FD22E4732518C582C0E0C0
:10182300E51934FFC583C0E0E518C3958224F81099
:10183300AF088583198582188008858319858218E6
:10184300D2AFCEF0A3E520F0A37808E608F0A3DE3C
:10185300FAEFF0A3E58124FAF8E608F0A3E608F02E
:10186300A3E608F0A30808E608F0A3E608F0A3152A
:10187300811581D0E0FED0E0F8158115811581E84E
:10188300C0E0EEC0E0222518C582C0E0E51934FFB0
:10189300C583C0E0E518C3958224F910AF0885839A
:1018A300198582188008858319858218D2AFCEF0F6
:1018B300A3E520F0A37808E608F0A3DEFAEFF0A38F
:1018C300E58124FBF8E608F0A3E608F0A30808E6A0
:1018D30008F0A3E608F0A315811581D0E0FED0E05F
:1018E300F815811581E8C0E0EEC0E02285198385F3
:1018F3001882E0A3FEE0A3F5207808E0A3F608DF52
:10190300FAE0A3FFE0A3C0E0E0A3C0E0E0A3C0E0EF
:10191300E0A3C0E0E0A3C0E010AF08858218858390
:10192300198008858218858319D2AFD083D08202AB
:101933000132851983851882E0A3FEE0A3F52078A0
:1019430008E0A3F608DFFAE0A3FFE0A3C0E0E0A30A
:10195300C0E0E0A3C0E0E0A3C0E010AF08858218B8
:101963008583198008858218858319D2AFD083D0E7
:101973008222C0D02518C582C0E0E51934FFC58393
:10198300C0E0E518C3958224F310AF088583198559
:1019930082188008858319858218D2AFC8F0A3E91D
:1019A300F0A3EAF0A3EBF0A37908E709F0A3D8FAD0
:1019B300ECF0A3EDF0A3EEF0A3EFF0A3D0E0F0A3DF
:1019C300D0E0F0A3D0E0F0A3E520F0A3E5F0F0A38E
:1019D30022851983851882E0C0E0A3E0F9A3E0FA29
:1019E300A3E0FBA37808E0F608A3DFFAE0FCA3E09A
:1019F300FDA3E0FEA3E0FFA3E0C0E0A3E0C0E0A3FB
:101A0300E0F5D0A3E0F520A3E0A3F5F010AF08853F
:101A130083198582188008858319858218D2AFD0EF
:101A230082D083D0E0F8D0E0327404800674028060
:101A3300027401C0E0F4041217DED0E01216B322E0
:101A43007404800474028000CCC0E0EDC0E0E518AB
:101A5300C39CCCAD1950011D10AF068C188D198095
:101A6300068C188D19D2AF1216C0D0E0FDD0E0FC61
:101A730022D083D082E9C0E0E493A3C386F0C5F00B
:101A830095F0F908E493A386F0C5F095F0700BE4A4
:101A930093A3C3994005E9048002A3E475F002A46B
:101AA3002582F582E5F03583F583D0E0F9E493A34D
:101AB300C0E0E493C0E022D083D082ECC0E0EDC06C
:101AC300E0E493A3FCE493A3FDED4C600D121B062D
:101AD300EC24FFFCED34FFFD80EFE493A3FCE493DF
:101AE300A3FDED4C600D121B45EC24FFFCED34FF10
:101AF300FD80EFD0E0FDD0E0FCE493A3C0E0E493ED
:101B0300C0E022C0E0C3E4939608740193961840A2
:101B13000FE49366700808740193661870007019D7
:101B2300A3A3C3E49396087401939618A3A3400D4B
:101B3300D0E0D0E0D0E0021AF6A3A3A3A3A3A3D0DE
:101B4300E022C0E0C0F088F0E493667008087401F6
:101B53009366187000A8F0A3A3700BD0F0D0E0D068
:101B6300E0D0E0021AF6A3A3D0F0D0E02274F6127C
:101B73001889EAFEEBFF8C088D09EE2434F8E43F64
:101B8300F9E8FCE9FDEE2435121E3CFAEE24371287
:101B93001E3CF88508F0A4C885F00A8509F0A42541
:101BA3000AF9EA28F8E439F97A257B00121722EAC0
:101BB3008C828D83F0FA131313541FF8EE28F8E484
:101BC3003FF9E8245DF582E439F583E0C0E074076A
:101BD3005AF8D0E0B800028004C313D8FCA2E0EEA8
:101BE30050082434F582E43F80182436121E3CF555
:101BF300F0EA84A8F0EE28F8E43FF9E82438F58207
:101C0300E439F583E0F97F0302193574F712188973
:101C1300EAFEEBFFEE2434121E3CC0E0EE2435F561
:101C230082E43FF583D0E0F08E828F83A3A3A3A346
:101C3300A3A3A3C082C0838E828F83A3A3A3A3A3E2
:101C4300E0F8A3E0F9D083D082E0C398F508A3E0DD
:101C530099F509EE247F121E3C6401703EEE248048
:101C6300F582E43FF583C082C0838E828F83A3A372
:101C7300A3A3A3E0240108A3E03400F9D083D08216
:101C8300E0687003A3E06970127CC07D06120B3D0F
:101C9300EE247FF582E43FF583E4F0AC08AD09EE72
:101CA300FAEFFB121B70E9F91226AA7F020219351B
:101CB30074EF121889900369E064086005E0640713
:101CC300702A9061C8E06024900397E0F4601DE0FF
:101CD300F875F00DA4C8AAF02AF9749928FE7403C4
:101CE30039FF8E828F83A3A3A3E07003021DC190EB
:101CF3006060E0C0E0EE2468F582E43FF583D0E065
:101D0300F0750CFC750D06750800750900E5D9140E
:101D1300F50AE5D95403F50E60127403650E6043AA
:101D2300E50A600AEE2467121E3C70028075900675
:101D3300F7E06401601F121E3960047A0480027A9E
:101D430000E50AC39AFA95E0FB1209E78A088B09B2
:101D5300EA45097005120DD78064121E3970048A92
:101D63000C8B0DE50A6012850C82850D83F50BE55E
:101D7300D9F0A3150BE50B70F6121E39604474FC01
:101D8300250AF50A780C121A30AC0AA90EEEFAEFFE
:101D9300FB120C0374021217C3E97026AA08AB09DD
:101DA3001212D5793D8E828F83A3A3A3A3E0FA7B7E
:101DB30000120861EEFAEFFB120B61120C6379005B
:101DC300806F7403650E6051850A107511007810D9
:101DD300121A30AC0CAD0DAA08AB09120BC7740272
:101DE3001217C3EE2468121E3C64807004747F8053
:101DF30001E0F50C780C121A34E50EF50C780C1290
:101E03001A34A90AAC08AD09900397E0FA7B0012D3
:101E1300083174021217C38013900369E0640870D9
:101E23000BAC0CAD0DEEFAEFFB120C33120DE37994
:101E3300017F0A021935EE2483F582E43FF583E03E
:101E43002274F212188974FC1217ADEAFEEBFF89B3
:101E530009A2AFE433F508C2AF021F0EE0601B789E
:101E63000C121A30AC0BA90EEEFAEFFB120BFD7439
:101E7300021217C37404250BF50B7401250BF5D956
:101E8300850ED9E50B6018F50A850C82850D83E074
:101E9300F5D9A385820C85830D150AE50A70EA75C9
:101EA300E195EE2463F8E43FF97A007B00A2AFE406
:101EB30033F50BC2AF88828983E0FCA3E0FDEC4DD0
:101EC300603A88828983E0FAA3E0FB8A828B83E00D
:101ED300FCA3E0FD88828983ECF0A3EDF08A828B7A
:101EE30083E4F0A3F088828983E0FCA3E0FDEC4D5A
:101EF300700A88828983A3A3E4F0A3F0E50BA2E030
:101F030092AF1212D59006C7E004F0EE2463121EBE
:101F13003CF8A3E0F9E8496064EE2463121E3C2414
:101F230002F8A3E03400F988828983E5822402F56C
:101F33000CE43583F50DE0F50BA3E0F50EEE24621A
:101F4300121E3C640170369061D0E0F8121E3960B5
:101F5300047C0480027C007480C398FA95E0FBE55E
:101F63000B2CF8E43400F9E82402F8500109C3EA21
:101F730098EB99A2D265D0334003021E5F9006C747
:101F8300E0604D9006C8E0F89006C7E0C398500C97
:101F930074026509703A9006C9E060348E828F83BB
:101FA300A3A3A3A3E0851882851983121FE37402F8
:101FB3001217F9E8121FE39006C6E028F074021224
:101FC3001813AA18AB19790112088B9006C7E4F00D
:101FD300E508A2E092AF74041217C37F0702193514
:101FE300F0A3E4F09006C7E0F822000000851B8709
:101FF300851CC622C0E074EB121975A2AFE433F559
:1020030008C2AF759B00906182E0A2E05030E59179
:10201300A2E0502A7591FE7401651B702112218A7A
:10202300120CFF122178121A431225E674041217B8
:10203300C3E9640170057901120D3B121CB3906171
:1020430082E0A2E5505DE591A2E550577591DF90DE
:102053000369E064076005E06408702F12218A7445
:1020630001651B703E120CFF122178121A431225D0
:10207300E674041217C3E9640170057901120D3B7C
:102083007901EEFAEFFB121E448018E0640D701321
:1020930090038BE004F064287002E4F07A00E0F926
:1020A300120DE9906182E0A2E6400302214DE59121
:1020B300A2E6400302214D7591BF900369E06405D8
:1020C3007008120CE7120CF38003120CED751B0061
:1020D300120D59E990036AF07900120D3B120AA719
:1020E3007A017B00900368E0F91212A5907803E06F
:1020F300644270569006FBE014F0704EC2AF12219A
:102103000400781ED0E0F618D0E0F6E59F5407F8F7
:102113007005750DFF8003750D7FC4C0E0781DE663
:10212300F50A08E6550DF50B740B780A12178BD0D8
:10213300E0250AF8906270E0A2E740F8E8C3339024
:102143006272F0906270E0D2E0F0906181E0A2E30D
:102153005009E5E9A2E3500375E9F7A3E0A2E750CC
:1021630009E591A2E7500375917FE508A2E092AFDC
:102173007F080219D48E828F83E0F8A3E0C8241667
:10218300F582E438F58322900397E0F875F00DA407
:10219300C8AAF02AF9749928FE740339FF22C0E013
:1021A300C0D0C082C083906183E0A2E05009E5BF44
:1021B300A2E0500375BFFEE0A2E15009E5BFA2E132
:1021C300500375BFFDE0A2E25009E5BFA2E2500350
:1021D30075BFFBE0A2E35009E5BFA2E3500375BF5F
:1021E300F7E0A2E45009E5BFA2E4500375BFEFE0B6
:1021F300A2E55009E5BFA2E5500375BFDFE0A2E603
:102203005009E5BFA2E6500375BFBFD083D082D08B
:10221300D0D0E032C0E074F2121975E5A7A2E650FF
:102223000FE5A1A2E6500953A7BF75A1BF12226B08
:10223300E5A7A2E5500CE5A1A2E5500653A7DF757B
:10224300A1DFE5A7A2E15009E5A1A2E1500375A131
:10225300FDE5A7A2E2500CE5A1A2E2500653A7FBBD
:1022630075A1FB7F010219D474F7121889751B013C
:10227300900369E064067015120C878A828B83A32E
:10228300A3A3A3A3A3E0FAA3E0FB120CD5A2AFE49C
:1022930033FED2AF90036FE0640170187A207B00A5
:1022A300900368E0F91213C57A207B00900368E07D
:1022B300F91212AB906182E0D2E6F09006F8E0608A
:1022C3002185C61C801690036EE064017008E5C684
:1022D30054F84405F5C653BEFC121FF07401651B88
:1022E30060E4EEA2E092AF7F0202193574E912189E
:1022F3008974FA1217ADEAFEEBFF8C0A8D0B120DEF
:102303000BEAF8EBF9ECFAEDFB8E828F831216A73A
:10231300900369E024F7C394055006751401022461
:1023230056120C878A088B09EA4509700302245365
:10233300EEFCEFFDAA18AB19120D0585088285097D
:1023430083A3A3780C1216659082C4780C12162C02
:1023530085188285198378101216659082C47810C7
:1023630012162C780C7910121452501F780C791015
:102373001215F1908258780C1214724047850C1490
:10238300850D15850E16850F17804590825885108B
:10239300148511158512168513177814790C1215E7
:1023A300F17814121472501C75140075150075160B
:1023B30000751701781479101215F17814790C123D
:1023C30015B8800C75140175150075160075170086
:1023D30074097814121599908264780C1216657832
:1023E30014790C121511850882850983A3A3A3A36D
:1023F300A3A3122474121722880C890DE4F50EF599
:102403000F7814790C1215B874041217F912247486
:10241300121722E8FA8A0CE4F50D7814790C1214D9
:102423005250077814790C1215F1900369E064088F
:10243300600AE064066005E06405702090825078CD
:1024430014121472501690824C78141215CB800C0F
:10245300751400751500751600751700850A8285B9
:102463000B83781412167474061217C37F100219A3
:1024730035E0F8A3E0F97AD07B032274F7121889C8
:10248300120D1D9006F6E064017010906245E4F0B1
:10249300A3F053F4F343FE0C5390F3120CC3E5C6BD
:1024A30054B84441F5C6E59E5447644170F89061C1
:1024B30085740FF09006F4E0F47002A3E0604E9090
:1024C30006F5E0600814601B14602E804075080157
:1024D3007509009006F4E0780812179AE508F4529B
:1024E30080802A7508017509009006F4E0780812C7
:1024F300179AE508F4529080147508017509009045
:1025030006F4E0780812179AE508F452A079007FE0
:102513000202193574F7121889E9FEEAFF120D1D3C
:1025230074016E700C7A807B00900368E0F91212DC
:10253300A5902730E493F46008E493F9120A9B8092
:102543000953C6B8E59E544770FA120CC99006F6B3
:10255300E064017003120AB99006F4E0F47002A378
:10256300E0604B9006F5E0600814601A14602C805C
:102573003D7508017509009006F4E0780812179A72
:10258300E508428080287508017509009006F4E08B
:10259300780812179AE508429080137508017509A7
:1025A300009006F4E0780812179AE50842A0120C8E
:1025B300878A088B09A808A909E8496014E5E1702E
:1025C300FCE82414F582E439F583E0F46003E0F5D4
:1025D300E174016F700A7A01900368E0F912133510
:1025E30002251274F11218898A088B098C0A8D0B43
:1025F3009082C4780812162C740F1217F9780C12F3
:1026030016659082C4780C12162C7808790C121473
:102613005290825850107808790C1215F1780812EC
:1026230014724014800E780C79081215F1780C128C
:10263300147250047901800279007F0802193574FD
:10264300ED1218898A088B098C0A8D0B9082C47845
:102653000812162C74131217F9780C12166590824F
:10266300C4780C12162C780C790812145240117885
:1026730008790C1215F1AA08AB09AC0AAD0B80223C
:102683007510007511007512007513017810790C1F
:102693001215F1781079081215B8AA10AB11AC1203
:1026A300AD137F0C021935C082C083E9906000F03E
:1026B300D083D08222C0E074F2121975A2AFE43342
:1026C300FED2AFE589A2E15003121185758900C2DC
:1026D300C5751A00EEA2E092AF7F010219D4C0E0E3
:1026E30074F2121975A2AFE433FED2AFE58BA2E008
:1026F3005003121185758B00C2E880D5C0E0C0D0AD
:10270300E8C0E0E9C0E0A9A8D2AFC2C7751A00E9E2
:10271300A2E7E433F8E9A2E792AFD0E0F9D0E0F81A
:0B272300D0D0D0E032C2AF0200002294
:10273000FFFFFFFFFFFFFFFFC082C083E9901B2C5C
:10274000F0D083D08202013274F612181DE9900293
:10275000DCF090033BE0F50875090074027808127C
:10276000179AAA08AB0912131D9002DD1230FB90D4
:1027700002DD1234E8606F90033BE075F003A4FAC9
:10278000ABF012131D9002FA1230FB9002FA1234D1
:10279000E8700B9002DD1234B912132380489002C6
:1027A000FA12444D7AFF7BFF1211017A0080198AD8
:1027B000087509007402780812179A123EF574FF22
:1027C0001228FBE4F0A3F00A90033BE0F8EAC39878
:1027D00040DD79051207299002DCE0F91206157A2E
:1027E000B37B07120987023F9874F412181D8A08F8
:1027F0008B09EB548060479002DCE0F912128D8A5D
:102800000A8B0BAE0AAF0BEE4F602A8E828F83E0ED
:1028100064B0701A12073BE960148E828F83A3A301
:10282000A3A3E0F9EE2405FAE43FFB12070BEEFA4E
:10283000EFFB12127BAA08E5096480FB80047A0092
:102840007B00022A4B74F212181D74FB1217ADEABA
:10285000FEEBFFEE4F604574031217F9EEF0A3EFA5
:10286000F0851882851983ECF0A3EDF0740212173D
:10287000F9E9F0AA18AB1912060FE9F5087075749A
:10288000131217F9E0F50AA3E0F50BE50A450B6012
:10289000638E828F83122E84EE4F7005750802803E
:1028A000537A067B0012131D8A0C8B0DA80CA90D00
:1028B000E8497005750813803B88828983E41228F3
:1028C000FBEEF0A3EF122A17E50AF0A3E50BF09058
:1028D00002E0122A109002E06017E0FCA3E08003FF
:1028E000EAFCEBFD8C828D83122A1070F38C828DB2
:1028F00083123B10A90874050246CDF0A312442FA1
:10290000A32274F212181D8908890C750D00740336
:10291000780C12179A850C0A850D0B9002DFF09047
:1029200002DD12391B122A0E602E12132379008049
:102930001D890C750D007402780C12179A9002DD37
:10294000123DB48882F583A3A3E4F0A3F0099003B9
:102950003BE0F8E9C39840D990033BE0FA850AF0E0
:10296000A4CAA8F0850BF0A428FB12131D8A0C8BB7
:102970000DAE0CAF0DEE4F7003022A0490033BE046
:10298000FC850AF0A4CCA8F0850BF0A428FD790002
:102990001212637C0080318D0C750D007403780C6D
:1029A00012179A8A828B83122A0988828983E4F01B
:1029B000122A16A3A3F0A3F00DEDC3950840D8EE9C
:1029C000250AFEEF350BFF0C90033BE0F8ECC398B3
:1029D00050288C0C750D007402780C12179A900216
:1029E000DD122A09E82402500109FAE9FB8A828BE8
:1029F00083EEF0A3EFF07D0080BFE5089002DFF0EA
:102A00007900800279130246D0123DB8F922A3A3BF
:102A10001234BDEA4B22A312442FA3A3A32274F4C1
:102A200012181D7900EAA2E0501F75082E75098260
:102A30007808121A3079107C047D007A2E7B1B12E4
:102A4000072374021217C3E9F980007F040218EF0C
:102A5000C082C0839002E01234E8601C88828983BF
:102A6000A3A3E06A7003A3E06B8882898370E8A364
:102A7000A3A3A31234B980047A007B000227417417
:102A8000F212181D74FD1217ADEAFEEBFF851882D5
:102A9000851983E4F0A3F074021217F97401F0129F
:102AA00034E570141208D912131D9002E31230FBA2
:102AB0001234E57003022C111231FBEE2404F50AE6
:102AC000E43FF50B850A82F583E024FE603C24FC9C
:102AD000607424FE607E24FE7003022B6124FE706D
:102AE00003022B6E24FE7003022B7B24FE70030274
:102AF0002B8824FE7003022B9524FC7003022BB656
:102B000024FE7003022BCE022C0A1208D99002E593
:102B1000EAF0A3EB122C1D12026DE96003022C0AED
:102B20009002E5121A478E828F83A3A3A3A3A31258
:102B3000444D8508828509831234B91206F3740264
:102B40001217C3022C0AAC18AD19EEFAEFFB1207EC
:102B500041022BD9AC18AD19EEFAEFFB12074780F2
:102B600078AC18AD19EEFAEFFB12074D806BAC187C
:102B7000AD19EEFAEFFB120753805EAC18AD19EEFB
:102B8000FAEFFB1207598051AC18AD19EEFAEFFBC2
:102B900012075F80447402121803880C890D780CA8
:102BA000121A307402121813EEFAEFFB1207657452
:102BB000021217C38023AC18AD19EEFAEFFB12070F
:102BC0006BE9F8701674021217F9E4F0803CAC1847
:102BD000AD19EEFAEFFB120771E9F8E8602C8E826E
:102BE0008F83A3E064146022850A82850B83E090C2
:102BF00002E5F08518828519831234B99002E61235
:102C000030FBE8A3122C1D120267EEFAEFFB12064E
:102C1000C974021217F9E0F974030246CDF07CE59D
:102C20007D028508828509831234BD2274E812185A
:102C30001D74FA1217AD74041217F9ECF0A3EDF03D
:102C40008A128B13EA2405F50EE43513F50FEA24F6
:102C500002F510E43513F511851082F5831234B9AD
:102C60001203B18A0A8B0B7508007C037D00790082
:102C70007AE57B02121263E50E2402F516E4350FA5
:102C8000F5177402121803880C890D780C121A308B
:102C9000850E82850F83A3A3A3A3E0F50C750D0019
:102CA000780C121A30E50E2405F50CE4350FF50DFD
:102CB000780C121A308516828517831237C01206D7
:102CC0002D74061217C38A0C8B0DE50C450D70038D
:102CD000022E4D8020851882851983E088828983A1
:102CE000F00508851882851983A3E0C0E0122E8EB6
:102CF000D0E0F00508E50A24FBFAE50B34FFFBC33E
:102D0000E5089AE49B4003022E4D7E007F00851269
:102D100082851383A3A3A3A3E0F5097809121A34CB
:102D2000E4F514F5157814121A307514E2751502CD
:102D30007814121A309002E3121A4774091217F924
:102D4000121A47E50A24F9F9AC0CAD0D85108285FD
:102D500011831234B912079B74091217C3E9600377
:102D6000022DEE850E82850F83A3A3A3A3A3A3A3A5
:102D7000E0F89002E2E0687075E0F5148E157814C2
:102D8000121A3012444A850E82850F83A3A3A3A38F
:102D9000A3A3A3A31234B912125D74021217C3E9DC
:102DA000604C9002E61234E8703BE4F5147814129B
:102DB0001A307CFF7DFF79078510828511831234DC
:102DC000B912070574021217C31234EE7017850E7C
:102DD00082850F831245E774041217F9123EA81278
:102DE00037F1022E81850C82850D83122E84A8185E
:102DF000A919881489157814121A3074041217F955
:102E0000121A478516828517831230F1120639741B
:102E1000041217C38A0C8B0DEE4F7003022CCA12DA
:102E20002E8EEE122E991237A7EF122E99F8A3E0EC
:102E30003400F9E50C450D6003022CD588828983A6
:102E400074FFF00508122E8E74FFF00508E5086087
:102E50001A1313543F123101120279E960099002EA
:102E6000E61234B91212D579008016850E82850FCC
:102E7000831245E774041217F9123EA8123B107929
:102E80000A02377AA3A3A3A3E0FEA3E0FF22A808C7
:102E90009002E6E0281237A722F00508089002E623
:102EA000E0282274E812181D74FA1217AD74021289
:102EB00017F91230FB74041217F9ECF0A3EDF0745B
:102EC000021217F9E02405123790E0F50CA3E0F5A3
:102ED0000D74021217F9E02402F510A3E03400F596
:102EE00011851082F5831234B91203B1750800758B
:102EF0000900EA24FCFEEB34FFFF8008050CE50C1A
:102F00007002050DA808C3EE98EF9400500302303C
:102F1000ADA818A919880E890F780E121A308514D9
:102F200082851583A3A3A3A3124451121A30E5147A
:102F30002405F50EE43515F50F780E121A308514B8
:102F4000828515831230EF12062D74061217C38A7C
:102F50000E8B0FEA450F70030230ADEA2404F5161C
:102F6000E4350FF517851682F583E0F50CA3E0F53F
:102F70000D85188285198312444D8A828B83A3A301
:102F8000A3E0F98510828511831234B912061BE97A
:102F9000F50960030230AD74021217F91237B7F564
:102FA000097809121A34E4F512F5137812121A305E
:102FB0007512E27513027812121A309002E3121A97
:102FC0004774071217F9121A47EEF9AC0EAD0F85C8
:102FD00010828511831234B912079B74091217C32A
:102FE000E9F50960030230ADE508703FE4F50EF540
:102FF0000F780E121A307CFF7DFF790985108285CB
:1030000011831234B912070574021217C31237DD87
:10301000700D74041217F91230E479110230E19046
:1030200002E2E024029002E6F080149002E6E0FA68
:103030009002E2E0790024025001096A497072A806
:10304000089002E2E0FAE82AFAE43400FBEE9AEF94
:103050009B405A851682851783E0C0E09002E712F4
:103060002E93D0E0F00508851682851783A3E0C073
:10307000E0089002E7122E93D0E0F005089002E2FB
:10308000124451121A3012444AA8081237841212FC
:103090004B74021217C39002E2E02508F50874FF92
:1030A000650C700474FF650D6003022EFCE508607A
:1030B0001F9002E6E0F5F0E5088412310112027F6C
:1030C000E960099002E71234B91212D57900801133
:1030D000E509700375090A74041217F91230E4A99E
:1030E0000902377A12391FE50CF0A3E50DF022A38F
:1030F000A31246DCAA0CAB0D22A3A3EAF0A3EBF0CB
:10310000229002E5F07CE57D028510828511831214
:1031100034BD2274EC12181D74FC1217AD123C2041
:1031200074021218131234B31206338A0C8B0DEA90
:10313000450D70030231EB1231FBA818A919881054
:1031400089117810121A307CFF7DFF790B85088277
:103150008509831234B912070574021217C312329B
:10316000F1700C850A82850B831237EE0231F88EDE
:10317000828F83A3A3A3A3E0F5127812121A34E47A
:10318000F512F5137812121A307512E575130278DC
:1031900012121A307810121A3074091217F9121A12
:1031A0004774091217F9E0F9AC0CAD0D850882855A
:1031B00009831234B912079B74091217C3E9FE7010
:1031C000157CE57D028508828509831234B91202D7
:1031D00085E97009802074166E70027E009002E608
:1031E0001234B91212D5EE7004800B7E01850A826A
:1031F000850B83123B0DEEF9023B22EE2402F5080B
:10320000E43FF5092274EC12181D74FC1217ADEAA4
:10321000FEEBFF8C0E8D0FEE2405F508E43FF5095B
:1032200074021218138508828509831234B91206B4
:10323000338A0C8B0DEA450D70030232E1EE240255
:10324000F50AE43FF50BA818A91988108911781020
:10325000121A307CFF7DFF790D1234B3120705740A
:10326000021217C31232F1700B850882850983128E
:1032700037EE807A8E828F83A3A3A3A3E0F5127822
:1032800012121A34850882850983A3A3121A47757E
:1032900012E57513027812121A307810121A30746F
:1032A000091217F9121A4774091217F9E0F91234C2
:1032B000AF12079B74091217C3E9FE700F7CE57DFE
:1032C000021234B312028BE97009802074166E70FA
:1032D000027E009002E61234B91212D5EE7004801C
:1032E0000B7E01850882850983123B0DEEF9023BB6
:1032F000221234F8F510A3E0F511EA45112274E822
:1033000012181D74FE1217AD8A168B178C148D15AA
:10331000EA2405F50CE43517F50DEA2402F50EE470
:103320003517F50F850E82F5831234B91203B18A71
:10333000088B09750B007C037D0079007AE57B0220
:10334000121263750A00E50814F5100424FFF5084D
:10335000E50934FFF50980549002E5E0FA9002E2B5
:10336000E0F8EA28F8E43400F9E50898E50999500E
:103370000D9002E5E0F8E510C3989002E2F0E0F568
:10338000127513007812121A3012444A9002E6E0C5
:103390002AFAA3E03400FB12124B74021217C390F6
:1033A00002E2E0F89002E5E028F0050A850C82854B
:1033B0000D83A3A3123DC440030234949002E5E0C0
:1033C000C39508E495094003023494AE0AEE2EFE3C
:1033D000E433FF1234D3AC18AD19124465E439FB61
:1033E0001206338A128B13AC12AD13EC4D701B75A1
:1033F0000B011234C3123B119002E6122A10600333
:103400001212D5A90B740202377C851682851783A8
:10341000A3A3A3A3E0F50B780B121A34E4F512F57D
:10342000137812121A307512E27513027812121AFA
:10343000309002E3121A4774071217F9121A47A9BB
:1034400010850E82850F831234B912079B740912FE
:1034500017C3E9F50B709B9002E61234E860030293
:103460003358E4F512F5137812121A307CFF7DFF01
:10347000790F850E82850F831234B9120705740205
:103480001217C31234EE60030233581234C31237DA
:10349000F20234057CE57D02850E82850F831234AD
:1034A000B9120291E960030233F87900023405ACE5
:1034B0000CAD0D850A82850B831234BD22E0FAA380
:1034C000E0FB221234D3E0FAA3E0F9EA8514828506
:1034D000158322850C82850D83E02EF8A3E03FF949
:1034E00088828983229002E31245EBE84922123454
:1034F000F8F8A3E0F9E849229002E6EAF0A3EBF03D
:103500009002E6E02274E812181D74FA1217AD74E6
:10351000041217F91230FB8C168D1774041217F968
:10352000E02405F50EA3E03400F50F74041217F93A
:10353000E024021237901234B91203B18A0A8B0BBD
:103540007F007E00A818A919880889097808121A2E
:1035500030850E82850F83A3A3A3A3E0F5088E090F
:103560007808121A30E50E2405F508E4350FF50940
:103570007808121A30850E82850F83A3A31237C0F4
:1035800012062D74061217C38A0C8B0D8029123770
:10359000B1F00F1237B1F00F9002E2123AFC121A9A
:1035A0003012444AEFF812378412124B7402121789
:1035B000C39002E2E02FFFE50C450D700302364098
:1035C000851882851983123C32A3A3A3E0F98514E0
:1035D000828515831234B912061BE9FEE50C24041A
:1035E000F510E4350DF511EE705074041217F91250
:1035F00037B7F5087808121A34E4F508F5097808A1
:10360000121A307508E27509027808121A30900211
:10361000E3121A4774071217F9121A47E50A24FA37
:10362000F9AC0CAD0D8514828515831234B91207DF
:103630009B74091217C3E9FE60391237CD123B1093
:10364000EF70030237679002E6E0F5F0EF84900236
:10365000E5F07CE57D028514828515831234B9126C
:103660000297E960099002E71234B91212D5790085
:1036700002377A8F08EF703BE4F512F513781212D7
:103680001A307CFF7DFF79118514828515831234F1
:10369000B912070574021217C31237DD7009123709
:1036A000CD1237F102377A9002E2E024049002E66C
:1036B000F080359002E2E0F89002E6E0FAE82404B7
:1036C000FCE43400FDEC6A4D6003023646E50A2452
:1036D000FAFAE50B34FFFBE50828F8E43400F9EAD0
:1036E00098EB995003023646851082851183E0C01D
:1036F000E09002E7E02FF8A3E034008882F583D061
:10370000E0F00F851082851183A3E0C0E012379EA0
:10371000D0E0F00F740212180388088909780812A3
:103720001A3074021217F9121A47850E82850F8318
:103730001230EF12063974041217C38A0C8B0DEA8B
:10374000450D700302358E74021217F9E0C0E012C5
:10375000379ED0E0F00F74021217F9A3E0C0E01218
:10376000379ED0E0023596EE70027E0A850E828585
:103770000F831237D3123B10EEF974061217C37F72
:10378000100218EF9002E7E028FAA3E03400FB22D1
:10379000F514A3E03400F515851482F58322123761
:1037A000A2229002E7E02FFAA3E034008A82F58398
:1037B000221237A274FF2212391FA3A3A3A3E0226F
:1037C0001246DC850E82850F831234BD228510825D
:1037D0008511831245EB851682851783229002E7B7
:1037E000EAF0A3EBF09002E71245EBE84922123B26
:1037F00016E8F0A3E9F079112274EA12181D74FE9C
:103800001217AD8A088B098C128D13EA2405FEE489
:103810003509FFAC18AD198E828F831234B91206A8
:10382000338A0C8B0DEE2406F50EE43FF50FEA45C6
:103830000D70030238F1E5082402F50AE43509F5B4
:103840000B8A828B83A3A3A3E0A2E550288518826C
:103850008519831234B912078F8A108B11EA45112A
:10386000602079121234AF85108285118312181BE3
:10387000E9F50C707F850E82850F83E0600979522F
:103880008011750C0E806D850882850983A3A3A322
:10389000A3E0F9E4F508F5097808121A308E828F52
:1038A00083A3A3E0F5087808121A308E828F83A3D1
:1038B000A3A3121A478E828F8312444D1234B3127F
:1038C00007A174061217C3E9F50C7011850E8285E5
:1038D0000F83E0702D1234B312029D80257416659B
:1038E0000C7011750C0074181217F912391BE48052
:1038F00010750C011245E3851282851383E8F0A34D
:10390000E9F0850E82850F83E0600479008002A9CA
:103910000C74021217C37F0E0218EF12391F22E037
:10392000F8A3E0F58388822274EC12181D74F71254
:1039300017AD8A0A8B0B8C108D11EA2405FEE43535
:103940000BFF750C00AC18AD198E828F831234B941
:103950001206338A088B09EA45097003023AE7E543
:103960000A2402F50A5002050B8A828B83A3A3A3C3
:10397000E0A2E5502F8518828519831234B9120709
:103980008F8A0C8B0DEA450D604F7912AC08AD099A
:103990001234B3850C82850D8312181BE9F50C6077
:1039A00003023AEA850A82850B83E0F508A3E0F575
:1039B00009AA08FB120783EA4B70197AFF7BFF12F2
:1039C0000783EA4B7003023ADD8A828B83E508F0B5
:1039D000A3E509F07508008008750C0E023AEA05A7
:1039E000089002DFE0F8E508C3984003023ADD855D
:1039F000080E750F007403780E12179A8A828B8353
:103A0000A3A3E0250EF8A3E0350F123EB170D08ECF
:103A1000828F83123B051230FB8E828F83A3A31209
:103A20003B051230F9EE2404F508E43FF50985085A
:103A300082F583E088828983A3A3A3A3F0A3E4F0A3
:103A4000EE2405F50EE43FF50F850E82F583123B5B
:103A500005A3A3A3A31230F97512077513007812FA
:103A6000121A30EEFCEFFD740412180B12124B7494
:103A7000021217C3E4F5127812121A3085088285F3
:103A80000983E0FC7D0079171234B3120705740234
:103A90001217C374071217F91230FB74071217F9C3
:103AA000E0FA4B603D850882850983123AFC121AC0
:103AB00030850E82850F8312444D12124B74021210
:103AC00017C374021218131234B31202A3E960264A
:103AD00074071217F91234B91212D58019750C092E
:103AE0008008750C118003750C011245E385108266
:103AF000851183123B10A90C74098028E0F5087524
:103B000009007808221234BD8882898322123B166C
:103B1000E8F0A3E9F022E0F8A3E0F9850E82850F32
:103B2000832274041217C37F0C0218EF74EC12186E
:103B30001D123C20751000EE2402F50CE43FF50D3B
:103B4000850C82F5831234B91207838A088B09EA3F
:103B500045097003023C04850A82850B83E06401F9
:103B60006003023BF9AC08AD09AA0AAB0B12077758
:103B7000E9606E850882850983122E86EE2406F59B
:103B80000AE43FF50B8E828F83A3A3121A478E821D
:103B90008F83A3A3A3A3121A47850A82850B8312DE
:103BA0001A4779188E828F83123C321234B9120769
:103BB000A174061217C3E9F8741668700B850A829F
:103BC000850B83E4F0A38014E860128E828F831249
:103BD00034B9850E82850F83EAF0A3EBF08810805C
:103BE00018780E121A30AC08AD09EEFAEFFB120786
:103BF0007D74021217C3E9F510AA08AB09120789F0
:103C0000E510700E850C82850D831234B91202A95D
:103C10008009741665107003751000A910023B2707
:103C2000EAFEEBFF8C0E8D0FEE2405F50AE43FF55E
:103C30000B221246DC850C82850D832274EA121851
:103C40001D7508007509007E007F00750A00EC24D0
:103C500002F510E43DF5118035EC65087003ED6563
:103C6000096003023CF188828983A3A3E06A7003A0
:103C7000A3E06B707C88828983A3A3A3A31245E78A
:103C8000EE28FEEF39FFEA28FAEB39FB050A123D70
:103C9000C1503A850A0C750D007403780C12179AFE
:103CA000851082851183123DB4123EB1601FE50874
:103CB000450970A58C088D0988828983122E848815
:103CC000828983A3A3E02EFAA3E03F80BEE50AC366
:103CD00094025003023DAF750800750900EE4F6075
:103CE00010EEFAEFFB1212CF8A0E8B0FEA450F701F
:103CF000057900023DB1750B00023D84850B0C7502
:103D00000D007403780C12179A851082851183E0D8
:103D1000250CF50CA3E0350DF50DE50C2406F51486
:103D2000E4350DF515851482F583123EB66042E543
:103D30000C2404F512E4350DF513851282F5831277
:103D40001A47E50E2508FAE50F3509FB12124B74E8
:103D5000021217C3851282851383E02508F508A394
:103D6000E03509F5098514828515831234B91212DC
:103D7000D5E50B600D7C087D007900AA0CAB0D1217
:103D80001263050BE50BC3950A5003023CFC85103A
:103D9000828511831245E788828983A3A3A3A3A305
:103DA000A3E50EF0A3E50F122A17EEF0A3EFF079CA
:103DB00001023916123DB822E0250CF8A3E0350DBA
:103DC000229002DFE0F8E50AC3982274F012181D71
:103DD0008A0E8B0F8C0A8D0B750D00750C008050B0
:103DE0007916EE2406F508E43FF5098E828F83A349
:103DF000A3121A478E828F83A3A3A3A3121A478507
:103E00000882850983121A47850E82850F83A3A332
:103E10001234B91207A174061217C3E9F50D74160E
:103E2000650D706C850882850983E4F0A3F0050CAC
:103E30009002DFE0F8E50CC3985066AA0C8A08757A
:103E400009007403780812179A850A82850B83A3E8
:103E5000A3123F00E8FEE9FF8E828F83123EB66018
:103E600040EA2401F508E43400F5099002DFE0653A
:103E7000087002E509601488828983A3A3A3A3A321
:103E8000A3A3A31234E86003023DE07918023DE2E7
:103E9000E9609B1245E374101217F9123EA8123B19
:103EA00010A90D7F080218EFE0FAA3E0F5838A82DB
:103EB00022F9888289831246DCEC4D2274F61218AE
:103EC0001D7C0080010C90033BE0F8ECC398501E71
:103ED0008C087509007402780812179A123EF5E0F2
:103EE0006A7003A3E06B70DDE8FAE9FB80047A00F6
:103EF0007B00023F989002DD123F00888289832276
:103F0000E02508F8A3E03509F92274F212181D8A99
:103F1000088B09750A0080278E828F83A3A3A3A331
:103F2000122A0E60031212D57C087D007900EEFA89
:103F3000EFFB1212638E828F83E4F0A3F0050A1266
:103F40003DC15027850A0C750D007403780C1217BB
:103F50009A850882850983A3A3E0250CFEA3E0359A
:103F60000DFF8E828F831234E870AD85088285093B
:103F70008374FFF0A3F00246D074F612181D1207E6
:103F8000358A828B83E582458370067A007B0080C8
:103F900007A3A3A3A31234B97F020218EF74F4128B
:103FA000181D89088C828D83E06402703C1245865E
:103FB000FEA3E0F9EEF874026870037429697029B1
:103FC000750A02750B00780A121A3074101217F96C
:103FD000121A4774101217F9121A47A9081211077A
:103FE00074061217C3E9F980027901022A4B74E8BA
:103FF00012181D74FB1217ADE9851882851983F01C
:104000008A168B17ECFEEDFF7510008E828F83A34E
:10401000A3A3E0A2E4502D741D1217F91234B912B3
:10402000078F8A828B83E58245837003024425795A
:104030000AEEFCEFFDAA16AB1712181BE9F510608B
:1040400003024428741F1217F9E0F508A3E0F509EC
:1040500074211217F9E0F50AA3E0F50B7423121787
:10406000F9E0F50EA3E0F50F8E828F83E064026025
:10407000030243C6A31245E7850882850983A38509
:104080008212858313EE2406F50CE43FF50D888239
:104090008983124465F514E439F5157814121ABAB7
:1040A000010000280128C840070002288D4103288C
:1040B000FB400029BC420129E7420229884203292A
:1040C000BC4204296043C643E50E450F600302432A
:1040D000C1850C82850D831245E7E8FAE9FB8A82E7
:1040E0008B83E0850A82850B83124470121A308A12
:1040F000828B83A3E0FCA3E002434AE50E450F60F8
:10410000030243C1850A82850B837401F012445A6D
:10411000850882850983F07C007D008E828F83A3D1
:10412000A3A3A3E02401FAA3E03400FB120633EAC0
:104130004B60408A828B83E02402F8850A82850BDB
:1041400083E028F0EA2404F8E43BF988828983E0DC
:1041500085128285138312447E124470121A308AAB
:10416000828B83A312444DE5082403FAE43509FB4E
:1041700002434F850A82850B83E02404F07C047D92
:10418000007900AA12AB13121263024428E50E450F
:104190000F60030243C112445AFEA3E0FF850A8266
:1041A000850B837404F0EE850882850983F0EF8522
:1041B0001282851383F07403121813EEFAEFFB12C8
:1041C00006338A0C8B0DEA450D700302426B8A821E
:1041D0008B83A3A3122E847401121803880E890FF7
:1041E000780E121A3074051217F9121A477CFF7DE7
:1041F000FF12063974041217C38B0FEA450F703390
:10420000850C82850D83124451121A30850C8285EB
:104210000D83A3121A477C027D007AFA7B82120377
:104220009F74041217C3E9700A74011217F974FF1E
:10423000F0A3F08E828F83E064027039750C0275F2
:104240000D00780C121A308E828F83A312444DE534
:10425000082404FAE43509FB12124B74021217C346
:10426000850A82850B83E02402800974011217F904
:10427000EEF0A3EFF074011217F912443F7401122B
:1042800017F91244360243BBE50E450F60030243A3
:10429000C1850C82850D831246D5AA16AB17121163
:1042A0000D850A82850B837402F085088285098357
:1042B000EAF0851282851383EB0243BEE50E450FBB
:1042C00060030243C112445AF8A3E0F9850A8285CB
:1042D0000B837402F0E8850882850983F0E9851272
:1042E000828513830243BE850C82850D831234B907
:1042F000121245EAFAF8C3950EE4950F405CE865A2
:104300000E450F70047A008021851882851983E09C
:10431000FCE50E2CFCE4350FFDC3EC98ED94005049
:1043200003E08005E50ECAC39AFAEA850A82850B86
:1043300083F08A0A750B00780A121A30850C828580
:104340000D83E0250EFCA3E0350FFDAA08AB091292
:10435000124B74021217C302442875100702442836
:10436000E50E450F705B850C82850D831245E78550
:104370000A82850B837407F088828983124437127E
:10438000442FE0851282851383F0E82402FAE43991
:10439000FB8A828B8312443F8A828B83124436A32A
:1043A000A3122A16124444F0E82405F850010988A3
:1043B000828983124444A312447EA3A3A3A3F08062
:1043C0006775100B8062741D1217F91234B9120749
:1043D000358A828B83E5824583604A1245E7880CE3
:1043E000890DE8450D603E74251217F9E0F5107847
:1043F00010121A34780E121A30780A121A3078080D
:10440000121A3074071217F9E0F9EEFCEFFDAA1644
:10441000AB17850C82850D8312181B74071217C306
:10442000E9F510800375100EA910740502377CF0B1
:1044300088828983A322A3E08508828509832212CA
:104440004485F022124485A3A3229002E31246DCA5
:1044500022E0F50E750F00780E22850C82850D8303
:1044600012391FE022E0FAA3E0F8E4C8F9EA2822B2
:10447000F08A828B83E0F50A750B00780A221244D9
:104480002F12448522E0850882850983A3A3227424
:10449000EE12181D74FE1217AD8A088B09ECFEEDA2
:1044A000FF890AAC18AD19EEFAEFFB1206338A0C3D
:1044B0008B0DEA450D7003024577851882851983B7
:1044C0001234B91207358A828B83E58245837003E3
:1044D000024572A3A31245E7880E890FE8450F70C5
:1044E0000302457274141217F9E0F510A3E0F511F8
:1044F000E50AF50B780B121A3474191217F9121A0F
:10450000477810121A30741B1217F9E0F9AC0CAD91
:104510000DAA08AB09850E82850F8312181B74053E
:104520001217C3E9F50B705274FE650A604C850CD6
:1045300082850D83E064027041124586FAA3E0F99A
:10454000EAF87402687003742969702E85108285F8
:104550001183124465F50CE439F50D780C121A300C
:10456000EEFCEFFDAA08AB091207B974021217C3DB
:104570008008750B0E8003750B01A90B74021217CE
:10458000C37F0A0218EFA31245EB88828983E022D9
:1045900074F612181D74FE1217AD740C1217F9126E
:1045A00045E7E8851882851983F074011217F9E947
:1045B000F0E4F508F5097808121A30750802780851
:1045C000121A307404121803880889097808121A1C
:1045D0003079FE1207A174061217C374021217C3B2
:1045E000023F988E828F831245EB22E0F8A3E0F918
:1045F0002274F712181DEAFEEBFF89089002FA12E6
:10460000444D12110DEA5402600BA908EEFAEFFBBB
:10461000120627800279017F010218EF74F2121846
:104620001D74FE1217ADEAFEEBFF890A7401650ADC
:1046300060147402650A60030246CB79011209A571
:10464000E960030246CBEEFAEFFB120783EA4B6008
:1046500003120789A818A919880889097808121A65
:10466000307508027509007808121A307508F4755B
:1046700009827808121A307CFF7DFF7A017B0012D4
:10468000062D74061217C38038850882850983A316
:10469000A3A3A3A3A31246D5EEFAEFFB121101E4E4
:1046A000F50CF50D780C121A3074021217F9121A63
:1046B000477CFF7DFFAA08AB091206397404121764
:1046C000C38A088B09E508450970BE74021217C336
:1046D0007F060218EF12391F1246DC22E0FCA3E02D
:1046E000FD2274F412181D8A088B09ECFEEDFF9070
:1046F0001B2CE0F4604B7A097B00121275EA4B60C8
:10470000408A828B8374B1F0A3E4124744F08A821A
:104710008B83A3A3E508F0A3E509124744A3EEF0B9
:10472000A3EFF0740C1217F91245E78A828B83A36A
:10473000A3A3A3A3A3A3123B10901B2CE0F9121276
:1047400081022A4BF08A828B83A3A3A3A322C08277
:10475000C0839061907404F0A37448F0A37402F0D5
:104760009061807440F09061BC7403F09061877434
:1047700019F0906265741BF0906249E0C394139045
:10478000619C40107409F09060667401F090619F24
:104790007428800D740BF0906066E4F090619F7453
:1047A0002CF01249397009C29190036D746780052D
:1047B00090036D7461F012498B902730E493F4609C
:1047C00006E493F9120A9B7905120DCB024BCDC07A
:1047D00082C083E9540FF9906185E0696012E5C6F3
:1047E00054B84441F5C6E59E5447644170F8E9F079
:1047F00053C6B8E59E544770FA024BCDC082C083C1
:10480000A8A853A87E906181E4F0A3F0A3F0C2BAF7
:10481000539AFEC289759B00C2C275E9007591006A
:1048200075BF0075A91175B905906181F0A374C0B9
:10483000F0A3E4F0D2BA439A0174805842A8024B24
:10484000CDF0024BCDC082C08374F81217AD900337
:104850006B125F4B700302493190036BE054406070
:10486000177908AA18AB19120BA9AA18AB191208C4
:104870001990036BE054BFF0E054806010790C7A1B
:104880001C7B07120BA990036BE0547FF0E0A2E0C1
:10489000501E1249397009C29190036D74678005EA
:1048A00090036D7461F012081F90036BE054FEF0EA
:1048B000E05402601E12497E7009D29190036D741B
:1048C00071800590036D746AF012081F90036BE00D
:1048D00054FDF0E05404601090273412498E120801
:1048E0002590036BE054FBF0E054086010902735EE
:1048F00012498E12082590036BE054F7F0E0541033
:10490000600D12498B12082590036BE054EFF0E024
:104910005420600A12082590036BE054DFF0A3E0F6
:104920005401600D120AB912082B90036CE054FE7A
:10493000F074081217C3024BCD90619A124B80900D
:1049400006F6E0640122C082C083E96005146017A6
:1049500080291249397009C29190036D7467801AD9
:1049600090036D7461801312497E7009D291900397
:104970006D7471800590036D746AF0024BCD906187
:104980009A124B729006F6E0640122902736E49367
:10499000906186F02274EA12181D74F41217AD901B
:1049A00082D8AC18AD1974041216C090273493F451
:1049B0006003024B07907808E0C394025003024A58
:1049C000EB90821F740412181374081216C0A818F2
:1049D000A91988148915740412180388088909AE66
:1049E00008AF097510FF7511FF750EFF7C00750C7F
:1049F00048750D78801274086C7003024A8174093E
:104A00006C607E740A6C6079850C82850D837808F1
:104A10001216658E828F83A909E50AC9F888127477
:104A2000187808121580E5124508F8C3E098A3E04D
:104A300099850C82850D83780812166540188E8240
:104A40008F8374187808121580E5124508F8E0C3C2
:104A500098F8A3E0801A74187808121580E51245BA
:104A600008FAE9FB8E828F831252A2EAC398F8EB10
:104A700099F9C3E89510E995115006881089118CB1
:104A80000E0CE50C2404F50C5002050DECC3941338
:104A900050030249F674FF6510700474FF651160DD
:104AA00024850E087402780812179A74482508F5B0
:104AB0008274783509F58378081216658514828525
:104AC0001583E508F0EE2402FE50010F851482855F
:104AD0001583A3858214858315740C1217F9E5825A
:104AE0006E7003E5836F60030249E3750801750981
:104AF000007808121A3074021218137ACD7B09124A
:104B0000115B74021217C3740C1217C37F0E0218C4
:104B1000EFC082C0839061AE7468F0A3746AF090B5
:104B2000624574FBF0A304F053F4FD43FE029006CB
:104B3000F67401F09061A0E0643A90619A701912E5
:104B40004B80740164017009C29190036D74678099
:104B50001E90036D74618017124B727401640170B2
:104B600009D29190036D7471800590036D746A028F
:104B70004841743FF0A3745AF09061A0747FF02212
:104B80007433F0A37455F09061A0743AF0227F045E
:104B90000218EFC082C0839006D4E06401701190C7
:104BA00006DAE064016019E07006A3E064016010B9
:104BB0009006EBE06401700C9006F1E06401700473
:104BC000790C800279008005E0F91226AAD083D002
:104BD00082020132E0C4333354C0228882898312B6
:104BE0005163A882A983222414F582E438F5832234
:104BF000C082C0839006DE7425F09006DC7401F05C
:104C0000A3E4F07A01FB120D47124C3C241AF58202
:104C1000E438F58374DDF0A3740AF09006DBE064F9
:104C20000170169006DAE070107901120DA7120DCE
:104C300077120DA17900120DB3024BCD9006CA1266
:104C40004FC52274F612181D74FA1217AD9006D3D0
:104C5000E064017008120AC59006D3E4F075E1F132
:104C6000124C3C2415F582E438F5837401F090066B
:104C7000D5E06401704B90823AAC18AD19740612FD
:104C800016C075D90D9006CC124BD44403F5D975D6
:104C900082CD75830612515FE58264D37004E5838B
:104CA000640670F1A818A919124BDB74061217F9E3
:104CB000E582687003E5836970EE75E1957901809E
:104CC000027900120D4D901B50124D297445F0A32E
:104CD000740CF0A3124D29124D29124E97744BF00B
:104CE000A3740C124EAC9006CCE0F97ACD7B061280
:104CF0000D299006DEE0F91226AA7901120D5390D3
:104D000082DC121683120D6B9082C0121683120D74
:104D1000357900120DBF124C3C124BE77416F0901F
:104D200003697405F0040253C4743FF0A3740CF0DB
:104D3000A32274F712181D8908A808E875F00DA4BD
:104D4000C8AAF02AF9749928FE740339FF9006E383
:104D5000E0F97AE47B06120D299006F1E0702579DE
:104D600000120D89EE240CF582EF3401F583E0701A
:104D700004790080027901EE2406FAEF3401FB1277
:104D80000D2F80057901120D8975E1F175D92390F8
:104D900006E3124BD44405F5D97582E475830612F7
:104DA000515FE58264EA7004E583640670F175D9A9
:104DB0000075D90075D90075D90075D90075D9006D
:104DC000EE24221252181252377003E9658370F6EE
:104DD000EE24261252232403F8E43583F9125237C5
:104DE0007003E9658370F6EE242B12522C242C12EA
:104DF000522C242D12522C242E12522C242F1252BB
:104E00002C243012522C243112522C243212522CC7
:104E1000243312522C245D1252232405F8E43583E6
:104E2000F91252377003E9658370F6EE2437125D8C
:104E3000CA541FF8EE242A125DCAC43354E048F560
:104E4000D975E195901B50740FF0A3740CF0A37406
:104E500015F0A3740C124E8E741BF0A3740C124E3A
:104E6000AC9006F0E0F91226AA9082DC12168312AA
:104E70000D6B9082C0121683120D3590600DE4F018
:104E80007901120DBF9003697406F0025600F0A379
:104E9000124E97124E9722124E9B227409F0A37461
:104EA0000CF0A37409F0A3740CF0A322124EB022EC
:104EB000F0901B5E124EBCA3124EBC22124E9B748D
:104EC00009F0A3740CF02274EC12181D9006E11284
:104ED0005A2078101216659006F2E0FAF875F00D77
:104EE000A4C8ACF02C125B9CFFEE2EFEEF33FF8EBD
:104EF0000CF50D750E00750F0085100885110985DC
:104F0000120A85130B9082CC78081215CB78081200
:104F10001A2C85100885110985120A85130B78084B
:104F2000790C1215B87810790C121511E4F50EF5FC
:104F30000F7808790C1215F18A0C750D007403783E
:104F40000C12179A7808790C1215B89082C4780858
:104F500012162CAA08AB09AC0AAD0B122642740437
:104F60001217C38A088B09A808A909C3EE98EF99FC
:104F70005006E82EF8E93FF9E890600EF0E9A3F05A
:104F8000EEA3F0EFA3F090600D74C1F07F0C021857
:104F9000EFC082C0839006CA124FB19006DE024B6A
:104FA000C8C082C0839006E1124FB19006F0024B58
:104FB000C8124FC5124FBBF0A3F0222406F582E4BD
:104FC00038F583E422E0F8A3E0C82202013274F647
:104FD00012181D1251686004780480027800E824D9
:104FE0000EF8ECC398500302509C7C0C9006FCE435
:104FF000F0EA2476F582E43BF583E09006FDF0EAE2
:1050000024771250A19006FE1250AB9006FFF0EAF2
:1050100024791250A19007001250AB900701F0EADA
:10502000247B1250A19007021250AB900703F0EAC4
:10503000247D1250A19007041250AB900705F0EAAE
:105040002474F8E43BF98A828B83A3A3A3A3A3E08F
:10505000FEA3E0FF88828983E02EF0A3E03F125791
:105060003E9007061250AB90070712518C601775DF
:1050700008FC7509067808121A307903120BFD74C2
:10508000021217C37C101253D2ECFE12515FDEFBEA
:1050900075E1957904120D7179018002790002534E
:1050A000C7F8E43BF988828983E022125743A3E0E2
:1050B0002274F612181D1251686004780480027878
:1050C00000E8240AF8ECC398500302515A7E089075
:1050D00006FC7401F07CC07D0678FD79067F051220
:1050E0005176A882A983DFF7EA2480FCE43BFD8A9D
:1050F000828B83A3A3A3A3A3E0F508A3E0F5098C07
:10510000828D83E02508F0A3E03509F0125176087E
:10511000A9838C828D83E08882898312518C6019E7
:105120007508FC7509067808121A307C0879031294
:105130000BFD74021217C37E0C74012EF5D975D9BC
:10514000037582FC758306EEFF12515FDFFB75E18C
:10515000957904120D717901800279000253C7120A
:10516000516322E0F5D9A3229061D0E0F87480C3A6
:1051700098FC1251912212517A228C828D83E08800
:10518000828983125F8888828983A322F0125191D9
:1051900022EA2483F582E43BF583E02274F71218B7
:1051A0001DEAFEEBFF9061D0E0706875D91875D9E3
:1051B0000375D903EE249C12523E1252377003E954
:1051C000658370F6EE24A412522C24A512522C24CE
:1051D0009412523E1252377003E9658370F6EE2442
:1051E000881252181252377003E9658370F675E120
:1051F000957908EE2494FAE43FFB120B9D7904EEB6
:105200002488FAE43FFB120B9D7904120D711253AE
:105210004C800279000256001252232404F8E4352F
:1052200083F922F582E43FF583E58222F582E43FAB
:10523000F583E0F5D9EE22125163E865822212521D
:10524000232408F8E43583F92274F612181DEAFEC7
:10525000EBFF9006FC74061252F5121A307C0179AD
:1052600003120BFD74021217C375D90675D90375A5
:1052700082FC7583061252ED7004E583640770F5B5
:1052800075E195900369E064087010EE246FF58273
:10529000E43F1252A0EE2471125D5979010253C706
:1052A000F583125F572274F612181DEAFEEBFF9089
:1052B00061D0E070339006FC740A1252F5121A3075
:1052C0007C017903120BFD74021217C375D90675A0
:1052D000D9037582FC7583061252ED7004E5836470
:1052E0000770F5125349800279000253C7125163C7
:1052F000E582640122F07508FC75090678082274BD
:10530000F612181DEAFEEBFF9061D0E070367801CE
:105310009006FC740BF0900369E06407701975083F
:10532000FC7509067808121A307C017903120BFD0E
:1053300074021217C3780512559412515FDAFB12EA
:105340005349800279000253C775E195EE246F122C
:105350005F51EE2471F582E43FF583E8F0A3E9F0B4
:1053600079012274F612181D125495600478048095
:10537000027800E8240BF8EAC39840447C099006C0
:10538000FC74081253E11253F0DDFB125DC7601B81
:105390007508FC7509067808121A307903EEFAEFE1
:1053A000FB120BFD74021217C37C0D1253CC125466
:1053B0008D70FB75E1957904120D7112534C8002CA
:1053C000790080031217C37F020218EF1253D28CA8
:1053D000082274012CF5D975D9037582FC758306F2
:1053E00022F0EE24E5F8E43FF97AFD7B067D082201
:1053F00088828983E08A828B83125743A3A882A97B
:10540000838A828B83A3AA82AB832274F612181D2F
:105410001254956004780480027800E82408F8EAC1
:10542000C398406478069006FC740CF0900386E004
:105430009006FDF0900387E09006FEF0900388E070
:105440009006FFF0900389E0900700F090038AE057
:10545000900701125524601B7508FC750906780831
:10546000121A307C067903EEFA120BFD7402121741
:10547000C3780A12551E12548D70FB75E19579049C
:10548000120D7112534C800279000253C7125163FE
:105490001508E50822EAFEEBFF9061D0E0F8748081
:1054A000C398FA1255292274F612181D12549560E9
:1054B00004780480027800E82404F8EAC398404B9A
:1054C00078029006FCE8F0EE24F7125DCA9006FD23
:1054D000125524601B7508FC7509067808121A30ED
:1054E0007C027903EEFA120BFD74021217C37806E0
:1054F00012551E12548D70FB75E1951255107904EA
:10550000120D71EE240D12534F800279000253C721
:10551000EE241DF582E43FF583E4F0A3F02212555A
:105520009A880822F012552922EE2483F582E43F5E
:10553000F583E02274F612181D1251686004780495
:1055400080027800E82404F8ECC398404278029086
:1055500006FC7407F0EA24F8F582E43BF583E0905A
:1055600006FD12518C60197508FC75090678081241
:105570001A307C027903120BFD74021217C37806ED
:1055800012559412515FDAFB75E195790180027929
:10559000000253C712559AE8FA22740128F5D9750A
:1055A000D9037582FC7583062274F712181DE9FF72
:1055B000A2AFE433FEC2AF7C0080010C1256515002
:1055C00010ECF8EA28F8E43BF9125CB56F70EC8057
:1055D00016EA246EF8E43BF9E0FCEA2CFAE43BFB23
:1055E0001255EEEF125738EEA2E092AF8012EA2485
:1055F0006AF582E43BF58322F0EEA2E092AF7900F7
:105600007F010218EFC082C083A2AFE433FDC2AFB6
:1056100012565914F07C00801DECF8EA28F8E43B9F
:10562000F9E8246B125CB8C0E0E8246AF582E4393A
:10563000F583D0E0F00C12565140DEEA246DF5827D
:10564000E43BF58374FF12567EEDA2E092AF024B6D
:10565000CD125659F8ECC39822EA246EF582E43B49
:10566000F583E022C082C083A8A8C2AF1255EEE93C
:1056700012567EE8A2E7E433FAE8A2E780CEF0EA29
:105680002469F582E43BF583E4F02274F312181DDB
:10569000EAFEEBFFECFAEDFB8A828B83A3A3A3A3C4
:1056A000E0541FF0EE2436F582E43FF583E4F07514
:1056B0000A00EE245DFCE43FFD8A828B83E08C824D
:1056C0008D83F0750B00E50A33333354F8F50C8AFB
:1056D000828B83E0F508750900E50B780812177BCB
:1056E000E508A2E05027EE2436F8E43FF9888289E5
:1056F00083E0F508EE2508F508E43FF509E5082400
:1057000038F582E43509F583E50C125738050B05A9
:105710000CE50BC3940840B7050A8A828B83A3AAC1
:1057200082AB838C828D83A3AC82AD83E50AC39464
:105730000540867F050218EF12573E04F0221257EB
:1057400043E022F0888289832274F712181D9003A7
:1057500095E0640370030258E67C0075829B7583B4
:1057600003E060030258D0ECF875F00DA4C8AAF06D
:105770002AF9749928FA740339FB8A828B83A3A3CC
:105780007401125908E4F0EC8A828B83A3A3A3A3CB
:10579000F0125ED27401F0EA2467F582E43BF583EF
:1057A0007401125902E4F0A3125902A3A31259186A
:1057B000240FF582E43BF5837401F0EA2435125896
:1057C000ED241812591D241C1258ED241D125911D4
:1057D000247F1258ED24731258ED24821258ED24C0
:1057E00068F582E43BF583748012567EEA246E12DB
:1057F00058ED24ED1258ED24EE1258ED24EF125816
:10580000ED24F01258ED24F112591124F31259111C
:1058100024F61258ED24831258ED24D31258ED24A7
:10582000D41258ED24D512591D24D912591D24DF44
:105830001258ED24E11258ED24DD1258ED24E21245
:1058400058ED24E31258ED24F912591124FB125992
:105850001124FD12591124FF125911240C1258F76A
:1058600024061258F724071258F724081258F72470
:10587000091258F7240A1258F7240B1258F7125538
:10588000EF74FF7804F0A3D8FCEA245DF8E43BF958
:105890007CC07D0612593164C57003ED640670F456
:1058A000EA24E5F8E43BF97C7D7D031259316485F7
:1058B0007003ED640370F4900395E004F0640170EC
:1058C000298A828B83A3A3A3A3E0900397F0801A75
:1058D0000CE582240DF582E5833401F583ECC39455
:1058E0000350030257617A007B00025600F582E400
:1058F0003BF583E4F0EA22F582EB3401F583E4F032
:10590000EA22125908A3A322F08A828B83A3A3A3BD
:1059100022F582E43BF583E4F0A3F0EA22F582E489
:105920003BF583125928EA22E4F0A3F0A3F0A3F098
:105930002212517AA882A983EC22C082C0838A8273
:105940008B83A3A3A3E0600F8A828B83A3A3A3E42A
:10595000F0900396E014F0900395E014F070069038
:10596000039774FFF08A828B83A3A3E4F09006C5AB
:10597000E0700D900396E0640170057900120D3B14
:10598000024BCDC082C083789B790388828983A330
:10599000E4125743F0125B86E864C27003E96406C0
:1059A00070E9900395E4F0A3F0A374FFF075E1F1C2
:1059B000024BCD74F512181D750800750900750AA3
:1059C000007E997F038E828F83A3A3A3E0602BE5E3
:1059D000084509601D850882850983125A20121A1C
:1059E00043125A1C1216831225E674041217C3E9D7
:1059F0007008EEF8EFF988088909050AEE240DFE13
:105A0000EF3401FFE50AC3940340BA850882850993
:105A100083A3A3A3A3E0F97F030218EF8E828F83F1
:105A2000125EF5A3A32274EE12181D8A0A8B0B8C4A
:105A300008890C900396E0F8E9C39850627AFF7BDE
:105A4000FF7C007899790388828983A3A3A3E0600F
:105A50003F74FF6A700374FF6B700CE82473125C70
:105A6000B8640170218012E82473125CB86401707C
:105A70000DE82479125B8F5017E82479800BE82415
:105A80002E125B8F500AE8242E125CB8FAA3E0FBBA
:105A90000C125B86ECC3940340ADEAFEEB8018E980
:105AA0006010A3E0F875F00DA4C8AAF02A125B9C60
:105AB0008005EA2AFEEB33FF8E0E8F0F7403780EFB
:105AC00012178B900396E0F8C3E50E98E50F94004B
:105AD0005003025B72E50A25E0F50AE50B33F50B8E
:105AE000E50825E0F508ED33F509AC0AAD0B8007B4
:105AF000EC2402FCE43DFDC3E5089CE5099D406003
:105B0000C3EC9EED9F403FECF8EDF9EEFAEFFB128F
:105B100017228B0FEA450F60068E0E8F0F800675D9
:105B20000E00750F00ECF8EDF9EEFAEFFB121722FC
:105B30008A108B11EC9510F8ED9511F9E8250EFC03
:105B4000E9350FFD801AE0F8E50CC3985012EEF825
:105B5000EFF9ECFAEDFB1217228B0FEA450F70906C
:105B6000C3EC950AED950B4009C3E5089CE5099D3A
:105B700050067AFF7BFF8009ECFAEDC313FBEA13B2
:105B8000FA7F0A0218EFE8240DF8E93401F922F54A
:105B900082E439F583C3E09AA3E09B22F974C72815
:105BA000F582740339F583E0FEA3E02274F612183F
:105BB0001D74FC1217ADEAFEEBFF8044EE2463F87F
:105BC000E43FF97A007B00A2AFE433F508C2AF8866
:105BD000828983E0FCA3E0FDEC4D600F125F107042
:105BE0000A88828983A3A3E4F0A3F0E508A2E092E7
:105BF000AF1212D59006C6E004F09006C7E004F09C
:105C0000EE2463F582E43FF583125F4B70AE90069D
:105C1000C7E060358E828F83A3A3A3A3E08518829B
:105C2000851983F0A3E4F09006C7E0F87402121718
:105C3000F9E8F0A3E4F07402121813AA18AB19796A
:105C40000112088B9006C7E4F0EEFAEFFB120B4945
:105C5000EEFAEFFB120C8174040253C474F71218AD
:105C60001DEAFEEBFF8E828F83A3A3A3A3E0FA7B42
:105C700000120861EEFAEFFB120B61120C63025680
:105C800000C082C0837A007899790388828983A3CF
:105C9000A3A3E06011E8246E125CB86009125CB541
:105CA00070047901800C0A125B86EAC3940340DB1E
:105CB0007900024BCDE8246AF582E439F583E022CD
:105CC000C082C083E490037D7808F0A3D8FC9003E1
:105CD0007D0402484174F712181D74FC1217AD853B
:105CE0001882851983125928120BA3E98518828519
:105CF0001983F0120BA374011217F9E9F0120BA328
:105D000074021217F9E9F085188285198312168337
:105D100074041217C302560074F612181DEAFEEB43
:105D2000FFEC2403F8E43DF988088909EC2407F81E
:105D3000E43DF9E8FCE9FD125D65121722EE240D41
:105D4000125D59125D651217228B09EA450960063A
:105D5000EE240D125D780253C7F582E43FF583E827
:105D6000F0A3E9F0228C828D83125F57850882852B
:105D70000983E0FAA3E0FB22F582E43FF583E02407
:105D800001F0A3E03400F02274F612181DEAFEEBD5
:105D9000FFEE242E125DCAFCA3E0FD780079FAEC38
:105DA000FAEDFB121722EE246F125D59780079FA92
:105DB000ECFAEDFB1217228B09EA45096006EE2486
:105DC0006F125D780253C7EE2483F582E43FF583BA
:105DD000E02274F412181DEAFEEBFF120CFF8A0891
:105DE0008B098C0A8D0B9082C878081215CB908293
:105DF000C4780812162C7808121A2C125A1C121683
:105E0000831225E674041217C3E96003025EBC8E98
:105E1000828F83E02402F8A3E03400F9E8FAE9FB7A
:105E2000740C1217F978081216658A828B83780829
:105E30001215DE9082C478081216658A828B8378E8
:105E40000812163FEE240BF582E43FF583C082C0B2
:105E5000838E828F83A3A3A3A3A3E02401F8A3E0EE
:105E60003400F9D083D082E0687003A3E069700445
:105E70007901804A8E828F83A3A3A3A3A3A3A31235
:105E80005D7EEE2473125DCA64017013EE247412F9
:105E90005EC17003A3E0697006EE2474125D78EEB3
:105EA000247F125DCA64017013EE2480125EC170FB
:105EB00003A3E0697006EE2480125D787900024B3E
:105EC0008E125F518E828F83A3A3A3A3A3A3A3E00B
:105ED0006822EA2462F582E43BF5832274F7121803
:105EE0001D125F408A828B836005A3A3125EF512A8
:105EF0005EFE0255F8E0F8A3E0F583888222125F87
:105F000036A3A3ECF0A3EDF08C828D83E4F0A32202
:105F100088828983E0FAA3E0FB8A828B83E0FCA37A
:105F2000E0FD88828983125F36E4F0A312573EFCBD
:105F3000A3E0FDEC4D22ECF0A3EDF08A828B8322EE
:105F4000A2AFE433FEC2AF8A828B83125F57E84967
:105F500022F582E43FF583E0F8A3E0F92274F7121A
:105F6000181DE96006F8125F72D8FBECFAEDFB022F
:105F700056008C828D83E08A828B83125F888A82AE
:105F80008B83A3AA82AB8322F08C828D83A3AC8205
:105F9000AD832274F412181DE9900368F0120D17F6
:105FA000907800E0C4540F540764037004793F8074
:105FB00002797F7508067509007808121A307C5638
:105FC0007D037AEA7B0712115574021217C39003FE
:105FD00056E0F47049A3E0F47044A3E0F4703FA3EA
:105FE000E0F4703AA3E0F47035A3E0F470309078F8
:105FF0000EE0900356F090780FE0900357F0907801
:1060000010E0900358F0907811E0900359F09078E8
:1060100012E090035AF0907813E090035BF0900345
:106020005C12614E12742B9003867406F0A3740DFB
:106030001268017442F0A37401F09006CD12614E13
:106040009006CCE4F09006D30412680112613CE49F
:10605000F0A304F0A31268011267FFF09006E412A7
:10606000614E9006E3E4F09006EA04F0A3E41261C6
:106070003C1267FFF0A37405F09006F474FFF0A3E0
:10608000E4F09006F6F09006F804F09006F97490AB
:10609000F0A37401F0120AB31209ED120CBD7901DC
:1060A0007AFB7B06120BA99006FBE075F01484E5E1
:1060B000F004F0790C7A1C7B07120BA9120BC17A41
:1060C00000900368E0F9121335907803E0644270A1
:1060D000569006FBE014F0704EC2AF1260DE0078FE
:1060E0001ED0E0F618D0E0F6E59F5407F87005756D
:1060F00009FF800375097FC4C0E0781DE6F5080834
:10610000E65509F509740B780812178BD0E02508BD
:10611000F8906270E0A2E740F8E8C333906272F052
:10612000906270E0D2E0F0900393E4F0A3F07A8004
:10613000FB900368E0F91212A50265A312614512F3
:106140006145F0A322F0A37480F0A37402221261CF
:1061500055F0A3F02274FFF0A3F0A3F0A3F0A32264
:1061600074F412181DEAFEEBFFEEA2E0504090031B
:106170006AE0C39480E0500F25E0F8E433F97450EE
:1061800028F582741B800EF425E0F8E433F9745E80
:1061900028F582741B39F583126F7C12181B7A0064
:1061A000900368E0F9121335EE640102634254086B
:1061B000700302624A9006F2E0F875F00DA4C8AAD6
:1061C000F02AF9749928FA740339FB7508007808E5
:1061D000121A34EA2432F582E43BF583126F6874B4
:1061E00004780812178B7808121A30EA2430F582E6
:1061F000E43BF583121A47EA242EF582E43BF5834B
:10620000E0F508A3E0C313F509E50813F5087808DD
:10621000121A30EA2406F508EB3401F50978081261
:106220001A30EA240CF582EB1275AFFD7C008A82ED
:106230008B83A3A3A3A3E0FA7B00790012085B740D
:10624000091217C3EE6408026342EE5410603775FA
:1062500008007808121A34E4F5097808121A307820
:1062600008121A307808121A307808121A307D0095
:106270007C007A007B00790212085B74091217C354
:10628000EE6410026342EE548060369006F9126AA2
:10629000D0E8496026790012132F9006F9126F6832
:1062A000E4F50AF50B7808121A2C7A007B019003AA
:1062B00068E0F91213B974041217C3EE6480026324
:1062C00042EF5401600C790112132FEEFAEF6401D2
:1062D0008072EF5402600AC2AF75C9AB75C95B80AA
:1062E000FEEF5404600A122728EEFAEF640480548B
:1062F00090036FE06401704FEE5420604A90036990
:10630000E024FB600924FE601B14601880319006B5
:10631000DBE0FA7900120A3B9006DBE0FA79011221
:106320000A3B801B793F900397E0FA75F00DA4CAF1
:10633000A8F028FB74992AFA74033BFB120B67EE52
:106340006420FAEFFB80047A007B000265A374F6F8
:1063500012181DEA540F6004780180027800E8F9F1
:106360008A088B097404780812178BE50829F50848
:106370007509007404780812179AE5082408FAE4ED
:106380003509FB1212CF8A088B09A808A909E84928
:106390006009E82404FAE439FB80047A007B0002F7
:1063A00065D474F612181DEA2405FA50010B121276
:1063B000CF8A088B09A808A909E8496009E82405DB
:1063C000FAE439FB80047A007B000265D4C082C005
:1063D00083C2AF120CEDE5E170FC75E101120AA178
:1063E00075E1F1120D23120A957907120DB97901A1
:1063F000120DBF7902120D41120D77120DA1790015
:10640000120DB37901120DB39082C0121683120DD2
:10641000359006D4E4F09006EBF0120B4F120C5DB1
:10642000120B737900120DC59006C0126155741FCE
:10643000F0906012E4F0A3F0906063F0751B0090A0
:106440000369F09006C5F09006C6740CF09006C77C
:10645000E4F09006C804F09006C9E4F090036BF0F5
:10646000A3F090036EF090036F04F090038504F0A6
:106470009006F7E4F0D2AFF9027047C082C0839073
:106480000356126624900357126602F090035812C6
:10649000660D90035912661390035A126618900302
:1064A0005B126602A3A3A3A3027044C082C0838AC6
:1064B000828B83E090035C1273E7E090035D1265CA
:1064C000D990035E12741090035F12741C900360E5
:1064D000127417E0900361027044C082C083120AF4
:1064E000BFE9F97005120D77790002704774F71251
:1064F000181DEAFEEBFF8908120ABFE9F9702CE5C6
:1065000008600A74016508600A7912801E7C0079AF
:106510000080047C007901EEFAEFFB120D7DE9F8B2
:10652000740368700479078002790002723274F68D
:1065300012181DEA4B600EEC4D600A740A1217F92E
:106540001273C470047912800F7808121A30120B7B
:10655000BB74021217C37900807A74F412181DEA12
:10656000FEEBFF8908900369E064096014E0640AA7
:10657000600FE0640B600AE0640C6005E0640D707D
:1065800004790C801E120C878B0BEA450B700BA94B
:1065900008EEFAEFFB120BA9800990036BE0444070
:1065A000F0790D7F040218EF74F612181DEA4B60A3
:1065B00003E970047912801CEAFEEBFF8908120BD4
:1065C000A3E98E828F83F0A3AE82AF831508E5081E
:1065D00070EC79007F020218EF1273E7A3E022C08B
:1065E00082C083E9F8740168700B9006F77401F0BB
:1065F0007900027047E870069006F7E480F179129E
:1066000080F012660622E08A828B83A3221266063D
:10661000A3F02212661EF02212661EA3F02212665A
:1066200006A3A322E08A828B83F02274F712181D3E
:10663000900369E0640C701290618EE0F8748068D9
:1066400070368C828D83747F803AC3EB940F502414
:106650001273EE501F12746C1275C97004790280A7
:106660002675F00DEBA42EFB740128F58274043B13
:10667000F58380C77912800F90036DE0F9E8C39924
:106680008C828D83F0790002723274F712181DE942
:10669000FE74056E601E74136E601974146E6014BF
:1066A00074156E600F741A6E600A74296E6005743A
:1066B0003B6E7037C3EB940F50311273EE502C12B7
:1066C00075B57004790280371273F6EA2469F58291
:1066D000E43BF583E06401701EEA246AF582E43B42
:1066E000F583E064027008793A8014791280101200
:1066F0006702120B378006126702120B2B79000219
:106700007232EA24F7F582E43BF583EEF0EA241DC9
:10671000F582E43BF583E4F0A3F079022274F512EC
:10672000181DEAFEEBFF890AEC4D6014E9C3941CC6
:10673000500E740B1217F9E0FA600A74016A6005D2
:1067400079120267E5C3EF940F502DC3EE9403EF67
:10675000940050241267EA1275C970047902801AF5
:106760001267EAF9749928F508740339F509900657
:10677000C6E070087907806D79128069EC24FEFC10
:10678000ED34FFFD8C828D83E50AF0EA700474021B
:1067900080027401A3F0EC24FEFCED34FFFDE5085B
:1067A0002463FAE43509FB120B91A9A8C2AF900645
:1067B000C6E014F0E9A2E7E433F8E9A2E792AF906B
:1067C0000369E064086005E064077017900397E0D0
:1067D0006E7001EF700D7900AA08AB09121E44908B
:1067E00061D0E079007F030218EFEEF8EFF9E87569
:1067F000F00DA4C8ABF02BFB75F00DE9A42B2274AF
:1068000025F0A3E4F0A32274F712181DE9FF600538
:1068100074016F703774091217F9E0FE6005740196
:106820006E7029EA24FCF8EB1268F2501FEC24FC8D
:10683000F8ED1268F25015C3EA9CEB9D400E740A05
:106840001217F9E0F8600A740168600579120268AD
:10685000EF9006D4E064017005790C0268EFEFA3B5
:10686000F0E89006DAF0EE9006CC702FE4F090039A
:1068700056E09006CDF0900357E09006CEF09003DE
:1068800058E09006CFF0900359E09006D0F09003C6
:106890005AE09006D1F090035B802E7401F09003D3
:1068A0005CE09006CDF090035DE09006CEF09003A2
:1068B0005EE09006CFF090035FE09006D0F090038A
:1068C00060E09006D1F0900361E09006D2F090066F
:1068D000D6EAF0A3EBF0A3ECF0A3EDF0E8700479B6
:1068E00000800774016870057901120D8379000238
:1068F0007232126FBE2274F012181DE9FEEAFF9088
:106900000369E0640970030269FEE0640A7003022F
:1069100069FEE0640B70030269FEE0640C70030220
:1069200069FEE0640D70030269FE9006D5E0600721
:1069300064016003026ACB9006CCE06007640160EA
:1069400003026ACB9006D6126FB44003026ACBA34F
:10695000126FB44003026ACB9006D6C0829006D86C
:10696000126AD0758306D082C3E098A3E0995003E1
:10697000026ACBEF600874016F6003026ACBEE60BD
:1069800077146003026ACB9006D4E06401606F79EB
:1069900002120C7B9006CAEAF0A3EBF09006D474C6
:1069A00001F09006D3F0EF9006DBF0900369E07001
:1069B00042120ACB120CFF8A0C8B0D8C0E8D0F909D
:1069C0008280780C1215CB9082C4780C12162C9011
:1069D00006CA126F741216749006CA126FA290063D
:1069E000D8126F951215B89006CA126F85121674D8
:1069F000120C63790002740B9006D4E070047921C4
:106A000080F3A2AFE433F50AC2AF120C878A828BFF
:106A100083E58245836005E0F50880037508FF90F3
:106A200006D4E4F07ACA7B06120C81120C93E9F5C5
:106A3000096009740265086003026AC2120CED90D5
:106A40006182E0C2E6F0E5E170FC75E1017591BF9D
:106A50007901120DBF75E1F17A017B00900368E0C6
:106A6000F91212AB9006DAE064017005120DA180F4
:106A700017A3E0640170119006DAE0700B120D7735
:106A8000120DA17901120DADE50AA2E092AFE50960
:106A9000702D90036FE0640170187A207B009003E2
:106AA00068E0F91213C57A207B00900368E0F912C0
:106AB00012AB7A00900368E0F91213350269F30211
:106AC00069F0E50AA2E092AF0269F379120269F572
:106AD000E0F8A3E0F92274E812181D74FB1217AD58
:106AE00074031217F9EAF0A3EBF074011217F9EC32
:106AF000F0A3EDF0E9851882851983F09006EBE0AC
:106B0000640160267904120C8DE96401601C900315
:106B100069E064096014E0640A600FE0640B600AD5
:106B2000E0640C6005E0640D70057921026F457426
:106B3000031217F9126FB44003026D3E740112176D
:106B4000F9126FB44003026D3E74031217F9C0824C
:106B5000C08374011217F9126AD0D083D082C3E0C7
:106B600098A3E0995003026D3E741E1217F9126F3C
:106B700068851882851983E0600964016003026DED
:106B80003E8009E50845097003026D3E741D121729
:106B9000F9E0600764016003026D3E74201217F98A
:106BA000E0600764016003026D3E742B1217F9C0A8
:106BB00082C08374291217F9126AD0D083D082C39D
:106BC000E098A3E0995003026D3E74211217F9E09A
:106BD00024FAF8A3E0126F4F4003026D3E742312B3
:106BE00017F9E0FEA3E0FFEE24FAF8EF126F4F4032
:106BF00003026D3E74211217F9126AD0C3EE98EFAA
:106C0000995003026D3E74251217F9C3E094F4A362
:106C1000E094014003026D3E74271217F91273BA13
:106C200024F6F8E50B12745C9477E9940C400302A7
:106C30006D3E850A0C850B0D7403780C12179AF5BE
:106C40000EF50F74251217F9E02401F514A3E034B2
:106C500000F515E4F516F517EEF8EFF9E82EF8E96A
:106C600033F988108911E4F512F5137814791012AC
:106C70001491780C79141214525042120B6DE9647D
:106C8000017005793A026F457900EEFCEFFD742141
:106C90001217F9127466120B5B8A0C8B0D74FF6568
:106CA0000C700474FF650D7005793B026F45851803
:106CB00082851983E07008E50845097002807F121B
:106CC0000B438A0E8B0FAE0EAF0FEE4F7005790996
:106CD000026F458E828F83A3A3A3A3E09006F2F0F8
:106CE00074031217F9126AD09006EC126FE974015E
:106CF0001217F9126AD09006EE126FE98518828594
:106D00001983E09006F1F0EE245DF8E43FF97AC0D3
:106D10007B061273CC64C57003EB640670F4EE243A
:106D20005DFCE43FFDEEFAEFFB120B3DEE24361264
:106D30006F58C39402500CEEFAEFFB120B49791214
:106D4000026F45850882850983E0C0E0EE240612C3
:106D50006F60D0E0126FDAE0C0E0EE2407126F60DF
:106D6000D0E0126FD1E0C0E0EE2408126F60D0E0F6
:106D7000126FD1A3E0C0E0EE2409126F60D0E012E0
:106D80006FEFE0C0E0EE240A126F60D0E0126FEF08
:106D9000A3E0C0E0EE240B126F60D0E0F07420128C
:106DA00017F9E09006E3F074201217F9E0702D90C7
:106DB0000356E09006E4F0900357E09006E5F0906B
:106DC0000358E09006E6F0900359E09006E7F09053
:106DD000035AE09006E8F090035B802B90035CE0A0
:106DE0009006E4F090035DE09006E5F090035EE02D
:106DF0009006E6F090035FE09006E7F0900360E015
:106E00009006E8F0900361E09006E9F0741D121717
:106E1000F9E0C0E0EE240C126F60D0E0F0120B79C4
:106E2000EAF8EBF9ECFAEDFBEE2426F582E43FF507
:106E3000831216A7120A71EE2422F582E43FF5832D
:106E400012168FEE242EF582E43FF583E50CF0A3B5
:106E5000E50DF0EE2432F582E43FF583E50AF0A378
:106E6000E50BF074251217F9126AD0EE2430126F78
:106E7000E39006F3E0C0E0EE242AF582E43FF583D8
:106E8000D0E0F0EE242BF582E43FF5837402F0129B
:106E90000BA3E975F00C84E5F02405C0E0EE24377F
:106EA000F582E43FF583D0E0F09006F07425F09091
:106EB0000396E0C3940240057901120D3B79041258
:106EC0000C7B9006E1EAF0A3EBF09006EB74011264
:106ED0006FC7241AF582E438F58374E3F0A3740ACB
:106EE000126FC72414F582E438F5837417F0900309
:106EF00069E0704F120CFF8A0C8B0D8C0E8D0F9079
:106F000082E0780C1215CB9082C4780C12162C906B
:106F100006E1126F741216749006E1126FA29006C9
:106F2000EE126F951215B89006E1126F8512167465
:106F30008E828F83A3A3A3A3E0F9120AD1120AD7EA
:106F4000120C63790074051217C37F100218EF1238
:106F50007460947BE9940C22F582E43FF583E0228F
:106F6000F582EF3401F58322126F6C22E0F508A35D
:106F7000E0F50922126F7CA3A3780C22E0F8A3E0CD
:106F8000F583888222E0F8A3E0C8240EF582E43875
:106F9000F583780C22126F6CE4F50AF50B780C7906
:106FA0000822E0F8A3E0C82406F582E438F583E47B
:106FB000F0A3F022E024FCF8A3E0126FBE221274CA
:106FC0006094FDE9943F22F09006E1E0F8A3E0C868
:106FD00022126FD522126FDAA322F085088285096A
:106FE00083A322F582E43FF583E8F0A3E9F02212BF
:106FF0006FD5A3A322C082C0839006EBE06008791E
:1070000004120C8DE97004790C80379006EBE4F0E3
:10701000120C93E9702A90036FE0640170187A20D3
:107020007B00900368E0F91213C57A207B0090037F
:1070300068E0F91212AB7A00900368E0F912133598
:1070400079008003F07900D083D08202013274E8A5
:1070500012181DEAF8EBF9ECFAEDFB900369E06415
:10706000086005790C02721BEA24FAFCEB34FFFD80
:10707000C3EC947BED940C40030271A674181217B4
:10708000F9E0FCA3E0FDEC24FAFEED34FFFFC3EED3
:10709000947BEF940C40030271A6C3EC9AED9B50D5
:1070A000030271A6741A1217F9E0F516A3E0F5179A
:1070B000C3E51694F4E517940140030271A6741C0D
:1070C0001217F9E0FEA3E0FFEE24F6F508EF34FF17
:1070D000F509C3E5089477E509940C40030271A60D
:1070E000C3E9940F5079C3E89403E9940050708881
:1070F00008E875F00DA4C50885F00A250AF50A759B
:10710000F00DE9A4250AF509749C2508F58274039D
:107110003509F583E0700479028046E875F00DA426
:10712000C885F0082508F50875F00DE9A42508F9CB
:10713000749928F514740339F515E514246E127248
:107140001EE0600AE514246A12721EE0600CE51469
:10715000247312721EE06401700A793A02721B797C
:107160001202721B8E088F097403780812179AF5A1
:107170000AF50BE5162401F510E43517F511E4F5D1
:1071800012F513ECF8EDF9E82CF8E933F9880C89DD
:107190000DE4F50EF50F7810790C1214917808793A
:1071A000101214524004791280717901120B5B7431
:1071B000FF6A700374FF6B7004793B805EE51424F2
:1071C0007612721E7402F0E514247712721EE4F037
:1071D000A3F0E5142430F582E43515127226E51487
:1071E0002474F582E43515126FE7E51424791272E0
:1071F0001EEAF0A3EBF0E514247B12721EE516F0F4
:10720000A3E517F0E514247D12721EEEF0A3EFF053
:107210007900AA14AB15120B2B7900026F4AF58284
:10722000E43515F58322F583E02407F8A3E0340064
:10723000F9227F010218EF74F312181D900369E020
:1072400064086005790C0273A1EC4D6016740D1290
:1072500017F91273BA450B600A740F1217F91273FB
:10726000C4700579120273A1C3EB940F504E1273D0
:10727000EE504912746C1275C970047902803F7522
:10728000F00DEBA42EFB749928FE74033BFFEE2453
:10729000E4126F587017EE24E5F8E43FF97A7D7B2D
:1072A000031273CC64857003EB640370F4EE24E581
:1072B000126F58A2E0400A79110273A17912027389
:1072C000A1EE249CF8E43FF9EC2408FAE43DFB8CA1
:1072D000828D83E088828983127481AC82AD838839
:1072E000828983A3A882A983EA6C7002EB6D70DFA8
:1072F000850A82850B83E0C0E0EE24A4F582E43F9A
:10730000F583D0E0F0850A82850B83A3E0C0E0EE30
:1073100024A5F582E43FF583D0E0F07C00A808A91D
:107320000988828983E0C0E0ECFAC3E49AFA95E028
:10733000FBEE2AFAEF3BFBEA24D2F582E43BF5832D
:10734000D0E0F00C88828983A3A882A983ECC3943F
:107350001040CEEE2494FAE43FFB120BAFEE2488EB
:10736000FAE43FFB120BB590036BE04480F0EE248F
:10737000621273B024D31273B024D41273B0248376
:10738000126F586401700A1273A67401F0790A80B2
:10739000071273A6E4F07903EEFAEFFB120B2B79D8
:1073A000007F050218EFEE24DDF582E43FF583222D
:1073B000F582E43FF583E4F0EE22E0F50AA3E0F580
:1073C0000BE50A22126F6CE5084509228A828B833D
:1073D000E0888289831273E7AA82AB8388828983DB
:1073E000A3A882A983EA22F08A828B83A322C3EA1C
:1073F0009403EB94002275F00DEBA42CFB749928F8
:10740000FA74033BFB22790C0201327F080218EF69
:107410001273E7A3A3E022127421A322127421E0C5
:1074200022F08A828B83A3A3A3A322900356E09029
:107430000362F0900357E0900363F0900358E090EC
:107440000364F0900359E0900365F090035AE090D4
:107450000366F090035BE0900367F02212746022F1
:1074600034FFF9C3E822E0FAA3E0FB22EAF8EBF9E3
:10747000E875F00DA4C8AEF02EFE75F00DE9A42E4F
:1074800022F08C828D83A32274F712181D74FF12D0
:1074900017ADEA4B60078A828B837403F0EC4D6072
:1074A00009900396E08C828D83F0740A1217F9120A
:1074B0007466EA4B70030275997F007E00807B74CE
:1074C00001F0E0C0E0EA2CF582E43BF583D0E0F087
:1074D000E824061275ACC0E01275A3D0E0F00FE806
:1074E00024071275ACC0E01275A3D0E0F00FE824B9
:1074F000081275ACC0E01275A3D0E0F00FE82409C3
:107500001275ACC0E01275A3D0E0F00FE8240A12A7
:1075100075ACC0E01275A3D0E0F00FE8240B127533
:10752000ACC0E01275A3D0E0F00FE8240C1275ACEB
:10753000C0E01275A3D0E0F00F0E900396E0F8EED5
:10754000C3985055EEF8C3E4940F50EDE8C394038C
:1075500050E7E875F00DA4C8ACF01275C860DA7495
:107560009928F8740339F9EFFCEA2CF582E43BF52D
:1075700083EEF074012CFC74012CFF88828983E077
:10758000FDA3E0F5838D82E06480851882851983F0
:1075900060030274BFE40274C1790074011217C35E
:1075A000027232EA2FF582E43BF58322F582E93458
:1075B00001F583E022EAF8EBF9E875F00DA4C8AC18
:1075C000F02CFC75F00DE9A42CF9749C28F582745C
:1075D0000339F583E022C082C083EA4B6006900342
:1075E0009612662402704574F612181D7901120B6A
:1075F0005B8A088B0974FF6508700474FF65097065
:10760000047912800279000265D474F712181D748F
:10761000FF29F804C313FE6032EA28FCE43BFDEACC
:10762000F8EBF9EEFF88828983E0FA8C828D83E0A3
:1076300088828983F0EA8C828D83127F66A882A972
:1076400083EC24FFED34FF1CFDDFDA8003120BD93D
:107650007F010218EFC082C08390618FE0F902774A
:107660008274F412181D8908E970057912027723D3
:1076700090619AE0643F70047E0180027E00906118
:1076800086E0FF53B4F390619A743FF0A3745AF00C
:107690009061A0E4F0906184F0E5E170FC75E10296
:1076A0007509009061BFE070090509E509C394FA06
:1076B00040F174FA65096029750900E0F50AE0F502
:1076C0000BF9E50AF849600A74036870037480696D
:1076D00070090509E509C394FA40E074FA65097078
:1076E00004791F803EEAF8EBF98508099061BF1222
:1076F0007728127728E5BC88828983F0A3A882A91D
:10770000831509E50970E5E5E170FC75E101850B7C
:10771000BC850ABC120A95EEF9120AADEF9061869B
:10772000F079007F040218EFE0F5BDE0F5BDE0F56B
:10773000BDE0F5BD22C082C083781C790712776353
:1077400064247003E9640770F4027782C082C08306
:107750007824790712776364287003E9640770F46A
:1077600002778288828983E08A828B83F08882898B
:1077700083A3A882A9838A828B83A3AA82AB83E88E
:1077800022F0D083D08202013274F712181DECFE71
:10779000EDFF120BE57508107808121A34EEFCEFB5
:1077A000FD7910740A1217F9E0FAA3E0FB120BD36B
:1077B00074011217C3790002764DC082C083900D08
:1077C000937470F0A374B1F0A3E0541FF0900D9780
:1077D000741DF0A37442F0A37470F0A374B2F0901F
:1077E0000D9DE0541FF0900D9F741EF0A3741202C3
:1077F0007781C082C083EA6C7002EB6D60361278CC
:1078000037F0ED900D89F0ECA3F0EBA3F0EAA3F0D4
:10781000851882851983E0F8A3E0F9E8900D8EF0D1
:10782000E9900D8DF075D11E75D60175D701E5D1A2
:10783000A2E050FA027782900D8DE0541FF0900D77
:107840008F7420F0A3745222C082C083EB900D91FC
:10785000F0EAA3F0E9900D96127B6102778274F74B
:1078600012181DED900D91F0ECA3F074091217F9A8
:10787000E0900D96127B6FEB900D9BF0EAA3F0E980
:10788000900D9EF0900D9DE054E0F075D11D75D1E6
:107890001B75D60275D604027650E5B354F849F547
:1078A000B343B301E5B3A2E350FA020132C082C090
:1078B00083E5B3548F4450F5B37480900D91F07408
:1078C000301278F94406F5B343B301E5B3A2E350AF
:1078D000FA027782C082C083E5B3548F4440F5B387
:1078E000EB900D91F0EA1278F94404F5B343B3013B
:1078F000E5B3A2E350FA027782A3F0900D967410DC
:10790000127B65E5B354F82274F212181D74E0126C
:1079100017AD8A088B09890BECFEEDFF740F550B30
:107920006004780180027800E9C4540F28F50A75D4
:107930000C10750D00780C121A307C307D8074129A
:1079400012180B120BC774021217C374101217F916
:10795000127A1E121A30AC08AD0974131217F9AA64
:1079600082AB83120BC774021217C3127B43E91256
:10797000180B120BCD7906120BD975081078081266
:107980001A34742F1217F9127C6A12180B120BD3C7
:1079900074011217C37900120BD9741F1217F91250
:1079A0007B4E7910E912180B120BCD7906120BD908
:1079B000E50AC454F0F9F5087808121A34EEFCEF21
:1079C000FDEEFAEFFB120BD374011217C3E50A6048
:1079D00011FA53B3F843B3011AE5B3A2E350FAEA3C
:1079E00070F0A80BEE28F8E43FF98518828519831A
:1079F000E088828983F074011217F9127A27F074F3
:107A0000021217F9127A27A3F074031217F9127AE7
:107A100027A3A3F074201217C37F060218EF740186
:107A2000F0750C0D780C22E088828983A32274F211
:107A300012181D74E01217ADEAFEEBFF89098C0ADB
:107A40008D0B740F55096004780180027800E9C439
:107A5000540F28F508750C10750D00780C121A30AB
:107A60007C307D80740212180B120BC7740212173F
:107A7000C3851882851983127A1E121A30EEFCEF24
:107A8000FD74031217F9AA82AB83120BC77402129A
:107A900017C3127B43AA18AB19120BCD7906120B30
:107AA000D9742E1217F9E0FEA3E0FF750C10780CC4
:107AB000121A34EEFCEFFD7910741112180B120B30
:107AC000D374011217C37900120BD974101217F96D
:107AD000E08E828F83F074111217F9127B5AF074C2
:107AE000121217F9127B5AA3F074131217F9127BB2
:107AF0005AA3A3F0740F1217F9127B4E127C5C7418
:107B000010127B617906120BD9E508C454F0F9F51F
:107B10000C780C121A34AC0AAD0BAA0AAB0B120B80
:107B2000D374011217C3E5086016F8E5B354F8449E
:107B300002F5B343B30118E5B3A2E350FAE870EBE2
:107B4000027A14E5B3548F4410F5B379102274010E
:107B5000F0E5B3548F4430F5B322E08E828F83A3D7
:107B600022127B6522127B6F75D11D75D60222F021
:107B7000900D95E054E0F02274F212181D74E0129A
:107B800017ADEAFEEBFF89088C09740F55096004F4
:107B9000780180027800ECC4540F28F50A120BDF3C
:107BA000750C20750D00780C121A307C307D8074B5
:107BB0000212180B120BC774021217C385188285A4
:107BC00019837449127A20121A30EEFCEFFD740307
:107BD0001217F9AA82AB83120BC774021217C3746F
:107BE0000F1217F9E509F074111217F97401F07406
:107BF000121217F9E508F0127C5C7420127B61798F
:107C000000120BD97900120BD9E50AC454F0F50B18
:107C1000780B121A34742F1217F9127C6A12180B8F
:107C2000120BD374011217C3E50A6024AAB3150A14
:107C3000E50A6004785080027800748F5A48F5B3E2
:107C400053B3F843B301E5B3A2E350FAE50A70DC9D
:107C500074301217F9E0F8A3E00279E9E519900D04
:107C600091F0E518A3F0900D9622E0FCA3E0FD79D9
:107C70001074012274F012181D74F81217ADEAFE88
:107C8000EBFF89098C08EE24B3FAE43FFB120BE505
:107C9000127F7B7026127D8112169B8518828519B2
:107CA000831216A7127F901217F9127FB41217F9D8
:107CB000127FC21217F9127F9F8029127F6D7025E3
:107CC000127D8112169B8518828519831216A712C0
:107CD0007F901217F9127FB41217F9127FC2121790
:107CE000F9127F8BF0E508C39411A80850047410B2
:107CF00080027420C398F50A95E0F50B74181217EA
:107D0000F9E0F50CA3E0F50D780A121A307C307D0D
:107D100080A808E50C28FAE4350DFB120BC77402A5
:107D20001217C3EE24A6F50AE43FF50B74041218EB
:107D300003880E890F780E121A30780C121A30ACA4
:107D400008A909AA0AAB0B120BF774041217C3781F
:107D50000E121A30AC0CAD0DA908AA0AAB0B120B0F
:107D6000EB74021217C390829C780C121665EE1207
:107D70007D88780C1215DE74081217C37F0802186C
:107D8000EF127F59127D882224D5F582E43FF583D6
:107D90002274F012181D74F41217ADEAFEEBFF897D
:107DA000098C08EE24B3FAE43FFB120BE5127F7B4B
:107DB0007026127F4912169B851882851983121628
:107DC000A7127F901217F9127FB41217F9127FC20F
:107DD0001217F9127F8B8029127F6D7025127F494F
:107DE00012169B8518828519831216A7127F90128E
:107DF00017F9127FB41217F9127FC21217F9127F06
:107E00009FF0741C1217F9E0F50AA3E0F50BA8081F
:107E1000E50A28F8E4350BF988828983E0C0E0742C
:107E2000041217F9D0E0127F66E0C0E07405121763
:107E3000F9D0E0127F66A3E0C0E074061217F9D013
:107E4000E0127F66A3A3E0C0E074071217F9D0E048
:107E5000F0E508C39411A80850047410800274203F
:107E6000C398F50C95E0F50D780C121A307C307D36
:107E700080A808E50A28FAE4350BFB120BC7740248
:107E80001217C37404121803880E890F780E121A81
:107E900030AC0AAD0BA908EE24A6FAE43FFB120BA6
:107EA000F174021217C3850C0E850D0F780E121A8D
:107EB000307C307D80A808E50A28FAE4350BFB12F7
:107EC0000BC774021217C37408121803880C890DAB
:107ED000780C121A30780A121A30AC08A909EE246C
:107EE000A6FAE43FFB120BF774041217C3740412D2
:107EF00017F9E0F874081217F9E068703074051289
:107F000017F9E0F874091217F9E068702074061286
:107F100017F9E0F8740A1217F9E068701074071284
:107F200017F9E0F8740B1217F9E068600479008023
:107F30001390829C780C121665EE127F50780C120A
:107F400015DE7901740C027D79127F59127F50225F
:107F500024D9F582E43FF58322EE24A6F8E43FF924
:107F6000E8FCE9FDEE22F088828983A3228E828FCD
:107F700083A3E0F5838882E06440228E828F83E0D1
:107F8000F8A3E0F5838882E0648022127FA5E422D2
:107F9000851882851983E08C828D83F0740122120A
:107FA0007FA5748022127FBBA3A3F08C828D83A354
:107FB000A3A3A322127FBBF0740222E08C828D83E4
:107FC000A322127FBBA3F0740322C082C083851852
:107FD00082851983E0F8A3E0F9E84960128A828B70
:107FE00083ECF0A3E824FF18E934FFF94870F2D0DD
:067FF00083D08202013281
:087FF800851A87C2AF020132B5
:10800000CD025D06DF026306F102690609036F0611
:10801000210375064B03750657037B06090381068A
:1080200033038706000000006F03870681038D0677
:108030000000000000000000000000000000000040
:108040000000000000000000000000000000000030
:108050000101020102010102010203030401030103
:10806000010101010303020103DB094911CF0FEDF7
:1080700012E5082B05390FD5062310D1101D07E98D
:108080001353696D706C6520424C452043656E74D6
:1080900072616C000000546578617320496E7374DE
:1080A00072756D656E74730053696D706C652053E5
:1080B000766320466F756E64003031323334353666
:1080C00037383941424344454600426F6E64696E19
:1080D0006720737563636573730050616972696EBD
:1080E0006720737461727465640050616972696EAF
:1080F0006720737563636573730000000000000000
:1081000000000000000000000087FB349B5F80003F
:1081100000800010000000000000436F6E6E656379
:1081200074204661696C6564005253534920436171
:108130006E63656C6C656400446973636F76657229
:10814000696E672E2E2E00446973636F6E6E6563D1
:1081500074696E67004465766963657320466F7560
:108160006E6400506172616D2055706461746500C9
:1081700050616972696E67206661696C003C2D20F0
:10818000546F2053656C65637400446973636F6E4C
:108190006E656374656400424C452043656E74727D
:1081A000616C005772697465204572726F72005776
:1081B000726974652073656E743A0052656164205B
:1081C0004572726F7200436F6E6E656374696E679D
:1081D0000052535349202D64423A00526561642095
:1081E0007273703A00000000000000000000000000
:1081F000000000000000000000000000000000007F
:10820000000000436F6E6E656374656400506173B7
:1082100073636F64653A00526561736F6E3A0078FC
:1082200069E0AB50C3F0D244657669636500000035
:1082300095070000000000000000000000000000A2
:10824000000000000000610567050000F4FFFFFF6B
:108250000D0000003075000001C80000F6FFFFFFB0
:1082600064000000190000000A000000419C0000AA
:10827000430000000100FF000000FF007D0000003F
:1082800010000000070000001A00000005000000B8
:10829000F1FFFFFF1027000000E1F50501000000DD
:1082A0000300000000001000FFFFFFFF60EA000075
:1082B000FB1301140D14071450000000F8FFFFFF1A
:1082C00055555500FFFFFF000200000004000000AC
:1082D00040420F00E7FFFFFF31B1E1FFD6BE898EBC
:1082E000A0000000E803000002008302FE82052ACD
:1082F000012A002A0229300002280128002801183A
:108300000018F0FF0328000C74F712181D9002D615
:10831000E075F01FA4FAABF012131D9002D0128882
:10832000189002D012881E7004791380797E008024
:108330003474FFF0A3F08A828B83A3A3E41283A991
:1083400074FF1283AE1283A9A3E4F0EA241EF5821F
:10835000E43BF583E4F07C16FDF9EA2408FA5001C9
:108360000B1212630E9002D6E0F8EEC3985020EE86
:1083700075F01FA4F8A9F09002D0E028FAA3E03924
:10838000FBEE8A828B8370A974FEF0A30480A67A28
:10839000AF7B051206C37AF77B051202257A037BB1
:1083A0000612098779000284BD1283AEA322F08AE7
:1083B000828B83A3A3A3A3A322C082C083E9901BC3
:1083C00028F0D083D082020132A90A74021217C3A6
:1083D0007F040218EF74F212181D74E91217AD8AA7
:1083E000088B09ECFEEDFF890B7402650B600974C4
:1083F00010650B600302848CEE4F700302848CAC1A
:1084000018AD191205E5E9F50A600302848F7402BC
:108410001217F97401F0A3E4F074041217F974FF51
:10842000F0A3F074061217F9E50BF0F50C750D00CA
:10843000780C121A30EEFCEFFD74091217F9AA82BB
:10844000AB8312124B74021217C37402121813AAD0
:1084500008AB09120591E9F50A703474251217F971
:10846000E0F5087808121A347508FD7509027808D5
:10847000121A307907740512181374031217F912BF
:1084800087691205DF74031217C38003750A02A9F6
:108490000A741702867812059774010284BA74F779
:1084A00012181D12059D801574F712181DE9F508A4
:1084B0007808121A3479000284961217C37F0102D9
:1084C00018EF74F712181D1205A30284BD74F2127E
:1084D000181D74F61217AD8A0A8B0BECFEEDFFEE39
:1084E0002404129823121A30850882850983E0FC3F
:1084F0007D00790612070574021217C3740812175B
:10850000F912881874081217F912881E607E8E827C
:108510008F831291D7851882851983E8F0A3E91219
:10852000960812859D1217F91285951217F9740293
:10853000F074051217F9E4F074061217F97428F0B4
:10854000850882850983E0F50874071217F9E508A4
:10855000F07509007808121A30EE2405FCE43FFD9E
:10856000740A1217F912876912124B74021217C398
:10857000AC18AD19AA0AAB0B120231E9FE600F74F8
:10858000081217F91287691212D580027E13EEF9CC
:10859000740A028678E8F0A3E9F07404221291DBF1
:1085A00074022274F212181D74D31217ADEAFEEB96
:1085B000FF8C088D09890BAC18AD191205E5E9F59A
:1085C0000A6003028674E50B604185088285098391
:1085D00012859D1217F9E812960385088285098392
:1085E0001291D574041217F9E81296037406121743
:1085F000F97402F074071217F97403F07408121773
:10860000F97428F074021218138004AC08AD09EE56
:10861000FAEFFB120237E9F50AE50A7057750C15F7
:10862000750D00780C121A30AC08AD09741A1217C7
:10863000F9AA82AB8312124B74021217C374171279
:1086400017F9E50BF0743B1217F9E0F508780812FA
:108650001A347508157509037808121A30790974E7
:108660001A12181374031217F91287691205DF74AE
:10867000031217C3A90A742D1217C37F060218EF3D
:1086800074F412181D74FE1217ADEAFEEBFF8C088D
:108690008D09890BAC18AD191205E5E9F50A703A98
:1086A000AC08AD09EEFAEFFB12023DE9F50A702ABB
:1086B000E50BF5087808121A3475082D750903784A
:1086C00008121A30790B7C007D0074031217F9121E
:1086D00087691205DF74031217C30283C974F41289
:1086E000181D74FE1217ADEAFEEBFF8C088D098988
:1086F0000B8C828D83A3A3A3A3A3E070558C828DE2
:1087000083A3A3A3A3A3A3E07048AC18AD191205DB
:10871000E5E9F50A703FAC08AD09EEFAEFFB12028D
:108720004FE9F50A702FE50BF5087808121A347531
:10873000083F7509037808121A3079137C007D0010
:1087400074031217F91287691205DF74031217C335
:108750008003750A020283C91217C37F0A0218EF49
:10876000F0AC18AD198E828F83128B2C2274F0120C
:10877000181D74F91217ADEAFEEBFF8C088D0989FC
:108780000C890A750B00E4F50EF50F780E121A30FD
:10879000AC0AAD0B791612070574021217C37405E3
:1087A0001217F912881874051217F912881E605AE8
:1087B000851882851983E508F0A3E509F07417127E
:1087C00017F912859D1217F91285951217F9E50C04
:1087D000F0780A121A30741B1217F9128B0F7407F3
:1087E0001217F912876912124B74021217C3AC18D0
:1087F000AD19EEFAEFFB120255E9FE600F74051297
:1088000017F91287691212D580027E13EEF97407E8
:108810001217C37F080218EFEAF0A3EBF0221291BF
:10882000DBE8492274E812181D74EA1217AD8A08B1
:108830008B098C0A8D0B7E007F008C828D83E0700B
:1088400051A3858212858313E064016045EC240204
:10885000F514E4350BF515851482F583E0F8EC2466
:1088600005F510E4350BF511EC2403F50CE4350B9C
:10887000F50D742E1217F9E0F516A3E0F517741B29
:10888000686008741D68600302897B901B28E0F40F
:1088900070057906028AF1741D6870441205EB8A2E
:1088A0000E8B0FAE0EAF0FEE4F6035EE2407F50EB8
:1088B000E43FF50F850E82F583E0FC6023A2E750CC
:1088C0000302898A851482851583E0F9AA08AB0919
:1088D0001206F9850E82850F83E0D2E7F002898ABD
:1088E000A818A919880E890F780E121A30850C82E3
:1088F000850D83121A47851082851183128B0F858F
:108900001282851383E0FA850A82850B83E0F912CF
:10891000039374041217C3E9F50A6003028AEFA8EF
:1089200018A919880A890B780A121A30128AFB9042
:108930001B28E0F91206E174021217C3E9F50A6078
:1089400003028AEF74031217F912881E6008851655
:1089500082851783E4F0851482851583E0641D60A9
:1089600003028AEFEE4F7003028AEF8E828F83A399
:10897000A3A3A3A3A3A3741D028A2E1205EB8A0A44
:108980008B0BAE0AAF0BEE4F70057900028AF1EE49
:108990002402F50EE43FF50F851482851583E0F877
:1089A0007401686003028A32A818A919880A890B21
:1089B000780A121A30128B191202C774021217C3E6
:1089C000E9F50AE50A6003028AEF850E82850F83C6
:1089D000E0F8740568602B740768602674096860A5
:1089E00021740D68601C7411686017741768707CBE
:1089F0008E828F83A3A3A3A3A3A3A3A3A312881EE2
:108A0000606AA818A919880C890D780C121A30858B
:108A10001482851583E0F9EEFCEFFDAA08AB09127C
:108A200005B574021217C3E9851682851783F00213
:108A30008AEF850E82850F83E068702A8E828F838D
:108A4000A3A3A3128D17450B601CA818A91988129F
:108A500089137812121A30128B19850A82850B83BA
:108A600012181B0289BB750A04028AEF8E828F835B
:108A7000A3A3A3A3A3A3E0F50B9002D7E0650B602B
:108A80003DA818A919880C890D780C121A30128A81
:108A9000FBA90B1206E174021217C3E9F50A701E56
:108AA000851482851583E0F9AA18AB191206FF8B8D
:108AB0000DEA450D6008851682851783E4F0850E62
:108AC00082850F83E06403701F85188285198312E5
:108AD0001A478E828F83A3A3A3128B0AAA08AB091D
:108AE0001206F374021217C3EEFAEFFB1205F1A996
:108AF0000A74161217C37F100218EF8514828515A9
:108B000083E0FD7C00AA08AB0922A3A3A3A3A312C0
:108B10008B1322E0FCA3E0FD22850C82850D8312DD
:108B20008B13851082851183128B2C22E0FAA3E02F
:108B3000FB2274E812181D8A128B13ECFEEDFF89DC
:108B400008750E0174181217F9128D172403F51009
:108B5000E4350BF5111293AAEE2402F516E43FF565
:108B600017851682F583E024FB601D24FE604824EF
:108B7000FE605124FC605A24FC7003028CBE24FA6F
:108B80007003028CCC028C43AC0AAD0BEEFAEFFB07
:108B90001205BBE9F509E5096003028C467401651D
:108BA000086003028C46851082851183E0640A60A8
:108BB00003028C55028C90AC0AAD0BEEFAEFFB125F
:108BC00005C180CFAC0AAD0BEEFAEFFB1205C780F2
:108BD000C2128E53740D6508705188828983E00437
:108BE000F01287651203B1850A82850B83E0F8EAEB
:108BF00024FF1A128D0D4045850C82850D83A3A399
:108C0000E028F0A3E03400F0AC0CAD0D1287651243
:108C100002439082541216838E828F83A3A3A3A350
:108C2000A3E0F91212F9750916802A8510828511C0
:108C300083E06407700D88828983E060067509000F
:108C4000028B9D750901740965087009850A828582
:108C50000B83E06037780A121A30AD087C00AA1244
:108C6000AB138E828F83A3A3A3A3A3A3E0F9120661
:108C7000E174021217C3E97013A908AA0AAB0B1218
:108C800006FF8B0BEA450B6003750E00E509706B60
:108C9000E4F50AF50B780A121A30851682851783D7
:108CA000E0FD7C1AAA12AB138E828F83A3A3A3A329
:108CB000A3A3E0F91206E174021217C38043AC0AC1
:108CC000AD0BEEFAEFFB1205CD028B93850C82857E
:108CD0000D83E06401AC0AAD0B7009EEFAEFFB12F4
:108CE00005D98007EEFAEFFB1205D3E9F509740107
:108CF00065097003028C467901800F74166509605E
:108D000007EEFAEFFB1205F1A90E028AF6EB34FF2B
:108D1000FBC3E89AE49B22E0F50AA3E0F50BE50A21
:108D20002274F412181DEAFEEBFF8908ECF8EDF945
:108D3000EE241EFAE43FFB74056508707A128E4B30
:108D40008A828B83E004F0E82402FAE439FB88820B
:108D50008983A3E0640188828983700F128E5B127D
:108D6000179A8A828B83128E838020E075F012A47A
:108D7000F885F009A9098A828B8312955424EEF5AF
:108D800082E934FFF583E0FAE824EF128E66503E64
:108D9000E824015001091295FF12876512022B90F9
:108DA00082541216838E828F83A3A3A3A3A3E0F918
:108DB0001212F97916801988828983A3A3A3E0642B
:108DC0000A70078A828B83E070047901800279003F
:108DD0000283D074F412181DEAFEEBFF8908ECFA46
:108DE000EDFB128E53740765087044128E4B888217
:108DF0008983E004F08A828B83128E5B12179AA318
:108E0000128E83128E66503EE8240150010912959D
:108E1000FF1287651205919082541216838E828FFD
:108E200083A3A3A3A3A3E0F91212F9791680198AE8
:108E3000828B83A3A3A3E0640A700788828983E0FE
:108E400070047901800279000283D0EE2408FCE4EA
:108E50003FFD22EE241EF8E43FF922E0F50A750BEF
:108E6000007402780A22F582E934FFF583E0F8E421
:108E7000C8F9EA28F88C828D83A3A3128B2CE89A78
:108E8000E99B22E0250AF8A3E0350BF9E824FCF57C
:108E900082E934FFF583E0FAE824FD2274E8121831
:108EA0001D74E81217AD74011217F9128818E985BC
:108EB0001882851983F0ECFEEDFF74011217F9E0BA
:108EC0002408F510A3E03400F511E5102406F5148C
:108ED000E43511F515E5102405F516E43511F517FF
:108EE00074011217F9E0241EF508A3E03400F50917
:108EF0008E828F83A385820C85830D8518828519C8
:108F000083E0640960030290091291BD14A4F885FE
:108F10000882850983E004129608E028129280E016
:108F2000FAA3E0F8E4C8F9EA28F508E439F5098578
:108F30001082851183E064016003029104750F00C3
:108F40001291BDA4851882851983F08E828F83E4E7
:108F5000F0750E00851882851983E0F8E50EC39838
:108F60004003029104850E0A850C82850D83E0245E
:108F7000FBF512E434FFF5137812121A308E828F4B
:108F800083A3A3E0250AF8A3E034008882F583A335
:108F9000A3A3A3A38582128583137812121A3085A6
:108FA0001682851783E0FC7D00AA14AB1512039F7F
:108FB00074041217C3E96043E50F650E602B8E82BF
:108FC0008F83A3A3129766E0F5127513007812122F
:108FD0001A30EA250AFCE43BFDA80FEA28FAE43B34
:108FE000FB12124B74021217C3850C82850D83E0AD
:108FF000250FF50F8E828F83E004F0850C82850D9E
:1090000083E0250EF50E028F54EE2403FE50010F6F
:109010008E828F83E0640A700C850882850983E064
:1090200060030291B6851682851783E0F50A750BF9
:1090300000780A121A307814121A307C027D007AF5
:10904000FC7B8212039F74041217C3E96003029130
:1090500088851682851783E0F50A780A121A307817
:1090600014121A307C027D007AFA7B8212039F74FC
:10907000041217C3E960030291888516828517835D
:10908000E0F50A780A121A307814121A307C027D40
:10909000007AF87B8212039F74041217C3E96003FD
:1090A000029188851682851783E0F50A780A121ADC
:1090B000307814121A307C027D007A047B8312030C
:1090C0009F74041217C3E960030291888E828F8314
:1090D000E0F87402686017740568601274086860CC
:1090E0000D740F686008740C68600302918885082D
:1090F00082850983E004F0850C82850D83E0F50804
:10910000A3E0F50974FF6508700474FF6509700336
:109110000291B6E5102403F8E43511F988828983B9
:10912000128769C3E5089AE5099B40030291B6E5F9
:10913000082401FAE43509FB851082851183A3AC6C
:1091400082AD83128818851082851183E0640170D6
:109150003B74031217F9128818888289831291D7F9
:1091600074051217F9E812960374071217F97402BE
:10917000F074081217F97403F074091217F97428BF
:10918000F0740312181380047901802C74011217F3
:10919000F91291CC12876912023790825412168309
:1091A00074011217F91291CCA3A3A3A3A3E0F9129F
:1091B00012F97916800279007418028AF3850C82FC
:1091C000850D83E0F5F08E828F83E022E0F8A3E046
:1091D000F583888222A3A31291DB22E0F8A3E0F9B1
:1091E0002274F712181DEAFEEBFF8908128E5374E1
:1091F0001165088C828D83A3703BE0F5F08C828D25
:1092000083E014A4FA88828983E004F08C828D8341
:10921000A3A3E02A129280A3A3E0FA88828983A301
:10922000A3A3E0F9EAF874FF68700374FF6970178C
:1092300079000284BDA3A3E0640A70078882898351
:10924000E070ED790180EB128E4BE82401085001AB
:10925000091295FF8C828D83A3A3C3E098A3E099A4
:1092600040CE1287651202499082541216838E8274
:109270008F83A3A3A3A3A3E0F91212F9791680B2F6
:10928000F8A3E03400F9888289832274EE12181D55
:1092900074FF1217ADEAFEEBFF890A12991D7417CD
:1092A000650A60030293781293AA1287651203B1CC
:1092B000E50C2408F8E4350DF9EA24FBFCEB34FF57
:1092C000FD88828983E02CF0A3E03DF088828983C9
:1092D000E0F50EA3E0F50F850C82850D83A31291B6
:1092E000D5E50EC398FCE50F99FD850C82850D83AD
:1092F000A3A3A3A3A3E0F50BF8C3EC98ED9400504F
:109300006DEA24FBF510EB34FFF511E8C39CF8E49B
:109310009DF9C3E51098E511995005EA24FB8006F4
:10932000ECF8E50BC398F9850C82850D83A3A3A304
:10933000A3A3A3E02CF510A3E03DF5117810121AB9
:1093400030780E121A30850C82850D83A312956534
:109350001205A974041217C3E9701D9082541216E5
:1093600083850882850983E0F91212F98035851812
:109370008285198374018007851882851983E41218
:10938000876012025B7401650A700479018016908F
:109390008254121683850882850983E0F91212F936
:1093A00012953C79167401028758EE2408F50CE4F6
:1093B0003FF50D2274EC12181D74FF1217ADEAFE72
:1093C000EBFF890CEE2408F508E43FF509EE2405CF
:1093D000F510E43FF5117417650C6003029505E57F
:1093E000082404F50AE43509F50B8508828509830C
:1093F000A385820E85830F850A82F583E075F007C9
:10940000A4F8A9F0850E82850F83129554FAE9FB22
:109410008A828B8312955DE0687003A3E069600324
:109420000295058A828B83A3A312955DA3A3E068AE
:109430007003A3E06960030295058C828D83A3A36A
:10944000A3A3E0F5128A828B83A3A3A3A3E06512F2
:1094500060030295057513007812121A308C828D04
:1094600083128B0A8A828B83A3A3A3A3A312876987
:1094700012125D74021217C3E97003029505850A82
:1094800082850B83E004F0F8850882850983A3A315
:10949000A3E0F9E8C3995059E875F007A4F8A9F0DA
:1094A000850E82850F83E028FAA3E039FB8A828B40
:1094B00083A3A3A3A3A3121A478A828B83A3A31215
:1094C0001A478A828B83A3A3A3A3E0F98A828B83A2
:1094D0001295651205A974041217C3E970279082CA
:1094E00054121683851082851183E0F91212F980D7
:1094F0003F850882850983A3A3A3A3A3E0851882DF
:109500008519838007851882851983E41287601284
:10951000025B7401650C700479018016908254120C
:109520001683851082851183E0F91212F912953C99
:10953000791674011217C37F0C0218EF8E828F8385
:10954000A3A37419F08E828F83A3A3A37487F0A3BF
:109550007403F022E028F8A3E039F9E8221291DB45
:109560008C828D8322128B138E828F83128B2C22FE
:1095700074F212181DEAFEEBFF8C088D09890B743A
:10958000101217F9E0F50A74FF650A606FEE240502
:10959000F50CE43FF50D780C121A30750C1E750DA4
:1095A00000780C121A30EEFCEFFD7AFD7B051206F6
:1095B000E774041217C38E828F83A3A3A3A3A3A36C
:1095C000E50A129608E50BF0740E1217F91291D7FE
:1095D0008E828F83A3A3A3E8129603E50845096052
:1095E0001B750C16780C121A30AC08AD09EE240865
:1095F000FAE43FFB12124B74021217C302867B8CF3
:10960000828D83F0A3E9F022F08E828F83A3A322C0
:1096100074F612181DECFEEDFF1205EB8A088B099B
:10962000A808A909E849602DEE4F60088E828F8353
:10963000E812960388828983A3A3A3A3A3E0F87406
:10964000FE6870047917800F74FF687004790080D9
:109650000679168002790280007F020218EFC0822C
:10966000C0837C0080010C9002D6E0F8ECC39850D7
:1096700025EC75F01FA4F8A9F09002D0E028F8A31B
:10968000E039F988828983E06A7003A3E06B70D6C1
:10969000E8FAE9FB80047A007B000283C274EF12CF
:1096A000181DEAFEEBFFEE2405FAE43FFB1206ED7F
:1096B000EE2402129816F8EE2408F50EE43FF50F9A
:1096C00074176860057419687070850E0C850F0D2D
:1096D000850C82850D83E06401704CA3858208852A
:1096E000830912881E60537510008022E51075F002
:1096F00007A4F8A9F0EA28F582EB39F583A3A3A320
:10970000A3A3128769EA4B60031212D505108508DE
:1097100082850983129766A3A3A3E0F8E510C39896
:1097200040CA1213238013EE240EF582E43FF58322
:10973000128769EA4B60031212D5850A82850B8372
:10974000E4129608A3A3A3A374FFF0EE241EF582EF
:10975000E43FF583E4F07C16FDF9AA0EAB0F12127C
:10976000637F090218EF128B2C850C82850D8322F2
:1097700074F612181DE9FE1205EB8A088B09A80879
:10978000A909E849601BE82407F582E439F583EE6E
:10979000F8E07B00240150010B684B7004E054801A
:1097A000F002965974F212181D74FF1217ADEAFEFA
:1097B000EBFFEE4F605BEE2405129816F46052EE5C
:1097C0002402129823121A30850882850983E0FD4D
:1097D0007C171287658E828F83A3A3A3A3A3A3E024
:1097E000F91206E174021217C3850882850983E025
:1097F0006418700D851882851983E412876012023F
:109800005B850A82850B8374FEF0EEFAEFFB12058E
:10981000F17401028678F50AE43FF50B850A82F5BA
:1098200083E022F508E43FF509E4F50CF50D780C2A
:109830002274F012181D8A0A8B0B890C74FE650ABB
:10984000700474FF650B700302991AE9702B1205FE
:10985000EB8B09EA4509701E7AFF7BFF1205EB8A44
:10986000088B09AE08AF09EE4F600B8E828F83E53F
:109870000AF0A3E50BF002991A7401650C701D1231
:1098800005EB8A088B09AE08AF09EE4F7003029909
:109890001A8E828F8374FFF0A3F080217402650C0E
:1098A000707879011209A5E97070AA0AAB0B12054C
:1098B000EB8A088B09AE08AF09EE4F605D12991D67
:1098C000850882F583E0F874FF68604174FE686083
:1098D0002CE4F50EF50F780E121A308E828F83A3CA
:1098E000A3E0FD7C14AA0AAB0B8E828F83A3A3A3F3
:1098F000A3A3A3E0F91206E174021217C3EEFAEF74
:10990000FB1205F185088285098374FFF08E828F32
:1099100083A3A3A3A3A3A3A3E4F0028813EE2405C7
:10992000F508E43FF50922C082C0837852790788A0
:10993000828983A3E412A51074FFF0E8241CF85078
:10994000010964DE7003E9640770E490074F74FF57
:10995000F090074EE4F090074DF0900750F0A3020E
:10996000AACE74F012181D900750E0F508A3E0F598
:1099700009E50845097006120AA702A32685088290
:10998000850983E014601814601524FE601124C456
:109990007003029F7424C07003029F7402A326E028
:1099A000F9120C758A0A8B0BAE0AAF0B900396E086
:1099B0007003029C93120B5512A36AF50AA3E0F5FB
:1099C0000BAC0AFDEEFAEFFB120C6FE9F50E740218
:1099D000650E7003029C568E828F83E024FE600A1F
:1099E00024FE7003029B7502A326EE65087003EF48
:1099F00065096021120ACB9006DBE06401701690C5
:109A000006DAE070107901120DA7120D77120DA180
:109A10007900120DADE50E600F12A345600A12A683
:109A2000137003A3E0697026120CFF8A0C8B0D8C57
:109A30000E8D0F9082A0780C1215CB9082C4780CFA
:109A400012162C8E828F83A3A3780C12167412A385
:109A50004564017076850A82850B83A3A3780C1276
:109A60001665908290780C1215CB780C121A2C8EF9
:109A7000828F83A3A3C082C08312A393D083D0829A
:109A8000780C1215CBAA0CAB0DAC0EAD0F1225E65F
:109A900074041217C3E970138E828F83A3A3C0824C
:109AA000C08312A3A6D083D0828010850A82850B42
:109AB00083A3A3780812166590829078081215CBBC
:109AC0009082C4780812162C029EB312A501121AB5
:109AD000438E828F83A3A31216831225E674041289
:109AE00017C3E96401600302A285850A82850B839E
:109AF000A3A3780C121665908290780C1215CB787F
:109B00000C121A2C8E828F83A3A3C082C08312A34F
:109B100093D083D082780C1215CBAA0CAB0DAC0E6F
:109B2000AD0F1225E674041217C3E970138E828FED
:109B300083A3A3C082C08312A3A6D083D082801047
:109B4000850A82850B83A3A37808121665908290FC
:109B500078081215CB9082C4780812162C12A352E2
:109B60001216749006DEE06427700474258002E00B
:109B700004F002A285EE65087003EF65096031907C
:109B800006F2E0F9120AD1850882850983E06402B1
:109B9000701E9006DBE0640170169006DAE070102B
:109BA0007900120DA7120D77120DA17901120DADDA
:109BB000E50E600D9006EC12A6167003A3E0697026
:109BC00026120CFF8A0C8B0D8C0E8D0F9082A078C4
:109BD0000C1215CB9082C4780C12162C8E828F83B7
:109BE000A3A3780C121674850A82850B83A3A3782D
:109BF0000C121665908290780C1215CB780C121A04
:109C00002C8E828F83A3A3C082C0839006EE12A302
:109C100096D083D082780C1215CBAA0CAB0DAC0E6B
:109C2000AD0F1225E674041217C3E970168E828FE9
:109C300083A3A3C082C0839006EE12A3A9D083D0D1
:109C4000828010850A82850B83A3A378081216658B
:109C500090829002A163850882850983E064027086
:109C6000139006DBE06401700B9006DAE070057972
:109C700000120DA712A335120CB78E828F83E0FA63
:109C8000900397F0790212A358121E44AA0AAB0B54
:109C900002A323EE65087003EF65098E828F83604F
:109CA00003029E0EE024FE600A24FE7003029D87DC
:109CB00002A31F12A4FC603912A6137003A3E0696B
:109CC000602F120CFF8A088B098C0A8D0B9082681A
:109CD00078081215CB7808121A2C8E828F83A3A3D2
:109CE0001216831225E674041217C3E9600302A357
:109CF0001F120CFF8A088B098C0A8D0B9082A078AA
:109D0000081215CB9082C4780812162C8E828F838D
:109D1000A3A3780812167412A4F6701F8E828F8384
:109D2000A3A3C082C08312A3A6D083D082780812D6
:109D300015CB12A35212167402A31F12A501121AF8
:109D4000438E828F83A3A31216831225E674041216
:109D500017C3E96401600302A31F8E828F83A3A34C
:109D6000C082C08312A3A6D083D08278081215CBFC
:109D700012A3521216749006DEE064277004742554
:109D80008002E00402A31E9006EC12A6167003A344
:109D9000E069602C120CFF8A088B098C0A8D0B90ED
:109DA000826878081215CB7808121A2C8E828F835D
:109DB000A3A31216831225E674041217C3E9704B8D
:109DC00012A32B120CFF8A0C8B0D8C0E8D0F908220
:109DD000A0780C1215CB9082C4780C12162C850832
:109DE00082850983780C121674850882850983C0E0
:109DF00082C0839006EE12A3A9D083D08278081285
:109E000015CB12A352121674120AD702A31FE02414
:109E1000FE600A24FE7003029EBC02A326120ACB37
:109E20009006DBE0640170169006DAE070107901AC
:109E3000120DA7120D77120DA17900120DAD12A609
:109E4000137003A3E069602C120CFF8A088B098C45
:109E50000A8D0B90826878081215CB7808121A2C9C
:109E60008E828F83A3A31216831225E67404121721
:109E7000C3E9704512A32B120CFF8A0C8B0D8C0EBC
:109E80008D0F9082A0780C1215CB9082C4780C12A2
:109E9000162C850882850983780C12167485088231
:109EA000850983C082C08312A3A6D083D08278089C
:109EB0001215CB12A35212167402A2859006F2E07C
:109EC000F9120AD1850882850983E06402701E9028
:109ED00006DBE0640170169006DAE070107900127B
:109EE0000DA7120D77120DA17901120DAD9006ECA0
:109EF00012A6167003A3E069602C120CFF8A088B6F
:109F0000098C0A8D0B90826878081215CB7808129C
:109F10001A2C8E828F83A3A31216831225E6740453
:109F20001217C3E9704B12A4EA120CFF8A0C8B0DB6
:109F30008C0E8D0F9082A0780C1215CB9082C47875
:109F40000C12162C850882850983780C12167485EC
:109F50000882850983C082C0839006EE12A3A9D02F
:109F600083D08278081215CB12A352121674120AEB
:109F7000D702A319900396E0700302A1BD120B55FE
:109F800012A36AF508A3E0F509900397E0F875F0CD
:109F90000DA4C8AAF02AF9749928F50A740339F5B2
:109FA0000B90074EE05407700302A173A3E0F9126F
:109FB0000C758A0E8B0FAE0EAF0FAC08AD09120CEC
:109FC0006FE9F50E7402650E700302A173850A82B3
:109FD000850B83A3A3A3A3E0F9120CB18E828F8318
:109FE000E024FE600A24FE700302A0B802A17312EE
:109FF0000ACB9006DBE0640170119006DAE0700B8A
:10A00000120D77120DA17900120DADE50E600A1246
:10A01000A6137003A3E0697026120CFF8A0C8B0D47
:10A020008C0E8D0F9082A0780C1215CB9082C47884
:10A030000C12162C8E828F83A3A3780C12167485B3
:10A040000882850983A3A3780C1216659082907804
:10A050000C1215CB780C121A2C8E828F83A3A3C0FE
:10A0600082C0839006D812A386D083D082780C1247
:10A0700015CBAA0CAB0DAC0EAD0F1225E674041275
:10A0800017C3E970138E828F83A3A3C082C083128B
:10A09000A3A6D083D0828010850882850983A3A3DC
:10A0A000780812166590829078081215CB9082C4B9
:10A0B000780812162C02A27F9006F2E0F9120AD15B
:10A0C000E50E600D9006EC12A6167003A3E0697011
:10A0D00026120CFF8A0C8B0D8C0E8D0F9082A078AF
:10A0E0000C1215CB9082C4780C12162C8E828F83A2
:10A0F000A3A3780C121674850882850983A3A3781C
:10A100000C121665908290780C1215CB780C121AEE
:10A110002C8E828F83A3A3C082C0839006EE12A3ED
:10A1200086D083D082780C1215CBAA0CAB0DAC0E66
:10A13000AD0F1225E674041217C3E970168E828FD4
:10A1400083A3A3C082C0839006EE12A3A9D083D0BC
:10A15000828010850882850983A3A378081216657A
:10A1600090829078081215CB9082C4780812162C31
:10A1700002A310E50C650A7004E50D650B602A85E5
:10A180000A82850B83A3A3A3E0600F850A82850B57
:10A1900083A3A3A3A3E0F9120CB112A335120CB749
:10A1A0008E828F83E0900397F07902900397E0FA14
:10A1B00012A358121E44AA08AB0902A32390074E0B
:10A1C000E05407700302A326A3E0F9120C758A0875
:10A1D0008B09AE08AF098E828F83E024FE600A24CB
:10A1E000FE700302A28D02A326120ACB9006DBE0CA
:10A1F000640170169006DAE070107901120DA71252
:10A200000D77120DA17900120DAD12A6137003A3E4
:10A21000E069602C120CFF8A088B098C0A8D0B9068
:10A22000826878081215CB7808121A2C8E828F83D8
:10A23000A3A31216831225E674041217C3E970450E
:10A2400012A32B120CFF8A0C8B0D8C0E8D0F90829B
:10A25000A0780C1215CB9082C4780C12162C8508AD
:10A2600082850983780C121674850882850983C05B
:10A2700082C08312A3A6D083D08278081215CB1295
:10A28000A35212167490074F740202A31E9006F296
:10A29000E0F9120AD19006EC12A6167003A3E06949
:10A2A000602C120CFF8A088B098C0A8D0B90826837
:10A2B00078081215CB7808121A2C8E828F83A3A3EC
:10A2C0001216831225E674041217C3E9704812A40B
:10A2D000EA120CFF8A0C8B0D8C0E8D0F9082A078E9
:10A2E0000C1215CB9082C4780C12162C850882852E
:10A2F0000983780C121674850882850983C082C090
:10A30000839006EE12A3A9D083D08278081215CBD1
:10A3100012A352121674120AD790074F7404F0EE6B
:10A32000FAEFFB120C697F080218EFEE2402F50821
:10A33000E43FF50922E50C2404FEE4350DFF8E828E
:10A340008F83E0F922E5082415F582E43509F583C9
:10A35000E02212A50578082275F00DA4CAA8F028FD
:10A36000FB74992AFA74033BFB22E9F875F00DA4FB
:10A37000C8AAF02AF9749928F50C740339F50D85EB
:10A380000C82F583E022E0F50CA3E0F50DE4F50E78
:10A39000F50F229006D8E0F508A3E085080CF50D2E
:10A3A000E4F50EF50F229006D8E0F508A3E0F509D4
:10A3B000E4F50AF50B2274F012181DEAFEEBFF1209
:10A3C000A4EAEE2406F8E43FF9880A890B8882F5AE
:10A3D00083121A47850882850983121683120CDBC3
:10A3E00074021217C3850A82850B83121A478508E7
:10A3F00082850983121683120CCF74021217C312BE
:10A40000A501121683120CE18E828F83E0644070E6
:10A4100019EE2412F8E43FF988828983E0906064A1
:10A4200012A510A3E09060658006906064E4F0A33C
:10A43000F0900750EEF0A3EF12AA7F12AEEE1218C2
:10A440001B906054E412A516A312A516906182E039
:10A45000C2E6F07591BF12A4F67003120D1DE5E17E
:10A4600070FC12AA65E0F46003E0F5E112AA6FF057
:10A4700090036FE06401706F120CFF8A088B098CE7
:10A480000A8D0B7808121A2C8E828F83A3A31216C2
:10A490008312264274041217C38A088B098C0A8D12
:10A4A0000B90828C780C1216657808790C12149136
:10A4B00074037808121580E50824F4F508E50934DA
:10A4C00001F5099006F8E0600312130BE4F50AF5B4
:10A4D0000B7808121A2C7A207B00900368E0F9129E
:10A4E00013B974041217C302A326EE2402F8E43F42
:10A4F000F9880889092212A4FC64012212AA75E0D5
:10A500002212A50522EE240EF582E43FF58322A354
:10A51000F08882898322F0A3F0A3F0A3F0A3F0A334
:10A52000F02274EC12181DEAFEEBFF8C088D09EE88
:10A530004F700302A60C120CFF8A0C8B0D8C0E8D33
:10A540000F90829C780C1215CB9082C4780C121656
:10A550002C8E828F83E06402700C12A6137003A30A
:10A56000E069701F8012E0640470189006EC12A677
:10A57000167003A3E069700B8E828F83A3A3780CFF
:10A58000121674908288C082C083780C121A2C85AF
:10A590000882850983A3A31216831226427404122B
:10A5A00017C38A108B118C128D13D083D082781030
:10A5B0001214725057850882850983A3A378081264
:10A5C00016659082D478081215CB7808121A2C8E52
:10A5D000828F83A3A31216831225E674041217C375
:10A5E000E97029908284780C1215CB780C121A2C01
:10A5F0008E828F83A3A31216831225E6740412178A
:10A60000C3E97004790080067901800279027F0C29
:10A610000218EF9006D6E0F8A3E0F9A3E0682274F0
:10A62000F012181D890874FF6508600302A6E59002
:10A63000074EE05407700302A9797904120C8DE9E2
:10A640006401702F7A007852790788828983E064E8
:10A65000047006A3E0640160150AE8241CF85001A8
:10A6600009EAC3940540E37A007B0002A97D12A9A0
:10A670008080F87901120C8DE96401702F7A0078DE
:10A6800052790788828983E064017006A3E064013F
:10A6900060150AE8241CF8500109EAC3940540E358
:10A6A0007A007B0002A97D12A98080F87902120C41
:10A6B0008DE96401702F7A00785279078882898346
:10A6C000E064027006A3E0640160150AE8241CF847
:10A6D000500109EAC3940540E37A007B0002A97D9A
:10A6E00012A98080F87A007852790788828983E0FD
:10A6F00065087006A3E0640160210AE8241CF85094
:10A700000109EAC3940540E37E007F00A908120C0A
:10A710008DE9640170177509018015EA75F01CA4B4
:10A72000F8A9F0745228FE740739FF80DF7509001C
:10A73000E50814601014700302A80924FE700302D7
:10A74000A88A02A9797902120C8DE96401706C7AE9
:10A75000007852790788828983E064027006A3E05A
:10A76000640160520AE8241CF8500109EAC3940508
:10A7700040E3750A00750B00E509A2E05031850A37
:10A7800082850B83A3A3780C12166590825C780CEB
:10A790001215CB780C121A2C8E828F83A3A312165B
:10A7A000831225E674041217C3E9700302A973AA81
:10A7B0000AAB0B02A97D12A99180BD7904120C8D00
:10A7C000E9640170317A007852790788828983E0E0
:10A7D00064047006A3E0640160170AE8241CF850C2
:10A7E0000109EAC3940540E3750A00750B0002A84D
:10A7F000BD12A99180F8E509A2E05006EEFAEFFB40
:10A8000080047A007B0002A97D7904120C8DE96432
:10A810000170307A007852790788828983E0640475
:10A820007006A3E0640160160AE8241CF8500109D0
:10A83000EAC3940540E3750A00750B00807F12A9F6
:10A8400091807A7901120C8DE96401702A7A00787E
:10A8500052790788828983E064017006A3E064016D
:10A8600060100AE8241CF8500109EAC3940540E38B
:10A87000804512A9918046E509A2E05006EEFAEF64
:10A88000FB80047A007B0002A97D7901120C8DE91E
:10A89000640170657A007852790788828983E06460
:10A8A000017006A3E0640160C90AE8241CF85001A5
:10A8B00009EAC3940540E3750A00750B00E509A297
:10A8C000E0400302A7AF850A82850B83A3A3780C1F
:10A8D00012166590825C780C1215CB780C121A2C2B
:10A8E0008E828F83A3A31216831225E67404121797
:10A8F000C3E9600302A7AF807A7902120C8DE96484
:10A9000001706A7A007852790788828983E064024C
:10A910007006A3E0640160500AE8241CF8500109A5
:10A92000EAC3940540E3750A00750B00E509A2E04F
:10A93000400302A7AF850A82850B83A3A3780C127C
:10A94000166590825C780C1215CB780C121A2C8E3E
:10A95000828F83A3A31216831225E674041217C3F1
:10A96000E9600302A7AF800B12A99180BFE509A29D
:10A97000E05006EEFAEFFB80047A007B0002A3268B
:10A98000EA75F01CA4F8A9F0745228FA740739FB90
:10A9900022EA75F01CA4F8A9F0745228F50A74078D
:10A9A00039F50B2274F712181D89087A007E527F40
:10A9B000078E828F83A3E0600302AA4B8E828F836F
:10A9C000E0F46010900750E0F8A3E0F9EE68700240
:10A9D000EF6960778E828F83E508F0120CFFEAF84A
:10A9E000EBF9ECFAEDFB8E828F83A3A31216A78EF0
:10A9F000828F83A3A3A3A3A3A3E4F0A3F012A501D2
:10AA000074FFF0A3F0A3F0A3F012AA657401F01292
:10AA1000AA6F12AA7FE4F0A3F08E828F83A304F0C2
:10AA200090074EE04508F090074DE004F0640160A7
:10AA30000C748065086006744065087008900750C3
:10AA4000EEF0A3EFF0EEFAEFFB80150AEE241CFE09
:10AA500050010FEAC39405500302A9B17A007B00AC
:10AA60007F010218EFEE2414F582E43FF5832212F1
:10AA7000AA75740122EE2415F582E43FF58322F0D5
:10AA8000EE241AF582E43FF58322C082C0838A82D5
:10AA90008B83E0F8A3E0F98A828B83E4F012A50FA0
:10AAA00012A50FE0F4F890074EE058F090074DE043
:10AAB00014F07014900750E4F0A3F0900369F0FADA
:10AAC000900368E0F91213358005ED9061C6F0D06F
:10AAD00083D082020132C082C08390074DE0600AB9
:10AAE000900750E0FAA3E0FB80047A007B0080DF4F
:10AAF000C082C083E9FB7800758252758307E06BE2
:10AB00007016E875F01CA4F8A9F0745328F5827447
:10AB10000739F583E0F9801308E582241CF582509B
:10AB2000020583E8C3940540D5790080A2E0F9804E
:10AB30009EC082C08390074D80F374F712181DEAFF
:10AB4000FEEBFF9061D0E0C0E0EE240012AC81D0BB
:10AB5000E0F09061D7E0F89061D512ACB4C0E0129B
:10AB6000ABD1D0E0F09061D612ACB4F812ABD8E81B
:10AB7000F070109061C5E0A2E45008E0A2E7500335
:10AB800012ABE3120DD112ABD1E0701C12ABD8E0C6
:10AB900070169061C5E0A2E4500EE0A2E7500912E1
:10ABA000ABE312ABD17480F075E1957A008014901C
:10ABB00061D3E0C0E0EAF8EE28F582E43FF583D007
:10ABC000E0F00AEE240012AC9B40E475E19102AA89
:10ABD00060EE240112AC932212ABDC22EE240212AE
:10ABE000AC932212ABDC7480F02274F712181DEAC9
:10ABF000FEEBFF9061C8E0C0E0EE240312AC81D010
:10AC0000E0F09061CFE0F89061CD12ACB4C0E012FA
:10AC1000ACADD0E0F09061CE12ACB4F812AC88E8E4
:10AC2000F070109061C5E0A2E05008E0A2E350038C
:10AC300012ACA6120DD712ACADE0701C12AC88E0BD
:10AC400070169061C5E0A2E0500EE0A2E350091238
:10AC5000ACA612ACAD7480F0120DDD7A00801490B9
:10AC600061CBE0C0E0EAF8EE28F8E43F12AD48D04E
:10AC7000E0F00AEE240312AC9B40E475E18102AAE5
:10AC800060F582EF12AC962212AC8C22EE240512F3
:10AC9000AC9322F582EF3401F58322F582EF12ADF9
:10ACA0005AF8EAC3982212AC8C7480F022EE240485
:10ACB00012AC9322E0C398547F22C082C08390617B
:10ACC000C6E0FDE0540FF075E1917C008010ECF8D7
:10ACD000EA28F582E43BF583E09061D2F00CEA24A7
:10ACE0000012AD5F40E8EA240212AD5360049061A7
:10ACF000D6F0EA240112AD5360049061D5F002AAA7
:10AD0000CAC082C0839061C6E0FDE054F0F075E1F6
:10AD1000817C008010ECF8EA28F8E43B12AD48E0B2
:10AD20009061CAF00CEA240312AD5F40E8EA240502
:10AD300012AD5360049061CEF0EA240412AD53606A
:10AD4000049061CDF002AACAF9E82480F582E439C2
:10AD5000F5832212AD5722F582EB12AC96E0221257
:10AD6000AD57F8ECC3982274F412181D12AED3122A
:10AD70000C9FEEFAEFFB120C99750A80750B0078A8
:10AD80000A121A307C007D60EE2406FAEF3401FBD3
:10AD9000120BC774021217C3906195E0C0E0EE2455
:10ADA0008612AC81D0E0F0906196E0C0E0EE24879E
:10ADB00012AC81D0E0F0906197E0C0E0EE24881200
:10ADC000AC81D0E0F0906198E0C0E0EE248912AC54
:10ADD00081D0E0F07F040218EF74F212181D12AE59
:10ADE000D3120CABEEFAEFFB120CA5750C09750D26
:10ADF00000780C121A30EE2406FCEF3401FD7A00C4
:10AE00007B60120BC774021217C3750C18780C12F2
:10AE10001A30EE2410FCEF3401FD7A0A7B60120B2D
:10AE2000C774021217C3750C2C780C121A30EE245A
:10AE30005AFCEF3401FD7A547B60120BC774021286
:10AE400017C3EE2486F582EF12AECBEE2487F5828F
:10AE5000EF12AEC3EE2488F582EF12AEBBEE24896A
:10AE6000F582EF12AEB4F0E50875F00DA4C508A8A0
:10AE7000F028F50974992508F58274033509F583DE
:10AE800012AEEEE064807017901B5012AF0812AF44
:10AE9000087427F0A3740CF090036974088005907F
:10AEA00003697407F0901B5E12AEF7A312AEF77F32
:10AEB000060218EF12AD5A9061982212AD5A9061B5
:10AEC00097F02212AD5A906196F02212AD5A90611D
:10AED00095F0228908A808E875F08AA4C8AAF02A83
:10AEE000F974DE28FE740739FFEEFAEFFB22E0F872
:10AEF000A3E0F5838882227409F0A3740C12AF1AC0
:10AF00007409F0A3740CF0227421F0A3740C12AF36
:10AF10001A7421F0A3740CF0A322F0A37409F0A317
:10AF2000740CF0A32274F012181D74FA1217AD8974
:10AF300009ECFEEDFF7508008A0A8B0B780A121ADD
:10AF40007400041062B168AF86AFA0AFB8AFD6AFDF
:10AF5000EEAF11B029B03DB067B0E2B0F3B00AB1C6
:10AF600024B162B145B17DB074016509600302B1DD
:10AF70005D8E828F83E0F8C39403400302B15DE8E5
:10AF8000901B7002B15A74026509600302B15D8EB4
:10AF9000828F8312B951901B71E8F0A3E902B15A74
:10AFA00074016509600302B15D12B18F400302B103
:10AFB0005DE8900CCF02B15A74016509600302B1DB
:10AFC0005D8E828F83E0F8C39405400302B15DE893
:10AFD000900CD002B15A74016509600302B15D1290
:10AFE000B18F400302B15DE8900CD102B15A7410E8
:10AFF0006509600302B15D750A10750B00780A12CD
:10B000001A307AD27B0C12124B74021217C302B19F
:10B010008374016509600302B15D12B18F400302C0
:10B02000B15DE8900CE202B15A7401650960030257
:10B03000B15D8E828F83E0901B7402B15A740465F7
:10B0400009600302B15D8E828F83780C12166590C1
:10B0500082D0780C121472500302B15D900CE47827
:10B060000C12167402B183E9600302B15D1205315E
:10B07000E970051210BF8055900D778061740765E7
:10B0800009600302B15D750A06750B00780A121A91
:10B09000308E828F83A3AC82AD83740212180B12A0
:10B0A000125174021217C37C007D00AA18AB198ECE
:10B0B000828F83E0F912105FE9FEC3940A40030215
:10B0C000B180120531E9700CEEF91210C5795012F9
:10B0D000139B806C74782EF582E4340DF583740133
:10B0E000807874016509707512B18F5070E8900C0A
:10B0F000E380677401650970648E828F83E0F8C312
:10B10000940A5059E8901B73805074016509704D82
:10B110008E828F83E0F874F928C3940A503FE89038
:10B120001B758036740165097033900D76E0F88EDA
:10B13000828F83E0900D76F0E87048E06401704300
:10B140001210B3803E7401650970128E828F83E005
:10B15000F8C394045007E8901B76F0802675081811
:10B160008021C3EA9427EB9400501574026509709E
:10B170000F8E828F8312BCCE120417E9F50880036C
:10B18000750802A90874061217C37F080218EF8E0B
:10B19000828F83E0F8C3940222A90880031217C3A8
:10B1A0007F040218EF74F212181D74DA1217AD89B9
:10B1B0000AECFEEDFF90823474201218137406120C
:10B1C00016C0742012181312105FE9F508743412B7
:10B1D00017F9E0F50BE9C3940A400302B2DA121042
:10B1E000A1E9F509901B70E064027004740180020B
:10B1F0007400F50C780C121A34AD0BAC09A908EEEA
:10B20000FAEFFB1210E974011217C37C147D007968
:10B2100000740C12180B12126375F006E508A4F501
:10B220000B740C1218137A107424250BF912139551
:10B23000E970357C1079FF740C12180B1212C9E9F1
:10B240007026741C1217F9AC82AD837A047425251C
:10B250000BF9121395740C121813E509A2E0E433EC
:10B26000F9EEFAEFFB1204A1AC18AD197A0C747068
:10B270002508F9121395E9704DAA18AB191210950B
:10B28000750800E50875F003A4F8A9F08518828513
:10B290001983E58228F8E58312BAE712BCC8601D5D
:10B2A00088828983A3A3E0F50C750D00780C121A2F
:10B2B00030EEFAEFFB1207A774021217C30508E578
:10B2C00008C3940440BDE509A2E15046900CCEE0CD
:10B2D000F9EEFAEFFB1207AD80387408650B703297
:10B2E000901B70E06402702A7C007D00A90AEEFACF
:10B2F000EFFB1210E312C50F601812B9488882895B
:10B3000083E5824583600B7C007900EEFAEFFB1247
:10B31000181B7900742602C2E974F712181D120571
:10B3200031E9704F900D77E0640170151210BF90F5
:10B330000D77E4F07C0AFDF97A787B0D12126380B8
:10B340002A750800A808747828FEE4340DFF8E8260
:10B350008F83E06401700BA9081210C58E828F8361
:10B36000E4F00508E508C3940A40D9795012139B0C
:10B370001210B302BE1374F512181D74FA1217AD31
:10B38000EAFEEBFF908240AC18AD1974061216C0AD
:10B390001209998A088B09A808A909E849607690DA
:10B3A0001B70E06402606EE82404F508E439F509D6
:10B3B000AC18AD19E82405FAE439FB850882850943
:10B3C00083E0F912105FE9F50AC3940A501F1210C6
:10B3D000A1E9FC7508017808121A347D08A90AEE63
:10B3E000FAEFFB1210E974011217C38028901B704A
:10B3F000E0700B7905EEFAEFFB1204AD80176401E3
:10B4000070137C007D00850882850983E0F9EEFADF
:10B41000EFFB1210E374061217C37F030218EF74D8
:10B42000F012181D74F01217ADEAFEEBFF8C088DB8
:10B4300009750A0AE9600C14600914603B14607D08
:10B4400002B5151210ADE9F50AC3940A400302B51E
:10B4500015E5084509700302B515750C06750D0054
:10B46000780C121A30EEFCEFFDAA08AB0912124B51
:10B4700074021217C302B515750C00750E06750F10
:10B4800000780E121A30EEFCEFFDE50C75F00EA4FC
:10B49000F8A9F074F028FA740C39FB12125D7402EA
:10B4A0001217C3E9700B050CE50CC3940A506680B3
:10B4B000CA850C0AE50AC3940A505A8049750C00E3
:10B4C000AC18AD197A1075F006E50CA42423F91216
:10B4D0001395E9701C7C1079FFAA18AB191212C9D8
:10B4E000E9700EEEFCEFFDAA18AB1912047DE960BD
:10B4F0000B050CE50CC3940A501B80C4850C0AE5AF
:10B500000AC3940A500FE50845096009AA08AB0967
:10B51000A90A1210A7A90A741002B18774F41218AC
:10B520001D890975081574FF6A700374FF6B702715
:10B530007E00AC097A027B00EEF9121083E9600309
:10B540007508000EEEC3940A40E8E50960537AD707
:10B550007B101209C9804A1209998A0A8B0BAE0A1C
:10B56000AF0BEE4F60387C007D00EE2405FAE43F1F
:10B57000FB8E828F83A3A3A3A3E0F912105FE9F9E6
:10B58000C3940A500CAC097A027B00121083750830
:10B5900000E509600CEEFAEFFB1210D78003750886
:10B5A0001402B19974F212181DECFEEDFF75081526
:10B5B000740E1217F9E0F50AA3E0F50B74FF6A7038
:10B5C0000374FF6B7021750900AC0AAD0BEEFAEF46
:10B5D000FBA909121089E960037508000509E5094E
:10B5E000C3940A503F80E21209998A828B83E582D4
:10B5F0004583602D7C007D00E5822405FAE43583D7
:10B60000FBA3A3A3A3E0F912105FE9F9C3940A50C6
:10B6100013AC0AAD0BEEFAEFFB121089750800802F
:10B6200003750814A90802C2ECC082C083900CE81C
:10B63000EAF0A3EBF0900CCEE0FC7D007A267B00D4
:10B64000120417900CCEE0F912071102C14974ECF4
:10B6500012181D8A088B09E97E0070387808121AC2
:10B660003074161217F9780C1216659082D0781083
:10B67000121665780C7910121511AA10AB11AC12C4
:10B68000AD131204B374021217C3E9FE6009790105
:10B69000AA08AB091204ADEEF97F0C0218EF74EFA3
:10B6A00012181D74F21217AD8A088B09EA240CF5E2
:10B6B0000EE43509F50F8A828B83A385820A858380
:10B6C0000BEA2403FEE43509FF8A828B83A3A3E0FF
:10B6D00024FA700302B93624FD700302B8FA14701C
:10B6E0000302B77C14601014700302B92E24FE709C
:10B6F0000302B87702B93CEA2409F50AE43509F5F2
:10B700000B12C50F604812C0E312B951880C890DA5
:10B71000E8450D6039850E82850F83E0F50E780EC1
:10B72000121A34EA240BF582E43509F583E0F98531
:10B730000A82850B8312BCCE0A0A0AEFFB850C82B3
:10B74000850D8312181B74011217C302B93C850AB8
:10B7500082850B83121A47900CE41216831204B3ED
:10B7600074021217C3E9700302B93C7901850A8299
:10B77000850B8312C1141204AD02B93C751000850B
:10B780000A82850B83E0600302B83BEA2405F50CCE
:10B79000E43509F50D850C82F583E0A2E040030253
:10B7A000B83B900D8212C512600302B83B7C0E7D3F
:10B7B000007900AA18AB19121263850E82850F83D7
:10B7C00012C114EA4B6010750E06750F00780E1248
:10B7D0001A30EA2410801B12C110120999EA4B702A
:10B7E0000302B93C750E06750F00780E121A30EA86
:10B7F0002405FCE43BFD740212180B12124B740278
:10B800001217C3850C82850D83E0A2E25004D2F0AA
:10B810008002C2F0A2F0E433F8740C1217F912C2DD
:10B82000FB12109BE970117A027B00900CCEE0F9BC
:10B830001212A5790002B93E75101512C50F7003DA
:10B8400002B93C12B9488909E84509700302B93CBC
:10B85000850A82850B83E0FC790112C110888285FC
:10B86000098312181BE510700302B93CFC7903121E
:10B87000C11012C0D4807E850A82850B83E06406E5
:10B88000705112C1101209998A0A8B0BEA450B609C
:10B8900042901B76E014600814602814601880330E
:10B8A0007C007D008A828B83A3A3A3A3E0F912C14D
:10B8B000101210E3801D7C007D0079007A097B0462
:10B8C0001210477C0512C110850A82850B83E0F9AE
:10B8D00012049B12C50F606412B948890BE8450B2E
:10B8E000605A850882850983A3E0FC790212C110A1
:10B8F0008882850B8312181B80427C007D00EA241D
:10B9000004FAE43509FB8E828F83E0F912105FE9B7
:10B91000F8C3940A5026E508240AFCE43509FD7AA8
:10B920000475F006E8A42425F912138F800E12C1C5
:10B9300010121059800612C1101210537901740EA2
:10B940001217C37F090218EF12C0E3A3A312B95163
:10B9500022E0F8A3E0F92274F512181D74F2121710
:10B96000ADEAFE8C0A75F006E9A42420F508AC18AF
:10B97000AD197A0EF9121395E970467C0679FFAA83
:10B9800018AB191212C9E97038740C1217F912C1E8
:10B9900014EAF8E50A6005EEC8488004EEF4C858D9
:10B9A000F8EA687001EB6015740C1217F9E8F0A35F
:10B9B000E4F0AC18AD197A0EA90812138F79018042
:10B9C000027900740E02B41774F212181D74E61294
:10B9D00017AD890A8A088B09ECFEEDFF740C12186A
:10B9E000137A0E75F006E9A42420F9121395E96084
:10B9F0000302BAAD7C0679FF740C12180B1212C93F
:10BA0000E9600302BAAD7470250AF50BAC18AD19E4
:10BA10007A0CF9121395E9600302BAA9AA18AB19B6
:10BA2000121095E5084509701D7C0C7900AA18AB29
:10BA3000191212C9E970727C0C7D007900AA18AB4A
:10BA4000191212638051AC18AD19AA08AB09121073
:10BA50008F8A0C8B0DA80CA90DE8497022EE4F605F
:10BA60004CAC18AD197A007B0012108FEAF8EBF994
:10BA7000EA4B603988828983E508F0A3E509F01272
:10BA8000BB23FAEE6A7001EF601FEEF04F7008887A
:10BA9000828983E4F0A3F0AA18AB19121095AC18B0
:10BAA000AD197A0CA90B12138F79018002790074F9
:10BAB0001A02C2E974F712181D7E00EE75F003A495
:10BAC000F8A9F0EC28F8ED12BAE7E06A7003A3E0F9
:10BAD0006B7006E8FAE9FB800B0EEEC3940440DBC2
:10BAE0007A007B0002BE1339F9888289832274F7B9
:10BAF00012181D7C00EC75F003A4F8A9F0EA28F8F0
:10BB0000EB12BAE7E0F4FEA3E0F4FF88828983EE4B
:10BB1000F0A3EFF012BB23F4F00CECC3940440D577
:10BB200002BE13E82402F582E439F583E02274F4BE
:10BB300012181D74F41217ADEAFEEBFF8C088D0984
:10BB4000900D8212C512704FEE4F700302BCA7EC2D
:10BB50004509700302BCA71210ADE9901B77F0C332
:10BB6000940A4033750B007C0679FFE50B75F00EE7
:10BB7000A4FAABF074EA2AFA740C3BFB1212C9E97E
:10BB8000600302BC08050BE50BC3940A40D9750A93
:10BB90000AE50A901B77F0901B77E0C3940A4003F4
:10BBA00002BCA775F006E0A4FB900D8212C51270CE
:10BBB0005CEEFCEFFD7A0E74202BF912138F7C0CD7
:10BBC0007D0079FFAA18AB19121263AC18AD197A6F
:10BBD0000C901B77E02470F912138F750A0E750B09
:10BBE00000780A121A30EEFCEFFD901B77E012BDD0
:10BBF0009712124B74021217C3900D82E508F0A33E
:10BC0000E509F0790002BCA9850B0A8084E0C8240C
:10BC10000612BCC260197A1B74212BF912138F1201
:10BC2000BCAE2406F582E438F583E4F0A380D31299
:10BC3000BCAE240A12BCC260107A1B74222BF9120B
:10BC4000138F12BCAE240A80DB12BCAE240C12BCD3
:10BC5000C260107A1074232BF912138F12BCAE2419
:10BC60000C80C112BCB712BCC260307A1074242B95
:10BC7000F912138F12BCB7F582E438F583E0241073
:10BC8000FCA3E03400FD7A0475F006901B77E0A475
:10BC90002425F912138F12BCB78089900D76E060CD
:10BCA000031210EF1210DD7901740C02B19D900D9A
:10BCB00082E0F8A3E0C822900D82E0F8A3E0C82457
:10BCC0000822F582E438F58312BCCEEC4D22E0FC6C
:10BCD000A3E0FD2274F712181D74F21217ADE9AC3F
:10BCE00018AD197A0E75F006A42420F9121395E9FF
:10BCF0007009740C1217F9E0F980027900740E12C1
:10BD000017C302BE1374F412181D74F21217ADEAB1
:10BD1000FEEBFFE9C3940A5004EE4F7004790280F1
:10BD200034AC18AD197A0E75F006E9A42420F91286
:10BD30001395E9F508701C750A06750B00780A1250
:10BD40001A307402121813EEFAEFFB12124B74023F
:10BD50001217C3A908740E02B19D74F412181DEADB
:10BD6000FEEBFF750800750A06750B00780A121ABB
:10BD700030EEFCEFFDE50812BD9712125D74021261
:10BD800017C3E96004A908800B0508E508C3940AF5
:10BD900040D4790A02B1A075F00EA4F8A9F074EAB3
:10BDA00028FA740C39FB2274F712181D750800E587
:10BDB0000875F00EA4F8A9F074EA28FE740C39FF97
:10BDC000EEFCEFFD7A0E75F006E508A42420F912CA
:10BDD0001395E960297C067D0079FFEEFAEFFB12EE
:10BDE00012637C067D0079FFEE2CFAE43FFB121211
:10BDF00063EE240CF582E43FF583E4F0A3F005083C
:10BE0000E508C3940A40A8900D76E060031210EF95
:10BE10001210DD7F010218EF74F712181D7E007FEB
:10BE2000007C06EF12BD9774FFF91212C9E9700188
:10BE30000E0FEFC3940A40E9EEF980D774F7121899
:10BE40001D7E00EEF91210C5E9F90EEEC3940A50FA
:10BE500003E960EF80BD74F312181D74CB1217ADA7
:10BE60008908901B77E06508701B7A017B00900CB5
:10BE7000CEE0F91212AB7A027B00900CCEE0F91200
:10BE800012AB1210FB75F006E508A4FF74202FFE1C
:10BE900074271218137A0EEEF9121395E960030253
:10BEA000BF5E7C0679FF742712180B1212C9E96075
:10BEB0000302BF5E7C0E7D0079FF742712180B12FF
:10BEC00012637C1B7D0079FF740C12180B12126335
:10BED0007C0C7D0079FFAA18AB191212637427122B
:10BEE00018137A0EEEF912138FE9FE740C12181360
:10BEF0007A1B74212FF912138FE9F509740C1218AB
:10BF0000137A1B74222FF912138FE9F50A740C129D
:10BF100018137A1074232FF912138FE9F50B740C90
:10BF20001218137A1074242FF912138FE9F50C7478
:10BF30000C1218137A0474252FF912138FE9FFAC31
:10BF400018AD197A0C74702508F912138FE9F8E509
:10BF500009450A450B450C4F48CE4EFE80027E0037
:10BF6000EEF974351217C37F050218EF74F7121833
:10BF70001DE9900CCEF01210B302BE1374F4121827
:10BF80001DEAFEEBFF5480700302C03F900CCEE030
:10BF9000F912128D8A088B09EA4509700302C0382C
:10BFA0007A01E5082404F8E43509F9880A890B8543
:10BFB00008828B83E02450604014600624E16067AF
:10BFC000806C88828983E070688508828B83A3A354
:10BFD000A3A3A3A3A3121A478508828B83A3A3A3B9
:10BFE000A3A312BCCE8508828B83A3A312C1141213
:10BFF000106B74021217C3803888828983E0641E34
:10C00000700F79008508828B83A3A312C1141210CC
:10C0100065850A82850B83E0F9E5082405FAE43595
:10C0200009FB12070B800AAA0812107DE9FAEA60E0
:10C0300007AA08AB0912127BEEFAEF6480802AEEA1
:10C0400054026028EE6402FE7C007D007A007B00D2
:10C0500012109BE960047A0180027A027B00900C46
:10C06000CEE0F91212A5EEFAEFFB8065EEA2E050E9
:10C07000526401F508EFF50912C0E91210F5E96004
:10C080003012C50F602612B948E8FEE9FFEE4F6096
:10C090001B7C00790112C0E98E828F8312181B7CF1
:10C0A00000790312C0E912C0D412181B1210FB80D1
:10C0B0000C7A017B00900CCEE0F91212A5AA08AB15
:10C0C00009800E54046006EE6404FA80047A007B52
:10C0D0000002B1A0900CE812C0E0A3A312C0E022BD
:10C0E000E0F8A3E0F583888222900D8212C4D6E0A6
:10C0F000FAA3E0FB227F020218EFC082C083900CFB
:10C10000CEE0F98A828B83A312C1141207AD803965
:10C110008E828F83E0FAA3E0FB22C082C08374FF8B
:10C120001217AD1210B9E9C39402851882851983DC
:10C13000400474028002740AF0AC18AD197A0179D7
:10C140000512054F74011217C3D083D08202013249
:10C1500074F212181D74E81217ADEAFEEBFF890A9B
:10C160008C088D097C187D007900AA18AB19121271
:10C1700063851882851983EEF0A3EFF0900CD0E070
:10C18000C0E074021217F9D0E0F0900CD1E0C0E0EA
:10C1900074031217F9D0E0F0901B75E0C0E074173B
:10C1A0001217F9D0E0F074151217F9E054FEFAA353
:10C1B000E0FB901B74E0A2E0E433F8EA48F8EBF906
:10C1C00074151217F912C2F1A2E15004D2F08002E4
:10C1D000C2F0E854FDFAA2F0E43325E0F8EA48F8AA
:10C1E00074151217F912C2F1A2E45004D2F08002C1
:10C1F000C2F0E8FAE954FEFBA2F0E433F9EB49F9A6
:10C2000074151217F912C2F1A2E55004D2F080029F
:10C21000C2F0E954FDFBA2F0E433F50C750D007497
:10C2200009780C12179AEAF8EB450DF974151217F4
:10C23000F912C2F1A2E65004D2F08002C2F0E95431
:10C24000FBFBA2F0E433F50C750D00740A780C12B8
:10C25000179AEAF8EB450DF974151217F912C2F1A5
:10C26000A2E25004D2F08002C2F0E854FBFAA2F03D
:10C27000E433F50C750D007402780C12179AEA4538
:10C280000CF874151217F9E8F0A3E9F0900CD1E05E
:10C29000601D750C10780C121A307CD27D0C74065F
:10C2A0001217F9AA82AB8312124B74021217C390B1
:10C2B0000CE2E06011E50A600974151217F9E04418
:10C2C00002F078018002780074141217F9E048F047
:10C2D000900CCFE060047804800278007414121788
:10C2E000F912C2FB1204A774181217C37F060218B2
:10C2F000EFE8F0A3E9F0901B74E022E048F0AC080E
:10C30000AD09AA18AB192274F412181D74E512179E
:10C31000ADEAFEEBFF8C0A8D0B75F006E9A4F8740C
:10C3200008650B700474228002742128F5087C1BB8
:10C330007D007900AA18AB19121263AC18AD197AF6
:10C340001BA908121395E97032741A1217F9E02428
:10C35000F9C3940A502574271217F9E0F5087808F4
:10C36000121A347401121813E50AA2E0E433F9EE4C
:10C37000FAEFFB1204B974011217C3741B02B19DCA
:10C3800074F712181D120801750800E50875F00E03
:10C39000A4F8A9F074EA28FE740C39FF7C0679FF32
:10C3A000EEFAEFFB1212C9E97009EEFAEFFB790021
:10C3B0001208070508E508C3940A40CF02BE1374AB
:10C3C000F612181D74FD1217ADEAFEEBFF900D84F6
:10C3D00012C512703975088675090D7808121A3061
:10C3E0007508027509007808121A307508F4750985
:10C3F000827808121A307CFF7DFF7A017B001206DA
:10C400002D74061217C3900D84EAF0A3EBF0900D83
:10C410008412C512700302C4C87508FF7808121A86
:10C4200034E4F508F5097808121A30740512180377
:10C43000880889097808121A3074051218038808C8
:10C4400089097808121A30900D86121A47790290DD
:10C450000D8412C4E212079B74091217C3E97036E7
:10C46000851882851983E0FA74011217F9E0F8E45F
:10C47000C8F9EA28F508E439F509EA4509601778AA
:10C4800008121A30900D8412C4D6A312C4E21210FE
:10C490006B74021217C3E4F508F5097808121A3014
:10C4A000900D86121A477CFF7DFF900D8412C114F7
:10C4B00012063974041217C3900D84EAF0A3EBF04E
:10C4C000900D8412C5127004790180027900740302
:10C4D0001217C302C0F5E0F8A3E0F5838882A3A396
:10C4E000A32212BCCEEEFAEFFB22C082C083900DD5
:10C4F0008212C5126010900D8212C11412127B902C
:10C500000D82E4F0A3F0901B77740AF002C1499009
:10C510000CE812B951E84922C082C0839002D6E0EB
:10C5200075F005A4FAABF012131D9002D2EAF0A345
:10C53000EBF09002D212C9CA70047913805A7A00C3
:10C54000801574FFF0A312C59BF088828983A3A392
:10C5500012C59BA3E4F00A9002D6E0F8EAC3985013
:10C5600020EA75F005A4F8A9F09002D2E028F8A31B
:10C57000E039F9EA8882898370C874FEF0A30480E8
:10C58000C57A577B061206BD7AAB7B061202617A2A
:10C59000B77B06120987790002D52EF0888289833D
:10C5A000A3A3A32274F212181DEAFEEBFF8E828F62
:10C5B0008312C9CA6055EE240312D48C12C6FD75CD
:10C5C0000B00780A121A308A828B83A3121A477CD6
:10C5D000027D007AFC7B8212039F74041217C3E968
:10C5E000702E85088285098312C6FD780A121A30DA
:10C5F0008A828B83A3121A477C027D007AFA7B829F
:10C6000012039F74041217C3E97005790202C6ED84
:10C610008E828F83A3A3E024F9C3940A400579187E
:10C6200002C6ED901B2A12C9CA600CC3E498FAE452
:10C6300099FB12C6F05005790102C6ED7A077B001E
:10C6400012131D8A0A8B0BEA450B7005791302C67B
:10C65000ED7A007B00803D901B2A12D1C38A0C8B9F
:10C660000D7403780C12179A850882850983E025DA
:10C670000CF8A3E0350D8882F583A3A3A3A3ECF007
:10C68000A3EDF0901B2AE02401F0A3E03400F00AAF
:10C69000EA70010B12C6F040BE850A82850B83E466
:10C6A000F0A3F0750805F5097808121A30EEFCEFD2
:10C6B000FDE50A2402FAE4350BFB12124B74021258
:10C6C00017C39002D412C9CA9002D46017E0FAA32B
:10C6D000E08003E8FAE9FB8A828B8312C9CA70F30F
:10C6E0008A828B83E50AF0A3E50BF0790002C8BBD0
:10C6F0008E828F8312D1E1C3EA98EB992212CCF497
:10C700008A828B83E0F50A22C082C083E9901B29CC
:10C71000F002D52E74F612181D8A088B09E9FFEC79
:10C72000FAEDFB74145F600712064574018009EF8F
:10C73000A2E6500E120645E4FCAA08AB091209C392
:10C74000800AA2E0400479028002790002CD1D74C3
:10C75000F612181D8A088B09E9FFECFAEDFBEFA22F
:10C76000E5500F1206457401FCAA08AB091209C373
:10C77000804974885F603974085FFE120645EEFCDC
:10C78000AA08AB091209C3E9F9602E740A1217F955
:10C7900012CCF08A828B83A3A3A3A3A3A3E0601B84
:10C7A0008A828B83A3A3A3A3A3E06401600B800B05
:10C7B000EFA2E1400479038002790002CD1D74F2FA
:10C7C00012181D74FB1217AD8A088B09890AE4F54B
:10C7D0000CF50D780C121A30750C02780C121A3008
:10C7E000750CEE750D82780C121A307CFF7DFF7A85
:10C7F000017B0012062D74061217C38A0C8B0DAE36
:10C800000CAF0DEE4F700302C8B2E4F50CF50D78D5
:10C810000C121A307C047D00791DAA08AB0912079E
:10C820000574021217C374031217F9EAF0A3EBF0B0
:10C8300074031217F912C9CA60748E828F8312D1E1
:10C84000D9851882851983E8F0A3E9F074021217DC
:10C85000F97404F0141217F912CFDF7401F07403A5
:10C860001217F912CFDFA3E4F074031217F912CFF5
:10C87000DFA3A374FFF074031217F912C8C074FF8A
:10C88000F0E50AF50B780B121A34790074011218CE
:10C8900013AA08AB0912064B74011217C3E9FE6014
:10C8A0001374031217F912CCF01212D580067E15FC
:10C8B00080027E01EEF974051217C37F060218EF9D
:10C8C00012CFE3A3A3A32274EA12181D8A128B13BA
:10C8D0008C108D119002D4E0F508A3E0F5097416D0
:10C8E0001217F9E0F514A3E0F51574181217F9E022
:10C8F000F50AA3E0F50B800D850882850983E0F534
:10C9000008A3E0F509E5084509700302C9C17E00E6
:10C910007F00E5082405F50EE43509F50F80050EC6
:10C92000EE70010F85088285098312D1DBC3EE9872
:10C93000EF9950C48E0C8F0D7403780C12179A85E2
:10C940000E82850F83E0250CF50CA3E0350DF50D67
:10C95000850C82F58312D1D9C3E89512E99513406D
:10C96000BEC3E51098E5119940B5E50A450B602373
:10C97000780A121A307814121A30850C82850D83C9
:10C98000E0FC7D00A312CCF012039F74041217C3C5
:10C99000E9608C741A1217F912C9CA601E850E82DA
:10C9A000850F83E0FAA3E0F5838A82A3A3A3A312F1
:10C9B000CCF088828983EAF0A3EBF0AA0CAB0D805F
:10C9C000047A007B007F0E0218EF12D1E1E84922C1
:10C9D00074EE12181DECFEEDFF9002D4E0FCA3E013
:10C9E000800A8C828D8312D1DDE8FCE9FDEC4D706C
:10C9F0000302CA8E8C828D83A312D1D9880889093B
:10CA00008882F583A3A3A3A3E0F50CA3E0F50DC3EF
:10CA1000EA950CEB950D40CA8C828D83A3A3E0F5BB
:10CA20000EA3E0F50FE50C250EF8E50D350FF9C363
:10CA3000EA98EB9950AC750A00750B008008050A5E
:10CA4000E50A7002050BC3E50A950EE50B950F503C
:10CA500091850A10850B117403781012179AE50856
:10CA60002510F8E5093511F988828983A3A3A3A3CA
:10CA7000E06A7003A3E06B70C5EE4F600B8E828F8F
:10CA800083E50CF0A3E50DF0E8FAE9FB80047A00F9
:10CA90007B007F0A0218EF74F012181D74FE121743
:10CAA000ADEAFEEBFF75080075090085188285194F
:10CAB00083E4F0A3F0EE2404F50CE43FF50D850CBF
:10CAC00082F58312D66DA385820A85830B74FF6A73
:10CAD000700374FF6B6038A818A919880889097851
:10CAE00008121A308E828F83E0F5087509007808E5
:10CAF000121A30850A82850B83121A47EA24010A2A
:10CB000050010B12062D74061217C38A088B098E6A
:10CB1000828F83E0F50E750F00780E121A30850AA9
:10CB200082850B83121A477C027D007AFC7B82127D
:10CB3000039F74041217C3E970288E828F83E0F577
:10CB40000E780E121A30850A82850B83121A477CE2
:10CB5000027D007AFA7B8212039F74041217C3E9E4
:10CB6000600B850C82850D8312CCF080458E828F00
:10CB700083E0F50E780E121A30850A82850B831237
:10CB80001A477C027D007A047B8312039F7404128F
:10CB900017C3E9603674121217F912CCF0E5084594
:10CBA00009600F851882851983E06A7003A3E06B22
:10CBB0006005120651801F850882850983A3A3A3FF
:10CBC000A3E024FFFAA3E034FF800A850C82850DE0
:10CBD00083E0FAA3E0FB74141217F912D1DD888206
:10CBE0008983E58245836005EAF0A3EBF0AA08ABF0
:10CBF0000902D49874F612181D1206938A828B8348
:10CC0000E5824583600512CCF080047A007B000247
:10CC1000CD1D74F612181D1206938A828B83E5824D
:10CC200045836006A3A3E0F98002791002CD1D744C
:10CC3000F212181D74FC1217ADEAFEEBFF8C088D82
:10CC400009890A7402121813120699E9F50B707F0C
:10CC5000E50A602212CCDC1206338518828519831E
:10CC600012CCF0120645E9F97C01EEFAEFFB12094D
:10CC7000C3E9F50B7059AC08AD09EEFAEFFB1202EF
:10CC8000AFE9F50B704974021217F912CCD6741281
:10CC90001217F9E0F50874FF65086033EE2402F519
:10CCA0000CE43FF50D780C121A30750C1E750D0052
:10CCB000780C121A30EEFCEFFD7AB17B061206E713
:10CCC00074041217C38E828F83A3A3A3E508F0A96F
:10CCD0000B740402C8B8E0FEA3E0FF228518828529
:10CCE0001983E4F0A3F0AC18AD1985088285098397
:10CCF00012CCF422E0FAA3E0FB2274F612181DEA2B
:10CD0000FEEBFF12063FEA4B600FEE24FFF8EF3414
:10CD1000FFF9EA28FAEB398003EEFAEFFB7F020213
:10CD200018EF74EC12181D74E61217AD8A088B09FF
:10CD30008C0C8D0D7E007F00EC2402F50AE4350D8D
:10CD4000F50B850A82F583E0F8741E68705C1206A4
:10CD50009F8A0C8B0DAE0CAF0DEE4F700302CDFD14
:10CD60008E828F83A3A3E0F874FE68700302CDFD6A
:10CD700074FF68700302CDFDE4F50CF50D780C121C
:10CD80001A30850A82850B83E0FD7C00AA08AB0976
:10CD90008E828F83A3A3A3E0F91206E17402121717
:10CDA000C3EEFAEFFB1206A580538C828D83A38518
:10CDB00082108583117412687005E064016043126B
:10CDC000069F8A0E8B0FAE0EAF0FEE4F6034EE242F
:10CDD00004F50EE43FF50F850E82F583E0FC60223A
:10CDE000A2E74019850A82850B83E0F9AA08AB09FE
:10CDF0001206F9850E82850F83E0D2E7F0790002F2
:10CE0000CFD5901B29E0F46068850A82850B83E00A
:10CE1000FA74FE2AC394175058EAC313F50E750F1F
:10CE2000007402780E12179A7400250EF87480357B
:10CE30000FF9E824FCF50EE934FFF50F850E82F5B5
:10CE40008312D1C3EC4D6029E824FEF582E934FF5A
:10CE5000F58312C9CA601A850C82850D83E0FB70C8
:10CE60000B851082851183E06401700A74126A6078
:10CE700005790602CFD57404121803881289137835
:10CE800012121A30850C82850D83A3A3A3121A47B0
:10CE9000850C82850D83A3A3A3A3A312D1C3851000
:10CEA00082851183E0FAEBF9850E82850F8312CF1C
:10CEB000DF12181B74041217C3E9F50C600302CFCC
:10CEC000D37404121813AA08AB09850A82850B8350
:10CED000E0C313F50C750D007402780C12179A74E8
:10CEE000FE250CF582747F350DF58312CFDF121805
:10CEF0001BE9F50C600302CF7B850A82850B83E07A
:10CF0000FD74046D700302CFD37404121803880CEF
:10CF1000890D780C121A307C00AA08AB09901B29E5
:10CF2000E0F91206E174021217C3E9F50C6003027E
:10CF3000CFD3850A82850B83E0F9740412180B1293
:10CF400006FF8B09EA4509600A742E1217F912CF01
:10CF5000DFE4F0850A82850B83E0F8741268700BB9
:10CF6000851082851183E064016068EE4F6064E89B
:10CF70008E828F83A3A3A3A3F0805885108285118E
:10CF800083E0704F850A82850B83E08518828519BE
:10CF900083F074031217F9E9F0850A82850B83E0A8
:10CFA000F8740468600D74066860087408686003AB
:10CFB00074106874041217F912D1DD74011217F994
:10CFC000E8F0A3E9F0AC18AD19AA08AB09120267A2
:10CFD000750C00A90C741A1217C37F0C0218EF12FB
:10CFE000CFE322E0F8A3E0F58388822279000201F2
:10CFF0003274EA12181D74FA1217AD8A108B118C54
:10D00000828D8312CCF0EC2402F512E43DF51385F9
:10D010001282F583C3E09AA3E09B4004EA4B7005BB
:10D02000790102D1BB851882851983E4F07402125C
:10D0300017F9E4F0A3F08007E82401FAE439FBE4EF
:10D04000F508F5097808121A307808121A307808AD
:10D05000121A3085128285138312D1C312062D74E1
:10D06000061217C38A088B09EA4509700302D15CCE
:10D070008A828B83A385820E85830FEA2404F50AB6
:10D08000E43509F50B851882851983E0600302D128
:10D09000697404121803880C890D780C121A307CFC
:10D0A000FF7DFF7905AA10AB111207057402121754
:10D0B000C38A0C8B0DAE0CAF0DEE4F7005791102CB
:10D0C000D1BB74021217F9EEF0A3EFF08508828548
:10D0D0000983E06402702374011217F97401F0747B
:10D0E000041217F9E0F514A3E0F515740278141290
:10D0F000178B85140C85150D807974011217F9743E
:10D1000002F074041217F912D1DD7A127B001217A3
:10D1100022880C890D12D1E775081075090078086E
:10D12000121A3012D1C912124B74021217C3EE2414
:10D1300010FE50010F851882851983E004F0C39515
:10D140000CE4950D5016850A82850B8312D1DD748F
:10D15000FF68700374FF69600302D0388518828508
:10D160001983E0703B790A805274011217F9E06468
:10D170000170A2850882850983E0640270DE12D105
:10D18000E77508027509007808121A3012D1C91221
:10D19000124B74021217C3EE2402FE50980F8095B2
:10D1A000AC18AD19AA10AB11120273E9600B74022E
:10D1B0001217F912CCF01212D5790074061217C3A7
:10D1C00002C9C5E0FCA3E0FD22850E82850F83E045
:10D1D000FCA3E0FDEEFAEFFB22A3A3A3A312D1E18F
:10D1E00022E0F8A3E0F922850A82850B83E08E8293
:10D1F0008F83F0A3AE82AF83850A82850B83A3E081
:10D200008E828F83F0A30EAF832274F612181D1244
:10D21000D2B24004EA4B700479018039E4F508F594
:10D22000097808121A308C828D83A3A3A3A3E0F59A
:10D23000087808121A3012D2A6121A30EEFCEFFD4E
:10D2400012062D74061217C38B09EA45097004797A
:10D250000A8002790002CD1D74F612181D12D2B296
:10D260004004EA4B700479018039E4F508F5097847
:10D2700008121A308C828D83A3A3A3A3E0F508784B
:10D2800008121A3012D2A6121A30EEFCEFFD120666
:10D290002D74061217C38B09EA45097004790A80B8
:10D2A00002790002CD1DEC2405F508E43DF509786E
:10D2B00008228C828D83A3A312CCD68C828D8312FC
:10D2C000CCF4C3EE9AEF9B2274F612181D74FE1272
:10D2D00017ADEAFEEBFF8C828D83AC18AD1912CC32
:10D2E000F01206338A088B09A808A909E8497004D6
:10D2F0007901800A12D3CDEEFAEFFB12061B7402FD
:10D300001217C302CD1D74F012181D74FE1217AD52
:10D310008A0A8B0B8C088D09750C008002050C8520
:10D320000882850983A3A3E0F8E50CC3985075AE85
:10D330000CEE2EFEE433FF850882850983E02EF88B
:10D34000A3E03FF988828983AC18AD19E0FAA3E025
:10D35000F8E4C8F9EA28E439FB1206338A0E8B0F89
:10D36000A80EA90FE849701812D3BBE08882898300
:10D37000F012D3BBA3E088828983A3F079018026D1
:10D3800012D3CDAA0AAB0B12061BE9F9608F12D398
:10D39000A9E08A828B83F012D3A9A3E08A828B83CF
:10D3A000A3F08002790002D498850882850983124F
:10D3B000CCF4EA2EF582EB3FF583228508828509BD
:10D3C0008312D1E1E82EF582E93FF58322851882A8
:10D3D000851983E0FCA3E0FD88828983A3A3A3E0F1
:10D3E000F92274F012181DECFEEDFF8E828F83126D
:10D3F000D1DD12D489C3E098A3E0994004E84970D4
:10D4000005790102D487EE2405F50EE43FF50FEE11
:10D410002404F50AE43FF50B850A82F583E0F50C58
:10D42000750D00780C121A30780E121A307C027DBD
:10D43000007AFC7B8212039F74041217C3E9700404
:10D4400079108043E4F50C780C121A30850A828535
:10D450000B83E0F50A750B00780A121A30780E1269
:10D460001A3085088285098312D1C38E828F831278
:10D47000CCF012062D74061217C38B09EA45097009
:10D4800004790A800279008014EE2402F508E43F52
:10D49000F509850882F5832274021217C37F0802FA
:10D4A00018EF74F412181D74FE1217ADEAFEEBFFAC
:10D4B0008C088D0912CCE6120633EA4B7004790110
:10D4C00080227808121A3074021217F912D1C38A16
:10D4D000828B83A3A3A3E0F9EEFAEFFB120621747B
:10D4E000021217C374021217C37F040218EF02CF8F
:10D4F000ECC082C0839002D480048882898312C9E0
:10D50000CA602788828983A3A3A3A3A3E0FCA3E026
:10D51000F5838C82A3A3A3A3E06A7003A3E06B70DE
:10D52000D9E82402FAE439FB80047A007B00D08336
:10D53000D08202013274F612181DECFEEDFF1206C5
:10D540009F8A088B09A808A909E849602BEE4F605B
:10D55000098E828F83E8F0A3E9F088828983A3A3F0
:10D56000E0F874FE6870047917800F74FF68700427
:10D570007900800679168002790202CD1DC082C032
:10D58000837C0080010C9002D6E0F8ECC398502513
:10D59000EC75F005A4F8A9F09002D2E028F8A3E019
:10D5A00039F988828983E06A7003A3E06B70D6E85A
:10D5B000FAE9FB80047A007B0002D52E74F712187A
:10D5C0001DEAFEEBFFEE2402FAE43FFB1206ED8EAD
:10D5D000828F83A3A3A374FFF07F010218EF74F678
:10D5E00012181DE9FE12069F8A088B09A808A909CE
:10D5F000E849601BE82404F582E439F583EEF8E09D
:10D600007B00240150010B684B7004E05480F00251
:10D61000CD1D74F412181DEA4B604FEA2402F50880
:10D62000E43BF509850882F583E0F874FF68603A09
:10D6300074FE686035EA2403FEE43BFFE4F50AF576
:10D640000B780A121A307D1E7C178A828B8312D6C1
:10D650006DE0F91206E174021217C385088285098C
:10D660008374FEF08E828F8304F002D4E912CCF42E
:10D670008E828F832274F012181D8A0A8B0B890CFC
:10D6800074FE650A700474FF650B700302D74AE9E3
:10D69000702B12069F8B09EA4509701E7AFF7BFFEB
:10D6A00012069F8A088B09AE08AF09EE4F600B8EF9
:10D6B000828F83E50AF0A3E50BF002D74A74016577
:10D6C0000C701A12069F8A088B09AE08AF09EE4F3C
:10D6D00060788E828F8374FFF0A3F08021740265DE
:10D6E0000C706779011209A5E9705FAA0AAB0B12E9
:10D6F000069F8A088B09AE08AF09EE4F604C12D422
:10D7000089E0F874FF68603874FE686023E4F50E01
:10D71000F50F780E121A307D1E7C14AA0AAB0B8E00
:10D72000828F83A3A3A3E0F91206E174021217C348
:10D73000EEFAEFFB1206A585088285098374FFF0D7
:10D740008E828F83A3A3A3A3E4F002D49D74F2126C
:10D75000181D8909EAFEEBFF8C0A75081274FE6E2B
:10D76000700374FF6F70189002AB12E3486072127E
:10D77000D7E6606D7AFE7BFFA90912181B805A74E8
:10D78000FF6E700374FF6F70359002AB12E3486058
:10D790001312D7E6600E7AFF7BFFA90912181BE966
:10D7A000F508600CAA0AA9091204EFE9F50870311E
:10D7B000E5099002AFF0E50A9002B0F0802312096B
:10D7C000998A828B83E58245836016E06509700E35
:10D7D000A90AEEFAEFFB1207CBE9F50880037508FA
:10D7E00003A90802DF34E0F583888212E0278882EB
:10D7F0008983E58245832274F212181D89088C0AF8
:10D800008D0B900288E064026005E0640170047989
:10D8100012805DEC450B7004790280541209998ADC
:10D820000C8B0DAE0CAF0DEE4F700479148041E5FA
:10D8300008600B8E828F83A3A3A3E0D2E1F0750C66
:10D8400010750D00780C121A30AC0AAD0BEE2410D6
:10D85000FAE43FFB12124B74021217C312E6FE12D7
:10D86000169BEE2420F582E43FF5831216A779007B
:10D8700002DF3474F012181DEAFEEBFF8C0A8D0BE8
:10D88000EE4F7005790202D98212E14A1209998A93
:10D89000088B09EA45097005791402D9829002883B
:10D8A000E06402601FE06401601AEA240BF50CE4F6
:10D8B0003509F50D850C82F583E06408700BE50AE7
:10D8C000450B6005791202D9829002A912E34860E3
:10D8D00005791102D9827A1F7B0012131D9002A9CB
:10D8E00012E1029002A912E3487005791302D9826D
:10D8F0007C1F7D00790012126312E14A12D985A3C0
:10D9000012E102750E16750F00780E121A30EE2411
:10D9100002FCE43FFD9002A9E02403FAA3E03400F6
:10D92000FB12124B74021217C312D9857402F085D0
:10D930000C82850D83E0640870047901800279000F
:10D940009002A9E02403F50CA3E03400F50D780C57
:10D95000121A308E828F8312DE809002B1E0FA12AA
:10D960000E9D74021217C3E9FEE50A450B600BAC6D
:10D970000AAD0BAA08AB09120ED9EE60031204FB24
:10D98000EEF902E0129002A9E0F8A3E0F5838882A4
:10D990002274F412181D74FF1217ADEAFEEBFF8912
:10D9A000081209998B0BEA450B70047914801485D1
:10D9B0001882851983E508F0AC18AD19EEFAEFFB73
:10D9C000120EC174011217C37F040218EF74F01213
:10D9D000181D74F01217AD8A0C8B0D8C0E8D0F7400
:10D9E000201217F9E0FEA3E0FFEEFAEFFB1209990F
:10D9F0008B09EA45097004791280659082D0780C11
:10DA00001214725004790280577C107D007900AAAC
:10DA100018AB19121263851882851983E50CF085FD
:10DA20000D09E509F50874011217F9E508F0850CF0
:10DA300008850E0A850F0B74107808121580740281
:10DA40001217F9E508F07418780C12158074031297
:10DA500017F9E50CF0EEFCEFFDAA18AB19120EA3B6
:10DA600074101217C302E01274F112181D8A0A8B87
:10DA70000B890E8C0C8D0D900288E064026005E02D
:10DA800064017005791202DB36EC450D70057902F0
:10DA900002DB361209998A088B09AE08AF09EE4FEE
:10DAA0007005791402DB36EE2424F508E43FF5090D
:10DAB00085088212DB4460031213237C1B7D00AABD
:10DAC0000CAB0D12125785088285098312E10212F0
:10DAD000DE7AEC4D70047913805C12E4E3E06408B4
:10DAE000703D740F1217F9E06035EC2412F508E46C
:10DAF0003DF5097808121A30EC2410F582E43DF562
:10DB000083121A47EC241AF582E43DF583E0F9AA62
:10DB10000AAB0B120EDF74041217C3E9F980027905
:10DB200000EE2403F582E43FF583E0D2E2F0E50E57
:10DB30006004E0D2E1F07F070218EF12E6F5241B43
:10DB4000F582E438F58312E152EA4B2274EE1218A2
:10DB50001D1209998A088B09AE08AF09EE4F7003B0
:10DB600002DBFBEE2420F508E43FF50974121217DE
:10DB7000F912169B8508828509831216A77A267BDF
:10DB80000012041DEAF50A70078E828F83E0F50A01
:10DB9000850882850983780C1216658E828F83A38F
:10DBA000A3A3A3E0F50B7A0E7B001212758A088BF3
:10DBB00009EA4509604512DBFE740912DC7EE50BBB
:10DBC00012E4ED121A30EE2405FCE43FFDEA2404D1
:10DBD000FAE43509FB12124B74021217C38508824E
:10DBE000850983A3A3A3A3A3A3A3A3A3A3780C1230
:10DBF0001674AA08AB09A90A12128102E4148A82D7
:10DC00008B8374D0F0A3E4F08A828B83A3A3227465
:10DC1000F012181D890A8A0C8B0DECFEEDFF7A0CB0
:10DC20007B001212758A088B09EA4509604D12DBE8
:10DC3000FE740C12DC7EE50CF0A3E50DF0750C060D
:10DC4000750D00780C121A30EEFCEFFDEA2405FA8F
:10DC5000E43509FB12124B74021217C37410121729
:10DC6000F9E0C0E0E508240BF582E43509F583D03E
:10DC7000E0F0AA08AB09A90A12128102E012F08AA8
:10DC8000828B83A3A3A32274EA12181D8A0C8B0D26
:10DC9000EA450D700302DE108A828B83A3A3A3A33F
:10DCA000A3A3E07005750B088003750B049002A711
:10DCB00012E348600512D98B8003901AACE0F50A94
:10DCC0009002B212E348600F12D98BA3A312D7EBD4
:10DCD0006005790012181BE50C2407F50EE4350DDC
:10DCE000F50FE50C2408F508E4350DF509AA08FB45
:10DCF000850E82850F83E0F9120447E9FB850E82C9
:10DD0000850F83F0E50C2403FEE4350DFFE50C24BC
:10DD100004F514E4350DF515E50C240EF510E43585
:10DD20000DF511E50C2414F582E4350DF583E0F5CD
:10DD3000127513007812121A30E50C2412F582E4E1
:10DD4000350DF583121A47E50C2410F582E4350DE4
:10DD5000F583121A47851082851183121A47E50B45
:10DD6000F50C780C121A34851482851583121A4723
:10DD7000AC08AD09AA0A8E828F83E0F91204DD7423
:10DD80000B1217C38E828F83E07041750C17750DCF
:10DD900000780C121A30851082851183121A477888
:10DDA0000B121A347808121A30850E82850F83E020
:10DDB000FD7C0185148285158312E14EA90A1209A2
:10DDC0008D74071217C3E98E828F83F09002A71219
:10DDD000E34860031205019002AFE060339002B0A7
:10DDE000E0FA9002AFE0F91204EFE960238E828F2F
:10DDF00083E0FB74316B601385148285158312DE1A
:10DE0000809002AFE0FAEBF91204E39002AFE4F085
:10DE10007F0E0218EF74F612181DE4F508F5097864
:10DE200008121A307808121A30EA240CF582E43B02
:10DE3000F583121A478A828B83A3A3A3A3A3A3A368
:10DE4000A3A3A3121A478A828B83A3A3A3A3A3A38A
:10DE5000A3A3121A478A828B83A3A3A3A3A3A3120B
:10DE6000DE808A828B83A3A3A3A312E14E1208A9AA
:10DE7000740A1217C37F020218EF8508828509838E
:10DE8000E0FCA3E0FD2274F212181DEAFEEBFF7520
:10DE90000A00EE2403F8E43FF9880889098882F52E
:10DEA0008312E14E1209998A828B83E58245836051
:10DEB0000FE0F50A85088285098312E14E12099365
:10DEC0009002AFE06019650A70159002B0E0FA9018
:10DED00002AFE0F91204EFE960249002AFE4F0E54C
:10DEE0000A601B8E828F83A3A3A3A3A3E0FB12DE91
:10DEF0007AAA0A8E828F83A3A3E0F91204E3900228
:10DF0000A912E34860031204FB8508828509831285
:10DF1000E14E1209ABE96404701A85088285098311
:10DF200012DF39E0687003A3E0697008901AFB748F
:10DF3000FFF0A3F07F060218EF12E027901AFB22F1
:10DF400074F012181D89098A0C8B088C0A8D0B7AC3
:10DF5000147B001212758A0E8B0FAE0EAF0FEE4FB0
:10DF6000700302E0128E828F8374D012E0EEA3A3BE
:10DF7000740512E0E7E508F0EE2404FAE43FFBE55F
:10DF80000A450B6019750E06750F00780E121A30CF
:10DF9000AC0AAD0B12124B74021217C380097C0637
:10DFA0007D00790012126374101217F912E0238EAB
:10DFB000828F83A3A3A3A3A3A3A3A3A3A312E01D60
:10DFC00074121217F9E0C0E012E4D9D0E0F0741333
:10DFD0001217F912E02D240D12E01774151217F91B
:10DFE00012E02D240F12E01774171217F912E02D0A
:10DFF000241112E01774191217F9E0C0E0EE24138F
:10E00000F582E43FF583D0E0F0EEFAEFFBA90C12C5
:10E0100012817F080218EFF582E43FF583E8F0A350
:10E02000E9F02212E02722E0F8A3E0F92212E0272B
:10E03000EE2274F212181D89098A08ECFEEDFF8B9E
:10E040000A7A067B00121275EA4B60238A828B8360
:10E0500074D0F0A3E50912DC07740612DC7EEEF042
:10E06000A3EF12DC7EA3A3E50AF0A9081212810235
:10E07000DF3474F012181D890C8A088B098C0A8D04
:10E080000B7A0C7B001212758A0E8B0FAE0EAF0F3F
:10E09000EE4F6050AA08AB091209998A828B83E57A
:10E0A0008245837003901AACE0F98E828F8374D01E
:10E0B000F0A3E50C12E304740712E0E7A3E50812ED
:10E0C000E0EE12E10874101217F912E11612E102E3
:10E0D00074121217F912E116A3A312E102EEFAEF7D
:10E0E000FB12128102E01212E0F6A3A3A322F0A316
:10E0F000E50912E0F622F08E828F8322F582E43861
:10E10000F583EAF0A3EBF022A3A3A3A3A3A3E50A5C
:10E11000F0A3E50BF02212E1528E828F83A3A3A31A
:10E12000A3A3A3A3A32274F612181DEAFE12099F4B
:10E130008A828B83E5824583600BEEF9A312E14E60
:10E140001207CB8002791202DE758E828F8312E174
:10E150005222E0FAA3E0FB2274EC12181D89118A06
:10E160000A8B0B8C101209998A0E8B0FEA450F70DF
:10E170000302E2FF9002A912E348700302E2FF7A71
:10E180000E7B00E0C8241912E34260027A2912E3F0
:10E190003D6008EA2414FAE43400FB74141217F901
:10E1A000E0F50CA3E0F50DE50C450D6007EA241B36
:10E1B000FAE43BFB12E71012E3426007EA2416FA86
:10E1C000E43BFB1212758A088B09AE08AF09EE4FCB
:10E1D000700302E2FF7C0E7D0079001212637A2642
:10E1E0007B0012041D8A088B09EA45097009850E17
:10E1F00082850F83E0F5088E828F8374D0F0A3E5CB
:10E200001112E304740A12E0F612E10B8E828F837E
:10E21000A3A3A3A3A3E510F0EE240EF50AE43FF5B3
:10E220000B9002A9E0241912E30A12E3486018EEE9
:10E23000240612E315121A308C828D8312DE8012AE
:10E24000124B74021217C39002A9E0241D12E30AB4
:10E2500012E3486038EE2408F8E43FF988828983A5
:10E2600012E10E8882898312E14EEA2414F50AE451
:10E270003BF50B750E14750F00780E121A308C8258
:10E280008D8312DE8012124B74021217C3E50C4507
:10E290000D6015EE240A12E315121A30AC0CAD0D08
:10E2A00012124B74021217C39002A9E0241BF8A3A8
:10E2B000E03400F9E8FAE9FB8A828B8312E34860D4
:10E2C00032EE240CF8E43FF9880C8882F58312E1E1
:10E2D0000E750A16750B00780A121A308A828B8323
:10E2E00012DE80850C82898312E14E12124B740279
:10E2F0001217C3EEFAEFFBA9081212811204FB7F7A
:10E300000C0218EF12E0F6A3A322FCA3E03400FDF8
:10E310008C828D8322F8E43FF988828983E50AF0B4
:10E32000A3E50BF08882898312E152EA241BF50AE7
:10E33000E43BF50B750E1B750F00780E2212E6F507
:10E34000241DF582E438F58312E027E84922C082D3
:10E35000C0839002A912E348602FE0C8241912DBA1
:10E3600040600312132312DB3B600312132312E7F6
:10E370000A12DB4060031213239002A912E14E122D
:10E3800013239002A9E4F0A3F0D083D082020132DB
:10E39000C082C0839002A712E34860109002A712C7
:10E3A000E14E1213239002A7E4F0A3F080DB74F097
:10E3B00012181D890C8A0A8B0B1209998A088B097D
:10E3C000EA4509604C7A267B0012041D8A0E8B0FE9
:10E3D000AE0EAF0FEE4F7008850882850983E0FE10
:10E3E0007A057B001212758A088B09EA45096021BB
:10E3F0007C057D00790012126312E419740EF08519
:10E40000088285098312E10BAA08AB09EEF9121202
:10E410008102E0127F0A0218EF8508828509837461
:10E42000D0F0A3E50C12E42922F085088285098347
:10E43000A3A32274EE12181D8A0A8B0B890E1209EF
:10E44000998A0C8B0DEA450D700302E4D67A0D7B98
:10E45000001212758A088B09AE08AF09EE4F60767C
:10E460007A267B0012041D8A088B09EA4509700987
:10E47000850C82850D83E0F5088E828F8374D0F041
:10E48000A3E412E304740B12E4ED121A30E50C2439
:10E4900005FCE4350DFDEE2403FAE43FFB12124BBC
:10E4A00074021217C38E828F83A3A3A312E10812F2
:10E4B000E4E3E50EA2E0500474018001E4F012E40C
:10E4C000D9E50EA2E1500474018001E4F0EEFAEF08
:10E4D000FBA90812128102E414EE240CF582E43F39
:10E4E000F58322EE240BF582E43FF58322F07510CC
:10E4F0000675110078102274E812181D89108A0F11
:10E50000ECFEEDFF8B0EEEFAEFFB1209998A088BF9
:10E510000974181217F9E0F50CA3E0F50D741A123E
:10E5200017F9E0F514A3E0F515741C1217F9E0F5DE
:10E5300016A3E0F517741E1217F9E0F50AA3E0F52B
:10E540000BEA4509700302E623E510600302E623A7
:10E55000EA2403F582E43509F583E0D2E4F0E50E20
:10E56000A2E2E05004D2E18002C2E1F0E50C450DE8
:10E570007012E5144515700CE51645177006E50A8E
:10E58000450B606AE0D2E2F0E50A450B603412E622
:10E59000FE12169BE5082420F582E43509F5831266
:10E5A00016A77512107513007812121A30AC0AAD46
:10E5B0000BE5082410FAE43509FB12124B74021221
:10E5C00017C3E5082424F50850020509E50C450D9C
:10E5D0006021E50F701D85088285098312DB466086
:10E5E000031213237C1B7D00AA0CAB0D8027E0C215
:10E5F000E2802FE5144515602A7401650F702485AB
:10E60000088285098312DB4660031213237C1B7D7D
:10E6100000AA14AB15121257850882850983EAF007
:10E62000A3EBF09002A912E348700302E6F0E50CB8
:10E63000450D6039E0C8241912E342700F7A1B7B44
:10E640000012131D12E6F5241912E0FC12E6F5245F
:10E650001912DB40601775081B7509007808121A3B
:10E6600030AC0CAD0D12124B74021217C3E51645F7
:10E6700017603112E71012E342700D7A167B001218
:10E68000131D12E71012E0FC12DB3B601775081631
:10E690007509007808121A30AC16AD1712124B74B7
:10E6A000021217C3E50A450B603112E33D700D7A83
:10E6B000147B0012131D12E70A12E0FC12E70A1283
:10E6C000DB4060177508147509007808121A30AC21
:10E6D0000AAD0B12124B74021217C37814121A30BF
:10E6E000AC0EEEFAEFFBA9101204F574021217C378
:10E6F0007F100218EF9002A9E0F8A3E0C822E50A13
:10E700002410F582E4350BF5832212E6F5241D2250
:10E7100012E6F5241B22C082C0839002AB12E102F4
:10E7200002E38974EE12181D890B8A0C8C0E8D0F72
:10E73000750A0012E8176005791102E7F1741212E8
:10E7400017F9E0F508A3E0F509E508450960307A16
:10E75000217B0012041DE5082415FEE43509FF8E17
:10E76000828F83E0C39AE49B40157A227B001204D7
:10E770001D8E828F83E0F8C3EA98EB9400500479F1
:10E7800002806E7A637B0012131D900C7FEAF0A367
:10E79000EBF012E8177004791380567C637D0079E2
:10E7A0000012126312E7F6E4F0900C7FE012EE7EA6
:10E7B000E50B12E80BE50C12E80BA3E50EF0A3E560
:10E7C0000FF012F2CFE508F0A3E509F012F2BAE477
:10E7D000F0A3F012F2E1E4F0E50B6006120EE5E9B9
:10E7E000F50A12E7F67401F0E50A6003120F1BA99F
:10E7F0000A7F0A0218EF12E7FA2212E7FE22900CB3
:10E800007FE0F8A3E0F5838882A322F012E81022CB
:10E8100012E7FEA322E9FE900C7F12EBEEE84922FC
:10E8200074F612181D7E0012E817601412F2EBE065
:10E83000F8740268600F740368600A740468600505
:10E84000791202E8E612E8F76C7003A3E06D600548
:10E85000790202E8E67508108E097808121A30EA83
:10E86000FCEB12E8E912124B74021217C3791090F4
:10E870000C7FE0242BFAA3E03400FB120E5B900C1B
:10E880007FE0241BF508A3E03400F5097808121A8C
:10E890003012EF4F12E8E9120ED374021217C39030
:10E8A0000C7FE0240112F2AFE0FA900C7FE0FBA3B2
:10E8B000E0F5838B82E0600D74036A70278882899B
:10E8C000837402801974046A7009888289837402CF
:10E8D000F0801174036A700C888289837405F012C9
:10E8E0000EEBE9FEEEF902F38CFD900C7FE02407BD
:10E8F000FAA3E03400FB22900C7FE0F8A312E901B8
:10E9000022E0F5838882A3A3A3E022C082C0839083
:10E910000C8302EC2A74F712181D12E8156013120A
:10E92000E8FD6A7003A3E06B700874016E70031257
:10E930000F1B7F010218EFC082C0837917120F21CD
:10E9400002EC2F74F412181D74ED1217ADEAF8EBF7
:10E95000F9851882851983E4F088828983A3A3A3AB
:10E96000A3A3A312EE328A828B83E0F508E8240287
:10E97000FEE439FFE50814602714602414603A149B
:10E98000605A14606114606814606F1460761460DB
:10E990007D14700302EA1814700302EA2202EA2CC2
:10E9A0007401121813120F57E9F874126870148565
:10E9B00018828519837406807B7401121813120F54
:10E9C00063E9F8E8600302EA7375090712EE2E1294
:10E9D0000999EA4B706175080802EA6A7401121815
:10E9E00013120F6F80DB7401121813120F7B80D18A
:10E9F0007401121813120F8780C7740112181312B2
:10EA00000F9380BD7401121813120FA580B3740107
:10EA1000121813120FAB80A97401121813120FB73A
:10EA2000809F7401121813120FBD8095851882857E
:10EA300019837407F08045EA240BF582E43BF583E3
:10EA4000E064087005900C838003900C8112E81A32
:10EA5000601512EE8012EBE2600D7401121813A91A
:10EA60000812181BE9F5098509088518828519839C
:10EA7000E508F0851882851983E0600CAC18AD19A3
:10EA800012EE2E120EC18003120E3774131217C32A
:10EA90007F040218EF74F612181DECFEEDFF7508E6
:10EAA0007575090F7808121A307902120FC37402B3
:10EAB0001217C3E9F5088E828F83E0F9120F21A99E
:10EAC0000802F38C74F412181DEAFEEBFF89081299
:10EAD000E817700302EBB312E8FD6E7003A3E06F5A
:10EAE000600302EBB3900C7FE0240108A3E0340044
:10EAF000F9E8FAE9FB8A828B83E0F8740668600320
:10EB000002EBA012ED57607F900C8012F5A712EB7C
:10EB1000EE900C7FE0FCA3E0CC2418F582E43CF5F9
:10EB200083E0FCA3E0FDE82413F582E439F583E0FB
:10EB3000F8A2E050168C828D83A3A3A3A3A3E0A226
:10EB4000E050088A828B8374078034E85402601690
:10EB50008C828D83A3A3A3A3A3E0540260088A82BE
:10EB60008B8374098019E8540460178C828D83A309
:10EB7000A3A3A3A3E0540460098A828B83740BF0DF
:10EB80008015900C838003900C8112E81A600812A3
:10EB9000EBDD600312181B12EC23703C7900800E31
:10EBA000741168700EE5086003750832A908120F29
:10EBB000218025E5087018EEFAEFFB1209998A8288
:10EBC0008B83E58245836007A3A3A3E0D2E4F0EE44
:10EBD000FAEFFBA908120507790102EA9012EE8408
:10EBE000A3A312EBEE88828983E582458322E0F8B5
:10EBF000A3E0F922C082C08312E817602412EED687
:10EC00007005900C818003900C8312E81A60081242
:10EC1000EBDD600312181B12EC2370057900120F54
:10EC200021800C12E7FAE0641222EAF0A3EBF0D0A4
:10EC300083D08202013274E812181D74EB1217ADF2
:10EC40008A168B178C148D1512E81770057912022D
:10EC5000ED4D12EEE11209998A088B09AE08AF0951
:10EC6000EE4F7005791402ED4DAA18AB19120F2D55
:10EC7000EE2405F512E43FF513EE2404F510E43F0D
:10EC8000F51112ED57602FA818A919880C890D12DB
:10EC9000F2D6FEA3E0FF120465E9F50E7900120436
:10ECA0006B8A088B09851082851183E0F50F851228
:10ECB0000A85130B8036900C8012F2DCF50CA3E071
:10ECC000F50DA818A91988088909AE08AF0912041A
:10ECD00065E9F50F790012046B8A0A8B0B851082A7
:10ECE000851183E0F50E851208851309740E12183C
:10ECF00013EEFAEFFB120F4B7407121813AA0CABAA
:10ED00000D120F45742D1217F9121A47780A121AAC
:10ED100030E50FF50A780A121A347808121A30749E
:10ED20000E121803880889097808121A307417120D
:10ED30001803880889097808121A30A90EAC14AD96
:10ED400015AA16AB17120E49740B1217C3741512BD
:10ED500017C37F100218EF900C7FE0F8A312EE8427
:10ED6000E02274F612181D74F71217ADEAFEEBFFDD
:10ED70008C088D09900C8112E81A700302EE29129A
:10ED8000EE8012E81A700302EE298C828D83E0C0B7
:10ED9000E074021217F9D0E0F08C828D83A3E0C0FA
:10EDA000E074031217F9D0E0F08C828D83A3A3E006
:10EDB000F974041217F9AA82AB83120E67850882D0
:10EDC000850983A3A3A3E0C0E074061217F9D0E07D
:10EDD000F0850882850983A3A3A3A3C082C083749E
:10EDE000071217F9AC82AD83D083D0827402121659
:10EDF000C074021218137901EEFAEFFB900C811225
:10EE0000ED5A12EE7E12181BE9851882851983F0DF
:10EE1000601774011217F9E9F074011218138E8249
:10EE20008F83A312EE32120EC1740902F3898E820F
:10EE30008F83E0FAA3E0FB2274F712181D89089073
:10EE40000C8312E81A603212EE80A3A3A3A312EB84
:10EE5000EEE8FEE9FFEE4F6020740B1217F9121A6C
:10EE600047740B1217F9121A47A9088E828F831262
:10EE7000181B74041217C38002790202E932F8A346
:10EE800012EE8422E0F58388822274F612181D7433
:10EE9000F91217AD12E8176033AA18AB19120F2D2B
:10EEA00012EEDB12EED3600875084575090F800677
:10EEB00075084B75090F7808121A3074021218136E
:10EEC0007907120FC374021217C380027901740705
:10EED00002F389900C8012EE84E022900C7FE0F81F
:10EEE000A312E901FAA3E0FB2274F612181D74F0D4
:10EEF0001217AD7508107509007808121A30900CB9
:10EF00007FE0241BFCA3E03400FD740212180B12F6
:10EF1000124B74021217C375085D75090F02F37066
:10EF200074F612181D74F01217AD750810750900EB
:10EF30007808121A3012EF4FFD740212180B1212D9
:10EF40004B74021217C375086975090F02F37090AC
:10EF50000C7FE0242BFCA3E034002274F012181D77
:10EF60008A088B09750A0012F2BA12E81A600302C5
:10EF7000F2667A077B0012131D900C7FE0241812B2
:10EF8000F2AFEAF0A3EBF088828983E0FA4B7003DA
:10EF900002F26112F2CFE0FEA3E0FF750C07750DDF
:10EFA00000780C121A30AC08AD0912124B74021220
:10EFB00017C312ED57600302F1D3EE2413FCE43FB4
:10EFC000FD900C8012F2DC2405F50CA3E03400F572
:10EFD0000D8C828D8312EBEE850C82850D83E0A271
:10EFE000E092F0E8A2E020F001B35007A2E0E433A1
:10EFF000FA80027A00E854FE4AF88C828D8312F27D
:10F0000070C313A2E092F0E8C313A2E020F001B3B2
:10F010005012E854026004D2F08002C2F0A2F0E480
:10F0200033FA80027A00E854FDF8EA25E0FAE43386
:10F03000FBE84AF8E94B12F290543FA2E092F0E864
:10F040001313543FA2E020F001B35013E8540460BE
:10F0500004D2F08002C2F0A2F0E433F50E80037512
:10F060000E00750F00E854FBFAE9FB7402780E12EB
:10F07000179AEA450EF8EB450F12F29013541FA2AF
:10F08000E092F0E8131313541FA2E020F001B350F4
:10F0900013E854086004D2F08002C2F0A2F0E43316
:10F0A000F50E8003750E00750F00E854F7FAE9FBC2
:10F0B0007403780E12179AEA450EFA12F27CA3E056
:10F0C000A2E092F0EBA2E020F001B35011540160F5
:10F0D00004D2F08002C2F0A2F0E433F8800278009B
:10F0E000EB54FEFBE8F9EB4912F29C7409780E121E
:10F0F000178BE50EA2E092F08A0E8B0F7409780E42
:10F1000012178BE50EA2E020F001B35013EB54026E
:10F110006004D2F08002C2F0A2F0E433F50E800366
:10F12000750E00EB54FDFB7409780E12179AEB452F
:10F130000F12F29C740A780E12178BE50EA2E09261
:10F14000F08A0E8B0F740A780E12178BE50EA2E070
:10F1500020F001B35013EB54046004D2F08002C2DB
:10F16000F0A2F0E433F50E8003750E00EB54FBFBC8
:10F17000740A780E12179A12F27CE0F50CA3E0F5EF
:10F180000D740B780C12178BE50CA2E092F08A0C30
:10F190008B0D740B780C12178BE50CA2E020F0019C
:10F1A000B35013EB54086004D2F08002C2F0A2F016
:10F1B000E433F50C8003750C00EB54F7FB740B780B
:10F1C0000C12179AEAF8EB450DF98C828D83E8F062
:10F1D000A3E9F0850882850983A3E0600F8E828F02
:10F1E00083A3E0600712F2E17405806D85088285D3
:10F1F0000983A3A3E054047015EE2412F582E43FC2
:10F20000F583E0A2E2400712F2E17401804B12EDB7
:10F21000578E828F83600CE0FA850882850983E02F
:10F22000F8800AE0F8850882850983E0FAEAC39449
:10F23000055029E8C394055023E875F005A4F8A902
:10F24000F0745028F8748039F9E82AF582E439F529
:10F2500083E0C0E012F2E1D0E0F0800D750A188082
:10F2600008750A138003750A11A90A7F080218EFAE
:10F27000F0A3E9F0850C82850D83E022EB450FFBBE
:10F280008C828D83EAF0A3EBF0850C82850D8322BE
:10F29000F98C828D83E812F270131322FB8C828D1D
:10F2A00083EAF0A3EB12F273F50EA3E0F50F22F858
:10F2B000A3E03400F98882898322900C7FE0F8A3D0
:10F2C00012F2C422E0C82418F582E438F583221231
:10F2D000E810A3A3A322900C7FE0F8A312F2C4E0ED
:10F2E00022900C7FE0F8A312F2EB22E0C8241AF57A
:10F2F00082E438F5832274F612181D7508817509A9
:10F300000F7808121A307911120FC37402807A74C0
:10F31000F612181D74EE1217ADEAFEEBFF85188287
:10F32000851983ECF0A3EDF07508087509007808DD
:10F33000121A30741E1217F9E0FCA3E0FD740412D7
:10F3400017F9AA82AB8312124B74021217C3750805
:10F350008D75090F7808121A307402121813790B80
:10F36000EEFAEFFB120FC374021217C37412801966
:10F370007808121A307402121813791112EEDB1287
:10F380000FC374021217C374101217C37F0202183E
:10F39000EF74F612181D75089975090F02F30174C0
:10F3A000F412181D74F91217ADEAFEEBFF851882EE
:10F3B000851983E9F0750A06750B00780A121A3070
:10F3C00074031217F9AA82AB8312124B740212173C
:10F3D000C3750A9F750B0F780A121A30740212183F
:10F3E000137908EEFAEFFB120FC374021217C374FD
:10F3F0000702EA8D74F612181D7508B175090F021F
:10F40000F301C082C08312E8176050E0C8241812CC
:10F41000F461600312132312F4D8245B12F46160C8
:10F420000312132312F4D8245D12F4616003121343
:10F430002312F4D8245F12F461600312132312F430
:10F44000D8246112F4616003121323900C7F12EE32
:10F4500032121323900C7FE4F0A3F0120E3D02EC65
:10F460002FF582E438F583E0FAA3E0FBEA4B22743F
:10F47000F712181D12E815605CE0C82461F582E4FB
:10F4800038F583121A4712F4D8245FF582E438F570
:10F4900083121A4712F4D8245DF582E438F58312FA
:10F4A0001A4712F4D8245BF582E438F583121A4720
:10F4B00012F4D82417F582E438F583E0FB12E8F75C
:10F4C000FCA3E0FD12EED3FAEEF912051374081254
:10F4D00017C3120F1B02E932900C7FE0F8A3E0C8BB
:10F4E00022C082C0837910900C7F12F467603512BD
:10F4F000F2D6FAA3E0FBEAFCEBFDEC4D602612F23B
:10F50000CF12F467601EEA2415F582E43BF583E030
:10F51000F88C828D83A3A3A3A3E0FAC3985003EAD7
:10F520008001E8F902EC2F74F612181DEAFEEBFFD9
:10F5300012E817606612F5A712E81A605E8808895B
:10F540000988828983E08E828F83F088828983A3F1
:10F55000E08E828F83A3F0E82412F582E43509F56A
:10F5600083E0F9EE2402FAE43FFB120E67E508247B
:10F5700015F582E43509F583E08E828F83A3A3A37A
:10F58000A3F0E5082413F582E43509F583EE24059C
:10F59000FCE43FFD74021216C080097C077D0079EF
:10F5A0000012126302F38C12EE84A3A3A3A3A3227E
:10F5B00074F712181D8C828D8312F7688C828D83EC
:10F5C000A3E08A828B83A3F08C828D8312FAF712D8
:10F5D000FB9202FBCD74F212181D74FA1217ADEAF9
:10F5E000FEEBFF890B8C0A7A177B0012097B8A08D5
:10F5F0008B09EA4509700302F69A74161217F9127C
:10F60000F91C602174141217F912FE28EA2404FA76
:10F61000E43509FB8882898312181B8A0C8B0DA89C
:10F620000CA90D800478007900850882850983E59E
:10F630000BF0A3E50AF0E8850882850983A3A3F00F
:10F64000E9850882850983A3A3A3F085188285191B
:10F65000837405F0A3E4F074021217F9E508F0A32F
:10F66000E509F0E82404F850010974041217F912AE
:10F67000F6A390033AE0AC18AD196009EEFAEFFB7F
:10F6800012091B8007EEFAEFFB120909E9FEEE6092
:10F690000BAA08AB091212D580027E13EEF974068C
:10F6A00002FA0FE8F0A3E9F02274F512181D8C821B
:10F6B0008D8312FC1AE875F009A4F8AEF075F00914
:10F6C000E9A42EF974EF28F8740239F9E82403FE4E
:10F6D000E439FF8E828F8312FC0A70338C828D8313
:10F6E000A3A312FC128E828F83E508F0A3E5091212
:10F6F000FA0612FE2788828983A3A3A3A3A3ECF0B2
:10F70000A3ED12FD24A3EAF0A3EBF07900800279C7
:10F71000167F030218EFC082C0837A057B001209AE
:10F7200015E9701E7A067B00120915E970147A0437
:10F730007B00120915E9700A7A077B00120915E9A6
:10F7400060047901800279008016C082C0838C82B7
:10F750008D8312FBFD8C828D8312F7677A027B000A
:10F76000D083D082020132A312FB3C2274F612181D
:10F770001D74FA1217ADEAF8EBF9E875F009A4F870
:10F78000ACF075F009E9A42CF974EF28F87402398B
:10F79000F988088909E82403FEE43509FF8E828F81
:10F7A0008312F91C605890033AE0604E85188285F8
:10F7B0001983EAF0A3EBF074021217F912F6A3858D
:10F7C0000882850983A3A3A3A3A312FC1A740412BD
:10F7D00017F912F6A3AC18AD1985088285098312B2
:10F7E000FE2E12091BE9600A8E828F8312FE3512EB
:10F7F00012D58E828F83E4F0A3F079018002790024
:10F8000074061217C302FBF874F012181D8A0A8BD3
:10F810000BECFEEDFFEE2404F508E43FF509850846
:10F8200082F58312F91C600B901B4EC3E098A3E095
:10F83000995005791B02F9087C047D008E828F8324
:10F8400012FE331212DB8A0E8B0F85088285098324
:10F8500012F768A385820C85830D8508828509834C
:10F86000A312F92412F924A312F933850882850919
:10F8700083E02404FEA3E03400FF74FE650A7004F4
:10F8800074FF650B70417A097B00121275EA4B60B8
:10F89000328A828B837490F0A3A3A3A3740212F91B
:10F8A0001474FEF0A30412F90DEEF0A3EF12F90D9B
:10F8B000A3A3E50EF0A3E50FF0900312E0F91212F6
:10F8C00081803779138041780E121A30EEFCEFFDFB
:10F8D0007900AA0AAB0B1207C574021217C3E9F923
:10F8E000601024FE601824FB601C24F5601424F3CF
:10F8F000701690033AE0600214F07900800A7914DF
:10F9000080067902800279047F080218EF12F91448
:10F91000A3A3A322F08A828B83A3A322E0F8A3E00F
:10F92000F9E8492212F933A385820C85830D8E8272
:10F930008F8322E0850C82850D83F02274F21218E9
:10F940001D8A088B09EA2402FEE43509FF8E828FA6
:10F9500083E4F0A312FA06A3E06402600302FA0251
:10F960008C828D83A3A3A3A3A3E0F50CA3E0F50DE4
:10F97000C3E50C9404E50D9400500302FA028C8256
:10F980008D8312FE2E8A828B83E0FCA3E0F8E4C80C
:10F99000F9EC28E439FD8A828B83A3A3E0F50A8A77
:10F9A000828B83A3A3A3E0F9A80AEC2404F50AE45C
:10F9B0003DF50BE50C650A7004E50D650B704374AD
:10F9C00005687001E960167404687001E9600E74DE
:10F9D00006687001E9600674076849702585088229
:10F9E000850983A3A3A3A3ECF0A3ED12FD307CFC57
:10F9F0007DFF1212DB8E828F83EAF0A3EBF0790099
:10FA000080027901800CF08C828D83A3A3A3221243
:10FA100017C37F060218EF74F412181D75080275DB
:10FA2000090012FB12A3A983EC2402FEE43DFF8C23
:10FA3000828D83E0F50AA3E0F50B7401650A450B9E
:10FA4000700B12FA6712F76775080480117402656B
:10FA50000A450B700912FA6712FB2E750806AA08F0
:10FA6000AB097F040218EF8E828F8312FB3C0AE9F8
:10FA7000FB8E828F832274F612181D740A1217F9F6
:10FA8000C3E09402A3E09400406312FBB4EA2402B2
:10FA9000F8E43BF98A828B83E0FEA3E0FF74016EF9
:10FAA0004F70138C828D8312FAF2E0FBEE8882890C
:10FAB00083F0A3EB803274026E4F702D8C828D83A5
:10FAC000A3A3E0F5088C828D83A3A3A3E0FFE50840
:10FAD00088828983F0A3EFF08C828D83A3A312FA2E
:10FAE000F2A312FBA3F0A3E9F079008002790102EE
:10FAF000FBF812FAF7A322A3A3E0FE8C828D83A366
:10FB0000A322F8E43DF98882898312FB2688828942
:10FB100083228C828D8312FC018C828D8312FB21C7
:10FB200022A312FB262212FB40A30AAB832212FB64
:10FB300021EC240412FB02A312FB3C2212FB402204
:10FB4000E08A828B83F02274F712181D7409121751
:10FB5000F9E064087002A3E0703412FBB4EC2402F4
:10FB6000FC50010D8C828D83E0FE12FB92F0EC24A0
:10FB700002FC50010D12FB9912F6A4EC2402FC5079
:10FB8000010D12FB99A3A312F6A47900800279015A
:10FB9000803C12FBA9F0A3E9228C828D83E0FE1247
:10FBA000FBA32212FBA9A3A322A3E0F9EE8A828B76
:10FBB00083A3A32212FBB8228C828D83E0FEA3E0F4
:10FBC000F9EE8A828B83F0A3E9F02274FFF07F01C3
:10FBD0000218EF02F74A74F712181D74091217F988
:10FBE000E064027002A3E0700512FBF2800279016A
:10FBF00080DC12FBB87900227F020218EF12FC01B0
:10FC00002212FB40A3AA82AB832212FC12E5084514
:10FC10000922E0F508A3E0F50922E0F8A3E0F922C3
:10FC200074F012181D890A8A0C8B0DECFEEDFF7A18
:10FC30000A7B001212758A088B09EA4509604E8A10
:10FC4000828B8374A0F0A3E412F914E50CF0A3E511
:10FC50000DF0EA2404FAE43509FBEE4F6019750C47
:10FC600006750D00780C121A30EEFCEFFD12124BE7
:10FC700074021217C380097C067D0079001212639A
:10FC8000AA08AB09A90A121281790080027901023F
:10FC9000F90874F012181D89088A0C8B0D8C098DD7
:10FCA0000A7A1C7B001212758A0E8B0FAE0EAF0FF4
:10FCB000EE4F606D8E828F8374A2F0A3E509F08E03
:10FCC000828F83A3A3E50CF0A3E50DF07410121747
:10FCD000F9E08E828F83A3A3A3A3F08E828F83A3E8
:10FCE000A3A3A3A3E50AF0EE2406FAE43FFB7411F4
:10FCF0001217F912FE28EC4D6015750C16750D00E3
:10FD0000780C121A3012124B74021217C380097C3D
:10FD1000167D007900121263EEFAEFFBA9081212A9
:10FD20008102F908F088828983A3A3A3A3A3A32255
:10FD3000F0850882850983E8F0A3E9F02274F712C0
:10FD4000181DEAFEEBFF7C0A7D0079001212638E1B
:10FD5000828F83A3A3A3A3A3A3A302FBCBC082C0D0
:10FD6000837800800108900339E0FAE8C39A5017BD
:10FD700012FD8E12FE27EC4D60EB8A828B83A3A3CB
:10FD8000A3E06970E080047A007B0002F760E87508
:10FD9000F00AA4FAABF0900337E02AFAA3E03BFBA9
:10FDA0008A828B832274F712181DEA2407FEE43B33
:10FDB000FF8E828F83E0F91212FF8E828F8302FB07
:10FDC000CB74F212181DEAFEEBFF890A8E828F8334
:10FDD000E06404704FEE2404F8E43FF988088909D0
:10FDE000E4F50CF50D780C121A30750B00780B1237
:10FDF0001A347D13AC0A850882898312FE358E82FF
:10FE00008F83A3A3A3A3A3A3E0F912094B74031246
:10FE100017C3791285088285098312FE287A057B2B
:10FE20000012097502FA12A3E0FCA3E0FD22A3A3CD
:10FE3000A3A3A3A3A3E0FAA3E0FB22C082C0837C18
:10FE4000077D0012096F02F76074F512181D8A0809
:10FE50008B09750A00EC4D707C8051E50A75F00A3B
:10FE6000A4F8A9F0900337E028FEA3E039FF8E82C2
:10FE70008F83E06035A3A3A3A3A3A3A3E0F4602A28
:10FE80008E828F83A3A3A3A3E065087004A3E0651B
:10FE9000097017EEFAEFFB12095D7914EEFAEFFB29
:10FEA000120963EEFAEFFB120951050A900339E0DB
:10FEB000F8E50AC39840A47E047F0079FFAC08AD42
:10FEC00009EEFAEFFB1209750EEE70010FC39408EC
:10FED000EF940040E602F71174F712181D8908EA42
:10FEE00075F009A4FAA8F075F009EBA428FB74EFEB
:10FEF0002AF874023BF988828983A3A3A3A3A3A34E
:10FF0000A3E06C7003A3E06D7034E8240350010992
:10FF1000FEE9FF8E828F8312FC1A88828983E58234
:10FF20004583601A74FF65086005E06508700FAAD4
:10FF300082AB831212D58E828F83E4F0A3F002FB92
:10FF4000CE74F612181DEA2404FA50010B1207BFF2
:10FF5000EA4B60097CFC7DFF1212DB80047A007B97
:10FF60000002FBF874F412181D8A0A8B09ECFEEDEE
:10FF7000FF750802EA24FE600424FA70401204238C
:10FF8000E9F5087038740E1217F9121A47740E1238
:10FF900017F9E0FCA3E0FDEEFAEFFB12042974026E
:10FFA0001217C37401650A60067404650A7003754C
:10FFB0000900A9091203C31203FF120DF5A9087F56
:10FFC000040218EF74F712181DEAF8EBF98005A384
:10FFD000AA82AB838A828B83E070F48C828D83E06B
:10FFE000FEA3AC82AD838A828B83F0A3AA82AB830B
:0EFFF00070E9E8FAE9FB7F010218EF02013226
:020000040001F9
:100000007F010218EF74F412181D74FD1217ADEA87
:10001000FEEBFF8C088D09EE4F6005EC450970047E
:10002000790280517903AA18AB19120E5B7402127F
:1000300017F9E0543F4440F07808121A3074021265
:100040001813EEFAEFFB120E4374021217C3E9FE07
:100050007021750A03750B00780A121A30740212A7
:100060001813E5082403FAE43509FB12124B740255
:100070001217C3EEF97403801B1217F9AC82AD831B
:10008000743E1217F912853A12125174021217C3F4
:10009000EEF974301217C37F040218EF74F41218CB
:1000A0001D74FA1217AD8A088B09ECFEEDFFEA45C4
:1000B000096004EE4F700479028074750A03750BB1
:1000C00000780A121A30EE2403FCE43FFD74021299
:1000D000180B12124B74021217C374021217F9E0B4
:1000E000543F4440F07403121803880A890B780ABD
:1000F000121A307402121813AA08AB09120E4374B4
:10010000021217C3E9F9702775080375090078080A
:10011000121A30EEFCEFFD740512180B12125D740A
:10012000021217C3E9640170047900800279017436
:100130000602809474F412181D8908128219700343
:10014000028208E508705C128213E0750A08750BDC
:1001500000780A702E121A30EAFCEBFD900C7DE05C
:100160002402FAA3E03400FB12124B74021217C3EC
:1001700012080DE9700812820D74010282037508DD
:1001800001801B121A30EAFCEBFD900C7DE0240A82
:10019000FAA3E03400FB12124B74021217C312824E
:1001A0001960617A127B001212758A0A8B0BAE0AF3
:1001B000AF0BEE4F603E8E828F8374C1F0A3E508D3
:1001C000F0750A10750B00780A121A30900C7DE059
:1001D0002402FCA3E03400FDEE2402FAE43FFB120B
:1001E000124B74021217C3EEFAEFFB12820DA3E05A
:1001F000F9121281900C7D12853A121323900C7D16
:10020000E4F0A3F0790180027900028097900C7DE0
:10021000E0F8A3E0F583888222900C7DE0F8A3E06B
:10022000F9E8492274F212181D7A207B0012041D8D
:100230008A088B09E4F50AF50B8B0DEA450D60166B
:100240007808121A2C7A017B00900C85E0F91213C1
:10025000B974041217C37F060218EFC082C0837AF4
:10026000017B00900C85E0F91213C502857F74F4C0
:1002700012181D74D01217AD8A088B09ECFEEDFF21
:100280007C307D007900AA18AB19121263750A1030
:10029000750B00780A121A30AC08AD0974021218F6
:1002A0000B12125174021217C375080375090078F6
:1002B00008121A30EEFCEFFD741F1217F9AA82AB78
:1002C0008312125174021217C3AA18AB19120E6DC1
:1002D000E9FE7808121A30742F02807974F212182D
:1002E0001D74B01217AD8A088B09ECFEEDFF890A68
:1002F0007C307D007900742012180B121263750C8B
:1003000010750D00780C121A30AC08AD0974221269
:10031000180B12125174021217C37C107D00790061
:10032000AA18AB191212637508077509007808122C
:100330001A3074601217F9128534740212180B12F5
:10034000125174021217C37808121A30746212170D
:10035000F912853474091217F9AA82AB831212516B
:1003600074021217C374641217F9E06009740E1254
:1003700017F974018006740E1217F9E4F0E50A60AB
:1003800009740F1217F974018006740F1217F9E43B
:10039000F07C107D007900EC12180B1212637508C6
:1003A000067808121A3074641217F912853474161C
:1003B0001217F9AA82AB8312125174021217C37872
:1003C00008121A3074671217F9128534741C121748
:1003D000F9AA82AB8312125174021217C375081066
:1003E0007808121A30EEFCEFFD74321217F9AA8267
:1003F000AB8312125174021217C3AC18AD197430CA
:100400001217F9AA82AB83120E4F742012180B1226
:100410000E6DE9FF7808121A3074421217F9AC8297
:10042000AD8374321217F9AA82AB8312124B740295
:100430001217C3741012181374301217F9AA82AB72
:1004400083120E4F742012180B120E6DE9FE7808FD
:10045000121A3074421217F9AC82AD837469121704
:10046000F912853A12125174021217C3EF4EF97441
:10047000501217C302825674F712181D78108C821E
:100480008D83E0F98A828B83E069F0A3AA82AB8333
:100490008C828D83A3AC82AD83D8E302800074F696
:1004A00012181D74D01217ADECFEEDFF7508107513
:1004B00009007808121A30EAFCEBFD740212180BDE
:1004C00012125174021217C37508087808121A30F4
:1004D000EEFCEFFD74121217F9AA82AB83121251CF
:1004E00074021217C37808121A30743C1217F912EA
:1004F0008534741A1217F9AA82AB8312125174024E
:100500001217C3AA18AB19120E6DE9FE7508107800
:1005100008121A3074221217F9AC82AD83743E129D
:1005200017F912853A12125174021217C3EEF974B8
:10053000300285F7E0FCA3E0FD22E0FAA3E0FB2215
:1005400074F412181DEAFEEBFF8909750800801B80
:1005500012126FA808128D32EBF00508E508C3955A
:1005600009500808128D32EAF00508E508C395091C
:1005700040DE028097C082C0838A828B83E0F9D0FC
:1005800083D08202013274F612181DE9FCA2E250F7
:1005900004D2F08002C2F0A2F0E433F5087509003D
:1005A000E9A2E35004D2F08002C2F08A828B83E099
:1005B00054FCFEA3E0FFEE4CFCEFFDEC54FBFC749E
:1005C00002780812179AEC45085407FCA2F0E433AD
:1005D000F5087403780812179AEC4508FCE9C4542E
:1005E0000FF5087404780812179AEC45088A828B74
:1005F00083F0A3EDF080031217C37F020218EF749B
:10060000F612181DEA2420F508E43BF509780812D3
:100610001A30EA2410FCE43BFD120E73740280D7FA
:10062000C082C083851882851983121A47120A0B6B
:1006300074021217C302857F74E812181D74E81241
:1006400017AD8A0A8B0B89178C088D09EA450B6058
:1006500005EC45097005790202877C740429F516BA
:10066000FA7B0012131D8A0C8B0DAE0CAF0DEE4FF2
:1006700070030287771204598A0C8B0D8C0E8D0F34
:100680008517107511007810121A30AC0AAD0BEEF8
:100690002404FAE43FFB12125174021217C38E8233
:1006A0008F83A3A3A3E50CF0E50DF5158E828F8350
:1006B000A3A3F0850C10F511850E12850F1374108D
:1006C0007810121580E510F5148E828F83A3F085C3
:1006D0000C10850D11F512850F1374187810121572
:1006E00080E510F50A8E828F83F01204538A108BF6
:1006F00011AC10AD117510107511007810121A3070
:10070000740A12180B12125174021217C3A818A9F6
:1007100019881089117810121A30A916EEFCEFFD15
:10072000740A12180B120E8574021217C3E9F50B26
:10073000703C850882850983E50CF0A3E5151287D6
:1007400086E514128786A3E50AF0750C08750D007E
:10075000780C121A307402121813E5082404FAE413
:100760003509FB12125174021217C312045FEEFA1C
:10077000EFFB1213238003750B13A90B74181217C8
:10078000C37F100218EFF0850882850983A3A32296
:1007900074E812181D74DD1217AD74011217F9EA0E
:1007A000F0A3EB128BDF8C168D17EC45177003024C
:1007B000885C743C1217F912898D700302885C748E
:1007C000011217F912853A1209998A148B15EA4514
:1007D0001570057914028988850882850983E0F5FA
:1007E00010E4F511F512F513A3E0F50CE4F50DF5A1
:1007F0000EF50F7408780C1215997810790C1215F3
:10080000B8850882850983A3A3E0F50CE4F50D748F
:1008100010780C1215997810790C1215B885088289
:10082000850983A3A3A3E0F50CE4F50E7418780CF6
:100830001215997810790C1215B8EA2420F582E483
:100840003515F583780C1216657810790C12145250
:10085000400F9082A8780C12143D6005790202893D
:1008600088851882851983E060118A828B83A3A30F
:10087000A3E0A2E1400579010289887C087D007926
:1008800000740312180B121263743B1217F9E0F58F
:100890000E7404250EF50AFA7B0012131D8A0C8BC8
:1008A0000DAE0CAF0DEE4F70057913028988750FF0
:1008B00000780E121A30AC16AD17EE2404FAE43F9D
:1008C000FB12125174021217C3750C04750D0078D7
:1008D0000C121A30AC08AD09EEFAEFFB121251748B
:1008E000021217C3750C10780C121A30E51424107C
:1008F000FCE43515FD741512180B12125174021216
:1009000017C37403121803880C890D780C121A305F
:10091000A90AEEFCEFFD741512180B120E85740275
:100920001217C3E9F50A7057750C08750D00780C9D
:10093000121A307405121813740D12180B1212517A
:1009400074021217C3780C121A30E5082404FCE470
:100950003509FD740D12180B12125D74021217C3C3
:10096000E964016005750A0180157810121A2C746B
:10097000051217F912853A1204BF74041217C3EE58
:10098000FAEFFB121323A90A742302877EE0F5080D
:10099000A3E0F509E50845092274E812181D74ED75
:1009A0001217AD74011217F9ECF0A3ED128BDF8A68
:1009B000168B177A107B0012131D8A128B137A1074
:1009C0007B0012131D8A108B11E512451370030270
:1009D0008BBCEA45117003028BBC7810121A30AC44
:1009E00012AD13AA16AB17120E8B74021217C3E9BD
:1009F000FE6003028BC47A107B0012131D8A0C8BDD
:100A00000D7A107B0012131D8A0E8B0FE50C450D1D
:100A10007003028B9EEA450F7003028B9E8518823D
:100A2000851983E07900240FF85001097A107B00C2
:100A300012171A88088909E0540FF50AE845097069
:100A4000087508017509008008E50A70047C0180BA
:100A5000027C00E50814C454F0F874011217F9E0A0
:100A600028FAA3E03400FBECA2E0500B780E121A37
:100A700030AC12AD138048AF0A750A00A80A74039F
:100A80001217F9E58228FCE43583FDE8C39F50097D
:100A9000128D288C828D83800EEF650A8C828D8367
:100AA000700474808001E4F0050AE50AC3941040E4
:100AB000CB780E121A30AC10AD11740512180B124F
:100AC0000E9174021217C37C107D007900AA0CAB42
:100AD0000D121263750A00750B00804D7403121815
:100AE00003881489157814121A30E50AC454F0F8F2
:100AF00074031217F9E028FCA3E03400FDAA0CAB44
:100B00000D120E9174021217C3780C121A3074056C
:100B1000121813AA16AB17120E7374021217C3E938
:100B2000FE050AE50A7002050BE50824FFF8E50951
:100B300034FFF9C3E50A98E50B99A2D265D033508A
:100B400003EE6098EE705F74031218038808890939
:100B50007808121A30AC0EAD0FAA0CAB0D120E9124
:100B600074021217C3780C121A307405121813AAE3
:100B700016AB17120E7374021217C3E9FE7508083C
:100B80007509007808121A30AC0CAD0D742D1217CF
:100B9000F912853A12124B74021217C380087E13A1
:100BA000E50C450D6007AA0CAB0D121323E50E45AD
:100BB0000F6011AA0EAB0F12132380087E13E512EB
:100BC00045136007AA12AB13121323E510451160F9
:100BD00007AA10AB11121323EEF9741302877EF0EB
:100BE000E9851882851983F02274EE12181D8A088F
:100BF0008B098C0E8D0F7A107B0012131D8A0C8BC3
:100C00000D7A107B0012131D8A0A8B0BAE0AAF0BF4
:100C1000E50C450D7003028CCAEE4F7003028CCABE
:100C20007C107D007900121263780C121A30EEFCF1
:100C3000EFFDAA08AB09120E7374021217C3E9F58F
:100C40000A6003028CD37508FA750980850C8285C9
:100C50000D83E0A2E7400DAC0EAD0FAA0CAB0D1258
:100C60000E978020EEFCEFFDAA0CAB0D120E9778CC
:100C70000E121A30AC08AD09EEFAEFFB120E9174A9
:100C8000021217C374121217F9E0F510A3E0F51160
:100C9000850E82850F83E0A2E7400DAC10AD11AA4E
:100CA0000EAB0F120E97802BEEFCEFFDAA0EAB0FD2
:100CB000120E977810121A30AC08AD09EEFAEFFB5D
:100CC000120E9174021217C38009750A13E50C45C0
:100CD0000D6007AA0CAB0D121323EE4F6007EEFA5E
:100CE000EFFB121323A90A7F0A0218EF74F61218F9
:100CF0001D750800740A1217F9E0F8A3E0F9E8FE80
:100D0000E9FFA808EC28F582E43DF583E0F5091237
:100D10008D286509C0E0128D32D0E0F00508E508A5
:100D2000C3941040DD0285FAEA28F582E43BF5839E
:100D3000E022EE28F582E43FF5832274F512181DB7
:100D400075080075090FE509F83395E0F9EA28FE02
:100D5000EB39FF8E828F83E0C3334508C0E0EC2877
:100D6000F582ED39F583D0E0F08E828F83E0A2E743
:100D7000E433F50874FF28F509C39400A2D265D0C6
:100D80003350C37F030218EF74F412181D907803D8
:100D9000E0644270569006FBE014F0704EC2AF1251
:100DA0008DA200781ED0E0F618D0E0F6E59F54073B
:100DB000F870057509FF800375097FC4C0E0781DD0
:100DC000E6F50808E65509F509740B780812178B43
:100DD000D0E02508F8906270E0A2E740F8E8C3335D
:100DE000906272F0906270E0D2E0F0900397E0F4CD
:100DF0007003028FED1292CE128FFBF8A3E0F9E898
:100E0000496016128FFBFAA3E0FBEE2403F582EF94
:100E10003401F583E0F91212A58E828F83A3A3A378
:100E2000A3A3A3A3129028E8F0A3E9F0906054E0F4
:100E3000900370F0906055E0900371F0906056E080
:100E4000900372F0906057E0900373F0906058E068
:100E5000900374F0906059E0900375F090605AE050
:100E6000900376F090605BE0900377F090605CE038
:100E7000FA900378F090605DE0FC900379F0906068
:100E80005EE0FD90037AF090605FE0FB90037BF002
:100E9000900376E02AF508E43400F509E5082DF51D
:100EA00008E43509F509E5082CFCE43509FDEC2BCF
:100EB000FCE43DFDEE24F912953F2CF0A3E03DF05B
:100EC000EE24FB12953F2AF0A3E03400F0EE24FD5F
:100ED000129035603B12901AF582E9128FF23DF0C4
:100EE000906000E0FA900378E0FCEA2AFAE433FB31
:100EF000E82AFAE93BFBEA244AF582E4128FF2344D
:100F000000F012901AF8E93BF9E82494129007F0E7
:100F1000900376E0700E900379E07008A3E070040F
:100F2000A3E060378E828F831292E2240F1298CA58
:100F3000906060E0C0E0EE2468F582E43FF583D085
:100F4000E0F09061C8E06006121CB3E970F48E8294
:100F50008F83A3A3A3E07069028FED900378E06014
:100F60000CEE240FF582E43FF583E4802AEE24FFA3
:100F70001290356023906000E0F825E0F8E433F942
:100F8000EE2401F582EF3401F583E028F8A3E0397F
:100F9000F9E824DE129007F0EE240BF582E43FF529
:100FA00083129028E0687003A3E069708312953C77
:100FB000700479088002793EEEFAEFFB120B67802D
:100FC0002C9061C8E070069060607480F0EEFAEFDB
:100FD000FB120C39E9640160147902EEFAEFFB129E
:100FE0001E44120C2DE964016003120C637F04029D
:100FF00018EF3BF583E02CF0A3E022EE2404F58209
:10100000EF3401F583E022F582E43912900F22F5E6
:1010100083E02401F0A3E0340022906000E0FA2590
:10102000E0FAE433FBE82A221299758E828F83A3BB
:10103000A3A3A3A322F582E43F12900FF0EE2401B4
:10104000F582EF3401129973E8492253BFEF020190
:101050003274EE12181D9003971292CE8E828F83F7
:10106000A3A3A3A3A3E02401F8A3E03400F98E8294
:101070008F83A3A3A3A3A3A3A3E8F0A3E9F0EE2483
:101080007312954A60030291798E828F83A3A3A382
:10109000A3A3A3A3E0F8EE247412953F687003A302
:1010A000E0696003029179EE2476F510E43FF511D2
:1010B000AC10FDEEFAEFFB120B7F8E828F83A3A3A1
:1010C0001292E2242EFCE43FFD8C828D831292C1A9
:1010D000EE24771292AE7808790C1215B8A808A9F8
:1010E00009AA0AAB0B880C890D8A0E8B0FEE2479A6
:1010F000F508E43FF5098508821299738C828D8387
:10110000E8F0A3E9F0851082851183E0C0E0EE24C9
:101110002BF582E43FF583D0E0F0EE247BF50AE482
:101120003FF50B850A82F58312991624301293013C
:10113000FAEFFB120B85EE24731298D7247D1295DB
:101140003FF510A3E0F5117404781012178B781096
:10115000121A30850A82850B83121A478508828508
:101160000983E0FCA3E0C313FDEC13FC12955B12B2
:10117000087F74041217C38006EE242E1292AE8EDE
:10118000828F83E0FAA3E0FBEA2402F8E43BF9E86B
:10119000FCE9FD8C828D83850C08850D09850E0A7E
:1011A000850F0B78081215CB9082C4780812162C84
:1011B0008C828D8378081216748A828B83A3A3A3F2
:1011C000A3A3A3E4F0A3F09006C5E06401600C9033
:1011D0000396E0C3940250030292727901120D3B10
:1011E0008E828F83E0FAA3E0FB7508FF7509FF7517
:1011F0000AFF750BFFEA240EF582E43BF5837808BD
:101200001216748A828B83A3A3C082C083EE242E1D
:10121000F582E43FF5831292C1D083D08278081220
:1012200015CB9082BC78081215CB9082C478081236
:10123000162CEA2416F582E43BF58378081216741E
:10124000EA2414F582E43BF5837411F08E828F83D7
:10125000E0F8A3E0C8241AF582E438F58374E9F0D5
:10126000A3740AF0EEFAEFFB121C0E79007F0A025B
:1012700018EF9082B8780C12147250030291E07843
:101280000C121A2CEEFAEFFB120B8B74041217C31C
:10129000E9640160030291E012953C7004790880D2
:1012A00002793EEEFAEFFB120B67790180BFF582FF
:1012B000E43FF583E0F50CA3E0F50DE4F50EF50F42
:1012C00022E0F508A3E0F509E4F50AF50B22E0F8C1
:1012D00075F00DA4C8AAF02AF9749928FE74033990
:1012E000FF22A3A3A3A3A3129975EE240DF582E414
:1012F0003FF583E028F8A3E039F9EE240B129301BF
:1013000022F582E43FF583E8F0A3E9F0EE2274F2DF
:1013100012181D74F81217ADEAFEEBFF8C828D8354
:10132000E0F8A385820A85830B24FE7003029509E9
:1013300024FE602F1470030293FD147003029403C3
:1013400014700302953224FE700302944B24FE7045
:10135000030294321470030294AC147003029437A5
:10136000029522EE248CF508E43FF5097908AC0AD1
:10137000AD0BAA08FB120B978A0A8B0B7908AA08F7
:10138000AB09120B9DEE2484F508E43FF5097904BE
:10139000AC0AAD0BAA08FB120B977904AA08AB099B
:1013A000120B9D7C00EE24ABF8E43FF9ECFAC3E4A9
:1013B0009AFA95E0FBEE2AFAEF3BFBEA248BF582E2
:1013C000E43BF583E088828983F00CA3A882A9839B
:1013D000ECC3940840D6EE24B3F508E43FF5097851
:1013E00008121A30EE248CFCE43FFDEE24C3FAE42C
:1013F0003FFB120BBB74021217C3029532EE24E2BC
:101400000294A01298F424DF1298DC24DD12954A8D
:10141000700A790012955B120873800A7C017900CA
:1014200012955B12086DEE24DDF582E43FF583E44E
:101430008076EE24E08069E0C0E0EE24DEF582E410
:101440003FF583D0E0F0EE24E380557908AC0AAD97
:101450000BAA18AB19120B97EE24E5F8E43FF97AC2
:101460007D7B038A828B83E088828983F08A828BEA
:1014700083A3AA82AB8388828983A3A882A983EAF3
:1014800064857003EB640370DA851882851983E044
:10149000A2E04009EE24E512953FC2E0F0EE24E41C
:1014A000F582E43FF5837401F0029532EE24ED12EB
:1014B000954A606E850A82850B83E0C0E012992D03
:1014C000D0E0F0850A82850B83A385820A85830B91
:1014D0007902AC0AAD0BEE24F1FAE43FFB120B9754
:1014E0008A0A8B0B7902AC0AAD0BEE24F3FAE43FC7
:1014F000FB120B97EE24ED1298DC24EF12953F704F
:1015000031790CEEFAEFFB8026E0C0E0EE24F7F52F
:1015100082E43FF583D0E0F0EE24F61298BD790E18
:10152000800DEE24F8F582E43FF583E8F0790712A8
:101530000B2B74081217C37F060218EFEE240FF569
:1015400082E43FF583E022EE2469F582E43FF583EF
:10155000E0640122EE24E5FCE43FFD8E828F83A34C
:10156000A3A3A3E0FA7B002274F612181DEAFEEB97
:10157000FF8013EEFAEFFB120B25E964017079EEA0
:10158000FAEFFB120B31EE246E12953F606AEE24E7
:101590006A12953F607614700302967614603214D6
:1015A00070030296A824FD700302974E1460C414C1
:1015B00070030297E124FE700302978F14700302F8
:1015C00097B514700302981A24FE70030298818064
:1015D000B51295477029900372E06014EEFAEFFBA4
:1015E000120B317916EEFAEFFB120B677901800AC4
:1015F00012995570030297D279007F020218EFEE1C
:10160000FAEFFB120B1F1298A8F080EC12954770AE
:101610005C900372E06044EE247612953FC333F091
:10162000EE24771299372479129937247DF8E43F14
:10163000F9E8FAE9FB8A828B83E0F508A3E0F50973
:101640007404780812179A8A828B83E508F0A3E560
:1016500009F0EE24731298BD02957F12990B247441
:1016600012953F687003A3E069708D802CEEFAEF4D
:10167000FB120AEF80901295477023900372E0608E
:1016800005EE247F80CF12990B248012953F68705D
:1016900003A3E06960030295F879280295E5EEFA64
:1016A000EFFB120AF502960612954760030297387F
:1016B000900373E06006EE24671298CAEE24E212EB
:1016C000954A701CEE24D51298E024D91298E02493
:1016D000831298BD7906EEFAEFFB120B370295865E
:1016E000EE24E312954A7027EEFAEFFB120B31124B
:1016F00098C71298F424DE12953F64067C00700BA4
:10170000790612955B12086D029586791A80F3EEC0
:1017100024F612954A700302957F129955600302D0
:1017200095F8EE24DD12954A60030297C8792212DB
:10173000955B1208730297D2EEFAEFFB120AFB12C6
:1017400098A81298EB24E31298CAF90295FA129518
:1017500047702EEE24DF12954A70BFEEFAEFFB12AF
:101760000B31EE24E11298D724E0F582E43FF583B3
:10177000E41298EB24DF1298D724E31298CA02955A
:1017800086EEFAEFFB120B011298B724DF80B81235
:1017900095477013EE24E012954A600302971A12DF
:1017A00098C7790B0296D6EEFAEFFB120B07129848
:1017B000B724E08092129547701D900373E0700388
:1017C00002971A79030296D67C00792212955B1251
:1017D000086D79220295E5EEFAEFFB120B0D0296E9
:1017E000061295477025EE24E412954A700B129567
:1017F00054790012088502957F129955600302956D
:10180000F8129554792212088580C7EEFAEFFB1280
:101810000B131298B724E40297471295477053EEC2
:1018200024ED12954A7027EE24EE12954A600302C9
:10183000957F129894121A4712989E121A4712997D
:101840001B790012086774041217C302957F12995E
:101850005560030295F8129894121A4712989E1236
:101860001A4712991B792212086774041217C302CF
:1018700097D2EE24EF1298DCFAEFFB120B190296C6
:1018800006120D65E960030295F8EE24F712953F04
:10189000F90295E5EE24F3F582E43FF58322EE2488
:1018A000F1F582E43FF583221298AC22EE2469F52B
:1018B00082E43FF583E9221298ACF0EE22F582E44F
:1018C0003FF5837401F022EE24831298CE22F58234
:1018D000E43FF583E4F0221298CEEE221299002222
:1018E0001298CEA3F0A3F0A3F0EE22F0EE24E212C1
:1018F00098CEEE22EE2462129900246712990022FB
:10190000F582E43FF5837401F0EE228E828F83A38B
:10191000A3A3A3A3A3A3129975EE2212992DE0FC11
:101920008E828F83A3A3A3A3E0FA7B0022EE24F090
:10193000F582E43FF58322F8E43FF988828983E069
:10194000FAA3E0FBEA2AFAEB33FB88828983EAF008
:10195000A3EBF0EE22EE2471F8E43FF9888289834C
:10196000E024FFF0A3E034FFF088828983129975A8
:10197000E84922F583E0F8A3E0F92274EE12181D7D
:101980008A088B09890B8C0E8D0F900C88E07009EA
:10199000900C8AE07003029A489002FCE060030217
:1019A0009A48890C750D00E92407FAE43400FB120B
:1019B00012758A108B11AE10AF11EE4F7003029AA0
:1019C0005974186508700474206509600C741765F3
:1019D000087004742065097010900C8AE0600AF5A4
:1019E0000A8E828F837492800C900C88E0F50A8EA8
:1019F000828F837491F0A3740E12A35C740112A3FE
:101A000064E508F0A3E509F0EE2405F8E43FF9E801
:101A1000FAE9FBEE2407F8E43FF98A828B83E8F0C9
:101A2000A3E9F0780C121A30AC0EAD0F8A828B83CA
:101A3000E0FAA3E0FB12124B74021217C3EEFAEFA6
:101A4000FBA90A1212818011780E121A30AC0B79A0
:101A50000E12084974021217C37F0A0218EF74F5B8
:101A600012181D890AEAFEEBFF900C88E06039909D
:101A700002FCE070337A067B00121275EA4B603587
:101A80008A828B837491F0A3740F129C4DA3A3E5FB
:101A90000A12A226740112A235EEF0A3EFF0900C08
:101AA00088E0F9121281800DEEFCEFFDAA0A7B009E
:101AB000790F1208437F030218EF12A432129AC75B
:101AC0007404129AC7A322129ACB22F088828983C7
:101AD000E0FCA3E0F5838C822274F712181D74FCDD
:101AE0001217ADEA851882851983F074011217F96F
:101AF0007401F074021217F9ECF074031217F9ED87
:101B0000F0AC18AD197A0412084F74041217C37F91
:101B1000010218EF74F212181D89098A0A8B0B8CC6
:101B20000874072CFA74FF65096004780380027852
:101B300002E82AFA7B001212758A0C8B0DAE0CAFEC
:101B40000DEE4F7003029C328E828F837401F0A3DE
:101B500074FFF0EE2402FAE43FFBEE2404F8E43FC5
:101B6000129CDBE509129C4DE02402F8A3E034004E
:101B7000F9890DE50BF9740E1217F912A13774FFEC
:101B80006509602E740325088882850D83129CD414
:101B9000A37401129C57E50A129C57A3E9F085082B
:101BA0000A750B00780A121A308A828B83E02406A9
:101BB0008066740225088882850D83F08C828D836F
:101BC000E0C0E08A828B83129C37D0E0F08C828D5B
:101BD00083A3E0C0E0129C42D0E0F08C828D83A30E
:101BE000A3E0C0E0129C42A3D0E0129C4612A12ABE
:101BF000E50A129C4612A12EE9F0E50824FDF50A3B
:101C0000E434FFF50B780A121A30EC2403FC50017F
:101C10000D8A828B83E02408FAA3E03400FB1212C1
:101C20004B74021217C3EEFAEFFB900C86E0F91228
:101C300012817F060218EF129C3B2212A330A3A34D
:101C4000A322129C5C22129C4D12A31822129C51BA
:101C500022F08A828B8322F0129C5C228A828B8300
