:020000040000FA
:0600000002011A02224574
:03002B0002298720
:0300330002296936
:030053000222BBCB
:03006B0002294027
:1000830002209BE5C754F84401F5C779012200001B
:100093000080FB120086B90003020104E479217891
:1000A30008B800028004F709D8FCE479297802B87B
:1000B30000028004F709D8FCE490028178A7791341
:1000C3008002F0A3D8FCD9FA781A90014A7A01BACF
:1000D30000028007E493A3F608DAF97A277B1590E8
:1000E300014B780879048015E493A3AD82AE838A2B
:1000F300828B83F0A3AA82AB838D828E83D8E9D9C6
:10010300E775822E7583B3740312012C7582917582
:100113008300740012012C75D00075813F7518811E
:10012300751902759F00020096C09FF59FE473D076
:100133009F22D083D082C09FE493C0E0740193C018
:10014300E0740293F59F2201FF0000B40000280031
:100153002800283075A000A000A000A0000008001F
:1001630008E001F000100010001000100010001053
:100173000050005000500010001000D00700000095
:100183000000000F0001000500307507001000019A
:100193000081FF00000000FFFFFF740692067A064D
:1001A300B606FF02020208025000A0000000E803A6
:1001B30002B882010000A58202B28201000082150A
:1001C30002AA82010000BF0202B28201000083156D
:1001D30002A882010000D50202B282010000841548
:1001E30002B682010000D70202B282010000851527
:1001F30002C082080000D80202B282010000861504
:1002030002C8820100008715FF0100FF2002B882A7
:100213000100009F8202B282010000EB1502CA8234
:10022300000000000002AC82030000060317002256
:100233000D220D220D220D220D220D220D220D2243
:100243000D220D220D220D220DE00FF20FDA0F0207
:100253000202020202020202010D0000001001026A
:10026300B882010000A28202B2820100002E1602AF
:10027300E282010000400702B2820100002F160251
:10028300D6820100006A8102B282010000301602A8
:10029300D4820100004F8102B282010000311602B4
:1002A300D282010000978002B2820100003216025E
:1002B300D082010000DF8002B28201000033160207
:1002C300CC82010000CD8002B2820100003416020C
:1002D300C682010000BB8002B28201000035160213
:1002E300C482010000418102B2820100003616027D
:1002F300C282010000371601E8030577100AFFFFE9
:10030300FF00013075030201060000000000000039
:1003130000000000000000000000000000000000DA
:100323000000000000FFFF0600800CE803140953DF
:10033300696D706C65424C45506572697068657291
:10034300616C051250002003020A00020106030239
:10035300F0FF53696D706C6520424C452050657207
:100363006970686572616C7E14000084140A4368C6
:100373006172616374657269737469632031000229
:10038300436861726163746572697374696320326F
:1003930000084368617261637465726973746963A9
:1003A300203300104368617261637465726973740A
:1003B3006963203400024368617261637465726922
:1003C3007374696320350002B882010000D1810291
:1003D300B2820100004C1702DA820300001C1502EE
:1003E300B0820100004D1702B2820100005E1702C5
:1003F300DC820100001D1502B0820100005F1702BC
:10040300B282010000701702DE820200001E150294
:10041300B082010000711702B2820100008217024C
:10042300E0820000001F1502AC82030000201502C9
:10043300B082010000831702B28201000094170208
:10044300CE82040000221502B0820100009517122B
:1004530001351B8C031201352E8C031201355F8C81
:1004630003120135998C03120135F28C0312013505
:10047300398D03120135818D03120135B08D0312BD
:100483000135DF8D03120135168E031201355D8EA2
:1004930003120135768E03120135CB8E031201351B
:1004A300E48E03120135328F031201356C8F031270
:1004B3000135F7AB02120135FAAC0212013533AD47
:1004C3000212013556AD0212013568AD0212013533
:1004D300A6AD0212013522AE02120135EAAE0212B6
:1004E30001350CAF02120135A3AF02120135F5AF8E
:1004F3000212013526B00212013533B00212013562
:100503009DB002120135F4B002120135F7B00212A8
:10051300013530B10212013533B1021201353DB15B
:100523000212013591B102120135D2B10212013525
:1005330005B20212013542B20212013544B302126E
:100543000135E8B30212013551B4021201358FB4FB
:10055300021201353A840312013562840312013514
:100563008F8403120135C7840312013525850312D5
:100573000135718503120135D885031201351886BB
:1005830003120135558603120135838603120135A3
:100593002D87031201353787031201354487031270
:1005A30001357787031201358387031201359B8752
:1005B30003120135A58703120135B0B003120135CB
:1005C300BEB003120135D6B003120135EDB00312EC
:1005D30001359CA70112013546A80112013559A91D
:1005E30001120135D5A901120135F3AA0112013512
:1005F3002FAB01120135CAAB01120135AEAC0112AA
:1006030001357AAD0112013508AF0112013579AF19
:100613000112013533B00112013525B10112013543
:1006230065B10112013519B2011201354BB2011244
:10063300013541B40112013583B401120135A1B46E
:100643000112013507B501120135D6B50112013585
:100653009AB601120135B9B801120135C0CC0212A4
:100663000135AACD0212013555CE02120135A6CEAF
:100673000212013556CF02120135C7CF02120135DE
:10068300ACD002120135E0D002120135D9D10212E9
:10069300013516D202120135F2D20212013531D3DD
:1006A300021201354DD3021201354CA40312013558
:1006B300D0A403120135FBA40312013515A60312BE
:1006C30001353388031201354988031201356788E0
:1006D300031201357889031201358289031201352A
:1006E300AD8A03120135A48B03120135118C031259
:1006F3000135AED302120135E4D4021201351BD504
:100703000212013572D50212013587D70212013563
:10071300E68201120135728301120135D68401127A
:100723000135E284011201351D85011201358C85E5
:10073300011201359586011201359E87011201359B
:10074300658801120135C28901120135E089011260
:100753000135FD8901120135AA8A01120135278B62
:10076300011201354F8B01120135198E011201352A
:100773001E8E011201353790011201358590011249
:100783000135F590011201353391011201350F92B4
:1007930001120135CF92011201351B93011201356C
:1007A3001E9301120135629301120135AA930112BE
:1007B3000135E993011201350B94011201353F9480
:1007C30001120135A294011201354ED902120135ED
:1007D3005CD902120135AFD902120135CED902120A
:1007E300013513DA0212013557DB02120135F2DB50
:1007F3000212013536DC0212013560DC02120135CA
:10080300CFDC0212013515DD021201358CDD021237
:1008130001353DDE02120135C02900120135D02910
:1008230000120135712A00120135CD2A001201355B
:100833008A2B00120135A62C00120135D82C001288
:100843000135072D00120135B42E001201352B316D
:10085300001201359B33001201358D34001201352E
:100863008635001201358D3700120135813A0012A9
:100873000135B03B00120135B43D00120135C43ED1
:100883000012013553400012013544410012013575
:100893009241001201350142001201352542001236
:1008A3000135764200120135174700120135184809
:1008B30000120135794800120135A44800120135B0
:1008C3006A49001201350080031201350A800312C0
:1008D30001354F8003120135638003120135F38024
:1008E300031201352C81031201356781031201358F
:1008F300908103120135E48103120135F98103125A
:1009030001351B8203120135308203120135448203
:100913000312013559820312013593820312013503
:10092300BF82031201350883031201357A83031250
:100933000135BD8303120135E783031201351284A8
:1009430003120135C5AC03120135FDF40112013563
:10095300E0F5011201355BF60112013596F601123D
:100963000135E7F70112013575F80112013507FB6F
:1009730001120135B9FB01120135C5FC0112013524
:1009830038FE0112013591FE0112013578F502128C
:100993000135BBF5021201353FF60212013516F996
:1009A30002120135D89F031201358AA003120135C3
:1009B30086A103120135C5A1031201351FA203123B
:1009C300013544A603120135A7A60312013544A736
:1009D3000312013579A703120135A9A703120135C3
:1009E300E4A70312013504A80312013523E302121D
:1009F3000135AFE3021201356EE40212013586E5DB
:100A030002120135A0E702120135B6720012013558
:100A1300DB7200120135A873001201357C740012D9
:100A23000135E97400120135297500120135C575C8
:100A330000120135F97600120135D4770012013521
:100A4300337800120135BF78001201352D79001279
:100A53000135B97900120135FF7900120135717A38
:100A630000120135037B00120135A47B001201350E
:100A7300C47B001201350C7C00120135557C001239
:100A83000135717C00120135977C00120135117D0F
:100A9300001201351F7D00120135AE7D00120135B4
:100AA300177E00120135D7E7021201355CE8021206
:100AB30001359EE80212013582E902120135EFE9A0
:100AC3000212013533EA0212013577EA02120135C7
:100AD300A4EA02120135CCEA0212013504EB021238
:100AE300013542EB0212013569EB02120135E3EBEA
:100AF300021201352DEC02120135C6B8011201357F
:100B030065BA011201359DBC01120135F1BC011218
:100B130001351CBD01120135F8BD0112013528BE96
:100B23000112013557BE011201356ABE01120135AA
:100B3300ABBE01120135D8BE0112013526BF011229
:100B4300013562BF01120135A7BF01120135F4BFA0
:100B5300011201356EC001120135AFC20112013518
:100B630099C401120135D5C40112013564C60112BD
:100B73000135A9C6011201351CC70112013571C720
:100B83000112013576C70112013500C80112013582
:100B93001FC90112013530C90112013558A20212D1
:100BA3000135D1A2021201358BA80212013596A993
:100BB300021201353FAB02120135CDAB02120135F2
:100BC300A35E00120135245F00120135515F00124C
:100BD30001359A5F001201359B6000120135F46004
:100BE30000120135706200120135F2620012013504
:100BF3000D63001201357E63001201353B64001260
:100C03000135FE64001201358C650012013543661F
:100C130000120135566600120135EF6600120135E8
:100C2300866700120135AD670012013516680012A0
:100C33000135606800120135AE6800120135536951
:100C430000120135F169001201357E6A0012013587
:100C5300EF6A00120135366B001201358E6B0012FC
:100C63000135C06B001201357A6C00120135816DBC
:100C730000120135CA6D00120135E76D001201350E
:100C8300066E00120135396F00120135F06F001244
:100C930001351570001201352A70001201359A7062
:100CA30000120135DB7000120135FF7100120135AE
:100CB300807200120135989802120135E3980212EE
:100CC3000135EF9802120135C39902120135DA9901
:100CD30002120135179A02120135489A02120135A0
:100CE300809A02120135D69A02120135EC9A021249
:100CF3000135289B021201353B9B02120135629B91
:100D030002120135969B02120135BC9C0212013579
:100D1300069E02120135029F021201351FA0021224
:100D23000135F07F0012013553C9011201358EC917
:100D330001120135E0CC011201353CCE011201351F
:100D4300FBCE0112013562D2011201354CD30112DF
:100D5300013598D301120135B2D301120135EFD316
:100D630001120135FAD30112013539D401120135CB
:100D730042D401120135ECD401120135C3D501125D
:100D8300013517D60112013574D601120135E6D6A5
:100D9300011201357A9501120135D99801120135F5
:100DA300DF980112013510A00112013517A40112B9
:100DB3000135D48F031201356A90031201358090F7
:100DC30003120135D990031201351D910312013528
:100DD300579103120135EF91031201355E9203120D
:100DE30001356792031201357392031201358D9217
:100DF30003120135B79203120135CC920312013568
:100E03002E9303120135559303120135C8F90212CB
:100E13000135D5F902120135EFF90212013522FA33
:100E23000212013560FA02120135C5FA02120135C8
:100E3300DAFA02120135E5FA02120135F2FA021268
:100E4300013509FB0212013517FB0212013522FBA2
:100E5300021201352EFB021201353DFB0212013550
:100E630048FB021201356BFB021201350FFC021223
:100E730001351FFC0212013539FC0212013556FC03
:100E83000212013571FC0212013596FC0212013582
:100E9300A1FC02120135B6FC02120135CAFC021292
:100EA30001352BFD0212013531FD0212013537FDEB
:100EB300021201353DFD0212013555FD02120135C5
:100EC30088FD021201350580021201359C80021251
:100ED30001353481021201352482021201355B820D
:100EE300021201356E8202120135DC8202120135D3
:100EF3007784021201359E84021201354085021265
:100F03000135758502120135868502120135FF858B
:100F1300021201352086021201353886021201358C
:100F2300908702120135998902120135E98B021269
:100F33000135EC8C021201353B8D0212013535D897
:100F43000112013532D9011201351DDA01120135C1
:100F530027DA0112013549DA0112013555DA011296
:100F63000135A7DB01120135D6DB0112013506DDA0
:100F73000112013548DD0112013574DE011201351C
:100F83004ADF011201359CDF01120135FBDF01123B
:100F9300013532E0011201356DE00112013508E43B
:100FA3000112013521E401120135A3E401120135D7
:100FB300B1E40112013506E50112013514E5011210
:100FC300013581E501120135F3E50112013539E6F9
:100FD30001120135888D02120135AA8D02120135E5
:100FE300948F021201353993021201357C94021257
:100FF30001355695021201353A7E001201355F7EA6
:1010030000120135D07E00120135B5B4021201354C
:10101300BEB402120135C7B402120135F8B502128B
:10102300013517B8021201354DB80212013587B8E0
:1010330002120135BDB802120135F7B802120135AB
:101043002BB90212013557B902120135A0B90212A8
:101053000135DAB90212013522BA0212013578BA22
:1010630002120135ADBA0212013508BB0212013575
:1010730042BB0212013593BB02120135C9BB0212F6
:10108300013503BC0212013531BC0212013554BCD7
:10109300021201357DB103120135A9B103120135E5
:1010A30004B2031201350EB2031201351EB203124C
:1010B3000135469A031201356D9A03120135979A49
:1010C3000312013586B303120135D64900120135E7
:1010D3003E4C00120135F14D001201354E4E001207
:1010E30001354B4F00120135DB4F001201356050C3
:1010F300001201358550001201357D530012013570
:10110300F35300120135E454001201351E55001249
:1011130001355E5500120135045700120135595748
:1011230000120135A657001201351458001201357B
:101133003B58001201355558001201356B59001206
:1011430001357B5900120135075B00120135295B1C
:10115300001201355F5B001201350D5D0012013590
:101163004C5D001201357E5E001201356DEC0212FA
:101173000135C5EC021201350DEE021201357CEE8C
:10118300021201352BEF021201354AEF021201352B
:101193009EEF02120135DCEF021201353AFF011214
:1011A30001354BFF01120135D0B3031201350FB4E2
:1011B30003120135EEFF01120135D3AF03120135DE
:1011C300E3AF03120135F8AF03120135AAB00312DE
:1011D3000135D9AD031201355DAE03120135C3AE3E
:1011E3000312013512A8031201353BA8031201357E
:1011F300A1A803120135C0A80312013514A90312D3
:1012030001356DA903120135A8A903120135ABA954
:10121300031201351797031201352C970312013579
:10122300509803120135BA98031201352E9903120F
:1012330001354899031201355F99031201357299FB
:10124300031201358A99031201359F99031201355F
:10125300C09903120135119A03120135E4FF0212FA
:101263000135F4FF02120135F7FF02120135F87F51
:10127300001201350AFE0212013580FF0212013508
:10128300E1FF0212013553AB031201357CAB0312AC
:101293000135A5AB031201353EAC0312013580AC19
:1012A30003120135E2BC02120135ECBC0212013516
:1012B3002CBD0212013575BD02120135AFBD0212FC
:1012C300013505BE0212013524BE02120135A9C043
:1012D30002120135B2C00212013503C102120135F7
:1012E3002CC10212013541C102120135B1C10212F2
:1012F30001353FC20212013583C202120135ABC26E
:10130300021201352AC3021201356DC302120135DF
:10131300AAC302120135BCC302120135DBC3021298
:101323000135E4C302120135AEC402120135B5A979
:101333000312013506AA031201358FAA03120135E0
:10134300F5AA03120135149D031201353E9D0312C4
:101353000135389E03120135679E03120135ED9E58
:1013630003120135DCAE031201354AA20312013523
:1013730080A203120135B9A20312013512A403128C
:10138300013528B2031201353EB20312013548B2CA
:10139300031201359EB203120135CFB20312013598
:1013A300DAC40212013597C502120135D2C5021201
:1013B3000135FAC5021201355CC602120135A8C611
:1013C3000212013508C70212013599C7021201350D
:1013D30095C80212013522CA02120135A5CA0212AA
:1013E300013509CB0212013520CB0212013516CC8F
:1013F3000212013562CC02120135F7F002120135F7
:101403000CF102120135BCF102120135FCF102129A
:10141300013515F20212013548F20212013595F237
:1014230002120135C9F2021201350BF30212013522
:1014330012F502120135C2E60112013579EA0112F1
:1014430001350BEC0112013562EC0112013581EC1F
:1014530001120135FFEC0112013591EE0112013544
:1014630075EF0112013586F3011201355AF40112A9
:1014730001354FDE0212013582E00212013544E1EB
:1014830002120135C1E202120135839303120135C1
:10149300EB9303120135089403120135D39403121D
:1014A300013526950312013509960312013519B446
:1014B3000312013596B4031201355FB403120135EB
:1014C300C2B403120135EBB403E066701008A3E065
:1014D30066700A08A3E066700408A3E06622C3E707
:1014E300960809E7960809E7960809E79622C3E0F4
:1014F3009608A3E09608A3E09608A3E09622C00806
:10150300C3E096F50808A3E096420808A3E09642D4
:101513000808A3E09645087001D3D00822080808FC
:10152300EAC0E0EBC0E086F0E7A4FA180986F0E72A
:10153300A42AFA180986F0E7A42AFA180986F0E71C
:10154300A42AFA1986F0E7A4FBE5F02AFA1908861B
:10155300F0E7A42BFBE5F03AFA190886F0E7A42B91
:10156300FBE5F03AFA18180986F0E7A4C5F02BFB5F
:10157300E43AFA1908E7C5F0C6A426F6E5F03BFB02
:10158300E43AFA1886F0E7A4F6E5F00826F6E43B19
:1015930008F6E43A08F6D0E0FBD0E0FA22E4CFC044
:1015A300E0E4CEC0E0E4CDC0E0E4CCC0E075F020E0
:1015B300E626F608E633F608E633F608E633F618C9
:1015C3001818EC33FCED33FDEE33FEEF33FFC3ECC1
:1015D3009709ED9709EE9709EF97191919400FFF2E
:1015E300EC97FC09ED97FD09EE97FE191906D5F066
:1015F300BFECF709EDF709EEF709EFF7191919D061
:10160300E0FCD0E0FDD0E0FED0E0FF226016080849
:1016130008C6C313C618C613C618C613C618C613FE
:10162300C6D5E0EA227009080808226016181818BF
:10163300C6C333C608C633C608C633C608C633C6D0
:10164300D5E0EA22E627F60809E637F60809E63781
:10165300F60809E637F622E026F608A3E036F60890
:10166300A3E036F608A3E036F622E026F008A3E06E
:1016730036F008A3E036F008A3E036F022C3E6977D
:10168300F60809E697F60809E697F60809E697F6D5
:1016930022C3E096F008A3E096F008A3E096F008D2
:1016A300A3E096F022E056F608A3E056F608A3E07E
:1016B30056F608A3E056F622E056F008A3E056F0EB
:1016C30008A3E056F008A3E056F022E0F608A3E0F2
:1016D300F608A3E0F608A3E0F622E6F008A3E6F096
:1016E30008A3E6F008A3E6F022E0FAA3E0FBA3E0F8
:1016F300FCA3E0FD22E0F8A3E0F9A3E0FAA3E0FBFA
:1017030022E8F0A3E9F0A3EAF0A3EBF022CAC0E0D9
:10171300E6F0A308DAFAD0E0FA22CAC0E0E0A3C5F3
:1017230082CCC582C583CDC583F0A3C582CCC582D7
:10173300C583CDC583DAE6D0E0CA22C3E498F8E4D2
:1017430099F912177F8026C3E49AFAE49BFBE920F8
:10175300E7E912177FE498F8E499F922C3E498F8CB
:10176300E499F912177FE498F8E499F9C3E49AFA33
:10177300E49BFB22EB20E7CFE920E7E0B90010BBB5
:101783000008E88AF084F8AAF022E4FBC8FA22EB06
:1017930070227B10C833C8C933C9335007C39AC3F7
:1017A300DBF280069A50012ADBEAC833F4C8C93356
:1017B300F4C9FA2275F008E4C833C8C933C933C978
:1017C3009AC99B5004C92AC93BD5F0ECFBC833F432
:1017D300C8E4C9FA22600D08C6A2E713C618C613E7
:1017E300C6D5E0F322600C08C6C313C618C613C6D9
:1017F300D5E0F422700422600D18C6C333C608C6B0
:1018030033C6D5E0F41822251810AF08F518400C9C
:1018130015198008F51840021519D2AF2200C0D05F
:10182300251810AF08F518500C05198008F5185045
:10183300020519D2AFD0D0222518F58210AF08F5D2
:1018430018400C15198008F51840021519D2AF85F8
:101853001983222518F582E43519F583222518F812
:10186300E43519F9222518FAE43519FB222518FC69
:10187300E43519FD22E4732518C582C0E0E5193467
:10188300FFC583C0E0E518C3958224F810AF08852F
:1018930083198582188008858319858218D2AFCE73
:1018A300F0A3E520F0A37808E608F0A3DEFAEFF052
:1018B300A3E58124FAF8E608F0A3E608F0A3E60816
:1018C300F0A30808E608F0A3E608F0A31581158144
:1018D300D0E0FED0E0F8158115811581E8C0E0EE77
:1018E300C0E0222518C582C0E0E51934FFC583C0D6
:1018F300E0E518C3958224F910AF08858319858222
:10190300188008858319858218D2AFCEF0A3E5200D
:10191300F0A37808E608F0A3DEFAEFF0A3E581244C
:10192300FBF8E608F0A3E608F0A30808E608F0A32E
:10193300E608F0A315811581D0E0FED0E0F815810B
:101943001581E8C0E0EEC0E022851983851882E0A6
:10195300A3FEE0A3F5207808E0A3F608DFFAE0A3EE
:10196300FFE0A3C0E0E0A3C0E0E0A3C0E0E0A3C0C9
:10197300E0E0A3C0E010AF088582188583198008D2
:10198300858218858319D2AFD083D0820201328534
:101993001983851882E0A3FEE0A3F5207808E0A36D
:1019A300F608DFFAE0A3FFE0A3C0E0E0A3C0E0E0B5
:1019B300A3C0E0E0A3C0E010AF08858218858319B7
:1019C3008008858218858319D2AFD083D08222C044
:1019D300D02518C582C0E0E51934FFC583C0E0E512
:1019E30018C3958224F310AF088583198582188064
:1019F30008858319858218D2AFC8F0A3E9F0A3EA5A
:101A0300F0A3EBF0A37908E709F0A3D8FAECF0A36D
:101A1300EDF0A3EEF0A3EFF0A3D0E0F0A3D0E0F05D
:101A2300A3D0E0F0A3E520F0A3E5F0F0A32285190D
:101A330083851882E0C0E0A3E0F9A3E0FAA3E0FB0A
:101A4300A37808E0F608A3DFFAE0FCA3E0FDA3E037
:101A5300FEA3E0FFA3E0C0E0A3E0C0E0A3E0F5D075
:101A6300A3E0F520A3E0A3F5F010AF088583198563
:101A730082188008858319858218D2AFD082D083DB
:101A8300D0E0F8D0E032740480067402800274015E
:101A9300C0E0F40412183BD0E01217102274048043
:101AA3000474028000CCC0E0EDC0E0E518C39CCC18
:101AB300AD1950011D10AF068C188D1980068C18B6
:101AC3008D19D2AF12171DD0E0FDD0E0FC22D083D8
:101AD300D082E9C0E0E493A3C386F0C5F095F0F9A2
:101AE30008E493A386F0C5F095F0700BE493A3C3C9
:101AF300994005E9048002A3E475F002A42582F568
:101B030082E5F03583F583D0E0F9E493A3C0E0E404
:101B130093C0E022D083D082ECC0E0EDC0E0E49338
:101B2300A3FCE493A3FDED4C600D121B63EC24FFB7
:101B3300FCED34FFFD80EFE493A3FCE493A3FDED00
:101B43004C600D121BA2EC24FFFCED34FFFD80EF73
:101B5300D0E0FDD0E0FCE493A3C0E0E493C0E02236
:101B6300C0E0C3E49396087401939618400FE4937E
:101B730066700808740193661870007019A3A3C3F4
:101B8300E49396087401939618A3A3400DD0E0D074
:101B9300E0D0E0021B53A3A3A3A3A3A3D0E022C0DE
:101BA300E0C0F088F0E49366700808740193661847
:101BB3007000A8F0A3A3700BD0F0D0E0D0E0D0E089
:0A1BC300021B53A3A3D0F0D0E022D0
:101BD00074F61218E6EAFEEBFF8C088D09EE243449
:101BE000F8E43FF9E8FCE9FDEE2435121EE3FAEED5
:101BF0002437121EE3F88508F0A4C885F00A850989
:101C0000F0A4250AF9EA28F8E439F97A257B0012CC
:101C1000177FEA8C828D83F0FA131313541FF8EEAA
:101C200028F8E43FF9E8245DF582E439F583E0C063
:101C3000E074075AF8D0E0B800028004C313D8FC5F
:101C4000A2E0EE50082434F582E43F8018243612D6
:101C50001EE3F5F0EA84A8F0EE28F8E43FF9E82462
:101C600038F582E439F583E0F97F0302199274F7BD
:101C70001218E6EAFEEBFFEE2434121EE3C0E0EE9B
:101C80002435F582E43FF583D0E0F08E828F83A384
:101C9000A3A3A3A3A3A3C082C0838E828F83A3A385
:101CA000A3A3A3E0F8A3E0F9D083D082E0C398F522
:101CB00008A3E099F509EE247F121EE36401703E4B
:101CC000EE2480F582E43FF583C082C0838E828F4C
:101CD00083A3A3A3A3A3E0240108A3E03400F9D0C5
:101CE00083D082E0687003A3E06970127CB17D0448
:101CF000120C62EE247FF582E43FF583E4F0AC0839
:101D0000AD09EEFAEFFB121BD0E9F91229327F027E
:101D1000021992C082C083851882851983E0F8A3D6
:101D2000E0F9C3EA9CEB9D5010C3EC98ED99401B81
:101D3000C3EA98EB995014800EC3EA98EB994007D8
:101D4000C3EC98ED994004790180027900D083D0EA
:101D50008222EAC39CFAEB9DFB2274EF1218E690F4
:101D60000376E064086005E06407702A9061C8E0CB
:101D700060249003A4E0F4601DE0F875F00BA4C8A3
:101D8000AAF02AF974A628FE740339FF8E828F8385
:101D9000A3A3A3E07003021E68906060E0C0E0EEC1
:101DA0002468F582E43FF583D0E0F0750C21750DD1
:101DB00005750800750900E5D914F50AE5D954033D
:101DC000F50E60127403650E6043E50A600AEE24A6
:101DD00067121EE37002807590051CE06401601FAD
:101DE000121EE060047A0480027A00E50AC39AFABF
:101DF00095E0FB120B0C8A088B09EA450970051265
:101E00000EA88064121EE070048A0C8B0DE50A6037
:101E100012850C82850D83F50BE5D9F0A3150BE532
:101E20000B70F6121EE0604474FC250AF50A780C6B
:101E3000121A8DAC0AA90EEEFAEFFB120D1C7402F9
:101E4000121820E97026AA08AB09121334793D8EC6
:101E5000828F83A3A3A3A3E0FA7B0012096EEEFA9C
:101E6000EFFB120C86120D2E7900806F7403650E45
:101E70006051850A107511007810121A8DAC0CADE6
:101E80000DAA08AB09120CE07402121820EE2468A7
:101E9000121EE364807004747F8001E0F50C780CFE
:101EA000121A91E50EF50C780C121A91A90AAC08D9
:101EB000AD099003A4E0FA7B0012094474021218E1
:101EC000208013900376E06408600BAC0CAD0DEE3F
:101ED000FAEFFB120DA6120EB479017F0A021992D5
:101EE000EE2483F582E43FF583E02274F21218E6D3
:101EF00074FC12180AEAFEEBFF8909A2AFE433F57D
:101F000008C2AF021FB5E0601B780C121A8DAC0B33
:101F1000A90EEEFAEFFB120D1674021218207404CB
:101F2000250BF50B7401250BF5D9850ED9E50B6052
:101F300018F50A850C82850D83E0F5D9A385820CFE
:101F400085830D150AE50A70EA75E195EE2463F8BC
:101F5000E43FF97A007B00A2AFE433F50BC2AF880F
:101F6000828983E0FCA3E0FDEC4D603A888289839E
:101F7000E0FAA3E0FB8A828B83E0FCA3E0FD888289
:101F80008983ECF0A3EDF08A828B83E4F0A3F088E0
:101F9000828983E0FCA3E0FDEC4D700A888289838E
:101FA000A3A3E4F0A3F0E50BA2E092AF12133490E8
:101FB00004B8E004F0EE2463121EE3F8A3E0F9E8AD
:101FC000496064EE2463121EE32402F8A3E03400A7
:101FD000F988828983E5822402F50CE43583F50DC6
:101FE000E0F50BA3E0F50EEE2462121EE36401702F
:101FF000369061D0E0F8121EE060047C0480027C20
:10200000007480C398FA95E0FBE50B2CF8E43400EB
:10201000F9E82402F8500109C3EA98EB99A2D265C5
:10202000D0334003021F069004B8E0604D9004B91D
:10203000E0F89004B8E0C398500C74026509703A57
:102040009004BAE060348E828F83A3A3A3A3E085BB
:10205000188285198312208A7402121856E81220F9
:102060008A9004B7E028F07402121870AA18AB190D
:1020700079011209989004B8E4F0E508A2E092AF63
:1020800074041218207F07021992F0A3E4F0900460
:10209000B8E0F8228521878522C622C0E074EB12C1
:1020A00019D2A2AFE433F508C2AF759B00906182EC
:1020B000E0A2E05030E591A2E0502A7591FE740153
:1020C0006521702112222E120DF412221C121AA068
:1020D0001226DC7404121820E964017005790112DB
:1020E0000E3C121D5A906182E0A2E5505DE591A27E
:1020F000E550577591DF900376E064076005E06472
:1021000008702F12222E74016521703E120DF412F8
:10211000221C121AA01226DC7404121820E9640191
:1021200070057901120E3C7901EEFAEFFB121EEBFD
:102130008018E0640D7013900398E004F064287038
:1021400002E4F07A00E0F9120EBA906182E0A2E6B1
:1021500040030221F1E591A2E640030221F17591CD
:10216000BF900376E064057008120DDC120DE88064
:1021700003120DE2752100120E48E9900377F07901
:1021800000120E3C120BD27A017B00900375E0F92D
:10219000121304907803E064427056900520E01416
:1021A000F0704EC2AF1221A800782AD0E0F618D005
:1021B000E0F6E59F5407F87005750DFF8003750D77
:1021C0007FC4C0E07829E6F50A08E6550DF50B74E2
:1021D0000B780A1217E8D0E0250AF8906270E0A2A6
:1021E000E740F8E8C333906272F0906270E0D2E0AA
:1021F000F0906181E0A2E35009E5E9A2E3500375A4
:10220000E9F7A3E0A2E75009E591A2E75003759131
:102210007FE508A2E092AF7F08021A318E828F8399
:10222000E0F8A3E0C82416F582E438F58322900391
:10223000A4E0F875F00BA4C8AAF02AF974A628FE49
:10224000740339FF22C0E0C0D0C082C08390618394
:10225000E0A2E05009E5BFA2E0500375BFFEE0A296
:10226000E15009E5BFA2E1500375BFFDE0A2E250D5
:1022700009E5BFA2E2500375BFFBE0A2E35009E508
:10228000BFA2E3500375BFF7E0A2E45009E5BFA287
:10229000E4500375BFEFE0A2E55009E5BFA2E550A9
:1022A0000375BFDFE0A2E65009E5BFA2E650037563
:1022B000BFBFD083D082D0D0D0E032C0E074F21261
:1022C00019D2E5A7A2E6500FE5A1A2E6500953A74F
:1022D000BF75A1BF12230FE5A7A2E5500CE5A1A28F
:1022E000E5500653A7DF75A1DFE5A7A2E15009E598
:1022F000A1A2E1500375A1FDE5A7A2E2500CE5A162
:10230000A2E2500653A7FB75A1FB7F01021A3174AC
:10231000F71218E6752101900376E0640670151235
:102320000D528A828B83A3A3A3A3A3A3E0FAA3E005
:10233000FB120DCAA2AFE433FED2AF90037CE0647F
:102340000170187A207B00900375E0F912141E7A50
:10235000207B00900375E0F912130A906182E0D2AD
:10236000E6F090051DE0602185C622801690037B73
:10237000E064017008E5C654F84405F5C653BEFC98
:102380001220947401652160E4EEA2E092AF7F0216
:10239000021992008E238F24858228858327851831
:1023A00082851983E0CEA3E0CF852882852783EB41
:1023B000C9EAC8EDCBECCA75F010C3E833C8E933FD
:1023C000C9EA33CAEB33CBC3EA9EF526EB9FF5256A
:1023D000B35004AB25AA26EC33CCED33CDD5F0DADF
:1023E000AE23AF242274E91218E674FA12180AEA2E
:1023F000FEEBFF8C0A8D0B120E00EAF8EBF9ECFAFB
:10240000EDFB8E828F83121704900376E024F7C3CE
:102410009405500675140102254C120D528A088B42
:1024200009EA45097003022549EEFCEFFDAA18AB45
:1024300019120DFA850882850983A3A3780C121658
:10244000CE908223780C1216A8851882851983787D
:10245000101216CE90822378101216A8780C7910DC
:102460001214E1501F780C791012168090823F7878
:102470000C1215014047850C14850D15850E168527
:102480000F17804590823F8510148511158512160F
:102490008513177814790C121680781412150150D0
:1024A0001C751400751500751600751701781479E0
:1024B000101216807814790C121647800C751401CE
:1024C0007515007516007517007409781412162812
:1024D00090828F780C1216CE7814790C1215A08584
:1024E0000882850983A3A3A3A3A3A312256A1217B5
:1024F0007F880C890DE4F50EF50F7814790C12160F
:1025000047740412185612256A12177FE8FA8A0CCB
:10251000E4F50D7814790C1214E150077814790C55
:10252000121680900376E06408600AE06406600595
:10253000E06405702090823B7814121501501690CB
:102540008237781412165A800C75140075150075B0
:102550001600751700850A82850B8378141216DD24
:1025600074061218207F10021992E0F8A3E0F97A9D
:10257000D07B032274F71218E6120E1290051BE0AE
:1025800064017010906245E4F0A3F053F4F343FE4D
:102590000C5390F3120DB8E5C654B84441F5C6E5A6
:1025A0009E5447644170F8906185740FF09005194E
:1025B000E0F47002A3E0604E90051AE06008146039
:1025C0001B14602E8040750801750900900519E004
:1025D00078081217F7E508F45280802A750801750B
:1025E0000900900519E078081217F7E508F45290F1
:1025F0008014750801750900900519E07808121714
:10260000F7E508F452A079007F0202199274F712DC
:1026100018E6E9FEEAFF120E1274016E700C7A8061
:102620007B00900375E0F91213049029B8E493F449
:102630006008E493F9120BC6800953C6B8E59E54AE
:102640004770FA120DBE90051BE064017003120B77
:10265000E4900519E0F47002A3E0604B90051AE0E5
:10266000600814601A14602C803D7508017509001B
:10267000900519E078081217F7E508428080287560
:102680000801750900900519E078081217F7E508A8
:1026900042908013750801750900900519E07808CB
:1026A0001217F7E50842A0120D528A088B09A808F4
:1026B000A909E8496014E5E170FCE82414F582E416
:1026C00039F583E0F46003E0F5E174016F700A7A94
:1026D00001900375E0F912138E02260874F11218A6
:1026E000E68A088B098C0A8D0B90822378081216D3
:1026F000A8740F121856780C1216CE908223780CFC
:102700001216A87808790C1214E190823F501078C4
:1027100008790C12168078081215014014800E7882
:102720000C7908121680780C12150150047901807A
:102730000279007F0802199274ED1218E68A088B5C
:10274000098C0A8D0B90822378081216A874131234
:102750001856780C1216CE908223780C1216A87890
:102760000C79081214E140117808790C121680AA2D
:1027700008AB09AC0AAD0B8022751000751100750D
:1027800012007513017810790C12168078107908F0
:10279000121647AA10AB11AC12AD137F0C0219929E
:1027A00090822378081216CE8A828B8378081216BC
:1027B000BB7F0402199274F51218E68C828D83781F
:1027C000081216CE8A828B83780812169412280E6D
:1027D000C3E09CF0A3E09D122800402290825B7829
:1027E000081216CE8A828B83780812166D8A828B25
:1027F00083A3A3A3A3E02420F0A3E0344EF080A0A1
:10280000F088828983C3E09420A3E0944E22EA24D6
:1028100004F8E43BF98C828D83A3A3A3A3E0FCA37B
:10282000E0FD888289832274F51218E6E9FE90049F
:10283000D3E0FAA3E0FBEE29F8E433F9740228F5BB
:1028400082748139F583E02AF508A3E03BF5097825
:1028500008121A8D90829B1216EC122394740212A5
:1028600018208A088B098C0A8D0B741078081216B0
:102870000FAA08AB097F0402199274F11218E68AB4
:102880000C8B0D8C0E8D0F7411121856121AA47425
:1028900011121856E02401F508A3E03400F509E40C
:1028A000F50AF50B780C7908121520908233780818
:1028B0001216CE780C7908121520AA0CAB0DAC0EAE
:1028C000AD0F12239474021218208B09EA45096097
:1028D000047A0180027A00EC2AFCE43DFD741312B4
:1028E0001856E0F8A3E0F9E8FEE9FFECF8EDF97A14
:1028F000717B0212177F88088909E4F50AF50B8EAF
:10290000828F8378081216DDECF8EDF97A717B027C
:1029100012177F8A088B09740578081217F78E82C0
:102920008F83A3A3A3A3E508F0A3E509F07F080222
:102930001992C082C083E9906000F0D083D08222D7
:10294000C0E074F21219D2A2AFE433FED2AFE5892F
:10295000A2E15003121202758900C2C5751A00EE79
:10296000A2E092AF7F01021A31C0E074F21219D2D4
:10297000A2AFE433FED2AFE58BA2E0500312120205
:10298000758B00C2E880D5C0E0C0D0E8C0E0E9C0E7
:10299000E0A9A8D2AFC2C7751A00E9A2E7E433F8EC
:1029A000E9A2E792AFD0E0F9D0E0F8D0D0D0E032A1
:0629B000C2AF020000228C
:1029B800FFFFFFFFFFFFFFFFC082C083E99015EA1A
:1029C800F0D083D08202013274F612187AE99002AC
:1029D800E8F0900348E0F5087509007402780812D9
:1029E80017F7AA08AB091213769002E912338390FD
:1029F80002E9123770606F900348E075F003A4FA9B
:102A0800ABF0121376900306123383900306123745
:102A180070700B9002E912374112137C80489003C2
:102A2800061246D57AFF7BFF12116C7A0080198A4C
:102A380008750900740278081217F712417D74FFAF
:102A4800122B83E4F0A3F00A900348E0F8EAC39855
:102A580040DD79051208309002E8E0F912071C7A87
:102A6800BA7B08120AAC02422074F412187A8A0857
:102A78008B09EB548060479002E8E0F91212EC8A67
:102A88000A8B0BAE0AAF0BEE4F602A8E828F83E063
:102A980064B0701A120842E960148E828F83A3A36F
:102AA800A3A3E0F9EE2405FAE43FFB120812EEFABC
:102AB800EFFB1212DAAA08E5096480FB80047A00A9
:102AC8007B00022CD374F212187A74FB12180AEAEB
:102AD800FEEBFFEE4F60457403121856EEF0A3EFBD
:102AE800F0851882851983ECF0A3EDF074021218B2
:102AF80056E9F0AA18AB19120716E9F508707574AB
:102B080013121856E0F50AA3E0F50BE50A450B6029
:102B1800638E828F8312310CEE4F70057508028028
:102B2800537A067B001213768A0C8B0DA80CA90D1C
:102B3800E8497005750813803B88828983E4122B65
:102B480083EEF0A3EF122C9FE50AF0A3E50BF090BB
:102B580002EC122C989002EC6017E0FCA3E08003D2
:102B6800EAFCEBFD8C828D83122C9870F38C828D9D
:102B780083123D98A9087405024955F0A31246B777
:102B8800A32274F212187A8908890C750D0074034F
:102B9800780C1217F7850C0A850D0B9002EBF09054
:102BA80002E9123BA3122C96602E12137C79008046
:102BB8001D890C750D007402780C1217F79002E944
:102BC80012403C8882F583A3A3E4F0A3F0099003A4
:102BD80048E0F8E9C39840D9900348E0FA850AF03C
:102BE800A4CAA8F0850BF0A428FB1213768A0C8BD4
:102BF8000DAE0CAF0DEE4F7003022C8C900348E025
:102C0800FC850AF0A4CCA8F0850BF0A428FD790077
:102C18001212C27C0080318D0C750D007403780C83
:102C28001217F78A828B83122C9188828983E4F0A9
:102C3800122C9EA3A3F0A3F00DEDC3950840D8EE87
:102C4800250AFEEF350BFF0C900348E0F8ECC3981B
:102C580050288C0C750D007402780C1217F790022E
:102C6800E9122C91E82402500109FAE9FB8A828BC7
:102C780083EEF0A3EFF07D0080BFE5089002EBF053
:102C8800790080027913024958124040F922A3A31F
:102C9800123745EA4B22A31246B7A3A3A32274F422
:102CA80012187A7900EAA2E0501F7508E2750981C6
:102CB8007808121A8D79107C047D007AEC7B151245
:102CC800082A7402121820E9F980007F0402194CBE
:102CD800C082C0839002EC123770601C888289839E
:102CE800A3A3E06A7003A3E06B8882898370E8A3DA
:102CF800A3A3A312374180047A007B000229C97478
:102D0800F212187A74FD12180AEAFEEBFF8518828F
:102D1800851983E4F0A3F074021218567401F012B6
:102D2800376D70141209E61213769002EF1233838E
:102D380012376D7003022E99123483EE2404F50ABB
:102D4800E43FF50B850A82F583E024FE603C24FC11
:102D5800607424FE607E24FE7003022DE924FE7058
:102D680003022DF624FE7003022E0324FE700302D4
:102D78002E1024FE7003022E1D24FC7003022E3E2A
:102D880024FE7003022E56022E921209E69002F1DA
:102D9800EAF0A3EB122EA512045EE96003022E925C
:102DA8009002F1121AA48E828F83A3A3A3A3A31265
:102DB80046D58508828509831237411207FA7402BD
:102DC800121820022E92AC18AD19EEFAEFFB120879
:102DD80048022E61AC18AD19EEFAEFFB12084E80CE
:102DE80078AC18AD19EEFAEFFB120854806BAC18EA
:102DF800AD19EEFAEFFB12085A805EAC18AD19EE69
:102E0800FAEFFB1208608051AC18AD19EEFAEFFB2F
:102E180012086680447402121860880C890D780CB8
:102E2800121A8D7402121870EEFAEFFB12086C7405
:102E3800021218208023AC18AD19EEFAEFFB120825
:102E480072E9F870167402121856E4F0803CAC1857
:102E5800AD19EEFAEFFB120878E9F8E8602C8E82DB
:102E68008F83A3E064146022850A82850B83E09037
:102E780002F1F08518828519831237419002F21207
:102E88003383E8A3122EA5120458EEFAEFFB1207BB
:102E9800D07402121856E0F97403024955F07CF117
:102EA8007D028508828509831237452274E8121845
:102EB8007A74FA12180A7404121856ECF0A3EDF09A
:102EC8008A128B13EA2405F50EE43513F50FEA246C
:102ED80002F510E43513F511851082F58312374198
:102EE80012054E8A0A8B0B7508007C037D00790059
:102EF8007AF17B021212C2E50E2402F516E4350FB0
:102F0800F5177402121860880C890D780C121A8D46
:102F1800850E82850F83A3A3A3A3E0F50C750D008E
:102F2800780C121A8DE50E2405F50CE4350FF50D15
:102F3800780C121A8D851682851783123A48120763
:102F48003474061218208A0C8B0DE50C450D70039D
:102F58000230D58020851882851983E0888289838C
:102F6800F00508851882851983A3E0C0E0123116A0
:102F7800D0E0F00508E50A24FBFAE50B34FFFBC3B3
:102F8800E5089AE49B40030230D57E007F00851255
:102F980082851383A3A3A3A3E0F5097809121A91E4
:102FA800E4F514F5157814121A8D7514EE751502DA
:102FB8007814121A8D9002EF121AA4740912185676
:102FC800121AA4E50A24F9F9AC0CAD0D8510828516
:102FD80011831237411208A27409121820E96003FC
:102FE800023076850E82850F83A3A3A3A3A3A3A390
:102FF800E0F89002EEE0687075E0F5148E1578142C
:10300800121A8D1246D2850E82850F83A3A3A3A31D
:10301800A3A3A3A31237411212BC7402121820E909
:10302800604C9002F2123770703BE4F51478141279
:103038001A8D7CFF7DFF79078510828511831237F1
:103048004112080C74021218201237767017850E78
:1030580082850F8312486F74041218561241301279
:103068003A79023109850C82850D8312310CA81832
:10307800A919881489157814121A8D74041218560F
:10308800121AA485168285178312337912074074A1
:10309800041218208A0C8B0DEE4F7003022F521267
:1030A8003116EE123121123A2FEF123121F8A3E036
:1030B8003400F9E50C450D6003022F5D8882898391
:1030C80074FFF0050812311674FFF00508E5086072
:1030D8001A1313543F12338912046AE960099002E3
:1030E800F212374112133479008016850E82850F4B
:1030F8008312486F7404121856124130123D9879A1
:103108000A023A02A3A3A3A3E0FEA3E0FF22A808B1
:103118009002F2E028123A2F22F00508089002F2F5
:10312800E0282274E812187A74FA12180A74021243
:1031380018561233837404121856ECF0A3EDF07489
:1031480002121856E02405123A18E0F50CA3E0F52F
:103158000D7402121856E02402F510A3E03400F5AD
:1031680011851082F58312374112054E75080075D6
:103178000900EA24FCFEEB34FFFF8008050CE50C8F
:103188007002050DA808C3EE98EF940050030233AF
:1031980035A818A919880E890F780E121A8D85146A
:1031A80082851583A3A3A3A31246D9121A8DE51409
:1031B8002405F50EE43515F50F780E121A8D8514D1
:1031C8008285158312337712073474061218208A01
:1031D8000E8B0FEA450F7003023335EA2404F51607
:1031E800E4350FF517851682F583E0F50CA3E0F5B5
:1031F8000D8518828519831246D58A828B83A3A3ED
:10320800A3E0F9851082851183123741120722E95C
:10321800F50960030233357402121856123A3FF565
:10322800097809121A91E4F512F5137812121A8D19
:103238007512EE7513027812121A8D9002EF121A97
:10324800A47407121856121AA4EEF9AC0EAD0F8525
:1032580010828511831237411208A27409121820AE
:10326800E9F5096003023335E508703FE4F50EF52A
:103278000F780E121A8D7CFF7DFF790985108285E3
:10328800118312374112080C7402121820123A6581
:10329800700D740412185612336C79110233699048
:1032A80002EEE024029002F2F080149002F2E0FABA
:1032B8009002EEE0790024025001096A497072A870
:1032C800089002EEE0FAE82AFAE43400FBEE9AEFFE
:1032D8009B405A851682851783E0C0E09002F3125E
:1032E800311BD0E0F00508851682851783A3E0C05E
:1032F800E0089002F312311BD0E0F005089002EECE
:103308001246D9121A8D1246D2A808123A0C121275
:10331800AA74021218209002EEE02508F50874FF3E
:10332800650C700474FF650D6003023184E5086064
:103338001F9002F2E0F5F0E5088412338912047058
:10334800E960099002F312374112133479008011B1
:10335800E509700375090A740412185612336CA92A
:1033680009023A02123BA7E50CF0A3E50DF022A3EF
:10337800A3124964AA0CAB0D22A3A3EAF0A3EBF0B5
:10338800229002F1F07CF17D028510828511831272
:1033980037452274EC12187A74FC12180A123EA8E7
:1033A800740212187012373B12073A8A0C8B0DEA16
:1033B800450D7003023473123483A818A9198810B4
:1033C80089117810121A8D7CFF7DFF790B85088290
:1033D80085098312374112080C740212182012351D
:1033E80079700C850A82850B83123A760234808EB6
:1033F800828F83A3A3A3A3E0F5127812121A91E493
:10340800F512F5137812121A8D7512F175130278E8
:1034180012121A8D7810121A8D7409121856121A6F
:10342800A47409121856E0F9AC0CAD0D8508828514
:1034380009831237411208A27409121820E9FE7094
:10344800157CF17D028508828509831237411204B3
:1034580076E97009802074166E70027E009002F280
:10346800123741121334EE7004800B7E01850A82F4
:10347800850B83123D95EEF9023DAAEE2402F5086C
:10348800E43FF5092274EC12187A74FC12180AEA5F
:10349800FEEBFF8C0E8D0FEE2405F508E43FF509D1
:1034A8007402121870850882850983123741120741
:1034B8003A8A0C8B0DEA450D7003023569EE240239
:1034C800F50AE43FF50BA818A91988108911781096
:1034D800121A8D7CFF7DFF790D12373B12080C7490
:1034E80002121820123579700B850882850983121B
:1034F8003A76807A8E828F83A3A3A3A3E0F512780D
:1035080012121A91850882850983A3A3121AA47539
:1035180012F17513027812121A8D7810121A8D741E
:1035280009121856121AA47409121856E0F912371B
:10353800371208A27409121820E9FE700F7CF17D79
:103548000212373B12047CE97009802074166E70F1
:10355800027E009002F2123741121334EE7004809A
:103568000B7E01850882850983123D95EEF9023D9F
:10357800AA123780F510A3E0F511EA45112274E884
:1035880012187A74FE12180A8A168B178C148D1565
:10359800EA2405F50CE43517F50DEA2402F50EE4E6
:1035A8003517F50F850E82F58312374112054E8ABD
:1035B800088B09750B007C037D0079007AF17B028A
:1035C8001212C2750A00E50814F5100424FFF50864
:1035D800E50934FFF50980549002F1E0FA9002EE13
:1035E800E0F8EA28F8E43400F9E50898E509995084
:1035F8000D9002F1E0F8E510C3989002EEF0E0F5C6
:10360800127513007812121A8D1246D29002F2E047
:103618002AFAA3E03400FB1212AA740212182090AE
:1036280002EEE0F89002F1E028F0050A850C8285A8
:103638000D83A3A312404C400302371C9002F1E013
:10364800C39508E49509400302371CAE0AEE2EFE26
:10365800E433FF12375BAC18AD191246EDE439FBC1
:1036680012073A8A128B13AC12AD13EC4D701B750E
:103678000B0112374B123D999002F2122C986003FD
:10368800121334A90B7402023A0485168285178333
:10369800A3A3A3A3E0F50B780B121A91E4F512F596
:1036A800137812121A8D7512EE7513027812121A07
:1036B8008D9002EF121AA47407121856121AA4A9B0
:1036C80010850E82850F831237411208A2740912E1
:1036D8001820E9F50B709B9002F212377060030214
:1036E80035E0E4F512F5137812121A8D7CFF7DFF90
:1036F800790F850E82850F8312374112080C7402E8
:1037080012182012377660030235E012374B123A4E
:103718007A02368D7CF17D02850E82850F83123701
:1037280041120482E96003023680790002368DACCA
:103738000CAD0D850A82850B8312374522E0FAA36A
:10374800E0FB2212375BE0FAA3E0F9EA85148285F0
:10375800158322850C82850D83E02EF8A3E03FF9BE
:1037680088828983229002EF124873E8492212372F
:1037780080F8A3E0F9E849229002F2EAF0A3EBF01E
:103788009002F2E02274E812187A74FA12180A7495
:10379800041218561233838C168D17740412185697
:1037A800E02405F50EA3E03400F50F740412185652
:1037B800E02402123A1812374112054E8A0A8B0B7E
:1037C8007F007E00A818A919880889097808121AA4
:1037D8008D850E82850F83A3A3A3A3E0F5088E0928
:1037E8007808121A8DE50E2405F508E4350FF50959
:1037F8007808121A8D850E82850F83A3A3123A4882
:1038080012073474061218208A0C8B0D8029123A7C
:1038180039F00F123A39F00F9002EE123D84121A65
:103828008D1246D2EFF8123A0C1212AA740212182C
:10383800209002EEE02FFFE50C450D70030238C81A
:10384800851882851983123EBAA3A3A3E0F98514CB
:1038580082851583123741120722E9FEE50C2404FC
:10386800F510E4350DF511EE705074041218561267
:103878003A3FF5087808121A91E4F508F50978082E
:10388800121A8D7508EE7509027808121A8D9002C1
:10389800EF121AA47407121856121AA4E50A24FA89
:1038A800F9AC0CAD0D8514828515831237411208C9
:1038B800A27409121820E9FE6039123A55123D988F
:1038C800EF70030239EF9002F2E0F5F0EF84900216
:1038D800F1F07CF17D02851482851583123741123F
:1038E8000488E960099002F3123741121334790011
:1038F800023A028F08EF703BE4F512F513781212C2
:103908001A8D7CFF7DFF7911851482851583123706
:103918004112080C7402121820123A657009123A02
:1039280055123A79023A029002EEE024049002F22B
:10393800F080359002EEE0F89002F2E0FAE8240414
:10394800FCE43400FDEC6A4D60030238CEE50A243D
:10395800FAFAE50B34FFFBE50828F8E43400F9EA45
:1039680098EB9950030238CE851082851183E0C008
:10397800E09002F3E02FF8A3E034008882F583D0CA
:10398800E0F00F851082851183A3E0C0E0123A268B
:10399800D0E0F00F740212186088088909780812BC
:1039A8001A8D7402121856121AA4850E82850F8376
:1039B80012337712074074041218208A0C8B0DEA10
:1039C800450D70030238167402121856E0C0E01252
:1039D8003A26D0E0F00F7402121856A3E0C0E012A5
:1039E8003A26D0E002381EEE70027E0A850E8285E5
:1039F8000F83123A5B123D98EEF974061218207F75
:103A08001002194C9002F3E028FAA3E03400FB22DC
:103A1800F514A3E03400F515851482F58322123AD3
:103A28002A229002F3E02FFAA3E034008A82F58379
:103A380022123A2A74FF22123BA7A3A3A3A3E022CF
:103A4800124964850E82850F8312374522851082BC
:103A5800851183124873851682851783229002F395
:103A6800EAF0A3EBF09002F3124873E84922123D02
:103A78009EE8F0A3E9F079112274EA12187A74FE2C
:103A880012180A8A088B098C128D13EA2405FEE4A1
:103A98003509FFAC18AD198E828F83123741120792
:103AA8003A8A0C8B0DEE2406F50EE43FF50FEA4535
:103AB8000D7003023B79E5082402F50AE43509F59F
:103AC8000B8A828B83A3A3A3E0A2E55028851882E2
:103AD8008519831237411208968A108B11EA45110D
:103AE8006020791212373785108285118312187871
:103AF800E9F50C707F850E82850F83E060097952A5
:103B08008011750C0E806D850882850983A3A3A397
:103B1800A3E0F9E4F508F5097808121A8D8E828F6A
:103B280083A3A3E0F5087808121A8D8E828F83A3E9
:103B3800A3A3121AA48E828F831246D512373B1282
:103B480008A87406121820E9F50C7011850E8285F4
:103B58000F83E0702D12373B12048E802574166592
:103B68000C7011750C007418121856123BA3E480DF
:103B780010750C0112486B851282851383E8F0A337
:103B8800E9F0850E82850F83E0600479008002A940
:103B98000C74021218207F0E02194C123BA722E067
:103BA800F8A3E0F58388822274EC12187A74F7126D
:103BB800180A8A0A8B0B8C108D11EA2405FEE4354D
:103BC8000BFF750C00AC18AD198E828F831237412C
:103BD80012073A8A088B09EA45097003023D6FE526
:103BE8000A2402F50A5002050B8A828B83A3A3A339
:103BF800E0A2E5502F8518828519831237411208F3
:103C0800968A0C8B0DEA450D604F7912AC08AD0908
:103C180012373B850C82850D83121878E9F50C6004
:103C280003023D72850A82850B83E0F508A3E0F55F
:103C380009AA08FB12088AEA4B70197AFF7BFF125F
:103C4800088AEA4B7003023D658A828B83E508F097
:103C5800A3E509F07508008008750C0E023D720591
:103C6800089002EBE0F8E508C3984003023D65853B
:103C7800080E750F007403780E1217F78A828B836B
:103C8800A3A3E0250EF8A3E0350F12413970D08EBA
:103C9800828F83123D8D1233838E828F83A3A3126A
:103CA8003D8D123381EE2404F508E43FF5098508BB
:103CB80082F583E088828983A3A3A3A3F0A3E4F019
:103CC800EE2405F50EE43FF50F850E82F583123DCF
:103CD8008DA3A3A3A312338175120775130078125D
:103CE800121A8DEEFCEFFD74041218681212AA74F1
:103CF80002121820E4F5127812121A8D85088285AE
:103D08000983E0FC7D00791712373B12080C740216
:103D18001218207407121856123383740712185693
:103D2800E0FA4B603D850882850983123D84121AAA
:103D38008D850E82850F831246D51212AA7402123F
:103D48001820740212187012373B120494E9602686
:103D580074071218561237411213348019750C095A
:103D68008008750C118003750C0112486B85108250
:103D7800851183123D98A90C74098028E0F508750F
:103D880009007808221237458882898322123D9ECD
:103D9800E8F0A3E9F022E0F8A3E0F9850E82850FA8
:103DA800832274041218207F0C02194C74EC121828
:103DB8007A123EA8751000EE2402F50CE43FF50DCA
:103DC800850C82F58312374112088A8A088B09EA22
:103DD80045097003023E8C850A82850B83E06401E5
:103DE8006003023E81AC08AD09AA0AAB0B12087E3B
:103DF800E9606E85088285098312310EEE2406F586
:103E08000AE43FF50B8E828F83A3A3121AA48E8235
:103E18008F83A3A3A3A3121AA4850A82850B8312F6
:103E28001AA479188E828F83123EBA12374112086B
:103E3800A87406121820E9F8741668700B850A82AF
:103E4800850B83E4F0A38014E860128E828F8312BE
:103E58003741850E82850F83EAF0A3EBF088108046
:103E680018780E121A8DAC08AD09EEFAEFFB12089D
:103E7800847402121820E9F510AA08AB09120890F8
:103E8800E510700E850C82850D8312374112049A55
:103E98008009741665107003751000A910023DAFF3
:103EA800EAFEEBFF8C0E8D0FEE2405F50AE43FF5D4
:103EB8000B22124964850C82850D832274EA12183C
:103EC8007A7508007509007E007F00750A00EC24E9
:103ED80002F510E43DF5118035EC65087003ED65D9
:103EE800096003023F7988828983A3A3E06A70038B
:103EF800A3E06B707C88828983A3A3A3A312486F75
:103F0800EE28FEEF39FFEA28FAEB39FB050A1240E2
:103F180049503A850A0C750D007403780C1217F78E
:103F280085108285118312403C124139601FE508D3
:103F3800450970A58C088D098882898312310C88FF
:103F4800828983A3A3E02EFAA3E03F80BEE50AC3DB
:103F580094025003024037750800750900EE4F605F
:103F680010EEFAEFFB12132E8A0E8B0FEA450F7034
:103F7800057900024039750B0002400C850B0C7561
:103F88000D007403780C1217F7851082851183E0F1
:103F9800250CF50CA3E0350DF50DE50C2406F514FC
:103FA800E4350DF515851482F58312413E6042E52E
:103FB8000C2404F512E4350DF513851282F58312ED
:103FC8001AA4E50E2508FAE50F3509FB1212AA74A2
:103FD80002121820851282851383E02508F508A3AC
:103FE800E03509F5098514828515831237411213C6
:103FF80034E50B600D7C087D007900AA0CAB0D122E
:1040080012C2050BE50BC3950A5003023F848510C5
:104018008285118312486F88828983A3A3A3A3A3EF
:10402800A3E50EF0A3E50F122C9FEEF0A3EFF079B5
:1040380001023B9E12404022E0250CF8A3E0350D1A
:10404800229002EBE0F8E50AC3982274F012187A7D
:104058008A0E8B0F8C0A8D0B750D00750C00805025
:104068007916EE2406F508E43FF5098E828F83A3BE
:10407800A3121AA48E828F83A3A3A3A3121AA485C2
:104088000882850983121AA4850E82850F83A3A34B
:104098001237411208A87406121820E9F50D741693
:1040A800650D706C850882850983E4F0A3F0050C22
:1040B8009002EBE0F8E50CC3985066AA0C8A0875E4
:1040C8000900740378081217F7850A82850B83A301
:1040D800A3124188E8FEE9FF8E828F8312413E6079
:1040E80040EA2401F508E43400F5099002EBE065A4
:1040F800087002E509601488828983A3A3A3A3A397
:10410800A3A3A31237706003024068791802406ABB
:10411800E9609B12486B7410121856124130123D18
:1041280098A90D7F0802194CE0FAA3E0F5838A826A
:1041380022F988828983124964EC4D2274F6121898
:104148007A7C0080010C900348E0F8ECC398501E7C
:104158008C08750900740278081217F712417DE07F
:104168006A7003A3E06B70DDE8FAE9FB80047A006B
:104178007B000242209002E91241888882898322CA
:10418800E02508F8A3E03509F92274F212187A8AB2
:10419800088B09750A0080278E828F83A3A3A3A3A7
:1041A800122C9660031213347C087D007900EEFA15
:1041B800EFFB1212C28E828F83E4F0A3F0050A127D
:1041C80040495027850A0C750D007403780C1217A6
:1041D800F7850882850983A3A3E0250CFEA3E035B3
:1041E8000DFF8E828F8312377070AD850882850926
:1041F8008374FFF0A3F002495874F612187A120873
:104208003C8A828B83E582458370067A007B008036
:1042180007A3A3A3A31237417F0202194C74F41217
:10422800187A89088C828D83E06402703C12480EEB
:10423800FEA3E0F9EEF87402687003742969702926
:10424800750A02750B00780A121A8D741012185626
:10425800121AA47410121856121AA4A90812117E60
:104268007406121820E9F980027901022CD374E847
:1042780012187A74FB12180AE9851882851983F0D6
:104288008A168B17ECFEEDFF7510008E828F83A3C4
:10429800A3A3E0A2E4502D741D1218561237411240
:1042A80008968A828B83E582458370030246AD793E
:1042B8000AEEFCEFFDAA16AB17121878E9F51060A4
:1042C800030246B0741F121856E0F508A3E0F5097A
:1042D8007421121856E0F50AA3E0F50B742312189E
:1042E80056E0F50EA3E0F50F8E828F83E06402603E
:1042F8000302464EA312486F850882850983A38569
:104308008212858313EE2406F50CE43FF50D8882AE
:1043180089831246EDF514E439F5157814121B1744
:1043280001000028012850430700022815440328EB
:1043380083430029444501296F4502291045032973
:1043480044450429E8454E46E50E450F60030246FC
:1043580049850C82850D8312486FE8FAE9FB8A8249
:104368008B83E0850A82850B831246F8121A8D8AA0
:10437800828B83A3E0FCA3E00245D2E50E450F60E3
:1043880003024649850A82850B837401F01246E2CE
:10439800850882850983F07C007D008E828F83A347
:1043A800A3A3A3E02401FAA3E03400FB12073AEA2E
:1043B8004B60408A828B83E02402F8850A82850B51
:1043C80083E028F0EA2404F8E43BF988828983E052
:1043D8008512828513831247061246F8121A8D8AAF
:1043E800828B83A31246D5E5082403FAE43509FB3A
:1043F8000245D7850A82850B83E02404F07C047D7E
:10440800007900AA12AB131212C20246B0E50E459B
:104418000F60030246491246E2FEA3E0FF850A82C6
:10442800850B837404F0EE850882850983F0EF8597
:104438001282851383F07403121870EEFAEFFB12E0
:10444800073A8A0C8B0DEA450D70030244F38A8201
:104458008B83A3A312310C7401121860880E890F84
:10446800780E121A8D7405121856121AA47CFF7D44
:10447800FF12074074041218208B0FEA450F70339F
:10448800850C82850D831246D9121A8D850C82857A
:104498000D83A3121AA47C027D007AB47B821205D4
:1044A8003C7404121820E9700A740112185674FF3B
:1044B800F0A3F08E828F83E064027039750C027568
:1044C8000D00780C121A8D8E828F83A31246D5E5C3
:1044D800082404FAE43509FB1212AA7402121820FF
:1044E800850A82850B83E02402800974011218561C
:1044F800EEF0A3EFF074011218561246C7740112B9
:1045080018561246BE024643E50E450F60030246A2
:1045180049850C82850D8312495DAA16AB171211C5
:1045280084850A82850B837402F085088285098355
:10453800EAF0851282851383EB024646E50E450FA5
:1045480060030246491246E2F8A3E0F9850A82852B
:104558000B837402F0E8850882850983F0E98512E7
:1045680082851383024646850C82850D8312374166
:104578001212A4EAFAF8C3950EE4950F405CE865B8
:104588000E450F70047A008021851882851983E012
:10459800FCE50E2CFCE4350FFDC3EC98ED940050BF
:1045A80003E08005E50ECAC39AFAEA850A82850BFC
:1045B80083F08A0A750B00780A121A8D850C828599
:1045C8000D83E0250EFCA3E0350FFDAA08AB091208
:1045D80012AA74021218200246B07510070246B0DB
:1045E800E50E450F705B850C82850D8312486F853B
:1045F8000A82850B837407F0888289831246BF126A
:1046080046B7E0851282851383F0E82402FAE4397C
:10461800FB8A828B831246C78A828B831246BEA38B
:10462800A3122C9E1246CCF0E82405F85001098804
:104638008289831246CCA3124706A3A3A3A3F080C2
:104648006775100B8062741D1218561237411208D4
:104658003C8A828B83E5824583604A12486F880CC6
:10466800890DE8450D603E7425121856E0F510785E
:1046780010121A91780E121A8D780A121A8D78086B
:10468800121A8D7407121856E0F9EEFCEFFDAA16FF
:10469800AB17850C82850D831218787407121820C1
:1046A800E9F510800375100EA9107405023A04F09C
:1046B80088828983A322A3E0850882850983221240
:1046C800470DF02212470DA3A3229002EF1249646E
:1046D80022E0F50E750F00780E22850C82850D8379
:1046E800123BA7E022E0FAA3E0F8E4C8F9EA28229E
:1046F800F08A828B83E0F50A750B00780A2212464D
:10470800B712470D22E0850882850983A3A3227486
:10471800EE12187A74FE12180A8A088B09ECFEED5C
:10472800FF890AAC18AD19EEFAEFFB12073A8A0CAA
:104738008B0DEA450D70030247FF851882851983A2
:1047480012374112083C8A828B83E58245837003C5
:104758000247FAA3A312486F880E890FE8450F7025
:10476800030247FA7414121856E0F510A3E0F51185
:10477800E50AF50B780B121A917419121856121AC9
:10478800A47810121A8D741B121856E0F9AC0CADEF
:104798000DAA08AB09850E82850F83121878740557
:1047A800121820E9F50B705274FE650A604C850CEE
:1047B80082850D83E06402704112480EFAA3E0F985
:1047C800EAF87402687003742969702E851082856E
:1047D80011831246EDF50CE439F50D780C121A8D9B
:1047E800EEFCEFFDAA08AB091208C07402121820EB
:1047F8008008750B0E8003750B01A90B7402121843
:10480800207F0A02194CA312487388828983E02208
:1048180074F612187A74FE12180A740C12185612CA
:10482800486FE8851882851983F07401121856E9D3
:10483800F0E4F508F5097808121A8D750802780869
:10484800121A8D7404121860880889097808121AD7
:104858008D79FE1208A87406121820740212182006
:104868000242208E828F8312487322E0F8A3E0F977
:104878002274F712187AEAFEEBFF890890030612F1
:1048880046D5121184EA5402600BA908EEFAEFFB30
:1048980012072E800279017F0102194C74F2121856
:1048A8007A74FE12180AEAFEEBFF890A7401650A97
:1048B80060147402650A60030249537901120ACA36
:1048C800E96003024953EEFAEFFB12088AEA4B60EB
:1048D80003120890A818A919880889097808121AD3
:1048E8008D7508027509007808121A8D7508AC755F
:1048F80009827808121A8D7CFF7DFF7A017B0012ED
:10490800073474061218208038850882850983A325
:10491800A3A3A3A3A312495DEEFAEFFB12116CE463
:10492800F50CF50D780C121A8D7402121856121A1D
:10493800A47CFF7DFFAA08AB091207407404121873
:10494800208A088B09E508450970BE7402121820F0
:104958007F0602194C123BA712496422E0FCA3E02F
:10496800FD2274F412187A8A088B09ECFEEDFF9088
:1049780015EAE0F4604B7A097B001212D4EA4B6026
:10498800408A828B8374B1F0A3E41249CCF08A8206
:104998008B83A3A3E508F0A3E5091249CCA3EEF0A5
:1049A800A3EFF0740C12185612486F8A828B83A3F7
:1049B800A3A3A3A3A3A3123D989015EAE0F91212AA
:1049C800E0022CD3F08A828B83A3A3A3A32274F0E2
:1049D80012187A74FA12180A8909ECFEEDFF7508A4
:1049E800008A0A8B0B780A121AD1000410FC4B19A2
:1049F8004A374A514A694A874A9F4AC24ADA4AEEBE
:104A08004A184B934BA44BBB4BD64BFC4BFC4B2E41
:104A18004B740165096003024BF78E828F83E0F8BF
:104A2800C394034003024BF7E89016D6024BD374A5
:104A38000265096003024BF78E828F83124C38900F
:104A480016D7E8F0A3E9024BD374016509600302A5
:104A58004BF7124C294003024BF7E8900749024BE9
:104A6800D3740165096003024BF78E828F83E0F8E7
:104A7800C394054003024BF7E890074A024BD374EE
:104A88000165096003024BF7124C294003024BF7FA
:104A9800E890074B024BD3741065096003024BF78B
:104AA800750A10750B00780A121A8D7A4C7B07125A
:104AB80012AA7402121820024C1D740165096003C1
:104AC800024BF7124C294003024BF7E890075C02AF
:104AD8004BD3740165096003024BF78E828F83E024
:104AE8009016DA024BD3740465096003024BF78E03
:104AF800828F83780C1216CE90829B780C12150147
:104B08005003024BF790075E780C1216DD024C1D1D
:104B1800E96003024BF71206D4E9700512113080E0
:104B2800559007F18061740765096003024BF775BA
:104B38000A06750B00780A121A8D8E828F83A3AC31
:104B480082AD8374021218681212B074021218200F
:104B58007C007D00AA18AB198E828F83E0F91210B1
:104B6800DCE9FEC3940A4003024C1A1206D4E97029
:104B78000CEEF912113679501213F4806D74F22E7E
:104B8800F582E43407F58374018040740165097087
:104B98005E124C295059E890075D802F7401650911
:104BA800704D8E828F83E0F8C3940A5042E89016C5
:104BB800D980187401650970368E828F83E0F87485
:104BC800F928C3940A5028E89016DBF0804774014E
:104BD8006509701B9007F0E0F88E828F83E09007DC
:104BE800F0F0E87030E06401702B12112480267513
:104BF80008188021C3EA9427EB94005015740265C5
:104C080009700F8E828F831256FE120554E9F5083B
:104C18008003750802A90874061218207F08021973
:104C28004C8E828F83E0F8C3940222A908024FD6E3
:104C3800E0F8A3E0F92274F012187A74B112180A95
:104C48008C0C8D0D9081F474201218707406121754
:104C58001D74201218701210DCE9F508745F121820
:104C680056E0F50AE9C3940A4003024DBC75F00604
:104C7800E9A4F50974411218707A0E74202509F90F
:104C88001213EEE97009744D121856E0FF80027F86
:104C9800009016D6E064027005750E018003750E4B
:104CA800007408650A70047422800274212509F5CD
:104CB8000F7C1B7D00790074261218681212C2EF4F
:104CC800A2E0E433FE74261218707A1BA90F12139F
:104CD800EEE970257440121856E024F9C3940A507E
:104CE80018780E121A917427121870EEF9AA0CABE4
:104CF8000D1205F674011218207C147D00790074D9
:104D08000C1218681212C2740C1218707A107424DB
:104D18002509F91213EEE970307C1079FF740C1232
:104D28001868121328E97021741C121856AC82AD49
:104D3800837A0474252509F91213EE740C1218707D
:104D4800EEF9AA0CAB0D1205DEAC18AD197A0C748D
:104D5800702508F91213EEE97049AA18AB19121157
:104D68000C7E00EE75F003A4F8A9F0851882851969
:104D780083E58228F8E5831255171256F8601D88D6
:104D8800828983A3A3E0F5087509007808121A8DB3
:104D9800AA0CAB0D1208AE74021218200EEEC394C2
:104DA8000440C0EFA2E1500C900748E0F9AA0CAB10
:104DB8000D1208B47404650A70289016D6E06402CF
:104DC80070207A0090075CE060027A01900749E061
:104DD8006004780480027800E84AF9AA0CAB0D1246
:104DE80006AA7900744F024C2174F712187A120639
:104DF800D4E9704F9007F1E06401701512113090FA
:104E080007F1E4F07C0AFDF97AF27B071212C280FE
:104E18002A750800A80874F228FEE43407FF8E8279
:104E28008F83E06401700BA9081211368E828F837C
:104E3800E4F00508E508C3940A40D979501213F440
:104E480012112402583674F012187A74F012180AE3
:104E5800EAFEEBFF8C088D09750A0AE9600C1460FC
:104E68000914603B14607D024F4412111EE9F50AD3
:104E7800C3940A4003024F44E50845097003024FF2
:104E880044750C06750D00780C121A8DEEFCEFFDBA
:104E9800AA08AB091212AA7402121820024F44750C
:104EA8000C00750E06750F00780E121A8DEEFCEFC9
:104EB800FDE50C75F00EA4F8A9F0746A28FA7407D9
:104EC80039FB1212BC7402121820E9700B050CE5AC
:104ED8000CC3940A506680CA850C0AE50AC3940A72
:104EE800505A8049750C00AC18AD197A1075F00647
:104EF800E50CA42423F91213EEE9701C7C1079FF49
:104F0800AA18AB19121328E9700EEEFCEFFDAA18C7
:104F1800AB191205BAE9600B050CE50CC3940A50ED
:104F28001B80C4850C0AE50AC3940A500FE508459E
:104F3800096009AA08AB09A90A121118A90A74106C
:104F4800024C2174F412187A890975081574FF6ADD
:104F5800700374FF6B70277E00AC097A027B00EE49
:104F6800F91210FAE960037508000EEEC3940A40BE
:104F7800E8E50960537A487B11120AEE804A120A62
:104F8800BE8A0A8B0BAE0AAF0BEE4F60387C007DF1
:104F980000EE2405FAE43FFB8E828F83A3A3A3A32C
:104FA800E0F91210DCE9F9C3940A500CAC097A0252
:104FB8007B001210FA750800E509600CEEFAEFFBA9
:104FC8001211488003750814024C331218207F040C
:104FD80002194C74F212187AECFEEDFF750815747C
:104FE8000E121856E0F50AA3E0F50B74FF6A700379
:104FF80074FF6B7021750900AC0AAD0BEEFAEFFB7C
:10500800A909121100E960037508000509E509C33B
:10501800940A503F80E2120ABE8A828B83E5824559
:1050280083602D7C007D00E5822405FAE43583FB4E
:10503800A3A3A3A3E0F91210DCE9F9C3940A50135F
:10504800AC0AAD0BEEFAEFFB1211007508008003F5
:10505800750814A9080254DFC082C083900762EA69
:10506800F0A3EBF0900748E0FC7D007A267B001265
:105078000554900748E0F9120818025B5874EF12BB
:10508800187A74EC12180AEAFEEBFFEE240CF50C01
:10509800E43FF50DEE2405F50EE43FF50FEE240987
:1050A800F50AE43FF50BEE2403F508E43FF5098E15
:1050B800828F83A3A3E024FA700302535B24FD705C
:1050C8000302527D14700302515B14601024FD70BA
:1050D800030252511470030252B4025361125E73F8
:1050E8006049E0F5838882124C38880E890FE845BC
:1050F8000F6038850C82850D83E0F50C780C121A48
:1051080091EE240BF582E43FF583E0F9850A828568
:105118000B831256FE0A0A0AAB09850E82850F8395
:105128001218787401121820025361850A82850BBF
:1051380083121AA490075E1216EC1205F07402127C
:105148001820E970030253617901850A82850B836F
:1051580002532B7510008E828F83A385820A858364
:105168000BE0600302521E850E82850F83E0A2E0E9
:10517800400302521E9007FC125E76600302521E24
:105188007C0E7D007900AA18AB191212C2850C8218
:10519800850D83125B23EA4B6010750C06750D00B4
:1051A800780C121A8DEA2410801B125B1D120ABE9D
:1051B800EA4B7003025361750C06750D00780C12EA
:1051C8001A8DEA2405FCE43BFD74021218681212D9
:1051D800AA7402121820850E82850F83E0A2E2507D
:1051E80004D2F08002C2F0A2F0E433F8740C121872
:1051F80056E048F0EEFCEFFDAA18AB19121112E9BF
:1052080070117A027B00900748E0F91213047900C4
:10521800025363751015125E737003025361125ABC
:10522800E77003025361850A82850B83E0FC7901EC
:1052380012536D121878E5107003025361FC79035C
:10524800125B1D125ACD025356125E73700302533D
:1052580061125AFA124C38890BE8450B7003025355
:10526800618E828F83A3E0FC7902125B1D888285A0
:105278000B830253567C007D00EE2404FAE43FFBC6
:10528800850882850983E0F91210DCE9F8C3940ADD
:105298004003025361EE240AFCE43FFD7A0475F0F2
:1052A80006E8A42425F91213E8025361125B1D9045
:1052B800075DE060079016D9E0F9806A9016D6E09D
:1052C800700479058060120ABE8A0C8B0DA80CA99F
:1052D8000DE8497003025361E82404F50CE439F53C
:1052E8000D8E828F83A3A3A3A3A3A3A3E0A2E05060
:1052F8003A850C82850D83E0FE6030850A82850B35
:1053080083A3E054027024740E121870E82405FA7E
:10531800E439FBEEF91210DCE97010790385088294
:10532800850983125B231205EA802EAC0EAD0F852A
:105338000C82850D83E0F9125B1D121154125E7305
:105348006017125AE760127C00790012536D121828
:10535800788006125B1D1210D67901741412182079
:105368007F0902194C850882850983E0FAA3E0FBCE
:105378008E828F832274F512187A74F212180AEA50
:10538800FE8C0A75F006E9A42420F508AC18AD19BE
:105398007A0EF91213EEE970467C0679FFAA18AB6B
:1053A80019121328E97038740C121856125B23EA84
:1053B800F8E50A6005EEC8488004EEF4C858F8EA33
:1053C800687001EB6015740C121856E8F0A3E4F04D
:1053D800AC18AD197A0EA9081213E8790180027980
:1053E80000740E1218207F0302194C74F212187AF6
:1053F80074E612180A890A8A088B09ECFEEDFF7414
:105408000C1218707A0E75F006E9A42420F912130C
:10541800EEE960030254D87C0679FF740C12186810
:10542800121328E960030254D87470250AF50BACEE
:1054380018AD197A0CF91213EEE960030254D4AAD4
:1054480018AB1912110CE5084509701D7C0C790080
:10545800AA18AB19121328E970727C0C7D00790028
:10546800AA18AB191212C28051AC18AD19AA08AB10
:10547800091211068A0C8B0DA80CA90DE849702297
:10548800EE4F604CAC18AD197A007B00121106EA99
:10549800F8EBF9EA4B603988828983E508F0A3E5DF
:1054A80009F0125553FAEE6A7001EF601FEEF04FE3
:1054B800700888828983E4F0A3F0AA18AB19121146
:1054C8000CAC18AD197A0CA90B1213E879018002FB
:1054D8007900741A1218207F0602194C74F71218F2
:1054E8007A7E00EE75F003A4F8A9F0EC28F8ED1226
:1054F8005517E06A7003A3E06B7006E8FAE9FB80D1
:105508000B0EEEC3940440DB7A007B000258363958
:10551800F9888289832274F712187A7C00EC75F076
:1055280003A4F8A9F0EA28F8EB125517E0F4FEA353
:10553800E0F4FF88828983EEF0A3EFF0125553F46C
:10554800F00CECC3940440D5025836E82402F582E6
:10555800E439F583E02274F412187A74F412180A04
:10556800EAFEEBFF8C088D099007FC125E76704FFF
:10557800EE4F70030256D7EC450970030256D71256
:10558800111EE99016DCF0C3940A4033750B007CB9
:105598000679FFE50B75F00EA4FAABF074642AFAED
:1055A80074073BFB121328E96003025638050BE524
:1055B8000BC3940A40D9750A0AE50A9016DCF090E4
:1055C80016DCE0C3940A40030256D775F006E0A43F
:1055D800FB9007FC125E76705CEEFCEFFD7A0E74B1
:1055E800202BF91213E87C0C7D0079FFAA18AB195F
:1055F8001212C2AC18AD197A0C9016DCE02470F9BE
:105608001213E8750A0E750B00780A121A8DEEFC53
:10561800EFFD9016DCE01257961212AA74021218C7
:10562800209007FCE508F0A3E509F079000256D9B7
:10563800850B0A8084E0C824061256F260197A1B8A
:1056480074212BF91213E81256DE2406F582E43889
:10565800F583E4F0A380D31256DE240A1256F260D2
:10566800107A1B74222BF91213E81256DE240A80D2
:10567800DB1256DE240C1256F260107A1074232BBB
:10568800F91213E81256DE240C80C11256E712569E
:10569800F260307A1074242BF91213E81256E7F5E9
:1056A80082E438F583E02410FCA3E03400FD7A049A
:1056B80075F0069016DCE0A42425F91213E81256BA
:1056C800E780899007F0E0600312115A12114E79B1
:1056D80001740C024FD39007FCE0F8A3E0C82290B5
:1056E80007FCE0F8A3E0C8240822F582E438F58333
:1056F8001256FEEC4D22E0FCA3E0FD2274F41218D1
:105708007A74F212180AEAFEEBFFE9C3940A50040D
:10571800EE4F700479028034AC18AD197A0E75F02A
:1057280006E9A42420F91213EEE9F508701C750A9D
:1057380006750B00780A121A8D7402121870EEFAA8
:10574800EFFB1212AA7402121820A908740E024F55
:10575800D374F412187AEAFEEBFF750800750A068E
:10576800750B00780A121A8DEEFCEFFDE50812574A
:10577800961212BC7402121820E96004A908800B62
:105788000508E508C3940A40D4790A024FD675F093
:105798000EA4F8A9F0746428FA740739FB2274F788
:1057A80012187A750800E50875F00EA4F8A9F074C7
:1057B8006428FE740739FFEEFCEFFD7A0E75F006DB
:1057C800E508A42420F91213EEE960297C067D007F
:1057D80079FFEEFAEFFB1212C27C067D0079FFEE2C
:1057E8002CFAE43FFB1212C2EE240CF582E43FF5DA
:1057F80083E4F0A3F00508E508C3940A40A89007DD
:10580800F0E0600312115A12114E802274F7121838
:105818007A7E007F007C06EF12579674FFF9121308
:1058280028E970010E0FEFC3940A40E9EEF97F01F1
:1058380002194C74F712187A7E00EEF9121136E943
:10584800F90EEEC3940A5003E960EF80E174F31295
:10585800187A74CB12180A89089016DCE06508706B
:105868001B7A017B00900748E0F912130A7A027B41
:1058780000900748E0F912130A12116675F006E560
:1058880008A4FF74202FFE74271218707A0EEEF900
:105898001213EEE9600302595D7C0679FF74271242
:1058A8001868121328E9600302595D7C0E7D00799F
:1058B800FF74271218681212C27C1B7D0079FF74CE
:1058C8000C1218681212C27C0C7D0079FFAA18AB62
:1058D800191212C274271218707A0EEEF91213E810
:1058E800E9FE740C1218707A1B74212FF91213E850
:1058F800E9F509740C1218707A1B74222FF9121327
:10590800E8E9F50A740C1218707A1074232FF9124A
:1059180013E8E9F50B740C1218707A1074242FF937
:105928001213E8E9F50C740C1218707A0474252F18
:10593800F91213E8E9FFAC18AD197A0C7470250850
:10594800F91213E8E9F8E509450A450B450C4F48F3
:10595800CE4EFE80027E00EEF974351218207F05C7
:1059680002194C74F712187AE9900748F0121124BA
:1059780002583674F412187AEAFEEBFF548070036A
:10598800025A3E900748E0F91212EC8A088B09EA9D
:1059980045097003025A377A01E5082404F8E4350A
:1059A80009F9880A890B8508828B83E024506040B6
:1059B80014600624E16067806C88828983E07068DF
:1059C8008508828B83A3A3A3A3A3A3A3121AA485E8
:1059D80008828B83A3A3A3A3A31256FE8508828BF8
:1059E80083A3A3125B231210E874021218208038D4
:1059F80088828983E0641E700F79008508828B8312
:105A0800A3A3125B231210E2850A82850B83E0F9B7
:105A1800E5082405FAE43509FB120812800AAA08E9
:105A28001210F4E9FAEA6007AA08AB091212DAEED2
:105A3800FAEF6480802AEE54026028EE6402FE7C4D
:105A4800007D007A007B00121112E960047A01805F
:105A5800027A027B00900748E0F9121304EEFAEF8D
:105A6800FB805FEEA2E0504C6401F508EFF50912E7
:105A78005ADB121160E9602A125E736020125AE73D
:105A8800601B7C007901125ADB8E828F8312187892
:105A98007C007903125ADB125ACD1218781211665B
:105AA800800C7A017B00900748E0F9121304AA08D9
:105AB800AB09800E54046006EE6404FA80047A0090
:105AC8007B00024FD6900762E0F8A3125AF2F583E2
:105AD8008882229007FC125E63E0FAA3E0FB2212A0
:105AE8005AF2F9E8FEE9FFEE4F22125AFAE0F8A35B
:105AF800E022E0F5838882A3A3227F0202194CC02A
:105B080082C083900748E0F98A828B83A3125B23C3
:105B18001208B4803B850882850983E0FAA3E0FB7C
:105B280022C082C08374FF12180A12112AE9C39492
:105B380002851882851983400474028002740AF071
:105B4800AC18AD197A0179051206F2740112182001
:105B5800D083D08202013274F212187A74E81218D3
:105B68000AEAFEEBFF890A8C088D097C187D00790A
:105B780000AA18AB191212C2851882851983EEF093
:105B8800A3EFF090074AE0C0E07402121856D0E084
:105B9800F090074BE0C0E07403121856D0E0F09084
:105BA80016DBE0C0E07417121856D0E0F074151236
:105BB8001856E054FEFAA3E0FB9016DAE0A2E0E4FF
:105BC80033F8EA48F8EBF97415121856125D03A277
:105BD800E15004D2F08002C2F0E854FDFAA2F0E4E9
:105BE8003325E0F8EA48F87415121856125D03A236
:105BF800E45004D2F08002C2F0E8FAE954FEFBA2B5
:105C0800F0E433F9EB49F97415121856125D03A242
:105C1800E55004D2F08002C2F0E954FDFBA2F0E4A2
:105C280033F50C750D007409780C1217F7EAF8EBC8
:105C3800450DF97415121856125D03A2E65004D2E8
:105C4800F08002C2F0E954FBFBA2F0E433F50C75D6
:105C58000D00740A780C1217F7EAF8EB450DF97481
:105C680015121856125D03A2E25004D2F08002C247
:105C7800F0E854FBFAA2F0E433F50C750D00740259
:105C8800780C1217F7EA450CF87415121856E8F054
:105C9800A3E9F090074BE0601D750C10780C121A00
:105CA8008D7C4C7D077406121856AA82AB8312129B
:105CB800AA740212182090075CE06011E50A6009D6
:105CC8007415121856E04402F078018002780074C6
:105CD80014121856E048F0900749E06004780480F0
:105CE8000278007414121856E048F0AC08AD09AAFE
:105CF80018AB191205E474180254DCE8F0A3E9F0B3
:105D08009016DAE02274F712187A1209087508005A
:105D1800E50875F00EA4F8A9F0746428FE74073934
:105D2800FF7C0679FFEEFAEFFB121328E97009EE03
:105D3800FAEFFB790012090E0508E508C3940A403A
:105D4800CF02583674F612187A74FD12180AEAFE51
:105D5800EBFF9007FE125E7670397508007509082A
:105D68007808121A8D7508027509007808121A8DBC
:105D78007508AC7509827808121A8D7CFF7DFF7A48
:105D8800017B0012073474061218209007FEEAF00F
:105D9800A3EBF09007FE125E767003025E5575085D
:105DA800FF7808121A91E4F508F5097808121A8D97
:105DB8007405121860880889097808121A8D740504
:105DC800121860880889097808121A8D900800123C
:105DD8001AA479029007FE125E6B1208A2740912C7
:105DE8001820E97036851882851983E0FA74011243
:105DF8001856E0F8E4C8F9EA28F508E439F509EA9C
:105E0800450960177808121A8D9007FE125E63A381
:105E1800125E6B1210E87402121820E4F508F509F6
:105E28007808121A8D900800121AA47CFF7DFF9042
:105E380007FE125B2312074074041218209007FE15
:105E4800EAF0A3EBF09007FE125E76700479018009
:105E58000279007403121820025B02E0F8A3125AB8
:105E6800FAA3221256FEEEFAEFFB22900762E0F840
:105E7800A3E0F9E84922C082C0839007FC125E764D
:105E880060109007FC125B231212DA9007FCE4F012
:105E9800A3F09016DC740AF0025B58C082C08390AD
:105EA80061907404F0A37448F0A37402F0906180C8
:105EB8007440F09061BC7403F09061877419F0909D
:105EC8006265741BF0906249E0C3941390619C4032
:105ED800107409F09060667401F090619F742880D6
:105EE8000D740BF0906066E4F090619F742CF012D2
:105EF800608E7009C29190037A7467800590037A66
:105F08007461F01260DF9029B8E493F46006E493BA
:105F1800F9120BC67905120E9C0260EDC082C0838F
:105F2800E9540FF9906185E0696012E5C654B844F8
:105F380041F5C6E59E5447644170F8E9F053C6B888
:105F4800E59E544770FA0260EDC082C083A8A8534A
:105F5800A87E906181E4126D6EC2BA539AFEC2891E
:105F6800759B00C2C275E90075910075BF0075A9DF
:105F78001175B905906181F0A374C0F0A3E4F0D263
:105F8800BA439A0174805842A80260EDF0A3F00267
:105F980060EDC082C08374F812180A9003781272F8
:105FA8006E7003026086900378E0544060177908A9
:105FB800AA18AB19120CC2AA18AB1912092C900313
:105FC80078E054BFF0E054806010790C7A417B058A
:105FD800120CC2900378E0547FF0E0A2E0501E1249
:105FE800608E7009C29190037A7467800590037A75
:105FF8007461F0120932900378E054FEF0E0540224
:10600800601E1260D27009D29190037A7471800573
:1060180090037A746AF0120932900378E054FDF024
:10602800E0540460109029BC1260E2120938900311
:1060380078E054FBF0E0540860109029BD1260E24B
:10604800120938900378E054F7F0E05410600D120C
:1060580060DF120938900378E054EFF0E0542060D4
:106068000A120938900378E054DFF0A3E054016085
:106078000D120BE412093E900379E054FEF0740807
:106088001218200260ED90619A1262DF90051BE001
:10609800640122C082C083E9600514601780291258
:1060A800608E7009C29190037A7467801A90037A9F
:1060B800746180131260D27009D29190037A74715E
:1060C800800590037A746AF0801B90619A1262D1FD
:1060D80090051BE06401229029BEE493906186F04C
:1060E80022A2E092AFD083D08202013274EA121861
:1060F8007A74F412180A90822FAC18AD197404122D
:10610800171D9029BC93F46003026266907808E03A
:10611800C39402500302624A9081DA740412187020
:10612800740812171DA818A919881489157404125F
:10613800186088088909AE08AF097510FF7511FF46
:10614800750EFF7C00750C48750D78801274086C0C
:1061580070030261E074096C607E740A6C60798572
:106168000C82850D8378081216CE8E828F83A9093A
:10617800E50AC9F888127418780812160FE512454E
:1061880008F8C3E098A3E099850C82850D83780808
:106198001216CE40188E828F837418780812160F44
:1061A800E5124508F8E0C398F8A3E0801A74187857
:1061B8000812160FE5124508FAE9FB8E828F831242
:1061C8006F35EAC398F8EB99F9C3E89510E995118A
:1061D8005006881089118C0E0CE50C2404F50C501F
:1061E80002050DECC39413500302615574FF65104A
:1061F800700474FF65116024850E08740278081213
:1062080017F774482508F58274783509F5837808F6
:106218001216CE851482851583E508F0EE2402FE59
:1062280050010F851482851583A3858214858315F3
:10623800740C121856E5826E7003E5836F600302D2
:1062480061427508017509007808121A8D740212E6
:1062580018707A6F7B0A1211D87402121820740C05
:106268001218207F0E02194CC082C0839061AE7450
:1062780068F0A3746AF090624574FBF0A304F053CD
:10628800F4FD43FE0290051B7401F09061A0E064E8
:106298003A90619A70191262DF740164017009C240
:1062A8009190037A7467801E90037A746180171244
:1062B80062D1740164017009D29190037A7471807B
:1062C8000590037A746A025F96743FF0A3745AF0DB
:1062D8009061A0747FF0227433F0A37455F090613C
:1062E800A0743AF0227F0402194CC082C083900443
:1062F800CDE06401700A9004D2E06004790C800259
:1063080079000260EDC082C08375E1F19004D0E0AD
:10631800605114600914605514604D147054120BC8
:10632800F69004BFE0F97AC07B04120E1E908263D7
:106338001216EC120E5490821F1216EC120E2A90AE
:1063480004D1E0F9120E367901120E9012642C2451
:106358001AF582E438F583740EF0A3740CF0790012
:106368000260ED120BFC80B9120C0280B4120C080A
:1063780080AF791280EA74F412187A75D90D9004F6
:10638800C6E0A2E0E4331313F8126564484401F54B
:10639800D97582C075830412656E7004E583640440
:1063A80070F57582C77583041266ADE58264CD7099
:1063B80004E583640470F175E1959004C6E0F97A08
:1063C800C77B04120E2490160E749CF0A3740B1253
:1063D80064A31264ED1264E41266279004D0E064AA
:1063E800019004BD700B1264351216CE90826F8036
:1063F800091264351216CE908273780812165A90D4
:10640800822378081216A812642C1264DB7808120A
:1064180016DD12642C1264D27413F09003767402A1
:10642800F00262ED9004BDE0F8A3E0C8221271DD2D
:1064380078082274F712187A126554F5D97582C053
:1064480075830412656E7004E583640470F5900426
:10645800D6E0600A78D77904FA126548DAFB126543
:10646800F512656E7004E583640470F59004F6E037
:10647800600A78F77904FA126548DAFB75E19590B5
:10648800160E74A8F0A3740B1264A31264AD7412F0
:10649800F09003767401F0FF02194C12661074A292
:1064A800F0A3740B221264ED1264E412662B9004BC
:1064B800BDE0F8A3E0C81264DB74FF126D5C9004C1
:1064C800BDE0F8A3E0C81264D2222414F582E438AF
:1064D800F58322240EF582E438F58322F0A374BAFA
:1064E800F0A3740B221264F1221264F522F0A37453
:1064F80022F0A3740D2274F712187A12655444021C
:10650800F5D97582C075830412656E7004E58364DD
:106518000470F59004D6E0600A78D77904FA126519
:1065280048DAFB75E19590160E126576F0A31265B0
:10653800761264B07414F09003767404F00268A9BB
:10654800888289831266B1A882A983229004D61210
:10655800655B22E02407F5D9126564229004BFE048
:10656800C4333354C0221266B1E58264C62274B4BF
:10657800126583126583F0A3740B22F0A3740BF0E9
:10658800A374B42274F712187A1265544406F5D924
:106598007582C075830412656E7004E583640470A7
:1065A800F59004D6E0600A78D77904FA126548DADB
:1065B800FB1265F512656E7004E583640470F5904E
:1065C80004F6E0600A78F77904FA126548DAFB7590
:1065D800E19590160E74AEF0A3740B126606126461
:1065E800AD7415F09003767403F00268A99004F670
:1065F80012655B4404F5D97582C07583042212665E
:10660800107422F0A3740D221266142212662174EB
:1066180022F0A3740D126621221264F5F0A322124F
:10662800662B22F090161C7422F0A3740D126614C7
:106638007422F0A3740D1264F1F022C082C0831298
:10664800642C2406F582E438F583E4025F9474F739
:1066580012187A9003A4126F2774A628F8740339C5
:10666800F9E82405FAE439FB8A828B83126FEA88F9
:10667800828983A3A3A3A3A3A3A3A3A3ECF0A3ED5D
:106688001266A6A3A3A3A3A3A3E024FFF8A3E03460
:10669800FFF98A828B83E8F0A3E9F00268A9F08801
:1066A800828983A3221266B122E0F5D9A3229061E0
:1066B800D0E0F87480C398FC1266C922F01266C94B
:1066C80022EA2483F582E43BF583E0221266DF2484
:1066D80004F8E43583F922F582E43FF583E5822264
:1066E8001266B1E865822274F712187AEAFEEBFFA7
:1066F8009061D0E0707875D90E75D90375D904EE1C
:10670800248C12677B1266E87003E9658370F6EEE5
:1067180024841266D41266E87003E9658370F675FE
:10672800E1957908EE248CFAE43FFB120CB6790463
:10673800EE2484FAE43FFB120CB67C00EE24ABF89E
:10674800E43FF9ECFAC3E49AFA95E0FBEE2AFAEF93
:106758003BFBEA248B1271F788828983F00CA3A88B
:1067680082A983ECC3940840DA12688A800279000F
:106778000268A91266DF2408F8E43583F922C0828A
:10678800C08375D90275D90375D90575E195EA24D1
:106798006FF582E43B126F33EA2471F582E43B1211
:1067A80068970260ED74F612187AEAFEEBFF90051E
:1067B80021740612680C121A8D7C017903120D16C9
:1067C800740212182075D90675D90375822175834C
:1067D800051268047004E583640570F575E1959009
:1067E8000376E064087010EE246FF582E43F126FC0
:1067F80033EE247112706B79010269D21266B1E529
:1068080082642622F075082175090578082274F635
:1068180012187AEAFEEBFF9061D0E07036780190AA
:106828000521740BF0900376E06407701975082150
:106838007509057808121A8D7C017903120D1674F2
:10684800021218207805126ADA1266ADDAFB1268AD
:1068580087800279000269D274F712187AEAFEEB8F
:10686800FF75D90375D90375D90DEE24DE1271D1E0
:10687800F5D975E1957904120E5A12688A80227545
:10688800E195EE246F127274EE2471F582E43FF5FF
:1068980083E8F0A3E9F0790122F0EEA2E092AF7963
:1068A800007F0102194C74F612187A1269DF60042D
:1068B800780480027800E8240BF8EAC39840457C05
:1068C80009900521EC126926126935DDFB1271CE9B
:1068D800601B7508217509057808121A8D7903EE71
:1068E800FAEFFB120D1674021218207C0D126911B2
:1068F8001269D770FB75E1957904120E5A126A5A1B
:106908007901800279000269D21269178C08227411
:10691800012CF5D975D90375822175830522F0EE0E
:1069280024E3F8E43FF97A227B057D0822126939CD
:106938002288828983E08A828B831266A6A882A92C
:10694800838A828B83A3AA82AB832274F612187A75
:106958001269DF6004780480027800E82408F8EA05
:10696800C39840647806900521740CF0900393E076
:10697800900522F0900394E0900523F0900395E0B1
:10698800900524F0900396E0900525F0900397E099
:10699800900526126A6E601B75082175090578082E
:1069A800121A8D7C067903EEFA120D16740212186B
:1069B80020780A126A681269D770FB75E195790424
:1069C800120E5A12688A800279007F0202194C124C
:1069D80066B11508E50822EAFEEBFF9061D0E0F801
:1069E8007480C398FA126A732274F612187A1269BC
:1069F800DF6004780480027800E82404F8EAC39889
:106A0800404B7802900521E8F0EE24F51271D19000
:106A18000522126A6E601B7508217509057808122F
:106A28001A8D7C027903EEFA120D167402121820E0
:106A38007806126A681269D770FB75E195126A5A6E
:106A48007904120E5AEE240D12688D800279000224
:106A580069D2EE241DF582E43FF583E4F0A3F02229
:106A6800126AE0880822F0126A7322EE2483F58203
:106A7800E43FF583E02274F612187A1266B66004D1
:106A8800780480027800E82404F8ECC398403E7843
:106A9800029005217407F0EA24F61271F790052296
:106AA8001266C460197508217509057808121A8DCF
:106AB8007C027903120D1674021218207806126AE5
:106AC800DA1266ADDAFB75E1957901800279000288
:106AD80069D2126AE0E8FA22740128F5D975D90357
:106AE8007582217583052274F712187AE9FFA2AF1F
:106AF800E433FEC2AF7C0080010C126B865011ECAF
:106B0800F8EA28F8E43BF9126B7CE06F70EB80162A
:106B1800EA246EF8E43BF9E0FCEA2CFAE43BFB12C9
:106B28006BA9EF126C6DEEA2E092AF0268A9C08269
:106B3800C083A2AFE433FDC2AF1271F414F07C003D
:106B4800801BECF8EA28F8E43BF9E8246BF582E4CA
:106B580039F583E0C0E0126B7CD0E0F00C126B8654
:106B680040E0EA246DF582E43BF58374FF126BB3D1
:106B7800ED0260E9E8246AF582E439F583221271AE
:106B8800F4F8ECC39822C082C083A8A8C2AF126BE5
:106B9800A9E9126BB3E8A2E7E433FAE8A2E70260D6
:106BA800EBEA246AF582E43BF58322F0EA2469F5EE
:106BB80082E43BF583E4F02274F312187AEAFEEBE0
:106BC800FFECFAEDFB8A828B83A3A3A3A3E0541FF7
:106BD800F0EE2436F582E43FF583E4F0750A00EE22
:106BE800245DFCE43FFD8A828B83E08C828D83F0F8
:106BF800750B00E50A33333354F8F50C8A828B831E
:106C0800E0F508750900E50B78081217D8E508A221
:106C1800E05027EE2436F8E43FF988828983E0F5CE
:106C280008EE2508F508E43FF509E5082438F5825B
:106C3800E43509F583E50C126C6D050B050CE50BC5
:106C4800C3940840B7050A8A828B83A3AA82AB83C0
:106C58008C828D83A3AC82AD83E50AC394054086FC
:106C68007F0502194C126C7304F022F08882898324
:106C7800E02274F712187A9003A2E064017003020C
:106C88006D549003A8E06003026D547401F0A3E40E
:106C9800F0A3F090040804F090040DF09003AB12F8
:106CA8006D5B9003B504F09003DBE4F09003BE1233
:106CB8006D62A3F0900425F0900419F0900428F078
:106CC80090040E7480F0A3E4F0900414F090049102
:106CD800126D7990049AF0900429F0900479126D5D
:106CE80079A3F0A3F0900485F0900487F0900483D2
:106CF800F090049D126D799004B0F09004AA126D82
:106D08006274FF9004107804F0A3D8FC7A037B0423
:106D180078B17904126D7464B67003E9640470F490
:106D28007A897B04788A7903126D7464927003E916
:106D3800640370F49003A2E004F064017008900307
:106D4800AAE09003A4F07AA67B0380047A007B0073
:106D58000268A9E4126D6EA3F022126D6622126D0C
:106D68006EA3126D6E22F0A3F0A3F022126939E827
:106D780022126D66A3F0A3F022C082C0838A828BA0
:106D880083A3A3A3E0600F8A828B83A3A3A3E4F069
:106D98009003A3E014F09003A2E014F070069003AF
:106DA800A474FFF08A828B83A3A3E4F09004B6E076
:106DB800700D9003A3E0640170057900120E3C0287
:106DC80060EDC082C0839003A9E4F09003A8F0901E
:106DD80003A2F0A3F0A374FFF075E1F10260EDC027
:106DE80082C083780079009003A9E0600478A679CE
:106DF8000388828983A3A3A3A3E0F90260ED74EE5C
:106E080012187A8A0A890C9003A3E0F8E9C398500B
:106E18002278FF79FF9003A9E06013900419E064D9
:106E280001700590041F80039003D4126F35E8FEAB
:106E3800E98011E96009A3126F27126F188005EA2B
:106E48002AFEEB33FF8E0E8F0F7403780E1217E8AD
:106E58009003A3E0F8C3E50E98E50F9400500302F1
:106E68006F04E50A25E0F50AEB33F50BEC2CF50881
:106E7800ED33F509AC0AAD0B8007EC2402FCE43DC8
:106E8800FDC3E5089CE5099D4060C3EC9EED9F406D
:106E98003FECF8EDF9EEFAEFFB12177F8B0FEA459E
:106EA8000F60068E0E8F0F8006750E00750F00ECB2
:106EB800F8EDF9EEFAEFFB12177F8A108B11EC95BB
:106EC80010F8ED9511F9E8250EFCE9350FFD801A4B
:106ED800E0F8E50CC3985012EEF8EFF9ECFAEDFB88
:106EE80012177F8B0FEA450F7090C3EC950AED954A
:106EF8000B4009C3E5089CE5099D50067AFF7BFF16
:106F08008009ECFAEDC313FBEA13FA7F0A02194C65
:106F180074D428F582740339F583E0FEA3E022E0F7
:106F2800F875F00BA4C8AAF02AF922F58312727A30
:106F38002274F612187A74FC12180AEAFEEBFF8023
:106F48003CEE2463F8E43FF97A007B00A2AFE43317
:106F5800F508126FE4EC4D600F127233700A8882E4
:106F68008983A3A3E4F0A3F0E508A2E092AF12138B
:106F7800349004B7E004F09004B8E004F0EE246321
:106F8800F582E43FF58312726E70B69004B8E06043
:106F9800358E828F83A3A3A3A3E0851882851983E6
:106FA800F0A3E4F09004B8E0F87402121856E8F080
:106FB800A3E4F07402121870AA18AB197901120927
:106FC800989004B8E4F0EEFAEFFB120C6EEEFAEFCC
:106FD800FB120D4C74041218200269D2C2AF8882C9
:106FE8008983E0FCA3E0FD2274F712187AEAFEEB2D
:106FF800FF8E828F83A3A3A3A3E0FA7B0012096EFE
:10700800EEFAEFFB120C86120D2E0268A9C082C0A0
:1070180083E490038A7808F0A3D8FC90038A0402DA
:107028005F9674F612187AEAFEEBFFEC2403F8E494
:107038003DF988088909EC2407F8E43DF9E8FCE9FA
:10704800FD12707712177FEE240D12706B12707795
:1070580012177F8B09EA45096006EE240D12708A23
:107068000269D2F582E43FF583E8F0A3E9F0228CC7
:10707800828D8312727A850882850983E0FAA3E0FB
:10708800FB22F582E43FF583E02401F0A3E034001D
:10709800F02274F612187AEAFEEBFFEE242EF5823F
:1070A800E43FF583126FEA780079FAECFAEDFB1207
:1070B800177FEE246F12706B780079FAECFAEDFB0B
:1070C80012177F8B09EA45096006EE246F12708A51
:1070D8000269D274F412187AEAFEEBFF120DF48AF0
:1070E800088B098C0A8D0B908277780812165A90B3
:1070F800822378081216A87808121A898E828F833C
:107108001271D91216EC1226DC7404121820E960E8
:10711800030271C98E828F83E02402F8A3E0340051
:10712800F9E8FAE9FB740C12185678081216CE8A98
:10713800828B83780812166D90822378081216CEF7
:107148008A828B8378081216BBEE240BF582E43F03
:10715800F583C082C0838E828F83A3A3A3A3A3E0F9
:107168002401F8A3E03400F9D083D082E0687003EA
:10717800A3E06970047901804A8E828F83A3A3A358
:10718800A3A3A3A3127090EE24731271D1640170AB
:1071980013EE24741271E37003A3E0697006EE2401
:1071A8007412708AEE247F1271D164017013EE2478
:1071B800801271E37003A3E0697006EE24801270F8
:1071C8008A79000262EDEE2483F582E43FF583E0DC
:1071D800221271DD22127218A3A3221272748E82F7
:1071E8008F83A3A3A3A3A3A3A3E06822EA246EF535
:1071F80082E43BF583E02274F712187A1272638AEC
:10720800828B836005A3A31272181272210268A1EF
:10721800E0F8A3E0F583888222127259A3A3ECF068
:10722800A3EDF08C828D83E4F0A32288828983E029
:10723800FAA3E0FB8A828B83E0FCA3E0FD888289C5
:1072480083127259E4F0A3126C73FCA3E0FDEC4DB9
:1072580022ECF0A3EDF08A828B8322A2AFE433FE06
:10726800C2AF8A828B8312727AE84922F582E43FA0
:10727800F583E0F8A3E0F92274F712187AE96006BA
:10728800F8127295D8FBECFAEDFB0268A98C828D96
:1072980083E08A828B831272AB8A828B83A3AA8251
:1072A800AB8322F08C828D83A3AC82AD832274F7EA
:1072B80012187A8C828D831275258C828D83A3E0B7
:1072C8008A828B83A3F08C828D831278B4127978AA
:1072D8000279B374F212187A74FE12180AEAFEEBF5
:1072E800FF89098C0A8D0BA818A919880C890D78B3
:1072F8000C121A8D7416121856127CFE7415121878
:1073080056E0F9120A647402121820E9F5086003BD
:107318000273A17412121856E0C0E085188285190C
:1073280083E0F8A3E0F5838882D0E0F0900347E09B
:1073380004F070077401F07C018001FC85188285D7
:107348001983E02403F8A3E03400F9E8FAE9FBEC38
:107358008A828B83F07410121856121AA4780A12B3
:107368001A8D8A828B83E0FCA909EEFAEFFB120AD8
:10737800167404121820E9F50870127C1E7D008529
:107388001882851983127D0B120A76800C85188263
:10739800851983127D0B120A6AA90874020277CC38
:1073A80074F212187A74FA12180AEAFEEBFF890BC3
:1073B8008C0A7A177B00120AA08A088B09EA450909
:1073C800700302746D74161218561276D9602174FF
:1073D80014121856127CFEEA2404FAE43509FB88D4
:1073E8008289831218788A0C8B0DA80CA90D800449
:1073F80078007900850882850983E50BF0A3E50A02
:10740800F0E8850882850983A3A3F0E985088285C9
:107418000983A3A3A3F08518828519837405F0A3B3
:10742800E4F07402121856E508F0A3E509F0E82420
:1074380004F8500109740412185612747690034621
:10744800E0AC18AD196009EEFAEFFB120A2E8007BE
:10745800EEFAEFFB120A1CE9FEEE600BAA08AB0974
:1074680012133480027E13EEF974060277CCE8F02A
:10747800A3E9F02274F512187A8C828D831279F9B7
:10748800E875F009A4F8AEF075F009E9A42EF974CE
:10749800FB28F8740239F9E82403FEE439FF8E82E8
:1074A8008F831279E970338C828D83A3A31279F1CB
:1074B8008E828F83E508F0A3E5091277C3127CFD5D
:1074C80088828983A3A3A3A3A3ECF0A3ED127B8BEB
:1074D800A3EAF0A3EBF07900800279167F03021982
:1074E8004CC082C0837A057B00120A28E9701E7A94
:1074F800067B00120A28E970147A047B00120A2815
:10750800E9700A7A077B00120A28E9600479018089
:107518000279008000D083D082020132A31279223E
:107528002274F612187A74FA12180AEAF8EBF9E8D3
:1075380075F009A4F8ACF075F009E9A42CF974FB0E
:1075480028F8740239F988088909E82403FEE43523
:1075580009FF8E828F831276D96058900346E060C7
:107568004E851882851983EAF0A3EBF0740212188D
:1075780056127476850882850983A3A3A3A3A31250
:1075880079F97404121856127476AC18AD19850876
:1075980082850983127D04120A2EE9600A8E828F81
:1075A80083127D0B1213348E828F83E4F0A3F0795B
:1075B800018002790074061218200279DB74F01237
:1075C800187A8A0A8B0BECFEEDFFEE2404F508E42A
:1075D8003FF509850882F5831276D9600B90160C61
:1075E800C3E098A3E0995005791B0276C57C047D19
:1075F800008E828F83127D0912133A8A0E8B0F85B3
:107608000882850983127525A385820C85830D85DB
:107618000882850983A31276E11276E1A31276F037
:10762800850882850983E02404FEA3E03400FF7402
:10763800FE650A700474FF650B70417A097B0012BD
:1076480012D4EA4B60328A828B837490F0A3A3A38E
:10765800A374021276D174FEF0A3041276CAEEF077
:10766800A3EF1276CAA3A3E50EF0A3E50FF09003EB
:107678001EE0F91212E0803779138041780E121A51
:107688008DEEFCEFFD7900AA0AAB0B1208CC740250
:10769800121820E9F9601024FE601824FB601C24ED
:1076A800F5601424F37016900346E0600214F07934
:1076B80000800A791480067902800279047F080222
:1076C800194C1276D1A3A3A322F08A828B83A3A399
:1076D80022E0F8A3E0F9E849221276F0A385820CAB
:1076E80085830D8E828F8322E0850C82850D83F041
:1076F8002274F212187A8A088B09EA2402FEE43509
:1077080009FF8E828F83E4F0A31277C3A3E064029B
:1077180060030277BF8C828D83A3A3A3A3A3E0F5A4
:107728000CA3E0F50DC3E50C9404E50D940050039B
:107738000277BF8C828D83127D048A828B83E0FC62
:10774800A3E0F8E4C8F9EC28E439FD8A828B83A326
:10775800A3E0F50A8A828B83A3A3A3E0F9A80AEC25
:107768002404F50AE43DF50BE50C650A7004E50D03
:10777800650B70437405687001E9601674046870DD
:1077880001E9600E7406687001E9600674076849CB
:107798007025850882850983A3A3A3A3ECF0A3ED34
:1077A800127B977CFC7DFF12133A8E828F83EAF05E
:1077B800A3EBF0790080027901800CF08C828D8334
:1077C800A3A3A3221218207F0602194C74F41218DE
:1077D8007A7508027509001278F8A3A983EC2402C7
:1077E800FEE43DFF8C828D83E0F50AA3E0F50B747F
:1077F80001650A450B700B1278241275247508046C
:1078080080117402650A450B7009127824127914E4
:10781800750806AA08AB097F0402194C8E828F836B
:107828001279220AE9FB8E828F832274F612187A63
:10783800740A121856C3E09402A3E094004063123D
:10784800799AEA2402F8E43BF98A828B83E0FEA362
:10785800E0FF74016E4F70138C828D831278AFE055
:10786800FBEE88828983F0A3EB803274026E4F703E
:107878002D8C828D83A3A3E0F5088C828D83A3A32E
:10788800A3E0FFE50888828983F0A3EFF08C828D5E
:1078980083A3A31278AFA3127989F0A3E9F0790042
:1078A800800279010279DB1278B4A322A3A3E0FE57
:1078B8008C828D83A3A32274F712187A1278F8ECBD
:1078C80024021278E4127914A30AAB83EC2406127A
:1078D80078E41275247A087B000279B41278E822D9
:1078E800F8E43DF98882898312790C888289832299
:1078F8008C828D831279E08C828D8312790722A382
:1079080012790C22127926A30AAB8322127907EC8A
:1079180024041278E8A31279222212792622E08A16
:10792800828B83F02274F712187A7409121856E0C1
:1079380064087002A3E0703412799AEC2402FC50B7
:10794800010D8C828D83E0FE127978F0EC2402FC24
:1079580050010D12797F127477EC2402FC50010D4E
:1079680012797FA3A3127477790080027901803C91
:1079780012798FF0A3E9228C828D83E0FE12798937
:107988002212798FA3A322A3E0F9EE8A828B83A324
:10799800A32212799E228C828D83E0FEA3E0F9EE69
:1079A8008A828B83F0A3E9F02274FFF07F01021929
:1079B8004C74F712187A7409121856E064027002AF
:1079C800A3E070051279D58002790180DF12799ED3
:1079D8007900227F0202194C127926A3AA82AB836E
:1079E800221279F1E508450922E0F508A3E0F50936
:1079F80022E0F8A3E0F92274F012187A890A8A0CB6
:107A08008B0DECFEEDFF7A0A7B001212D48A088BEC
:107A180009EA4509604E8A828B8374A0F0A3E412B8
:107A280076D1E50CF0A3E50DF0EA2404FAE4350973
:107A3800FBEE4F6019750C06750D00780C121A8D47
:107A4800EEFCEFFD1212AA740212182080097C06BF
:107A58007D0079001212C2AA08AB09A90A1212E025
:107A68007900800279010276C574F012187A8908C3
:107A78008A0C8B0D8C098D0A7A1C7B001212D48A11
:107A88000E8B0FAE0EAF0FEE4F606D8E828F83742C
:107A9800A2F0A3E509F08E828F83A3A3E50CF0A3DF
:107AA800E50DF07410121856E08E828F83A3A3A3FD
:107AB800A3F08E828F83A3A3A3A3A3E50AF0EE24E9
:107AC80006FAE43FFB7411121856127CFEEC4D6066
:107AD80015750C16750D00780C121A8D1212AA74F1
:107AE8000212182080097C167D0079001212C2EE5D
:107AF800FAEFFBA9081212E00276C574F112187A9F
:107B0800EAFEEBFF890A740F1218561279E9790117
:107B1800606C120ACAE96064900345E0F50E750BC3
:107B2800008002050BE50BC3950E504CA80B79009D
:107B3800127BF5A3AC82AD83E0F50CA3E0F50DE56F
:107B48000C450D70DE8A828B83E4F0E824405001F6
:107B5800098C828D83127477EAF8EBF9E84960188A
:107B680088828983A3A3A3A3EEF0A3EF127B8BE5FE
:107B78000A127B97790080067915800279147F07AD
:107B880002194CF088828983A3A3A3A3A3A322F09C
:107B9800850882850983E8F0A3E9F02274F71218B2
:107BA8007AEAFEEBFF7C0A7D0079001212C28E820F
:107BB8008F83A3A3A3A3A3A3A30279B1C082C08385
:107BC8007800800108900345E0FAE8C39A5017123C
:107BD8007BF5127CFDEC4D60EB8A828B83A3A3A31B
:107BE800E06970E080047A007B0002751DE875F09A
:107BF8000AA4FAABF0900343E02AFAA3E03BFB8A1D
:107C0800828B832274F412187AEA2407F508E43B7D
:107C1800F5097808121A8DEC75F0E8A4CCA8F0756F
:107C2800F003A428F875F0E8EDA428FD8C088D0968
:107C3800E4F50AF50B7808121A89EAFCEBFD7A825A
:107C48007B0A121352740612182002781F74F71256
:107C5800187AEA2407FEE43BFF8E828F83E0F9124C
:107C680013588E828F830279B174F712187AEAFE5C
:107C7800EBFFEE4F60168E828F83A31276D9600CCD
:107C88007917120A88EEFAEFFB120A6A0279B474BD
:107C9800F212187AEAFEEBFF890A8E828F83E0647B
:107CA80004704FEE2404F8E43FF988088909E4F5E4
:107CB8000CF50D780C121A8D750B00780B121A91B1
:107CC8007D13AC0A8508828983127D0B8E828F838F
:107CD800A3A3A3A3A3A3E0F9120A5E7403121820B6
:107CE8007912850882850983127CFE7A057B001249
:107CF8000A9A0277CFA3E0FCA3E0FD22A3A3A3A3E3
:107D0800A3A3A3E0FAA3E0FB22C082C0837C077D83
:107D180000120A9402751D74F512187A8A088B09E4
:107D2800750A00EC4D707C8051E50A75F00AA4F8DC
:107D3800A9F0900343E028FEA3E039FF8E828F83E9
:107D4800E06035A3A3A3A3A3A3A3E0F4602A8E82D3
:107D58008F83A3A3A3A3E065087004A3E06509705B
:107D680017EEFAEFFB120A7C7914EEFAEFFB120A0F
:107D780088EEFAEFFB120A6A050A900345E0F8E577
:107D88000AC39840A47E047F0079FFAC08AD09EED1
:107D9800FAEFFB120A9A0EEE70010FC39408EF94E3
:107DA8000040E60274E474F712187A8908EA75F05C
:107DB80009A4FAA8F075F009EBA428FB74FB2AF8CB
:107DC80074023BF988828983A3A3A3A3A3A3A3E096
:107DD8006C7003A3E06D7034E82403500109FEE9D8
:107DE800FF8E828F831279F988828983E5824583A1
:107DF800601A74FF65086005E06508700FAA82AB19
:107E0800831213348E828F83E4F0A3F00279B47462
:107E1800F612187AEA2404FA50010B1208C6EA4B43
:107E280060097CFC7DFF12133A80047A007B000213
:107E380079DB74F712187AE9900739F01210AC7AE6
:107E4800067B00900739E0F91209C27A507B0F12BD
:107E58000AAC7F0102194C74F412187A8A088B094B
:107E6800EB5480603C900739E0F91212EC8A0A8BD7
:107E78000BAE0AAF0BEE4F601F121004E9701290A0
:107E88001581E0F4600BEEFAEFFBE0F91212E080E6
:107E980007EEFAEFFB1212DAAA08E5096480FB8004
:107EA80022EAA2E05009120F56E5086401800B543B
:107EB80002600C120F6EE5086402FAAB0980047ABE
:107EC800007B007F0402194C74F212187AEAFEEB68
:107ED800FF7509018E828F83E0246E600A24F27098
:107EE80003027FC1027FDAA3E024F2600724D06096
:107EF8003F027FDA8E828F83A3A3A3E06418700405
:107F0800A3E0642070238E828F83A3A3A3A3A3E09E
:107F1800F8A3E0F988828983A3AA82AB838882893F
:107F280083E0F9120ED2E980027400F509027FDDC0
:107F3800750801EE2403F50AE43FF50BEE2405F578
:107F48000CE43FF50D8E828F83A3A3E024FB60141D
:107F580024FD705D850C82850D83E0F9127FE412A3
:107F68000F688048127FE4120AD0E96404704590D3
:107F78000735E0F8A3E0F9E8496039E0F58388823D
:107F8800A3A3A3A3E0F8A3E0F9E8496027EE240D32
:107F9800F582E43FF583121AA4AC0CAD0D127FE410
:107FA800888289831218787402121820E9F50880EB
:107FB80003750800850809801C120F5C8E828F8368
:107FC800A3A3A3A3A3A3127FEAEA4B600812133466
:107FD8008003750900A9097F0602194C850A828564
:0B7FE8000B83E0FAA3E0FB2202013251
:087FF800851A87C2AF020132B5
:10800000BE046A07CA047007D6047607E2047C0738
:10801000EE048207000582070C058807E2048E073C
:10802000FA049407000000001E0594072A059A0729
:108030000000000000000000000000000000000040
:108040000000000000000000000000000000000030
:108050000101020102010102010203030401030103
:10806000010101010303020103000BC6119A104C28
:1080700013F209CE06FE0FDC0754144211240878CF
:1080800014436F6E6E656374656420416476657237
:10809000746973696E67004669726D7761726520F5
:1080A0005265766973696F6E005465786173204913
:1080B0006E737472756D656E7473004D616E756666
:1080C00061637475726572204E616D6500536F66F1
:1080D0007477617265205265766973696F6E0048C6
:1080E00061726477617265205265766973696F6E3B
:1080F0000030313233343536373839414243444524
:108100004600F401FA00960064004B0032001E00A5
:10811000140000000000000000000000000000004B
:108120000087FB349B5F800000800010000000008F
:108130000000424C45205065726970686572616C40
:1081400000FE006578706572696D656E74616C53D0
:10815000657269616C204E756D6265720044697369
:10816000636F6E6E6563746564004D6F64656C204B
:108170004E756D62657200416476657274697369EB
:108180006E6700496E697469616C697A6564004361
:108190006F6E6E65637465640054696D6564204F2D
:1081A00075740000000000000000000000000000E6
:1081B00000000000000000000000000000000000BF
:1081C000004368617220333A004368617220313A9B
:1081D0000002D88200000000001B7869E0AB50C3A9
:1081E000F0D200009C0800004572726F7200A21469
:1081F000A8140000000000000000BE1000000000F5
:1082000004070A0700000102030405881300006048
:10821000EA0000010000000A000000E80300005529
:10822000555500FFFFFF00F8FFFFFF03000000317E
:10823000B1E1FF71020000F4FFFFFF0D000000013B
:10824000C8000050000000F6FFFFFF070000001A02
:108250000000000500000043000000FFFFFFFF00DA
:10826000001000D6BE898E00E1F505102700000041
:108270000800000400000002000000E7FFFFFF7D8F
:108280000000000000FF000100FF00640000001972
:10829000000000F1FFFFFF419C000040420F000280
:1082A000BA8202BE8202BC82012A002A0229300060
:1082B000012903280128022A0028011800180A1899
:1082C000032A502A2A2A292A042A052A282AF5FFBD
:1082D000272A262A252A242AF0FFF1FFF2FFF3FF9E
:1082E000F4FF232A0C00C082C0839002E2E075F004
:1082F00005A4FAABF01213769002DEEAF0A3EBF0DD
:108300009002DE12879870047913805A7A008015E3
:1083100074FFF0A3128369F088828983A3A3128378
:1083200069A3E4F00A9002E2E0F8EAC3985020EA78
:1083300075F005A4F8A9F09002DEE028F8A3E03972
:10834000F9EA8882898370C874FEF0A30480C57A34
:10835000647B071207CA7AB87B071204527AC47B7F
:1083600007120AAC790002935BF088828983A3A389
:10837000A32274F212187AEAFEEBFF8E828F831228
:1083800087986055EE24031292B91284CB750B00C6
:10839000780A121A8D8A828B83A3121AA47C027D1A
:1083A000007AB87B8212053C7404121820E9702E02
:1083B0008508828509831284CB780A121A8D8A82F5
:1083C0008B83A3121AA47C027D007AB47B821205EF
:1083D0003C7404121820E9700579020284BB8E8275
:1083E0008F83A3A3E024F9C3940A4005791802847B
:1083F000BB9015E8128798600CC3E498FAE499FBE7
:108400001284BE500579010284BB7A077B001213E7
:10841000768A0A8B0BEA450B700579130284BB7AC6
:10842000007B00803D9015E8128FF08A0C8B0D7454
:1084300003780C1217F7850882850983E0250CF86C
:10844000A3E0350D8882F583A3A3A3A3ECF0A3EDED
:10845000F09015E8E02401F0A3E03400F00AEA709F
:10846000010B1284BE40BE850A82850B83E4F0A313
:10847000F0750805F5097808121A8DEEFCEFFDE598
:108480000A2402FAE4350BFB1212AA740212182015
:108490009002E01287989002E06017E0FAA3E08073
:1084A00003E8FAE9FB8A828B8312879870F38A8249
:1084B0008B83E50AF0A3E50BF079000286898E82B2
:1084C0008F8312900EC3EA98EB9922128B218A8235
:1084D0008B83E0F50A22C082C083E99015E7F002A1
:1084E000935B74F612187A8A088B09E9FFECFAEDAF
:1084F000FB74145F600712074C74018009EFA2E659
:10850000500E12074CE4FCAA08AB09120AE8800AD4
:10851000A2E04004790280027900028B4A74F612CC
:10852000187A8A088B09E9FFECFAEDFBEFA2E55017
:108530000F12074C7401FCAA08AB09120AE8804923
:1085400074885F603974085FFE12074CEEFCAA085D
:10855000AB09120AE8E9F9602E740A121856128B58
:108560001D8A828B83A3A3A3A3A3A3E0601B8A829B
:108570008B83A3A3A3A3A3E06401600B800BEFA2F2
:10858000E14004790380027900028B4A74F21218E8
:108590007A74FB12180A8A088B09890AE4F50CF52B
:1085A0000D780C121A8D750C02780C121A8D750C40
:1085B000CA750D82780C121A8D7CFF7DFF7A017BC3
:1085C0000012073474061218208A0C8B0DAE0CAF03
:1085D0000DEE4F7003028680E4F50CF50D780C1259
:1085E0001A8D7C047D00791DAA08AB0912080C7451
:1085F000021218207403121856EAF0A3EBF0740369
:1086000012185612879860748E828F831290068596
:108610001882851983E8F0A3E9F0740212185674E1
:1086200004F014121856128E0C7401F07403121810
:1086300056128E0CA3E4F07403121856128E0CA37B
:10864000A374FFF0740312185612868E74FFF0E5BF
:108650000AF50B780B121A9179007401121870AA9E
:1086600008AB091207527401121820E9FE60137456
:1086700003121856128B1D12133480067E158002C9
:108680007E01EEF974051218207F0602194C128E35
:1086900010A3A3A32274EA12187A8A128B138C10E7
:1086A0008D119002E0E0F508A3E0F50974161218A8
:1086B00056E0F514A3E0F5157418121856E0F50A03
:1086C000A3E0F50B800D850882850983E0F508A3FA
:1086D000E0F509E5084509700302878F7E007F00F9
:1086E000E5082405F50EE43509F50F80050EEE705A
:1086F000010F850882850983129008C3EE98EF99CF
:1087000050C48E0C8F0D7403780C1217F7850E82EF
:10871000850F83E0250CF50CA3E0350DF50D850CD8
:1087200082F583129006C3E89512E9951340BEC303
:10873000E51098E5119940B5E50A450B6023780AE4
:10874000121A8D7814121A8D850C82850D83E0FC27
:108750007D00A3128B1D12053C7404121820E960E1
:108760008C741A121856128798601E850E82850F17
:1087700083E0FAA3E0F5838A82A3A3A3A3128B1D4F
:1087800088828983EAF0A3EBF0AA0CAB0D80047A0F
:10879000007B007F0E02194C12900EE8492274EE05
:1087A00012187AECFEEDFF9002E0E0FCA3E0800AF4
:1087B0008C828D8312900AE8FCE9FDEC4D70030277
:1087C000885C8C828D83A312900688088909888230
:1087D000F583A3A3A3A3E0F50CA3E0F50DC3EA95ED
:1087E0000CEB950D40CA8C828D83A3A3E0F50EA3FC
:1087F000E0F50FE50C250EF8E50D350FF9C3EA9805
:10880000EB9950AC750A00750B008008050AE50A63
:108810007002050BC3E50A950EE50B950F50918587
:108820000A10850B11740378101217F7E50825104C
:10883000F8E5093511F988828983A3A3A3A3E06A27
:108840007003A3E06B70C5EE4F600B8E828F83E5E3
:108850000CF0A3E50DF0E8FAE9FB80047A007B0058
:108860007F0A02194C74F012187A74FE12180AEA80
:10887000FEEBFF750800750900851882851983E4F1
:10888000F0A3F0EE2404F50CE43FF50D850C82F521
:108890008312949AA385820A85830B74FF6A7003FE
:1088A00074FF6B6038A818A919880889097808121C
:1088B0001A8D8E828F83E0F5087509007808121AE8
:1088C0008D850A82850B83121AA4EA24010A5001BD
:1088D0000B12073474061218208A088B098E828FB7
:1088E00083E0F50E750F00780E121A8D850A8285C9
:1088F0000B83121AA47C027D007AB87B8212053C9D
:108900007404121820E970288E828F83E0F50E78A7
:108910000E121A8D850A82850B83121AA47C027DA1
:10892000007AB47B8212053C7404121820E9600BB3
:10893000850C82850D83128B1D80458E828F83E08E
:10894000F50E780E121A8D850A82850B83121AA4F1
:108950007C027D007AB27B8212053C7404121820DE
:10896000E960367412121856128B1DE5084509602D
:108970000F851882851983E06A7003A3E06B600598
:1089800012075E801F850882850983A3A3A3A3E045
:1089900024FFFAA3E034FF800A850C82850D83E072
:1089A000FAA3E0FB741412185612900A8882898385
:1089B000E58245836005EAF0A3EBF0AA08AB090263
:1089C00092C574F612187A1207A08A828B83E58208
:1089D00045836005128B1D80047A007B00028B4A60
:1089E00074F612187A1207A08A828B83E582458377
:1089F0006006A3A3E0F980027910028B4A74F21298
:108A0000187A74FC12180AEAFEEBFF8C088D0989AB
:108A10000A74021218701207A6E9F50B707FE50AB6
:108A20006022128B0912073A851882851983128BEE
:108A30001D12074CE9F97C01EEFAEFFB120AE8E996
:108A4000F50B7059AC08AD09EEFAEFFB1204A6E97C
:108A5000F50B70497402121856128AA47412121877
:108A600056E0F50874FF65086033EE2402F50CE467
:108A70003FF50D780C121A8D750C1E750D00780CD3
:108A8000121A8DEEFCEFFD7ABE7B071207EE74041E
:108A90001218208E828F83A3A3A3E508F0A90B747C
:108AA00004028686E0FEA3E0FF2274F512187A74B1
:108AB000FC12180AEAFEEBFF8C088D09890A740281
:108AC0001218701207A6E9F97417696032E50A6096
:108AD00021128B0912073A851882851983128B1D82
:108AE00012074CE9F97C01EEFAEFFB120AE8E9F90A
:108AF000700DAC08AD09EEFAEFFB1204A0E9F974B1
:108B0000041218207F0302194C851882851983E40A
:108B1000F0A3F0AC18AD19850882850983128B216A
:108B200022E0FAA3E0FB2274F612187AEAFEEBFFC9
:108B3000120746EA4B600FEE24FFF8EF34FFF9EA24
:108B400028FAEB398003EEFAEFFB7F0202194C742E
:108B5000EC12187A74E612180A8A088B098C0C8DAC
:108B60000D7E007F00EC2402F50AE4350DF50B853F
:108B70000A82F583E0F8741E68705C1207AC8A0CF8
:108B80008B0DAE0CAF0DEE4F7003028C2A8E828FD0
:108B900083A3A3E0F874FE687003028C2A74FF6854
:108BA0007003028C2AE4F50CF50D780C121A8D85F1
:108BB0000A82850B83E0FD7C00AA08AB098E828FB8
:108BC00083A3A3A3E0F91207E87402121820EEFAB7
:108BD000EFFB1207B280538C828D83A385821085B0
:108BE00083117412687005E0640160431207AC8A57
:108BF0000E8B0FAE0EAF0FEE4F6034EE2404F50E69
:108C0000E43FF50F850E82F583E0FC6022A2E74089
:108C100019850A82850B83E0F9AA08AB09120800BE
:108C2000850E82850F83E0D2E7F07900028E0290F4
:108C300015E7E0F46068850A82850B83E0FA74FE2C
:108C40002AC394175058EAC313F50E750F00740227
:108C5000780E1217F77400250EF87480350FF9E8B6
:108C600024FCF50EE934FFF50F850E82F583128F93
:108C7000F0EC4D6029E824FEF582E934FFF583121B
:108C80008798601A850C82850D83E0FB700B851038
:108C900082851183E06401700A74126A60057906A6
:108CA000028E027404121860881289137812121A44
:108CB0008D850C82850D83A3A3A3121AA4850C8233
:108CC000850D83A3A3A3A3A3128FF0851082851122
:108CD00083E0FAEBF9850E82850F83128E0C121851
:108CE000787404121820E9F50C6003028E007404F5
:108CF000121870AA08AB09850A82850B83E0C3139A
:108D0000F50C750D007402780C1217F774FE250C23
:108D1000F582747F350DF583128E0C121878E9F503
:108D20000C6003028DA8850A82850B83E0FD740424
:108D30006D7003028E007404121860880C890D781F
:108D40000C121A8D7C00AA08AB099015E7E0F91205
:108D500007E87402121820E9F50C6003028E008502
:108D60000A82850B83E0F974041218681208068BD6
:108D700009EA4509600A742E121856128E0CE4F0A6
:108D8000850A82850B83E0F8741268700B85108267
:108D9000851183E064016068EE4F6064E88E828F25
:108DA00083A3A3A3A3F08058851082851183E0706C
:108DB0004F850A82850B83E0851882851983F074BC
:108DC00003121856E9F0850A82850B83E0F87404D3
:108DD00068600D7406686008740868600374106841
:108DE000740412185612900A7401121856E8F0A36F
:108DF000E9F0AC18AD19AA08AB09120458750C00BB
:108E0000A90C741A1218207F0C02194C128E102211
:108E1000E0F8A3E0F583888222790002013274EA47
:108E200012187A74FA12180A8A108B118C828D83A8
:108E3000128B1DEC2402F512E43DF513851282F528
:108E400083C3E09AA3E09B4004EA4B7005790102DA
:108E50008FE8851882851983E4F07402121856E4AD
:108E6000F0A3F08007E82401FAE439FBE4F508F503
:108E7000097808121A8D7808121A8D7808121A8D3E
:108E8000851282851383128FF0120734740612182C
:108E9000208A088B09EA45097003028F898A828B30
:108EA00083A385820E85830FEA2404F50AE435093D
:108EB000F50B851882851983E06003028F96740490
:108EC000121860880C890D780C121A8D7CFF7DFFBA
:108ED0007905AA10AB1112080C74021218208A0C22
:108EE0008B0DAE0CAF0DEE4F70057911028FE8744B
:108EF00002121856EEF0A3EFF0850882850983E090
:108F00006402702374011218567401F0740412186C
:108F100056E0F514A3E0F515740278141217E885ED
:108F2000140C85150D807974011218567402F074B2
:108F30000412185612900A7A127B0012177F880CBE
:108F4000890D1290147508107509007808121A8D91
:108F5000128FF61212AA7402121820EE2410FE507C
:108F6000010F851882851983E004F0C3950CE49500
:108F70000D5016850A82850B8312900A74FF687063
:108F80000374FF696003028E65851882851983E08A
:108F9000703B790A80527401121856E0640170A285
:108FA000850882850983E0640270DE1290147508DA
:108FB000027509007808121A8D128FF61212AA741F
:108FC00002121820EE2402FE50980F8095AC18ADC6
:108FD00019AA10AB11120464E9600B74021218563E
:108FE000128B1D1213347900740612182002879315
:108FF000E0FCA3E0FD22850E82850F83E0FCA3E068
:10900000FDEEFAEFFB22A3A3A3A312900E22E0F839
:10901000A3E0F922850A82850B83E08E828F83F09C
:10902000A3AE82AF83850A82850B83A3E08E828FF5
:1090300083F0A30EAF832274F612187A1290DF40E9
:1090400004EA4B700479018039E4F508F5097808E1
:10905000121A8D8C828D83A3A3A3A3E0F508780850
:10906000121A8D1290D3121A8DEEFCEFFD120734F6
:1090700074061218208B09EA45097004790A8002E7
:109080007900028B4A74F612187A1290DF4004EAD3
:109090004B700479018039E4F508F5097808121A53
:1090A0008D8C828D83A3A3A3A3E0F5087808121A00
:1090B0008D1290D3121A8DEEFCEFFD120734740658
:1090C0001218208B09EA45097004790A8002790098
:1090D000028B4AEC2405F508E43DF5097808228C5A
:1090E000828D83A3A3128AA48C828D83128B21C3C9
:1090F000EE9AEF9B2274F612187A74FE12180AEA9E
:10910000FEEBFF8C828D83AC18AD19128B1D1207FC
:109110003A8A088B09A808A909E8497004790180EE
:109120000A1291FAEEFAEFFB1207227402121820CB
:10913000028B4A74F012187A74FE12180A8A0A8B8B
:109140000B8C088D09750C008002050C8508828542
:109150000983A3A3E0F8E50CC3985075AE0CEE2E7E
:10916000FEE433FF850882850983E02EF8A3E03F03
:10917000F988828983AC18AD19E0FAA3E0F8E4C855
:10918000F9EA28E439FB12073A8A0E8B0FA80EA9D8
:109190000FE84970181291E8E088828983F01291F3
:1091A000E8A3E088828983A3F0790180261291FAEE
:1091B000AA0AAB0B120722E9F9608F1291D6E08A56
:1091C000828B83F01291D6A3E08A828B83A3F080F6
:1091D0000279000292C5850882850983128B21EAF3
:1091E0002EF582EB3FF58322850882850983129054
:1091F0000EE82EF582E93FF58322851882851983D2
:10920000E0FCA3E0FD88828983A3A3A3E0F9227494
:10921000F012187AECFEEDFF8E828F8312900A1204
:1092200092B6C3E098A3E0994004E849700579013B
:109230000292B4EE2405F50EE43FF50FEE2404F59A
:109240000AE43FF50B850A82F583E0F50C750D0005
:10925000780C121A8D780E121A8D7C027D007AB865
:109260007B8212053C7404121820E9700479108086
:1092700043E4F50C780C121A8D850A82850B83E085
:10928000F50A750B00780A121A8D780E121A8D8560
:109290000882850983128FF08E828F83128B1D12B4
:1092A000073474061218208B09EA45097004790AFC
:1092B000800279008014EE2402F508E43FF5098568
:1092C0000882F5832274021218207F0802194C7458
:1092D000F412187A74FE12180AEAFEEBFF8C088D5D
:1092E00009128B1312073AEA4B7004790180227835
:1092F00008121A8D7402121856128FF08A828B830C
:10930000A3A3A3E0F9EEFAEFFB12072874021218E8
:109310002074021218207F0402194C028E19C08298
:10932000C0839002E0800488828983128798602736
:1093300088828983A3A3A3A3A3E0FCA3E0F5838C85
:1093400082A3A3A3A3E06A7003A3E06B70D9E8240F
:1093500002FAE439FB80047A007B00D083D08202D9
:10936000013274F612187AECFEEDFF1207AC8A088F
:109370008B09A808A909E849602BEE4F60098E8285
:109380008F83E8F0A3E9F088828983A3A3E0F874CF
:10939000FE6870047917800F74FF6870047900808C
:1093A00006791680027902028B4AC082C0837C0053
:1093B00080010C9002E2E0F8ECC3985025EC75F0C7
:1093C00005A4F8A9F09002DEE028F8A3E039F988B6
:1093D000828983E06A7003A3E06B70D6E8FAE9FB48
:1093E00080047A007B0002935B74F712187AEAFE1D
:1093F000EBFFEE2402FAE43FFB1207F48E828F8328
:10940000A3A3A374FFF07F0102194C74F612187A1B
:10941000E9FE1207AC8A088B09A808A909E8496087
:109420001BE82404F582E439F583EEF8E07B0024A0
:109430000150010B684B7004E05480F0028B4A74B9
:10944000F412187AEA4B604FEA2402F508E43BF57F
:1094500009850882F583E0F874FF68603A74FE6855
:109460006035EA2403FEE43BFFE4F50AF50B780AD5
:10947000121A8D7D1E7C178A828B8312949AE0F9D2
:109480001207E8740212182085088285098374FE89
:10949000F08E828F8304F0029316128B218E828FBE
:1094A000832274F012187A8A0A8B0B890C74FE6579
:1094B0000A700474FF650B7003029577E9702B1234
:1094C00007AC8B09EA4509701E7AFF7BFF1207ACD7
:1094D0008A088B09AE08AF09EE4F600B8E828F832E
:1094E000E50AF0A3E50BF00295777401650C701A9C
:1094F0001207AC8A088B09AE08AF09EE4F60788E70
:10950000828F8374FFF0A3F080217402650C706772
:109510007901120ACAE9705FAA0AAB0B1207AC8A7A
:10952000088B09AE08AF09EE4F604C1292B6E0F816
:1095300074FF68603874FE686023E4F50EF50F78F8
:109540000E121A8D7D1E7C14AA0AAB0B8E828F839D
:10955000A3A3A3E0F91207E87402121820EEFAEFB1
:10956000FB1207B285088285098374FFF08E828F13
:1095700083A3A3A3A3E4F00292CA74F412187A900E
:109580007803E064427056900520E014F0704EC2FB
:10959000AF12959400782AD0E0F618D0E0F6E59F57
:1095A0005407F870057509FF800375097FC4C0E092
:1095B0007829E6F50808E65509F509740B780812CC
:1095C00017E8D0E02508F8906270E0A2E740F8E8DC
:1095D000C333906272F0906270E0D2E0F09003A426
:1095E000E0F47003029875129FAAEE2402F582EF50
:1095F00034011298D1601CEE2402F582EF3401F59B
:1096000083129F18EE2401F582EF3401F583E0F90F
:109610001213048E828F83A3A3A3A3A3A3A31298E0
:10962000B5129EE1906054E090037DF0906055E0AB
:1096300090037EF0906056E090037FF0906057E0DA
:10964000900380F0906058E0900381F0906059E0C2
:10965000900382F090605AE0900383F090605BE0AA
:10966000900384F090605CE0FA900385F090605D78
:10967000E0FC900386F090605EE0FD900387F09040
:10968000605FE0FB900388F0900383E02AF508E434
:109690003400F509E5082DF508E43509F509E50874
:1096A0002CFCE43509FDEC2BFCE43DFDEE24F71227
:1096B000A3892CF0A3E03DF0EE24F912A3892AF04F
:1096C000A3E03400F0EE24FB1298C2603B1298A78E
:1096D000F582E912987A3DF0906000E0FA900385F7
:1096E000E0FCEA2AFAE433FBE82AFAE93BFBEA2445
:1096F0004AF582E412987A3400F01298A7F8E93B10
:10970000F9E82494129894F0900383E0700E90038B
:1097100086E07008A3E07004A3E060568E828F8319
:10972000A3A3A3A3A3129FF5129883700312A767A4
:1097300090037EE0601FEE241C12A6D412A70BE05B
:109740007013EE247312A389700BEE247F12A38989
:10975000700312A767EE248212A38970030297F0A8
:109760006402707A900386E07074EE248212A37211
:10977000807D129EBCF0900385E0600A1298837091
:1097800024129F75801EEE24FD1298C2601790600F
:1097900000E0F825E0F8E433F9EE24FF129EF72408
:1097A000DE129894F0129EAE1298B5E0687003A392
:1097B000E069600302973012A38660128E828F8365
:1097C000A3A3A3A3A3E064057002A3E06004790847
:1097D0008002793EEEFAEFFB120C8C029875900332
:1097E00086E0700CEE2482F582E43FF5837402F08B
:1097F000906062E060248E828F8312A775E8240651
:10980000FCE439FDE82402FAE439FB120DEE8E8205
:109810008F83129F67E4F0A38006129EBC129EE71E
:10982000F0906060E0C0E0EE2468F582E43FF583EC
:10983000D0E0F09061C8E06006121D5AE970F48E25
:10984000828F83A3A3A3E0602C9061C8E070069090
:1098500060607480F0EEFAEFFB120DACE964016019
:10986000147902EEFAEFFB121EEB120DA0E964016F
:109870006003120D2E7F0402194C3BF583E02CF09F
:10988000A3E022EE240FF582E43FF583E4129EEC80
:10989000E0640122F582E43912989C22F583E024E9
:1098A00001F0A3E0340022906000E0FA25E0FAE441
:1098B00033FBE82A2212A7798E828F83A3A3A3A366
:1098C000A322F582E43F12989CF0EE24FFF582E497
:1098D0003FF58312A779E8492253BFEF02013274A2
:1098E000F012187A9003A4129FAA9061D0E0700839
:1098F000EE24631298CD6005129EBC8023EE24698D
:1099000012A389701CEE247312A3897014EE247FB5
:1099100012A389700CEE241C12A3AD7004129F7563
:10992000F08E828F83A3A3A3A3A3129F10241D12E2
:109930009EF7240108500109EE2407F508E43FF5DD
:1099400009850882129EDF129EAEC3E098A3E099BB
:1099500050208E828F83A3A3A3A3A3A3A3C082C0FE
:1099600083129EAE12A775D083D08212A793501B8C
:109970008021129EAEC082C0838E828F83A3A312E9
:10998000A770D083D08212A77F50089004BCE064F7
:10999000017003129FD0EE247312A3AD7053129E78
:1099A00098121AA4129F8B121D137402121820E928
:1099B000603F8E828F83A3A3A3A3A3A3A3C082C06F
:1099C00083129F49D083D082E0687003A3E069705E
:1099D00003029A7FEE247412A389687003A3E069DE
:1099E0007003029A7FEE2474F50AE43F850A8280B0
:1099F00059EE247F12A3AD6003029A7FEE2480F516
:109A000082E43FF583121AA4129F8B121D13740275
:109A1000121820E960698E828F83A3A3A3A3A3A356
:109A2000A3C082C083129F49D083D082E0687003B4
:109A3000A3E069604AEE248012A389687003A3E062
:109A400069603CEE2480F582E43FF583E024FFFA70
:109A5000A3E034FFFB850882850983EAF0A3EBF0DD
:109A60008E828F83A3A3A3A3A3E0FCA3E0FD121D1A
:109A700052EA24FFF8EB34FFF9EE241D129EDBEED0
:109A8000248212A3896003129FD0EE247312A3AD27
:109A90006003029BE6129E98C082C083129F49D049
:109AA00083D082E0687003A3E0696003029BE6EE66
:109AB0002474F50AE43FF50B850A82F58312A77535
:109AC000850882850983129EE1EE2476FCE43FFD41
:109AD000EEFAEFFB120C98EE247B129F0A2420F57D
:109AE00082E43FF583E8F0A3E9129EE712A3C324C2
:109AF0000F12A395850882850983129FF58E828FA8
:109B000083A3A3A3A3A3E0FCA3E0FD850A82850BA6
:109B100083129F18121D528A088B09129E8E129F63
:109B200018E4F50AF50B8A0C8B0DF50EF50F780885
:109B3000790C121520EE2477129ED17808790C1238
:109B40001647EE247912A3896A7003A3E06B70189C
:109B5000129F3AE0687003A3E069700C129F1EE048
:109B6000687003A3E0696043EE247DF582E43FF56D
:109B70008312A3D81217E8780C121A8DEE247BF505
:109B800082E43FF583121AA4EE247912A389FCA380
:109B9000E0C313FDEC13FC8E828F83A3A3A3A3E089
:109BA000FA7B001209927404121820EE247612A394
:109BB00089C0E0EE242BF582E43FF583D0E0F0EE9F
:109BC0002479129F0A242E129EDB129F1E129EE100
:109BD000129F3A129EE1EEFAEFFB120C9EEE2473F6
:109BE00012A372F08003129FBE129EA21214CC70B8
:109BF00014EE241F12A389F8EE241D12A3896870A5
:109C000002A3E06030EE2412F50CE43FF50D780C71
:109C1000121A8DEE2410F582E43FF583121AA41275
:109C20009EC3121AA4AA08AB09AC0AAD0B12287A7B
:109C30007406121820129EA21216DDEE241D12A325
:109C400089C0E0EE241FF582E43FF583D0E0F0EE1A
:109C50002412FCE43FFD129EFC1227B6906062E0E5
:109C6000600A7CD47D81129EFC1227B68E828F837F
:109C700012A77588828983A3A3E82408FCE439FD30
:109C8000740612171D8E828F83E02402F8A3E0343D
:109C900000F9E8FAE9FBEE241D129ED1E4F50EF579
:109CA0000F908213780C12165A780C79081215202E
:109CB0008A828B83780C12166D908223780C121690
:109CC000CE8A828B83780C1216BB9004B6E06401B6
:109CD0006003029E0D7901120E3C129F147508FF5D
:109CE0007509FF750AFF750BFFEA240EF582E43B48
:109CF000F58378081216DDEA2412F8E43BF9E8FA55
:109D0000E9FBEE2412F582E43FF58378081216CEC3
:109D1000E50875F0E2A4C508A8F075F004A428F8D9
:109D200075F0E2E509A428F5098A828B83E025080D
:109D3000F0A3E03509F0EE241612A389F508A3E09C
:109D4000F509740478081217E8E5082401F8E435E9
:109D500009F98A828B83E028F0A3E039F0906062F1
:109D6000E08E828F837003029E66129F60F0A3E0F4
:109D70003401F012A386602CEE242B12A389F8750F
:109D8000F071A4C8AAF075F002A42AF98E828F831C
:109D9000E0FAA3E0CA2412F582E43AF583E028F061
:109DA000A3E039F0129F148A828B83A3A3C082C0E0
:109DB00083129FBED083D082780812165A908227D1
:109DC000780812165A90822378081216A8EA2416E8
:109DD000F582E43BF58378081216DDEA2414F58257
:109DE000E43BF5837410F08E828F83E0F8A3E0C823
:109DF000241AF582E438F5837414F0A3740CF0EEA1
:109E0000FAEFFB121C6E79007F0802194C90824316
:109E100078081215015003029CDAEE241D1298CD29
:109E20006003029CDA7808121A89EEFAEFFB120C32
:109E3000A47404121820E964016003029CDA12A3DE
:109E40008660128E828F83A3A3A3A3A3E064057010
:109E500002A3E0600479088002793EEEFAEFFB127B
:109E60000C8C790180A2129F60F8A3E034FFF97A8C
:109E7000717B0212177F88088909129E8E12A775BE
:109E8000C3E50898E509995003029D7380C7EE2445
:109E90002EF582E43FF58322EE2474F582E43FF54B
:109EA0008322EE2418F582E43FF583780822129E7F
:109EB000B222EE240BF582E43FF58322129EC3E426
:109EC000F0A322129EC722EE241DF582E43FF58303
:109ED0002212A38DF50CA3E0F50D22F582E43FF5E7
:109EE00083E8F0A3E9F022129EECE422F0EE241CB9
:109EF000F582E43FF5832212A006E8228E828F834A
:109F0000E02402FAA3E03400FB22F582E43FF5836B
:109F1000129F33228E828F83E0FAA3E0FB22EE248D
:109F20007B129F2D2430F582E43FF58322F582E4F5
:109F30003FF583E0F8A3E0F9EE22EE247D129F2D99
:109F40002432F582E43FF58322129F4D228E828FC8
:109F500083A3A3A3A3A3E02401F8A3E03400F92280
:109F6000129F67E0241022E0F8A3E0C82412F582D3
:109F7000E438F58322129F7922EE242012A38DF873
:109F8000A3E0F9129EC7E8F0A3E9228E828F83A393
:109F9000A3A3A3A3A3A3E0FCA3E0FD8E828F83A3CE
:109FA000A3A3A3A3E0FAA3E0FB22E0F875F00BA4BF
:109FB000C8AAF02AF974A628FE740339FF22EE24F9
:109FC0002E12A38DF508A3E0F509E4F50AF50B229E
:109FD000129FE7129F4D8E828F83A3A3A3A3A3A3F7
:109FE000A3E8F0A3E9F022EE241DF582E43FF58317
:109FF000E4F0A3F022129F33240D12A006129EB2A9
:10A00000E8F0A3E9F02212A38D28F8A3E039F922A1
:10A0100074EC12187AEAFEEBFF8C828D83E0F8A3D1
:10A02000858208858309603B14700302A17814704F
:10A030000302A33D14700302A1BF24FD700302A21A
:10A040007F14700302A36B14700302A2A624FE7097
:10A050000302A28414700302A29D14700302A2EBF7
:10A0600002A35BEE2476F510E43FF511E085108243
:10A0700085118312A3C9EE2477F50EE43FF50F791D
:10A0800002AC08AD09AA0EFB120CB08A088B09EECF
:10A090002479F50CE43FF50D7902AC08AD09AA0C62
:10A0A000FB120CB08A088B097902AC08AD09EE24CA
:10A0B0007BFAE43FFB120CB08A088B09EE247D1278
:10A0C000A39A120CB08A088B09851082851183E04F
:10A0D000C333F0850E82850F8312A3ED850E828532
:10A0E0000F83129EE1850C82850D8312A3ED850CF2
:10A0F00082850D83129EE1850A82850B8312A3D887
:10A100001217F7850A82850B83E50CF0A3E50DF0A5
:10A11000EE247412A39A120CB0850A82850B83C0B8
:10A1200082C08312A76CD083D08212A3E45079EE50
:10A13000247D129FC1EE247B12A3892401F50CA378
:10A14000E03400F50DE4F50EF50FEE2479F582E428
:10A150003FF58312A3ED88108911E4F512F5137809
:10A160000C79101215207808790C1214E14004794A
:10A170003B8037EE2473803C7905AC08AD097AB199
:10A180007B04120CB08A088B09EE248012A39A1269
:10A190000CB0850A82850B83C082C08312A76CD065
:10A1A00083D08212A3E440097928EEFAEFFB02A3E0
:10A1B00056EE247F12A6D412A3C3248202A2A0EEDC
:10A1C00024E212A389700D12A37A12A3F77003EB95
:10A1D000640370F6EE24E312A389A2E0EE4010249B
:10A1E000DEF582E43FF583741AF0790D02A337128D
:10A1F000A3B324E112A3957908AC08AD09EE249C21
:10A20000FAE43FFB120CB08A088B097902AC08AD66
:10A2100009EE24A4FAE43FFB120CB08A088B09EE85
:10A220002494F50AE43FF50B7908AC08AD09AA0AB5
:10A23000FB120CB08A088B097908AA0AAB0B120C26
:10A24000B6EE2488F50AE43FF50B7904AC08AD09B5
:10A25000AA0AFB120CB07904AA0AAB0B120CB6EED8
:10A26000248CFAE43FFB120CC8EE2484FAE43FFB92
:10A27000120CCE900378E04480F0790402A337EE0C
:10A2800024DF801CEE12A3B324D312A70124DD1215
:10A29000A6F924D412A372F0790B02A368EE24E08D
:10A2A00012A39502A36B12A37A12A3F77003EB64B7
:10A2B0000370F612A37A8A828B83E0FC850882857C
:10A2C0000983E05C8882898312A3C98A828B83A375
:10A2D000AA82AB8388828983A3A882A983EA649235
:10A2E0007003EB640370CF7909804CEE24EB12A36A
:10A2F000AD6068850882850983E0C0E012A75DD063
:10A30000E012A3C97902AC08AD09EE24EFFAE43FEC
:10A31000FB120CB08A088B097902AC08AD09EE2457
:10A32000F1FAE43FFB120CB0EE24EB12A6F924ED97
:10A3300012A3897036790CEEFAEFFB802BEE24F530
:10A34000F8E43FF9E088828983F0EE24F412A395C3
:10A3500088828983E0F9120C8C8010EE24F6F58255
:10A36000E43FF583E8F07907120C507F0C02194C9A
:10A3700024DFF582E43FF583E422EE24E3F8E43FB2
:10A38000F97A8A7B0322EE240F12A38D22F582E450
:10A390003FF583E02212A6D4F022F50AE43FF50B44
:10A3A0007902AC08AD09AA0AFB22EE246912A38D3A
:10A3B0006401222462F582E43FF583E412A727E4D6
:10A3C000F0EE22F0129FE7EE22F0850882850983E5
:10A3D000A385820885830922E0F50CA3E0F50D74BE
:10A3E00004780C2212A78894FFE9947F2212A7799F
:10A3F000E828F8E933F9228A828B83E0888289830E
:10A40000F08A828B83A3AA82AB8388828983A3A8E4
:10A4100082A983EA64922274F612187AEAFEEBFFAC
:10A4200002A583EEFAEFFB120C4402A6B712A3AA10
:10A43000703C900380E0700302A612EEFAEFFB126C
:10A440000C56EE24A4F508E43FF5097808121A8D9D
:10A45000EE249CFCE43FFD8E828F83A3A3A3A3E0A4
:10A46000FA7B0012097A740212182002A583EEFA10
:10A47000EFFB120C1A02A6B712A3AA702E9003804B
:10A48000E06011EE248312A6F924D512A6F1EE2481
:10A49000D912A6F1EE24DF12A3AD600302A6127951
:10A4A00006EEFAEFFB120C5C02A583EE24D312A396
:10A4B000AD701BEEFAEFFB120C20E96401600302A1
:10A4C000A6CDEE12A37012A70B740102A6BBEE2458
:10A4D000D412A389700302A6CDEE24B3F508E43F9D
:10A4E000F5097808121A8DEE248CFCE43FFDEE2469
:10A4F000C3FAE43FFB120CD47402121820EE24D3EA
:10A5000012A6D4805A12A3AA7058900380E0700358
:10A5100002A61212A767EEFAEFFB120C5612A71A48
:10A52000EE24DD12A3AD701379008E828F83A3A376
:10A53000A3A3E0FA7B0012098680137C0179008EC8
:10A54000828F83A3A3A3A3E0FA7B00120980EE24E9
:10A55000DD12A70124E112A70112A6FF12A370F0D9
:10A560008021EEFAEFFB120C2602A6B712A3AA7006
:10A5700066EE24E012A3AD600302A612EEFAEFFB32
:10A58000120C56EE246E12A389700302A6CDEE249F
:10A590006A12A38924FE602C24FE700302A42D14E9
:10A5A000700302A47814700302A50514700302A6B8
:10A5B000BE24FE607424FE60B314700302A6491426
:10A5C000603280BF12A3AA600302A42390037FE03D
:10A5D0006040791602A6A0EEFAEFFB120C2CE9649B
:10A5E00001600302A6CDEE12A6FF248312A7012468
:10A5F0006902A50012A3AA7026900380E0600AEE0B
:10A60000248312A372F012A71A90037FE060030262
:10A61000A57C12A7321298D3600302A6CD807FEEEC
:10A62000FAEFFB120C3202A6B712A3AA7012900323
:10A6300080E060DEEE24E212A39512A76702A57CFB
:10A64000EEFAEFFB120C38806E12A3AA705DEE24B6
:10A65000EB12A3AD7027EE24EC12A3AD600302A5AC
:10A660007C12A6DD121AA412A6E7121AA412A74B96
:10A670007900120974740412182002A57C12A73202
:10A680001298D3704812A6DD121AA412A6E7121A65
:10A69000A412A74B7922120974740412182079228B
:10A6A000EEFAEFFB120C8C79018024EE24ED12A659
:10A6B000F9FAEFFB120C3E12A710E9F0800FEEFA48
:10A6C000EFFB120C4AE96401700302A57C79007F5C
:10A6D0000202194CF582E43FF583740122EE24F165
:10A6E000F582E43FF58322EE24EFF582E43FF58323
:10A6F00022129FEAA3F0A3F02212A6D4F0EE2224A5
:10A70000E0F582E43FF583E4F0EE22F012A7102298
:10A71000EE2469F582E43FF58322EE246212A6D48A
:10A7200012A7277401F022F0EE2467F582E43FF5CA
:10A730008322EE2471F8E43FF988828983E024FFC4
:10A74000F0A3E034FFF0888289832212A75DE0FC49
:10A750008E828F83A3A3A3A3E0FA7B0022EE24EED4
:10A76000F582E43FF58322129F79F0228E828F8357
:10A77000A3A3A3A3A312A77922E0F8A3E0F92212CE
:10A78000A78894ABE9941022E0C398F8A3E099F964
:10A79000C3E82212A78894AAE994102274F212182E
:10A7A0007A8909EAFEEBFF8C0A75081274FE6E7056
:10A7B0000374FF6F70189002A412B43B607212A869
:10A7C00035606D7AFE7BFFA909121878805A74FFF4
:10A7D0006E700374FF6F70359002A412B43B601367
:10A7E00012A835600E7AFF7BFFA909121878E9F5E7
:10A7F00008600CAA0AA909120626E9F5087031E5D5
:10A80000099002B0F0E50A9002B1F08023120ABE6E
:10A810008A828B83E58245836016E06509700EA904
:10A820000AEEFAEFFB1208D2E9F508800375080377
:10A83000A90802B027E0F583888212B11A888289BC
:10A8400083E58245832274EE12187AEAFEEBFFEE6E
:10A850002402F50EE43FF50FEE2404F50CE43FF579
:10A860000DEE2406F50AE43FF50BEE2408F508E4A6
:10A870003FF509850882F583121AA4850A82850BA3
:10A8800083121AA4850C82850D8312AF73850E8204
:10A89000850F8312B2411209A47404121820E970C2
:10A8A00005790202A956790112B23D120ACAE9706D
:10A8B00005791402A95612B23D120AD0E964047057
:10A8C00057901576E0F47003A3E0F4600579110267
:10A8D000A9568E828F8312B02C12B110850E8285FC
:10A8E0000F8312B1169002A812B110850C82850D4B
:10A8F0008312B1169002AA12B110850A82850B83C9
:10A9000012B1169002AC12B110850882850983122B
:10A91000B1169002AE12B110E4F510F511781012D4
:10A920001A8D7810121A8D850882850983121AA44F
:10A93000850A82850B83121AA4850C82850D8312E9
:10A940001AA4850E82850F8312AF7312B23D1209CD
:10A95000BC740A12182002B59D74F212187A890884
:10A960008C0A8D0B900283E064026005E064017044
:10A97000047912805DEC450B700479028054120A50
:10A98000BE8A0C8B0DAE0CAF0DEE4F7004791480A7
:10A9900041E508600B8E828F83A3A3A3E0D2E1F090
:10A9A000750C10750D00780C121A8DAC0AAD0BEEFB
:10A9B0002410FAE43FFB1212AA740212182012B8F3
:10A9C000A11216F8EE2420F582E43FF58312170455
:10A9D000790002B02774F012187AEAFEEBFF8C0AB5
:10A9E0008D0BEE4F7005790202AAE412B23D120AF5
:10A9F000BE8A088B09EA45097005791402AAE49019
:10AA00000283E06402601FE06401601AEA240BF52F
:10AA10000CE43509F50D850C82F583E06408700BB4
:10AA2000E50A450B6005791202AAE49002A212B46D
:10AA30003B6005791102AAE47A1F7B00121376901D
:10AA400002A212B1F59002A212B43B700579130272
:10AA5000AAE47C1F7D0079001212C212B23D12AA34
:10AA6000E7A312B1F5750E16750F00780E121A8D48
:10AA7000EE2402FCE43FFD9002A2E02403FAA3E0EE
:10AA80003400FB1212AA740212182012AAE77402F0
:10AA9000F0850C82850D83E06408700479018002E2
:10AAA00079009002A2E02403F50CA3E03400F50D38
:10AAB000780C121A8D8E828F8312AF739002B8E0D9
:10AAC000FA120F3E7402121820E9FEE50A450B60E7
:10AAD0000BAC0AAD0BAA08AB09120F7AEE60031299
:10AAE0000632EEF902B1059002A2E0F8A3E0F58388
:10AAF00088822274F412187A74FF12180AEAFEEBA4
:10AB0000FF8908120ABE8B0BEA450B70047914808A
:10AB100014851882851983E508F0AC18AD19EEFA92
:10AB2000EFFB120F6274011218207F0402194C749B
:10AB3000F012187A74F012180A8A0C8B0D8C0E8D94
:10AB40000F7420121856E0FEA3E0FFEEFAEFFB129E
:10AB50000ABE8B09EA450970047912806590829BD0
:10AB6000780C1215015004790280577C107D007911
:10AB700000AA18AB191212C2851882851983E50C38
:10AB8000F0850D09E509F5087401121856E508F07D
:10AB9000850C08850E0A850F0B7410780812160FA5
:10ABA0007402121856E508F07418780C12160F7417
:10ABB00003121856E50CF0EEFCEFFDAA18AB1912C3
:10ABC0000F44741012182002B10574F112187A8A19
:10ABD0000A8B0B890E8C0C8D0D900283E064026051
:10ABE00005E064017005791202AC98EC450D700522
:10ABF000790202AC98120ABE8A088B09AE08AF0926
:10AC0000EE4F7005791402AC98EE2424F508E43F69
:10AC1000F50985088212ACA6600312137C7C1B7DAB
:10AC200000AA0CAB0D1212B685088285098312B1F9
:10AC3000F512AF6DEC4D70047913805C12B686E0AE
:10AC40006408703D740F121856E06035EC2412F55C
:10AC500008E43DF5097808121A8DEC2410F582E419
:10AC60003DF583121AA4EC241AF582E43DF583E045
:10AC7000F9AA0AAB0B120F807404121820E9F980AC
:10AC8000027900EE2403F582E43FF583E0D2E2F09E
:10AC9000E50E6004E0D2E1F07F0702194C12B8988B
:10ACA000241BF582E438F58312B245EA4B2274EE98
:10ACB00012187A120ABE8A088B09AE08AF09EE4F45
:10ACC000700302AD5DEE2420F508E43FF50974122F
:10ACD0001218561216F88508828509831217047A0D
:10ACE000267B0012055AEAF50A70078E828F83E0F0
:10ACF000F50A850882850983780C1216CE8E828F1C
:10AD000083A3A3A3A3E0F50B7A0E7B001212D48ACF
:10AD1000088B09EA4509604512AD60740912AD71EE
:10AD2000E50B12B690121A8DEE2405FCE43FFDEA05
:10AD30002404FAE43509FB1212AA740212182085C1
:10AD40000882850983A3A3A3A3A3A3A3A3A3A37892
:10AD50000C1216DDAA08AB09A90A1212E002B59D71
:10AD60008A828B8374D0F0A3E4F08A828B83A3A3BE
:10AD700022F08A828B83A3A3A32274EA12187A8A10
:10AD80000C8B0DEA450D700302AF038A828B83A3FF
:10AD9000A3A3A3A3A3E07005750B088003750B04A0
:10ADA0009002A012B43B600512AAED800390152713
:10ADB000E0F50A9002B912B43B600F12AAEDA3A30A
:10ADC00012A83A60057900121878E50C2407F50EF0
:10ADD000E4350DF50FE50C2408F508E4350DF5090B
:10ADE000AA08FB850E82850F83E0F9120584E9FB32
:10ADF000850E82850F83F0E50C2403FEE4350DFFFC
:10AE0000E50C2404F514E4350DF515E50C240EF5D8
:10AE100010E4350DF511E50C2414F582E4350DF53B
:10AE200083E0F5127513007812121A8DE50C2412C6
:10AE3000F582E4350DF583121AA4E50C2410F58291
:10AE4000E4350DF583121AA4851082851183121A38
:10AE5000A4E50BF50C780C121A91851482851583E4
:10AE6000121AA4AC08AD09AA0A8E828F83E0F912E7
:10AE70000614740B1218208E828F83E07041750CBB
:10AE800017750D00780C121A8D85108285118312AA
:10AE90001AA4780B121A917808121A8D850E8285E1
:10AEA0000F83E0FD7C0185148285158312B241A9D0
:10AEB0000A120AB27407121820E98E828F83F0906A
:10AEC00002A012B43B60031206389002B0E0603377
:10AED0009002B1E0FA9002B0E0F9120626E9602390
:10AEE0008E828F83E0FB74316B601385148285152D
:10AEF0008312AF739002B0E0FAEBF912061A9002D7
:10AF0000B0E4F07F0E02194C74F612187AE4F508DA
:10AF1000F5097808121A8D7808121A8DEA240CF5B2
:10AF200082E43BF583121AA48A828B83A3A3A3A392
:10AF3000A3A3A3A3A3A3121AA48A828B83A3A3A36C
:10AF4000A3A3A3A3A3121AA48A828B83A3A3A3A35C
:10AF5000A3A312AF738A828B83A3A3A3A312B241CC
:10AF60001209B6740A1218207F0202194C85088251
:10AF7000850983E0FCA3E0FD2274F212187AEAFE50
:10AF8000EBFF750A00EE2403F8E43FF9880889090D
:10AF90008882F58312B241120ABE8A828B83E582CF
:10AFA0004583600FE0F50A85088285098312B24166
:10AFB000120AB89002B0E06019650A70159002B1EB
:10AFC000E0FA9002B0E0F9120626E960249002B09F
:10AFD000E4F0E50A601B8E828F83A3A3A3A3A3E002
:10AFE000FB12AF6DAA0A8E828F83A3A3E0F912062B
:10AFF0001A9002A212B43B600312063285088285C1
:10B00000098312B241120AD0E96404701A850882D9
:10B0100085098312B02CE0687003A3E06970089082
:10B02000157674FFF0A3F07F0602194C12B11A9046
:10B0300015762274F012187A89098A0C8B088C0A0A
:10B040008D0B7A147B001212D48A0E8B0FAE0EAFCA
:10B050000FEE4F700302B1058E828F8374D012B150
:10B06000E1A3A3740512B1DAE508F0EE2404FAE4D2
:10B070003FFBE50A450B6019750E06750F00780E4B
:10B08000121A8DAC0AAD0B1212AA7402121820808B
:10B09000097C067D0079001212C274101218561233
:10B0A000B1168E828F83A3A3A3A3A3A3A3A3A3A359
:10B0B00012B1107412121856E0C0E012B67CD0E043
:10B0C000F0741312185612B120240D12B10A74151F
:10B0D00012185612B120240F12B10A741712185602
:10B0E00012B120241112B10A7419121856E0C0E0EE
:10B0F000EE2413F582E43FF583D0E0F0EEFAEFFBA7
:10B10000A90C1212E07F0802194CF582E43FF58386
:10B11000E8F0A3E9F02212B11A22E0F8A3E0F92244
:10B1200012B11AEE2274F212187A89098A08ECFE1A
:10B13000EDFF8B0A7A067B001212D4EA4B60238A59
:10B14000828B8374D0F0A3E50912AD69740612AD49
:10B1500071EEF0A3EF12AD71A3A3E50AF0A90812F6
:10B1600012E002B02774F012187A890C8A088B0951
:10B170008C0A8D0B7A0C7B001212D48A0E8B0FAEC8
:10B180000EAF0FEE4F6050AA08AB09120ABE8A82BA
:10B190008B83E58245837003901527E0F98E828FBB
:10B1A0008374D0F0A3E50C12B3F7740712B1DAA3DD
:10B1B000E50812B1E112B1FB741012185612B2096F
:10B1C00012B1F5741212185612B209A3A312B1F5F6
:10B1D000EEFAEFFB1212E002B10512B1E9A3A3A34C
:10B1E00022F0A3E50912B1E922F08E828F8322F5C5
:10B1F00082E438F583EAF0A3EBF022A3A3A3A3A390
:10B20000A3E50AF0A3E50BF02212B2458E828F83EC
:10B21000A3A3A3A3A3A3A3A32274F612187AEAFEFE
:10B22000120AC48A828B83E5824583600BEEF9A300
:10B2300012B2411208D28002791202AF688E828F58
:10B240008312B24522E0FAA3E0FB2274EC12187AD2
:10B2500089118A0A8B0B8C10120ABE8A0E8B0FEA98
:10B26000450F700302B3F29002A212B43B700302C6
:10B27000B3F27A0E7B00E0C8241912B43560027A6A
:10B280002912B4306008EA2414FAE43400FB741480
:10B29000121856E0F50CA3E0F50DE50C450D60071E
:10B2A000EA241BFAE43BFB12B8B312B4356007EA98
:10B2B0002416FAE43BFB1212D48A088B09AE08AFBD
:10B2C00009EE4F700302B3F27C0E7D00790012127A
:10B2D000C27A267B0012055A8A088B09EA45097052
:10B2E00009850E82850F83E0F5088E828F8374D0E6
:10B2F000F0A3E51112B3F7740A12B1E912B1FE8E90
:10B30000828F83A3A3A3A3A3E510F0EE240EF50A76
:10B31000E43FF50B9002A2E0241912B3FD12B43BF6
:10B320006018EE240612B408121A8D8C828D8312D6
:10B33000AF731212AA74021218209002A2E0241D08
:10B3400012B3FD12B43B6038EE2408F8E43FF988EC
:10B3500082898312B2018882898312B241EA24145D
:10B36000F50AE43BF50B750E14750F00780E121AF2
:10B370008D8C828D8312AF731212AA740212182060
:10B38000E50C450D6015EE240A12B408121A8DACB6
:10B390000CAD0D1212AA74021218209002A2E02421
:10B3A0001BF8A3E03400F9E8FAE9FB8A828B8312E8
:10B3B000B43B6032EE240CF8E43FF9880C8882F547
:10B3C0008312B201750A16750B00780A121A8D8A5B
:10B3D000828B8312AF73850C82898312B241121261
:10B3E000AA7402121820EEFAEFFBA9081212E0125A
:10B3F00006327F0C02194C12B1E9A3A322FCA3E090
:10B400003400FD8C828D8322F8E43FF988828983A1
:10B41000E50AF0A3E50BF08882898312B245EA249D
:10B420001BF50AE43BF50B750E1B750F00780E2219
:10B4300012B898241DF582E438F58312B11AE84950
:10B4400022C082C0839002A212B43B602FE0C824C5
:10B450001912ACA2600312137C12AC9D600312138C
:10B460007C12B8AD12ACA2600312137C9002A2123F
:10B47000B24112137C9002A2E4F0A3F0D083D082F8
:10B48000020132C082C0839002A012B43B601090CF
:10B4900002A012B24112137C9002A0E4F0A3F0804B
:10B4A000DB74F012187A890C8A0A8B0B120ABE8A96
:10B4B000088B09EA4509604C7A267B0012055A8AF6
:10B4C0000E8B0FAE0EAF0FEE4F7008850882850908
:10B4D00083E0FE7A057B001212D48A088B09EA45C4
:10B4E0000960217C057D0079001212C212B5AD748D
:10B4F0000EF085088285098312B1FEAA08AB09EE19
:10B50000F91212E002B10574EE12187A890CEAFE03
:10B51000EBFF8C0A8D0B120ABE8A0E8B0FEA450FC9
:10B52000607B7A0B7B001212D48A088B09EA4509EA
:10B53000606B7C0B7D0079001212C27A267B0012B0
:10B54000055A8A108B11A810A911E8497008850EB8
:10B5500082850F83E0F812B5AD740F12B5A8EEF036
:10B56000A3EF12B5A2E50A12B5A2A3E50BF074127F
:10B5700012185612B5C7F0741312185612B5C7A395
:10B58000F07414121856E5082409FCE43509FD741A
:10B590000212171DAA08AB09E8F91212E07F0A028D
:10B5A000194C12B5A8A3A32212B5BDA32285088207
:10B5B00085098374D0F0A3E50C12B5BD22F085088F
:10B5C00082850983A3A322E0850882850983A3A33A
:10B5D000A3A3A3A3A32274EE12187A8A0A8B0B8961
:10B5E0000E120ABE8A0C8B0DEA450D700302B67965
:10B5F0007A0D7B001212D48A088B09AE08AF09EECF
:10B600004F60767A267B0012055A8A088B09EA4534
:10B61000097009850C82850D83E0F5088E828F8381
:10B6200074D0F0A3E412B3F7740B12B690121A8D13
:10B63000E50C2405FCE4350DFDEE2403FAE43FFBA4
:10B640001212AA74021218208E828F83A3A3A3124F
:10B65000B1FB12B686E50EA2E0500474018001E44D
:10B66000F012B67CE50EA2E1500474018001E4F012
:10B67000EEFAEFFBA9081212E002B59DEE240CF5DC
:10B6800082E43FF58322EE240BF582E43FF583222A
:10B69000F075100675110078102274E812187A8976
:10B6A000108A0FECFEEDFF8B0EEEFAEFFB120ABED6
:10B6B0008A088B097418121856E0F50CA3E0F50DF2
:10B6C000741A121856E0F514A3E0F515741C12183C
:10B6D00056E0F516A3E0F517741E121856E0F50AA9
:10B6E000A3E0F50BEA4509700302B7C6E510600355
:10B6F00002B7C6EA2403F582E43509F583E0D2E413
:10B70000F0E50EA2E2E05004D2E18002C2E1F0E5F1
:10B710000C450D7012E5144515700CE516451770B3
:10B7200006E50A450B606AE0D2E2F0E50A450B60E7
:10B730003412B8A11216F8E5082420F582E4350980
:10B74000F5831217047512107513007812121A8DF2
:10B75000AC0AAD0BE5082410FAE43509FB1212AA75
:10B760007402121820E5082424F50850020509E5A2
:10B770000C450D6021E50F701D8508828509831237
:10B78000ACA8600312137C7C1B7D00AA0CAB0D805F
:10B7900027E0C2E2802FE5144515602A7401650F89
:10B7A000702485088285098312ACA8600312137C7B
:10B7B0007C1B7D00AA14AB151212B6850882850980
:10B7C00083EAF0A3EBF09002A212B43B700302B83C
:10B7D00093E50C450D6039E0C8241912B435700F9B
:10B7E0007A1B7B0012137612B898241912B1EF124B
:10B7F000B898241912ACA2601775081B7509007857
:10B8000008121A8DAC0CAD0D1212AA740212182077
:10B81000E5164517603112B8B312B435700D7A16BB
:10B820007B0012137612B8B312B1EF12AC9D601701
:10B830007508167509007808121A8DAC16AD171226
:10B8400012AA7402121820E50A450B603112B430B6
:10B85000700D7A147B0012137612B8AD12B1EF128C
:10B86000B8AD12ACA26017750814750900780812FB
:10B870001A8DAC0AAD0B1212AA7402121820781499
:10B88000121A8DAC0EEEFAEFFBA91012062C740200
:10B890001218207F1002194C9002A2E0F8A3E0C811
:10B8A00022E50A2410F582E4350BF5832212B898BC
:10B8B000241D2212B898241B22C082C0839002A6A5
:10B8C00012B1F502B47C74F412187AE9900375F0A1
:10B8D000120E0C907800E0C4540F540764037004F7
:10B8E000793F8002797F7508067509007808121A79
:10B8F0008D7C637D037AEA7B071211D274021218E1
:10B9000020900363E0F47049A3E0F47044A3E0F4F2
:10B91000703FA3E0F4703AA3E0F47035A3E0F47054
:10B920003090780EE0900363F090780FE09003641D
:10B93000F0907810E0900365F0907811E090036645
:10B94000F0907812E0900367F0907813E09003682D
:10B95000F090036912BA5C12C7CF9003937406F09B
:10B96000A3740D12C2A97442F0A37401F09004C034
:10B9700012BA5C9004BFE4F09004CDF0A374A0125E
:10B98000C2A97403F0A3740712C2A9742812C2A931
:10B9900004F0A3E4F09004F6F090051974FFF0A30E
:10B9A000E4F090051BF090051D04F090051E7490C6
:10B9B000F0A37401F0120BDE120B12120DB279011A
:10B9C0007A207B05120CC2900520E075F01484E506
:10B9D000F004F0790C7A417B05120CC2120CDA7A71
:10B9E00000900375E0F912138E907803E0644270C2
:10B9F00056900520E014F0704EC2AF12B9FE0078E8
:10BA00002AD0E0F618D0E0F6E59F5407F8700575E7
:10BA100009FF800375097FC4C0E07829E6F50808AE
:10BA2000E65509F509740B78081217E8D0E02508E7
:10BA3000F8906270E0A2E740F8E8C333906272F0D9
:10BA4000906270E0D2E0F09003A0E4F0A3F07A807E
:10BA5000FB900375E0F912130402BF2174FF12BDBD
:10BA6000EFF0A3F02274F412187AEAFEEBFFEEA2D4
:10BA7000E05040900377E0C39480E0500F25E0F859
:10BA8000E433F9740E28F5827416800EF425E0F87C
:10BA9000E433F9741C28F582741639F58312C656FE
:10BAA0001218787A00900375E0F912138EEE640193
:10BAB00002BC79540260377508007808121A91E4C4
:10BAC000F5097808121A8D7808121A8D7808121A5A
:10BAD0008D7808121A8D7D007C017A007B00793CFC
:10BAE0001209687409121820EE640202BC79EE543F
:10BAF00004700302BB829003A4E0F875F00BA4C8A5
:10BB0000AAF02AF974A628FA740339FBEA242AF564
:10BB100082E43BF583E0F5087808121A91EA2432B2
:10BB200012BC85F509740478081217E87808121A0F
:10BB30008DEA2420F582E43BF583121AA4EA242E30
:10BB400012BC85C313F509E50813F5087808121A25
:10BB50008DEA2404F508EB3401F5097808121A8DF2
:10BB600012BC91FD7C018A828B83A3A3A3A3E0FA7C
:10BB70007B0079001209687409121820EE6404022F
:10BB8000BC79EE544060377508007808121A91E4C9
:10BB9000F5097808121A8D7808121A8D7808121A89
:10BBA0008D7808121A8D7D007C017A007B00793B2C
:10BBB0001209687409121820EE644002BC79EE5430
:10BBC00080603790051E12C2A1602A790012138886
:10BBD00090051EE0F508A3E0F509E4F50AF50B78F9
:10BBE00008121A897A007B01900375E0F912141289
:10BBF0007404121820EE6480807FEF5401600C7989
:10BC000001121388EEFAEF64018070EF5402600AAB
:10BC1000C2AF75C9AB75C95B80FEEF5404600A12F0
:10BC200029B0EEFAEF6404805290037CE064017066
:10BC30004DEE54206048900376E014601214600FBB
:10BC400014600C14600924FD601114600E802779C3
:10BC500000120B667901120B66801B793F9003A4DA
:10BC6000E0FA75F00BA4CAA8F028FB74A62AFA74AF
:10BC7000033BFB120C8CEE6420FAEFFB80047A008D
:10BC80007B0002BF21F582E43BF583E0F508A3E0E9
:10BC900022EA240AF582EB3401F583E02274F612DD
:10BCA000187AEA540F6004780180027800E8F98A73
:10BCB000088B09740478081217E8E50829F5087557
:10BCC0000900740478081217F7E5082408FAE43527
:10BCD00009FB12132E8A088B09A808A909E84960F4
:10BCE00009E82404FAE439FB80047A007B0002C4EA
:10BCF0003874F612187AEA2405FA50010B12132E42
:10BD00008A088B09A808A909E8496009E82405FA06
:10BD1000E439FB80047A007B0002C438C082C0830F
:10BD2000C2AF120DE2E5E170FC75E101120BCC75BA
:10BD3000E1F1120E18120BC07907120E8A79011266
:10BD40000E907902120E42120E60120E7E790012CF
:10BD50000E847901120E8490821F1216EC120E2AA4
:10BD60009004CDE4F0A3F0A3F09004D17407F09018
:10BD700004D07403F09004D6E4F09004D5F090045D
:10BD8000F6F0120C74120D28120C927900120E9615
:10BD90009004B174FF12BDEF741FF0906012E4F0D4
:10BDA000A3F0906063F0752100900376F09004B6E4
:10BDB000F09004B7740CF09004B8E4F09004B90467
:10BDC000F09004BAE4F09004BB04F09004BCE4F0FA
:10BDD000900378F0A3F090037BF090037C04F09044
:10BDE000039204F090051CE4F0D2AFF902C76AF0A8
:10BDF000A3F0A3F0A3F0A322C082C0839003631238
:10BE0000BF5B90036412BF85F090036512BF9090F2
:10BE1000036612BF9690036712BF9B90036812BF20
:10BE200085A3A3A3A302C767C082C0838A828B8332
:10BE3000E090036912C7ADE090036A12BF5590030A
:10BE40006B12C7B490036C12C7C090036D12C7BBCE
:10BE5000E090036E02C767C082C083120BEAE9F963
:10BE60007005120E60790002C76A74F712187AEA38
:10BE7000FEEBFF8908120BEAE9F9702CE508600A6D
:10BE800074016508600A7912801E7C0079008004C4
:10BE90007C007901EEFAEFFB120E66E9F874036894
:10BEA000700479078002790002C65F74F612187A6E
:10BEB000EA4B600EEC4D600A740A12185612C7A1C4
:10BEC00070047912800F7808121A8D120CD4740243
:10BED000121820790002C43874F412187AEAFEEBC2
:10BEE000FF8908900376E064096014E0640A600F3B
:10BEF000E0640B600AE0640C6005E0640D70047996
:10BF00000C801E120D528B0BEA450B700BA908EE2C
:10BF1000FAEFFB120CC28009900378E04440F079FC
:10BF20000D7F0402194C74F612187AEA4B6003E98B
:10BF300070047912801CEAFEEBFF8908120CBCE940
:10BF40008E828F83F0A3AE82AF831508E50870EC74
:10BF5000790002C43812C7ADA3E022E08A828B8345
:10BF6000F022C082C083E9F8740168700B90051C50
:10BF70007401F0790002C76AE8700690051CE4803D
:10BF8000F1791280F012BF8922E08A828B83A3228A
:10BF900012BF89A3F02212BFA1F02212BFA1A3F009
:10BFA0002212BF89A3A322C082C083900376E064DB
:10BFB0000C701290618EE0F874806870258C828D10
:10BFC00083747F8029C3EB940F5013EA4B700F905A
:10BFD00003A9E070047902801890040E80D87912C9
:10BFE000800F90037AE0F9E8C3998C828D83F07911
:10BFF0000002C76A74F712187AE9FE74056E601EB3
:10C0000074136E601974146E601474156E600F747E
:10C010001A6E600A74296E6005743B6E7026C3EB5D
:10C02000940F5020EA4B701C9003A9E07004790231
:10C03000802690040FE064017016A3E0640270088B
:10C04000793A80147912801012C05B120C5C800661
:10C0500012C05B120C50790002C65FEE90049BF098
:10C060009003C3E4F0A3F079027AA67B032274EC78
:10C0700012187AEC4D6014E9C3941C500E7414121B
:10C080001856E0F8600A7401686005791202C287E8
:10C09000C3EB940F5019EA4B70159003A9E070049C
:10C0A0007902800D9004B7E0700A790702C287799F
:10C0B0001202C287EC24FEFCED34FFFD8C828D83DE
:10C0C000E9F0E87004740280027401A3F0EC24FE2D
:10C0D000FCED34FFFD7A097B04120CAAA9A8C2AFBB
:10C0E0009004B7E014F0E9A2E7E433F8E9A2E7929C
:10C0F000AF900376E064086008E06407600302C262
:10C10000859003A4E0600302C28579007AA67B03D0
:10C11000121EEB9061D0E0700302C2859004BBE078
:10C120006401600302C2859003C312C2A1700302BE
:10C13000C285A2AFE433F50CC2AF120D528A088B50
:10C1400009AE08AF09120DF48A088B098C0A8D0B11
:10C150008A108B118C128D13908213781012165A3C
:10C160007810121A898E828F83A3A31216EC1226DE
:10C17000DC7404121820E96401600302C27F90039A
:10C18000D4E02406F510A3E03400F511E4F512F52F
:10C1900013780879101216477808121A898E828F40
:10C1A00083A3A31216EC1226DC7404121820E9648F
:10C1B00001600302C27FEE2408F50EE43FF50F850F
:10C1C0000E82F583121AA0AA08AB09AC0AAD0B12B5
:10C1D000273874041218209003D4121AA41223943E
:10C1E00074021218208A088B098C0A8D0B7410783F
:10C1F0000812160F9003AF12C28C9003ABE8F0A3A5
:10C20000E9F0E82CF8E93509F9A3E8F0A3E9F085AD
:10C210000E82850F83C082C08312C292121520D075
:10C2200083D082780812165A90822378081216A8B2
:10C230008E828F83A3A378081216DD12C292121683
:10C2400047908227780812165A908223780812168F
:10C25000A8EE2416F582E43FF583E508F0A3E5098E
:10C26000F0A3E50AF0A3E50BF09003DBE09003DA1E
:10C27000F07AA67B03121C6EEEFAEFFB120D34E58A
:10C280000CA2E092AF79007F0C02194CE0F8A3E019
:10C29000F9229003D4E0F510A3E0F51178087910A5
:10C2A00022E0F8A3E0F9E84922F0A3E4F0A3227425
:10C2B000F612187AEAFEEBFF8909740B121856E0A1
:10C2C000F508740C12185612C28CE5096048740106
:10C2D00065096012740365096026740265096020AF
:10C2E00074046509707DE8496079E50860067401A9
:10C2F0006508706F74036509600674026509702A29
:10C30000EE2460FAEF12C4485059EC2460FAED12A2
:10C31000C4484016804DEE24E0FAEF12C43D50436D
:10C32000EC24E0FAED12C43D5039C3EC9EED9F4081
:10C3300032740A121856E0FC600574016C702474A3
:10C340000F121856E0FA600F74016A600A74026AEC
:10C35000600574036A700C740E121856E0FB7407C3
:10C360005B7005791202C4389004CDE06401700559
:10C37000790C02C43874075B9004D1F0E50990048D
:10C38000D0F0EA9004D2F0EC9004BF702FE4F0906B
:10C390000363E09004C0F0900364E09004C1F09067
:10C3A0000365E09004C2F0900366E09004C3F0904F
:10C3B0000367E09004C4F0900368802E7401F0904D
:10C3C0000369E09004C0F090036AE09004C1F0902B
:10C3D000036BE09004C2F090036CE09004C3F09013
:10C3E000036DE09004C4F090036EE09004C5F07417
:10C3F000016509700B12C4539004CEE4F0A380359C
:10C4000074046509700512C4538023EA700479002E
:10C41000801974016A70047901801074026A7004D2
:10C420007902800774036A70057903120E6C900418
:10C43000CEEEF0A3EFF079007F0202194C34FFFB3F
:10C44000C3EA94E1EB943F2234FFFBC3EA9461EB2F
:10C45000943F22E508A3F088828983E09004C71204
:10C46000C488E09004C812C488A3E09004C912C430
:10C4700088A3A3E09004CA12C48FE09004CB12C436
:10C480008FA3E09004CCF022F088828983A322F06D
:10C4900088828983A3A3A3A32274F612187AE9FEE3
:10C4A000C39420500BEE9004D6F0601EEA4B70044B
:10C4B0007912801E12C6A0121A8DEAFCEBFD7AD703
:10C4C0007B041212AA74021218209004D57401F091
:10C4D000790002C43874F412187AE9FF900376E008
:10C4E0006409700302C5DFE0640A700302C5DFE07F
:10C4F000640B700302C5DFE0640C700302C5DFE06B
:10C50000640D700302C5DF9004D0E0601664016022
:10C5100012E06403600DE064026008E064046003FC
:10C5200002C6529004BFE060076401600302C65275
:10C530009004D0E064036005E0640270109004CEC3
:10C54000C3E094A0A3E09400500302C652EF70032E
:10C5500002C5EB14600302C6529004CDE064016092
:10C560007E9004D0E0600964016005E06404700816
:10C57000120D5EE954FD70677901120D469004BDFD
:10C58000EAF0A3EBF09004CD7401F0900376E07034
:10C5900055120DF48A088B098C0A8D0B90822B782A
:10C5A0000812165A90822378081216A89004BD1219
:10C5B000C656A3A378081216DD9004BDE0F8A3E0E8
:10C5C000C82406F582E438F583E4F0A3F0120BF0FA
:10C5D000E960107ABD7B04120D4C9004CDE4F07933
:10C5E000218005120D2E790002BF219004CDE0605C
:10C5F000EEA2AFE433FEC2AF7ABD7B04120D4C90C5
:10C6000004CDE4F0120D6AE97041120DE2906182EE
:10C61000E0C2E6F0E5E170FC75E1017591BF75E1FE
:10C62000F190037CE0640170187A207B0090037520
:10C63000E0F912141E7A207B00900375E0F91213C2
:10C640000A7A00900375E0F912138EEEA2E092AF21
:10C65000809479128092E0F8A3E0F5838882227FAB
:10C660000102194C74F612187AE9FEC39420500B9B
:10C67000EE9004F6F0601EEA4B70047912801E12F0
:10C68000C6A0121A8DEAFCEBFD7AF77B041212AAFF
:10C6900074021218209004D57401F0790002C43895
:10C6A000E0F508750900780822C082C083900376FF
:10C6B000E064076004790C805CEC4D605BC3EB9434
:10C6C0000F5055EA4B70519003A9E0700479028035
:10C6D000447A008C828D83E0C0E0EAF8C3E498F8E5
:10C6E00095E0F9747428F582740439F583A3A3A343
:10C6F000A3D0E0F00A8C828D83A3AC82AD83EAC321
:10C70000941040CF90047A7401F079057AA67B03E7
:10C71000120C50790002C76A791280F9C082C08376
:10C72000900376E064076004790C8039C3EB940FC2
:10C730005020EA4B701C9003A9E070047902802518
:10C74000900483E06401700E90049B7406F07902FB
:10C75000800A7912800FA37406F0790D7AA67B0304
:10C76000120C5079008003F07900D083D08202014E
:10C7700032790C020132C082C083E9F890051DE0D5
:10C780007004790C800EE8600E14701190037B74B5
:10C7900001F0790002C76A90037BE480F47912808B
:10C7A000F3E0F508A3E0F509E508450922F08A82DF
:10C7B0008B83A32212C7ADA3A3E02212C7C5A32275
:10C7C00012C7C5E022F08A828B83A3A3A3A3229081
:10C7D0000363E090036FF0900364E0900370F090C7
:10C7E0000365E0900371F0900366E0900372F090AF
:10C7F0000367E0900373F0900368E0900374F02205
:10C8000074F712187A74FF12180AEA4B60078A82CA
:10C810008B837401F0EC4D60099003A3E08C828D52
:10C8200083F0740A12185612C2A1700302C90C7F59
:10C83000007E0080787401F0E0C0E0E82CF582E42E
:10C8400039F583D0E0F0EA240412BC94C0E012C9A8
:10C8500016D0E0F00FEA240512BC94C0E012C9160D
:10C86000D0E0F00FEA240612BC94C0E012C916D042
:10C87000E0F00FEA240712BC94C0E012C916D0E021
:10C88000F00FEA240812BC94C0E012C916D0E0F000
:10C890000FEA240912BC94C0E012C916D0E0F00FD0
:10C8A00012BC91C0E012C916D0E0F00F0E9003A3A5
:10C8B000E0FAEEC39A5055EEFAC3E4940F50EDEA55
:10C8C00070EA9003A9E060E4EE75F00BA4CAACF046
:10C8D0002CFB74A62AFA74033BFBEFFCE82CF582D0
:10C8E000E439F583EEF074012CFC74012CFF8A828C
:10C8F0008B83E0FDA3E0F5838D82E0648085188260
:10C90000851983600302C835E402C83779007401D1
:10C9100012182002C65FE82FF582E439F58322C0A1
:10C9200082C083EA4B60069003A312BF5B02C76814
:10C9300074F612187A7901120C808A088B0974FF38
:10C940006508700474FF650970047912800279002B
:10C9500002C438C082C0837852790588828983A353
:10C96000E412CE2A74FFF0E8241CF850010964A6F2
:10C970007003E9640570E490054F74FFF090054E74
:10C98000E4F090054DF0900550F0A302D39074F0C0
:10C9900012187A900550E0F50AA3E0F50BE50A4578
:10C9A0000B7006120BD202CCA3850A82850B83E0A2
:10C9B00014601814601524FE601124C4700302CAA8
:10C9C000F124C0700302CAF102CCA3E0F9120D40B9
:10C9D0008A088B09AE08AF099003A3E06074120CBB
:10C9E0007A12CCBEAC08FDEEFAEFFB120D3AE9F577
:10C9F0000E7402650E60468E828F83E064016003D0
:10CA000002CCA3EE650A7003EF650B6003120BF016
:10CA1000E50E7026120DF48A0C8B0D8C0E8D0F9086
:10CA2000822B780C12165A908223780C1216A88E3C
:10CA3000828F83A3A3780C1216DD02CB8312CCAEB7
:10CA4000120D8E8E828F83E0FA9003A4F079020299
:10CA5000CBD3EE650A7003EF650B700302CCA08E9A
:10CA6000828F83E06401600302CCA3120BF0120DED
:10CA7000F48A088B098C0A8D0B908217780812169D
:10CA80005A7808121A898E828F83A3A31216EC1289
:10CA900026DC7404121820E97054120DF48A088BF5
:10CAA000098C0A8D0B90822B780812165A908223DB
:10CAB00078081216A88E828F83A3A378081216DD39
:10CAC000900376E0640270238E828F83A3A378089C
:10CAD0001216CE90826F780812165A908223780828
:10CAE0001216A812CCA81216DD800312D33F02CC76
:10CAF000969003A3E0700302CBEE120C7A12CCBE28
:10CB00009003A4E0F875F00BA4C8AAF02AF974A663
:10CB100028F50A740339F50B90054EE0540760764A
:10CB2000A3E0F9120D408A0E8B0FAE0EAF0FAC08CA
:10CB3000AD09120D3AE9F50E7402650E6058850ACA
:10CB400082850B83A3A3A3A3E0F9120D888E828FA5
:10CB500083E064017040120BF0E50E7026120DF4B4
:10CB60008A0C8B0D8C0E8D0F90822B780C12165A1E
:10CB7000908223780C1216A88E828F83A3A3780C40
:10CB80001216DD850882850983A3A378081216CEC4
:10CB900090829302CC7EE50C650A7004E50D650B6E
:10CBA000602A850A82850B83A3A3A3E0600F850A10
:10CBB00082850B83A3A3A3A3E0F9120D8812CCAE48
:10CBC000120D8E8E828F83E09003A4F07902900381
:10CBD000A4E0FA75F00BA4CAA8F028FB74A62AFA00
:10CBE00074033BFB121EEBAA08AB0902CCA0900514
:10CBF0004EE05407700302CCA3A3E0F9120D408A63
:10CC0000088B09AE08AF098E828F83E06401600350
:10CC100002CCA3120BF0120DF48A088B098C0A8D3A
:10CC20000B908217780812165A7808121A898E8289
:10CC30008F83A3A31216EC1226DC7404121820E9C9
:10CC40007054120DF48A088B098C0A8D0B90822B7C
:10CC5000780812165A90822378081216A88E828FAE
:10CC600083A3A378081216DD900376E06402702394
:10CC70008E828F83A3A378081216CE90826F7808D5
:10CC800012165A90822378081216A812CCA81216EF
:10CC9000DD800312D33F90054F7401F0EEFAEFFBF5
:10CCA000120D347F0802194C12CE1F780822E50CB1
:10CCB0002404FEE4350DFF8E828F83E0F922E9F82B
:10CCC00075F00BA4C8AAF02AF974A628F50C740311
:10CCD00039F50D850C82F583E0F508A3E0F509220E
:10CCE00074F012187AEAFEEBFFEE2402F8E43FF942
:10CCF00088088909EE2406F8E43FF9880A890B8838
:10CD000082F583121AA48508828509831216EC1213
:10CD10000DD07402121820850A82850B83121AA482
:10CD20008508828509831216EC120DC4740212184C
:10CD30002012CE1F1216EC120DD68E828F83E06465
:10CD4000407019EE2412F8E43FF988828983E0905C
:10CD5000606412CE2AA3E09060658006906064E46F
:10CD6000F0A3F0900550EEF0A3EF12D33412D804E4
:10CD7000121878906054E412CE30A312CE30906135
:10CD800082E0C2E6F07591BF12D32AE0640170031D
:10CD9000120E12E5E170FC12D31AE0F46003E0F524
:10CDA000E112D324F090037CE06401706F120DF463
:10CDB0008A088B098C0A8D0B7808121A898E828F4B
:10CDC00083A3A31216EC12273874041218208A08C1
:10CDD0008B098C0A8D0B908253780C1216CE780832
:10CDE000790C1215207403780812160FE50824F444
:10CDF000F508E5093401F50990051DE060031213FB
:10CE000064E4F50AF50B7808121A897A207B009001
:10CE10000375E0F9121412740412182002CCA3EE68
:10CE2000240EF582E43FF58322A3F08882898322D1
:10CE3000F0A3F0A3F0A3F0A3F0A3F02274EC121877
:10CE40007AEAFEEBFF8C088D09EE4F700302CEF4F8
:10CE5000120DF48A0C8B0D8C0E8D0F908213780CB2
:10CE600012165A908223780C1216A890824FC08214
:10CE7000C083780C121A89850882850983A3A312BE
:10CE800016EC12273874041218208A108B118C1299
:10CE90008D13D083D08278101215015057850882E7
:10CEA000850983A3A378081216CE90827B78081296
:10CEB000165A7808121A898E828F83A3A31216EC51
:10CEC0001226DC7404121820E9702990824B780C29
:10CED00012165A780C121A898E828F83A3A3121607
:10CEE000EC1226DC7404121820E970047900800624
:10CEF0007901800279027F0C02194C74F012187AC1
:10CF0000890874FF6508600302CFB490054EE054B1
:10CF100007700302D2487904120D58E964017008C1
:10CF20007904120D6402D24C7901120D58E96401A2
:10CF3000703C7A007852790588828983E0640170B8
:10CF400006A3E0640160150AE8241CF8500109EA10
:10CF5000C3940340E37A007B0002D24CEA75F01CD4
:10CF6000A4F8A9F0745228FA740539FB80EB790211
:10CF7000120D58E96401703C7A0078527905888274
:10CF80008983E064027006A3E0640160150AE82466
:10CF90001CF8500109EAC3940340E37A007B0002C5
:10CFA000D24CEA75F01CA4F8A9F0745228FA740562
:10CFB00039FB80EB7A007852790588828983E065B5
:10CFC000087006A3E0640160210AE8241CF85001FF
:10CFD00009EAC3940340E37E007F00A908120D58BC
:10CFE000E9640170177509018015EA75F01CA4F851
:10CFF000A9F0745228FE740539FF80DF750900E539
:10D000000814601014700302D0D824FE700302D1FB
:10D010005902D2487902120D58E96401706C7A0005
:10D020007852790588828983E064027006A3E064FF
:10D030000160520AE8241CF8500109EAC394034035
:10D04000E3750A00750B00E509A2E05031850A82FC
:10D05000850B83A3A3780C1216CE908247780C120E
:10D06000165A780C121A898E828F83A3A31216EC9B
:10D070001226DC7404121820E9700302D242AA0AB4
:10D08000AB0B02D24C12D24F80BD7904120D58E97D
:10D09000640170317A007852790588828983E0646E
:10D0A000047006A3E0640160170AE8241CF850012C
:10D0B00009EAC3940340E3750A00750B0002D18CA2
:10D0C00012D24F80F8E509A2E05006EEFAEFFB809D
:10D0D000047A007B0002D24C7904120D58E96401F5
:10D0E00070307A007852790588828983E064047010
:10D0F00006A3E0640160160AE8241CF8500109EA5E
:10D10000C3940340E3750A00750B00807F12D24F71
:10D11000807A7901120D58E96401702A7A007852F8
:10D12000790588828983E064017006A3E064016068
:10D13000100AE8241CF8500109EAC3940340E38074
:10D140004512D24F8046E509A2E05006EEFAEFFB09
:10D1500080047A007B0002D24C7901120D58E964F8
:10D160000170657A007852790588828983E06401CC
:10D170007006A3E0640160C90AE8241CF8500109A4
:10D18000EAC3940340E3750A00750B00E509A2E0C9
:10D19000400302D07E850A82850B83A3A3780C12FC
:10D1A00016CE908247780C12165A780C121A898E75
:10D1B000828F83A3A31216EC1226DC7404121820AB
:10D1C000E9600302D07E807A7902120D58E9640189
:10D1D000706A7A007852790588828983E0640270E7
:10D1E00006A3E0640160500AE8241CF8500109EA33
:10D1F000C3940340E3750A00750B00E509A2E04003
:10D200000302D07E850A82850B83A3A3780C1216B5
:10D21000CE908247780C12165A780C121A898E8298
:10D220008F83A3A31216EC1226DC7404121820E9D3
:10D23000600302D07E800B12D24F80BFE509A2E0CE
:10D240005006EEFAEFFB80047A007B0002CCA3EAE2
:10D2500075F01CA4F8A9F0745228F50A740539F584
:10D260000B2274F712187A89087A007E527F058E95
:10D27000828F83A3E0600302D3008E828F83E0F469
:10D280006010900550E0F8A3E0F9EE687002EF69D5
:10D29000606E8E828F83E508F0120DF4EAF8EBF9E8
:10D2A000ECFAEDFB8E828F83A3A31217048E828F7C
:10D2B00083A3A3A3A3A3A3E4F0A3F012D33F12D3A9
:10D2C0001A7401F012D32412D334E4F0A3F08E8246
:10D2D0008F83A304F090054EE04508F090054DE0E3
:10D2E00004F06401600C7480650860067440650891
:10D2F0007008900550EEF0A3EFF0EEFAEFFB80150A
:10D300000AEE241CFE50010FEAC39403500302D21C
:10D310006F7A007B007F0102194CEE2414F582E441
:10D320003FF5832212D32A740122EE2415F582E4FC
:10D330003FF58322F0EE241AF582E43FF5832212B2
:10D34000CE1F74FFF0A3F0A3F0A3F022C082C0832D
:10D350008A828B83E0F8A3E0F98A828B83E4F0125F
:10D36000CE2912CE29E0F4F890054EE058F0900551
:10D370004DE014F07014900550E4F0A3F0900376A3
:10D38000F0FA900375E0F912138E8005ED9061C6F6
:10D39000F0D083D082020132C082C08390054DE07C
:10D3A000600A900550E0FAA3E0FB80047A007B005D
:10D3B00080DFC082C083E9FB7800758252758305E7
:10D3C000E06B7016E875F01CA4F8A9F0745328F50A
:10D3D00082740539F583E0F9801308E582241CF591
:10D3E0008250020583E8C3940340D5790080A2C02F
:10D3F00082C08390054EE0F98097C082C083780098
:10D400007A527B058A828B83E0697018A3E06401FD
:10D410007012E875F01CA4FAABF074522AFA740585
:10D420003BFB801208EA241CFA50010BE8C394036A
:10D4300040D27A007B0002D391C082C08390054D18
:10D4400080B474F712187AEAFEEBFF9061D0E0C066
:10D45000E0EE240012D591D0E0F09061D7E0F89092
:10D4600061D512D5BDC0E0EE240112D591D0E0F017
:10D470009061D612D5BDF812D4E1E8F07010906139
:10D48000C5E0A2E45008E0A2E7500312D5A4120EB2
:10D49000A2EE2401F582EF12D60D701C12D4E1E049
:10D4A00070169061C5E0A2E4500EE0A2E7500912A8
:10D4B000D5A4EE240112D5A775E1957A00801490C9
:10D4C00061D3E0C0E0EAF8EE28F582E43FF583D0CE
:10D4D000E0F00AEE240012D59940E475E19102D300
:10D4E00015EE2402F582EF3401F5832274F7121849
:10D4F0007AEAFEEBFF9061C8E0C0E0EE240312D5AB
:10D5000091D0E0F09061CFE0F89061CD12D5BDC030
:10D51000E012D5B2D0E0F09061CE12D5BDF8EE2485
:10D520000512D591E8F070139061C5E0A2E0500BB0
:10D53000E0A2E35006EE240512D5A7120EA812D5DC
:10D54000B2E07024EE2405F582EF12D60D7019902A
:10D5500061C5E0A2E05011E0A2E3500CEE240512F8
:10D56000D5A712D5B27480F0120EAE7A0080149056
:10D5700061CBE0C0E0EAF8EE28F8E43F12D65ED0D6
:10D58000E0F00AEE240312D59940E475E18102D35C
:10D5900015F582EF3401F58322F582EF12D611F8EA
:10D5A000EAC39822EE2402F582EF3401F5837480F9
:10D5B000F022EE2404F582EF3401F58322E0C398D3
:10D5C000547F22C082C0839061C6E0FDE0540FF01A
:10D5D00075E1917C008010ECF8EA28F582E43BF5D7
:10D5E00083E09061D2F00CEA240012D66940E8EAA8
:10D5F000240212D60A60049061D6F0EA240112D601
:10D600000A60049061D5F002D38CF582EB12D6113A
:10D61000223401F583E022C082C0839061C6E0FD20
:10D62000E054F0F075E1817C008010ECF8EA28F815
:10D63000E43B12D65EE09061CAF00CEA240312D6F5
:10D640006940E8EA240512D60A60049061CEF0EA47
:10D65000240412D60A60049061CDF002D38CF9E85C
:10D660002480F582E439F58322F582EB12D611F895
:10D67000ECC3982274F412187A12D7E9120D76EEE0
:10D68000FAEFFB120D70750A80750B00780A121AFA
:10D690008D7C007D60EE2406FAEF3401FB120CE075
:10D6A0007402121820906195E0C0E0EE248612D535
:10D6B00091D0E0F0906196E0C0E0EE248712D59121
:10D6C000D0E0F0906197E0C0E0EE248812D591D0D0
:10D6D000E0F0906198E0C0E0EE248912D591D0E0AE
:10D6E000F07F0402194C74F212187A12D7E9120D65
:10D6F00082EEFAEFFB120D7C750C09750D00780CAB
:10D70000121A8DEE2406FCEF3401FD7A007B6012C4
:10D710000CE07402121820750C18780C121A8DEE99
:10D720002410FCEF3401FD7A0A7B60120CE07402D5
:10D73000121820750C2C780C121A8DEE245AFCEF5E
:10D740003401FD7A547B60120CE07402121820EE52
:10D750002486F582EF12D7E1EE2487F582EF12D707
:10D76000D9EE2488F582EF12D7D1EE2489F582EF25
:10D7700012D7CAF0E50875F00BA4C508A8F028F583
:10D780000974A62508F58274033509F58312D804B7
:10D79000E0648070079003767408801E90160E1265
:10D7A000D80D12D80D7422F0A3740D12D813749AE8
:10D7B000F0A3740DF09003767407F090161C12D845
:10D7C0001EA312D81E7F0602194C12D61190619822
:10D7D0002212D611906197F02212D611906196F024
:10D7E0002212D611906195F0228908A808E875F0F8
:10D7F0008AA4C8AAF02AF974A628FE740539FFEE97
:10D80000FAEFFB22E0F8A3E0F5838882227494F01B
:10D81000A3740DF0A37494F0A3740DF0A3227422EA
:10D8200012D82C12D82CF0A3740DF022F0A3740D92
:10D83000F0A374222274EE12187A890B8A0C8C0ED3
:10D840008D0F750A0012D9296005791102D9037468
:10D8500012121856E0F508A3E0F509E5084509603D
:10D86000307A217B0012055AE5082415FEE43509BB
:10D87000FF8E828F83E0C39AE49B40157A227B005F
:10D8800012055A8E828F83E0F8C3EA98EB94005019
:10D89000047902806E7A637B00121376900733EA74
:10D8A000F0A3EBF012D9297004791380567C637DC4
:10D8B0000079001212C212D908E4F0900733E01286
:10D8C000DF90E50B12D91DE50C12D91DA3E50EF072
:10D8D000A3E50FF012E3E1E508F0A3E509F012E398
:10D8E000CCE4F0A3F012E3F3E4F0E50B6006120FD2
:10D8F00086E9F50A12D9087401F0E50A6003120FEF
:10D90000BCA90A7F0A02194C12D90C2212D9102282
:10D91000900733E0F8A3E0F5838882A322F012D9C0
:10D92000222212D910A322E9FE90073312DD00E86B
:10D93000492274F612187A7E0012D929601412E373
:10D94000FDE0F8740268600F740368600A7404688C
:10D950006005791202D9F812DA096C7003A3E06D40
:10D960006005790202D9F87508108E097808121A34
:10D970008DEAFCEB12D9FB1212AA7402121820795C
:10D9800010900733E0242BFAA3E03400FB120EFCC6
:10D99000900733E0241BF508A3E03400F50978086C
:10D9A000121A8D12E06112D9FB120F747402121850
:10D9B00020900733E0240112E3C1E0FA900733E03E
:10D9C000FBA3E0F5838B82E0600D74036A70278807
:10D9D0008289837402801974046A70098882898339
:10D9E0007402F0801174036A700C88828983740554
:10D9F000F0120F8CE9FEEEF902E49EFD900733E091
:10DA00002407FAA3E03400FB22900733E0F8A312C6
:10DA1000DA1322E0F5838882A3A3A3E022C082C0A8
:10DA20008390073502DD3C74F712187A12D927600B
:10DA30001312DA0F6A7003A3E06B700874016E7042
:10DA400003120FBC7F0102194CC082C083791712E8
:10DA50000FC202DD4174F412187A74ED12180AEA4A
:10DA6000F8EBF9851882851983E4F088828983A30D
:10DA7000A3A3A3A3A312DF448A828B83E0F508E863
:10DA80002402FEE439FFE5081460271460241460C2
:10DA90003A14605A14606114606814606F14607600
:10DAA00014607D14700302DB2A14700302DB34025D
:10DAB000DB3E740112187012101CE9F874126870C1
:10DAC000148518828519837406807B74011218707E
:10DAD000121028E9F8E8600302DB8575090712DFF8
:10DAE00040120ABEEA4B706175080802DB7C7401C3
:10DAF00012187012103480DB74011218701210406A
:10DB000080D1740112187012104C80C77401121861
:10DB10007012105880BD740112187012106A80B310
:10DB2000740112187012107080A97401121870120A
:10DB3000107C809F740112187012108880958518CF
:10DB4000828519837407F08045EA240BF582E43B53
:10DB5000F583E0640870059007378003900735125D
:10DB6000D92C601512DF9212DCF4600D74011218CA
:10DB700070A908121878E9F50985090885188285C1
:10DB80001983E508F0851882851983E0600CAC18CC
:10DB9000AD1912DF40120F628003120ED8741312F7
:10DBA00018207F0402194C74F612187AECFEEDFF6F
:10DBB00075083A7509107808121A8D790212108EBC
:10DBC0007402121820E9F5088E828F83E0F9120F93
:10DBD000C2A90802E49E74F412187AEAFEEBFF89E7
:10DBE0000812D929700302DCC512DA0F6E7003A384
:10DBF000E06F600302DCC5900733E0240108A3E076
:10DC00003400F9E8FAE9FB8A828B83E0F87406684D
:10DC1000600302DCB212DE69607F90073412E6B95D
:10DC200012DD00900733E0FCA3E0CC2418F582E479
:10DC30003CF583E0FCA3E0FDE82413F582E439F52C
:10DC400083E0F8A2E050168C828D83A3A3A3A3A344
:10DC5000E0A2E050088A828B8374078034E8540283
:10DC600060168C828D83A3A3A3A3A3E05402600853
:10DC70008A828B8374098019E8540460178C828D22
:10DC800083A3A3A3A3A3E0540460098A828B8374B3
:10DC90000BF08015900737800390073512D92C6060
:10DCA0000812DCEF600312187812DD35703C790041
:10DCB000800E741168700EE5086003750832A908BB
:10DCC000120FC28025E5087018EEFAEFFB120ABEAB
:10DCD0008A828B83E58245836007A3A3A3E0D2E415
:10DCE000F0EEFAEFFBA90812063E790102DBA21260
:10DCF000DF96A3A312DD0088828983E58245832213
:10DD0000E0F8A3E0F922C082C08312D9296024126E
:10DD1000DFE87005900735800390073712D92C6033
:10DD20000812DCEF600312187812DD3570057900F7
:10DD3000120FC2800C12D90CE0641222EAF0A3EB9D
:10DD4000F0D083D08202013274E812187A74EB1298
:10DD5000180A8A168B178C148D1512D9297005791B
:10DD60001202DE5F12DFF3120ABE8A088B09AE08C8
:10DD7000AF09EE4F7005791402DE5FAA18AB1912D5
:10DD80000FCEEE2405F512E43FF513EE2404F51052
:10DD9000E43FF51112DE69602FA818A919880C89D3
:10DDA0000D12E3E8FEA3E0FF1205A2E9F50E7900EB
:10DDB0001205A88A088B09851082851183E0F50F6A
:10DDC00085120A85130B803690073412E3EEF50CAA
:10DDD000A3E0F50DA818A91988088909AE08AF09AC
:10DDE0001205A2E9F50F79001205A88A0A8B0B85A6
:10DDF0001082851183E0F50E851208851309740ED3
:10DE0000121870EEFAEFFB1210107407121870AAB5
:10DE10000CAB0D12100A742D121856121AA4780A9F
:10DE2000121A8DE50FF50A780A121A917808121A5B
:10DE30008D740E121860880889097808121A8D747A
:10DE400017121860880889097808121A8DA90EAC73
:10DE500014AD15AA16AB17120EEA740B1218207423
:10DE6000151218207F1002194C900733E0F8A31206
:10DE7000DF96E02274F612187A74F712180AEAFE96
:10DE8000EBFF8C088D0990073512D92C700302DF47
:10DE90003B12DF9212D92C700302DF3B8C828D8300
:10DEA000E0C0E07402121856D0E0F08C828D83A39B
:10DEB000E0C0E07403121856D0E0F08C828D83A38A
:10DEC000A3E0F97404121856AA82AB83120F0885D6
:10DED0000882850983A3A3A3E0C0E0740612185644
:10DEE000D0E0F0850882850983A3A3A3A3C082C0E4
:10DEF000837407121856AC82AD83D083D08274022B
:10DF000012171D74021218707901EEFAEFFB9007D8
:10DF10003512DE6C12DF90121878E98518828519A7
:10DF200083F060177401121856E9F074011218702A
:10DF30008E828F83A312DF44120F62740902E49B66
:10DF40008E828F83E0FAA3E0FB2274F712187A899D
:10DF50000890073712D92C603212DF92A3A3A3A333
:10DF600012DD00E8FEE9FFEE4F6020740B12185638
:10DF7000121AA4740B121856121AA4A9088E828FB2
:10DF80008312187874041218208002790202DA448D
:10DF9000F8A312DF9622E0F58388822274F6121825
:10DFA0007A74F912180A12D9296033AA18AB191217
:10DFB0000FCE12DFED12DFE5600875080A75091053
:10DFC00080067508107509107808121A8D740212EF
:10DFD0001870790712108E740212182080027901CD
:10DFE000740702E49B90073412DF96E02290073317
:10DFF000E0F8A312DA13FAA3E0FB2274F612187AFF
:10E0000074F012180A7508107509007808121A8D34
:10E01000900733E0241BFCA3E03400FD74021218C7
:10E02000681212AA740212182075082275091002CB
:10E03000E48274F612187A74F012180A75081075D2
:10E0400009007808121A8D12E061FD740212186836
:10E050001212AA740212182075082E75091002E413
:10E0600082900733E0242BFCA3E034002274F012EA
:10E07000187A8A088B09750A0012E3CC12D92C6031
:10E080000302E3787A077B00121376900733E024CB
:10E090001812E3C1EAF0A3EBF088828983E0FA4B1F
:10E0A000700302E37312E3E1E0FEA3E0FF750C07E7
:10E0B000750D00780C121A8DAC08AD091212AA74F5
:10E0C0000212182012DE69600302E2E5EE2413FC5E
:10E0D000E43FFD90073412E3EE2405F50CA3E03491
:10E0E00000F50D8C828D8312DD00850C82850D83F9
:10E0F000E0A2E092F0E8A2E020F001B35007A2E035
:10E10000E433FA80027A00E854FE4AF88C828D8368
:10E1100012E382C313A2E092F0E8C313A2E020F05E
:10E1200001B35012E854026004D2F08002C2F0A29F
:10E13000F0E433FA80027A00E854FDF8EA25E0FAC8
:10E14000E433FBE84AF8E94B12E3A2543FA2E09221
:10E15000F0E81313543FA2E020F001B35013E85449
:10E16000046004D2F08002C2F0A2F0E433F50E8025
:10E1700003750E00750F00E854FBFAE9FB74027892
:10E180000E1217F7EA450EF8EB450F12E3A21354EF
:10E190001FA2E092F0E8131313541FA2E020F00135
:10E1A000B35013E854086004D2F08002C2F0A2F029
:10E1B000E433F50E8003750E00750F00E854F7FA8E
:10E1C000E9FB7403780E1217F7EA450EFA12E38E94
:10E1D000A3E0A2E092F0EBA2E020F001B3501154D2
:10E1E000016004D2F08002C2F0A2F0E433F88002B1
:10E1F0007800EB54FEFBE8F9EB4912E3AE740978C2
:10E200000E1217E8E50EA2E092F08A0E8B0F740949
:10E21000780E1217E8E50EA2E020F001B35013EBE0
:10E2200054026004D2F08002C2F0A2F0E433F50E92
:10E230008003750E00EB54FDFB7409780E1217F77E
:10E24000EB450F12E3AE740A780E1217E8E50EA242
:10E25000E092F08A0E8B0F740A780E1217E8E50E22
:10E26000A2E020F001B35013EB54046004D2F0801C
:10E2700002C2F0A2F0E433F50E8003750E00EB54F9
:10E28000FBFB740A780E1217F712E38EE0F50CA36D
:10E29000E0F50D740B780C1217E8E50CA2E092F093
:10E2A0008A0C8B0D740B780C1217E8E50CA2E02099
:10E2B000F001B35013EB54086004D2F08002C2F0B6
:10E2C000A2F0E433F50C8003750C00EB54F7FB74FB
:10E2D0000B780C1217F7EAF8EB450DF98C828D8359
:10E2E000E8F0A3E9F0850882850983A3E0600F8E3A
:10E2F000828F83A3E0600712E3F37405806D8508C5
:10E3000082850983A3A3E054047015EE2412F582DC
:10E31000E43FF583E0A2E2400712E3F37401804B8F
:10E3200012DE698E828F83600CE0FA85088285098F
:10E3300083E0F8800AE0F8850882850983E0FAEA3C
:10E34000C394055029E8C394055023E875F005A44B
:10E35000F8A9F0745028F8748039F9E82AF582E4B5
:10E3600039F583E0C0E012E3F3D0E0F0800D750AE8
:10E37000188008750A138003750A11A90A7F08021C
:10E38000194CF0A3E9F0850C82850D83E022EB4562
:10E390000FFB8C828D83EAF0A3EBF0850C82850D58
:10E3A0008322F98C828D83E812E382131322FB8C83
:10E3B000828D83EAF0A3EB12E385F50EA3E0F50F5F
:10E3C00022F8A3E03400F98882898322900733E0A1
:10E3D000F8A312E3D622E0C82418F582E438F583C6
:10E3E0002212D922A3A3A322900733E0F8A312E3B9
:10E3F000D6E022900733E0F8A312E3FD22E0C82420
:10E400001AF582E438F5832274F612187A750846F4
:10E410007509107808121A8D791112108E74028005
:10E420007A74F612187A74EE12180AEAFEEBFF8577
:10E430001882851983ECF0A3EDF0750808750900C2
:10E440007808121A8D741E121856E0FCA3E0FD74B1
:10E4500004121856AA82AB831212AA740212182050
:10E460007508527509107808121A8D740212187006
:10E47000790BEEFAEFFB12108E7402121820741250
:10E4800080197808121A8D7402121870791112DF2F
:10E49000ED12108E740212182074101218207F02D0
:10E4A00002194C74F612187A75085E75091002E4A8
:10E4B0001374F412187A74F912180AEAFEEBFF8545
:10E4C0001882851983E9F0750A06750B00780A121F
:10E4D0001A8D7403121856AA82AB831212AA740200
:10E4E000121820750A64750B10780A121A8D7402BE
:10E4F0001218707908EEFAEFFB12108E74021218DF
:10E5000020740702DB9F74F612187A750876750975
:10E510001002E413C082C08312D9296050E0C824DD
:10E520001812E573600312137C12E5EA245B12E50E
:10E5300073600312137C12E5EA245D12E573600335
:10E5400012137C12E5EA245F12E573600312137C58
:10E5500012E5EA246112E573600312137C9007331D
:10E5600012DF4412137C900733E4F0A3F0120EDEA6
:10E5700002DD41F582E438F583E0FAA3E0FBEA4BE3
:10E580002274F712187A12D927605CE0C82461F56A
:10E5900082E438F583121AA412E5EA245FF582E4D6
:10E5A00038F583121AA412E5EA245DF582E438F501
:10E5B00083121AA412E5EA245BF582E438F583128B
:10E5C0001AA412E5EA2417F582E438F583E0FB1279
:10E5D000DA09FCA3E0FD12DFE5FAEEF91206507449
:10E5E00008121820120FBC02DA44900733E0F8A397
:10E5F000E0C822C082C083791090073312E57960A9
:10E600003512E3E8FAA3E0FBEAFCEBFDEC4D6026F3
:10E6100012E3E112E579601EEA2415F582E43BF588
:10E6200083E0F88C828D83A3A3A3A3E0FAC3985060
:10E6300003EA8001E8F902DD4174F612187AEAFE75
:10E64000EBFF12D929606612E6B912D92C605E88F8
:10E6500008890988828983E08E828F83F088828985
:10E6600083A3E08E828F83A3F0E82412F582E43541
:10E6700009F583E0F9EE2402FAE43FFB120F08E506
:10E68000082415F582E43509F583E08E828F83A393
:10E69000A3A3A3F0E5082413F582E43509F583EE7E
:10E6A0002405FCE43FFD740212171D80097C077DE0
:10E6B0000079001212C202E49E12DF96A3A3A3A364
:10E6C000A32274F212187AE9FF8C088D097E008F5C
:10E6D0000A8E0B8A0C8B0D780C121AD101031A3397
:10E6E000EA17E72EE745E733EA5DE721E832E86B12
:10E6F000E8ADE8CAE8E7E806E923E933EA40E98259
:10E70000E99EE9B3E9C2E9DCE933EA33EA33EA3303
:10E71000EAF8E933EAA6E774106F600302EA2F759E
:10E720000A10780A121A8D7A9A7B1402E8FB741088
:10E730006F600302EA2F750A10780A121A8D7AAAFE
:10E740007B1402E8FB74046F600302EA2F8C828D55
:10E75000831216F89014BA12170402EA5174016F6A
:10E76000600302EA2F9014C4E06401700302E81C05
:10E770009016E1E0F88C828D83E09016E1F0E8607D
:10E7800010E0600302EA51901498E06402704B803C
:10E7900051E0700302EA51901498E06401606EE069
:10E7A00064047061806774016F600302EA2F901641
:10E7B000E1E0640160669014C4E0F88C828D83E02F
:10E7C0009014C4F0E86026E0600302EA51901498C7
:10E7D000E06403600DE064076008E0640560030224
:10E7E000EA51901497E0F912066802EA51E07003CA
:10E7F00002EA51901498E064016012E06404600D34
:10E80000E064066008E06405600302EA517A017B77
:10E8100000901497E0F912130402EA517E1202EA02
:10E820005174026F600302EA2F12F3389016E2026D
:10E83000E9D6EFC39420400302EA2F7C1F7D0079C4
:10E84000007AE57B161212C2780A121A8DAC08AD56
:10E85000097AE57B161212AA7402121820EF90169C
:10E86000E4F07CE57D16FB7A018037EFC39420400D
:10E870000302EA2F7C1F7D0079007AC67B141212F6
:10E88000C2780A121A8DAC08AD097AC67B1412122E
:10E89000AA7402121820EF9014C5F07CC67D14FBF8
:10E8A0007A00901497E0F912066202EA4B74016F45
:10E8B000600302EA2F8C828D83E0F8C39405400345
:10E8C00002EA2FE89014E502E9F574016F60030293
:10E8D000EA2F8C828D83E0F8C39404400302EA2F70
:10E8E000E89014E602E9F574066F600302EA2F75FA
:10E8F0000A06780A121A8D7AE77B141212AA740299
:10E9000012182002EA5174016F600302EA2F8C8210
:10E910008D83E0F8C39408400302EA2FE89014EDD9
:10E9200002E9F574016F600302EA2F8C828D83E0A7
:10E93000F8C39404400302EA2FE89014EE02E9F5CC
:10E9400074026F600302EA2F12F3389014EF12F38F
:10E9500020E849700302EA51901498E064066003CD
:10E9600002EA519014EF12F3727808121A897A02AF
:10E970007B00901497E0F91214127404121820020C
:10E98000EA5174016F600302EA2F8C828D83E0F8F4
:10E99000C39402400302EA2FE89014F7805712EA6A
:10E9A0006C600302EA2F12EA60400302EA2F90171C
:10E9B00006803E12EA6C707712EA60507290170877
:10E9C000802F12F33874026F7065C3E894F4E994F1
:10E9D00001505C9014F8E8F0A3E9801912EA6C7019
:10E9E0004EEA24F612EA589477E9940C50419017B5
:10E9F0000AEAF0A3EBF0805974016F70328C828DBB
:10EA000083E0640170297A087B00901497E0F91282
:10EA10001424EA4B4C4D701379001214667A047B6F
:10EA200000901497E0F912141E80267E1680227E34
:10EA300018801EC3EA9427EB9400501374026F7081
:10EA40000E8C828D8312EE8B120554E9FE80027EBD
:10EA500002EEF97F0602194CF8EB34FFF9C3E82205
:10EA6000EA24FA12EA58947BE9940C228C828D8372
:10EA7000E0FAA3E0FB74026F2274F412187AECFE41
:10EA8000EDFF7508008A0A8B0B780A121AD1000371
:10EA90001BDAEBCBEAD1EAE3EAF5EA05EB17EB2365
:10EAA000EB29EB38EB47EB4DEB53EB64EB69EB6E8B
:10EAB000EB73EB78EB85EB8AEB8FEB94EB99EBB692
:10EAC000EBBBEBC0EBDAEBD0EB1DEB90149902EB58
:10EAD000D3750A10750B00780A121A8D7C9A7D1472
:10EAE00002EBA8750A10750B00780A121A8D7CAA21
:10EAF0007D1402EBA89014BA1216F88E828F83123E
:10EB0000170402EBF4750A06750B00780A121A8DC9
:10EB10007CBE7D1402EBA89016E102EBD39014C4E6
:10EB200002EBD39016E202EBC39016E412EBF8125C
:10EB30001A8D7CE57D1680709014C512EBF8121AC0
:10EB40008D7CC67D1480619014E502EBD39014E6B1
:10EB500002EBD3750A06750B00780A121A8D7CE752
:10EB60007D1480449014ED806A9014EE80659017B7
:10EB70000480509014EF804B9014F7E08E828F83C6
:10EB8000F0A3E480699017068039901708803490CC
:10EB900014F8802F90170A802A750A06750B0078E2
:10EBA0000A121A8D7CF17D14EEFAEFFB1212AA7490
:10EBB00002121820803E9014FA80089014FC800302
:10EBC0009014FE12F33C8E828F83E8F0A3E9801E3E
:10EBD000901498E08E828F838014C3EA9427EB947C
:10EBE00000500E12055A8E828F83EAF0A3EBF0805C
:10EBF00003750802A908800EE0F50A750B00780A73
:10EC000022740A1218207F0402194C74F612187A22
:10EC1000901498E0703EEA4B6008901501EAF0A36A
:10EC2000EBF07508BA7509147808121A8D7508AAE0
:10EC30007509147808121A8D7C9A7D147B00901443
:10EC400099E0FA901497E0F91210C4740412182095
:10EC50007900800279117F0202194CD083D08202A0
:10EC60000132C082C083901498E06406700F7C1358
:10EC700012F32F901497E0F91205D28002791280D6
:10EC8000DA74F712187AE9901497F0901498E4F077
:10EC900090170474FFF0A3F01206C2901499740444
:10ECA000F07C107D0079007A9A7B141212C27C10DD
:10ECB0007D0079007AAA7B141212C29014BAE4F093
:10ECC000A3F0A3F0A3F09014E5F09014E6F09014F4
:10ECD000ED7407F09014EEE4F07C9A7D147A1079CC
:10ECE000021213EE7CAA7D147A1079031213EE7CC3
:10ECF000BA7D147A0479041213EE7F0102194C7460
:10ED0000F412187A74F612180AEAFEEBFF548060C7
:10ED100023901497E0F91212EC8A088B09EA45094E
:10ED2000600A12145AAA08AB091212DAEEFAEF645A
:10ED30008002EE81EF544060137CBA7D147A04792E
:10ED4000041213E8EEFAEF644002EE81EEA2E04016
:10ED50000302EDFE9016E1E070099014C4E0700328
:10ED600002EDF89014C4E0600B8518828519837455
:10ED700003F080399014E5E0851882851983F090BE
:10ED800014E6E0C0E07401121856D0E0F0750806F1
:10ED90007509007808121A8D7CE77D147404121826
:10EDA00056AA82AB831212AA74021218209014ED94
:10EDB000E0C0E07408121856D0E0F09014EEE0C005
:10EDC000E07409121856D0E0F0AA18AB1990149705
:10EDD000E0F912065CE960209014987408F012F3D0
:10EDE0007D601512F32912F33C88828983E5824500
:10EDF0008360057908121878EE640102EE7F5402F0
:10EE00006035901498E06406702812F32F1208E41D
:10EE10009014EF12F380601A9014EF12F36A121A32
:10EE2000897A027B00901497E0F91214127404128C
:10EE30001820EE64028048EE5404600A790012142F
:10EE400066EE64048039EE54086039901500E014D1
:10EE50006008147027121448802290170A121AA40E
:10EE60009014F8121AA4790190170812EE8B9017DB
:10EE70000612F33212146C7404121820EE6408FAAD
:10EE8000EFFB80047A007B0002EC01E0FCA3E0FDD4
:10EE90002274F412187AEA2405F8E43BF98A828B8A
:10EEA00083E0246F600B24EF606D24D2606402EF76
:10EEB00072A3E0640E600302EF728A828B83A3A3C5
:10EEC000A3E064057004A3E06414600302EF728899
:10EED00082898312F326A3A3A3E0F9901498E06437
:10EEE00006600302EF72747F69700302EF7290157F
:10EEF0000112F332EA4B607A90150112F326A3A3B4
:10EF000012F3328A828B83E582458360651218781A
:10EF10008060121460805B88828983E06413705281
:10EF20008A828B83A3A3A3A3A3A3E064017002A39B
:10EF3000E07019901500E0640270117A087B00906F
:10EF40001497E0F912141E12144880267A057B00EB
:10EF500012055A8A088B09E4F50AF50B7808121A8B
:10EF6000897A087B00901497E0F912141274041245
:10EF7000182002EC0674EC12187AEAFEEBFF8E827F
:10EF80008F83A3A3E0F8EE2403F50CE43FF50DEE28
:10EF9000240AF50AE43FF50B8E828F83A38582084D
:10EFA000858309E8602724FE700302F0441470038F
:10EFB00002F0AA14700302F0AA14700302F11914EB
:10EFC000700302F22814700302F29D8072E0704B0D
:10EFD0007C9A7D147A1079021213E87CAA7D147A47
:10EFE0001079031213E87508067509007808121ADB
:10EFF0008DAC0CAD0D7ABE7B141212AA74021218DD
:10F00000209014987401F07CE57D169016E4E0FBE6
:10F010007A01901497E0F9120662E9600302F0A108
:10F0200012F37D601A12F32912F33CE8FAE9FBEAC5
:10F030004B600C901498E0F98A828B831218787FC9
:10F040000C02194CE07051850C82850D83E0601D27
:10F050007CC67D149014C5E0FB7A00901497E0F90B
:10F06000120662E9850882850983F0802B90149846
:10F07000E064026023E06407601E7A017B00901464
:10F0800097E0F9121424EA4B4C4D700C7A017B0086
:10F09000901497E0F9121304850882850983E060D3
:10F0A0009E9014987408F002F020E070F4740368E5
:10F0B000701D901498E064067004740780E8901640
:10F0C000E1E09014986004740280DB740380D790B0
:10F0D00016E212F3809016E16025E070069014C4E9
:10F0E000E060269016E212F36A121A897A017B0018
:10F0F000901497E0F91214127404121820800AE098
:10F10000640160039014C4E4F0901498E064077004
:10F1100004740680917404808DE0F8600302F21597
:10F12000EE2404F508E43FF509750E06750F007826
:10F130000E121A8DAC08AD097AF17B141212AA7462
:10F1400002121820850A82850B8312F33C90170463
:10F1500012F3209014987406F09014EF12F380606C
:10F16000259014EFE0F510A3E0F511E4F512F51386
:10F170007810121A897A027B00901497E0F9121421
:10F18000127404121820EE240DF582E43FF5831268
:10F19000F35EEE240FF582E43FF58312F352EE2482
:10F1A00011F582E43FF58312F3469014F7E0640111
:10F1B000703B7A1F7B0012055A8A10EA75F0E8A4AA
:10F1C000C510A8F075F003A428F875F0E8EBA428A2
:10F1D000F511E4F512F5137810121A897A047B0000
:10F1E000901497E0F91214127404121820750E048A
:10F1F000780E121A91850A82850B8312EE8BAA086B
:10F20000AB09850C82850D83E0F91210D0740112D0
:10F21000182002F020743168600302F0A19016E11A
:10F22000E4F090149802F1151210F47C067D007938
:10F23000007AF17B141212C29014FAE4F0A3F09059
:10F2400014FCF0A3F09014FEF0A3F07A04FB9014E9
:10F2500097E0F912141E7A087B00901497E0F912D7
:10F26000141E90170474FFF0A3F09014C4E060061D
:10F2700090149802F0CB8E828F83A3A3A3A3A3E064
:10F2800064089014987004740580027404F07A0184
:10F290007B00901497E0F912130402F0207A087BA7
:10F2A00000901497E0F912141E850882850983E006
:10F2B000600302F03F8E828F83A3A3A3A3A3A312B4
:10F2C000F35E8E828F83A3A3A3A3A3A3A3A312F3AE
:10F2D00052850A82850B8312F3467A047B009014D0
:10F2E00097E0F9121424EA4B4C4D600302F03F9072
:10F2F000150312F380700302F03F9014FE121AA45B
:10F300009014FC12EE8B9014FA12F3329015031243
:10F31000F32612F326121878740212182002F03F16
:10F32000E8F0A3E9F022E0F8A3E0F58388822290D8
:10F330001704E0FAA3E0FB228C828D8312F34022B3
:10F34000E0F8A3E0F92212F3409014FEE8F0A3E9FC
:10F35000F02212F3409014FCE8F0A3E9F02212F33B
:10F36000409014FAE8F0A3E9F02212F372F50B785A
:10F370000822E0F508A3E0F509E4F50A229015015A
:10F3800012F340E8492274F412187A74F612180A3B
:10F39000E9FE90170612F33C7583147582FAC3E0F8
:10F3A00098A3E09940389014FA12F33C75831775CE
:10F3B0008208C3E098A3E09940249014FC12F33C27
:10F3C0009014F8E0687003A3E06970129014FE12C4
:10F3D000F33C90170AE0687003A3E06960797A054E
:10F3E0007B0012055A8A088B0990170412F33C859A
:10F3F000188285198312F32090170612F33C7402C9
:10F4000012185612F32090170812F33C74041218C5
:10F410005612F3209014F812F33C74061218561288
:10F42000F32090170A12F33C740812185612F320B6
:10F43000AA18AB191205D8EE901500F0E4F50AF5FC
:10F440000B7808121A897A087B00901497E0F91259
:10F450001412740412182002EC0174F412187AE9E0
:10F46000FE901498E064066005791402F4F1EA2431
:10F47000FAF8EB12F4F45077EC24FAF8ED12F4F405
:10F48000506D740C121856E0F50AA3E0F50BC3E5B5
:10F490000A94F4E50B94015056740E121856E0F5D8
:10F4A00008A3E0F509E50824F6F8E50912EA5A94FC
:10F4B00076E9940C5039901706EAF0A3EBF0901718
:10F4C00008ECF0A3EDF09014F8E50AF0A3E50BF0DA
:10F4D00090170AE508F0A3E509F0EEF91214667A30
:10F4E000047B00901497E0F912141E7900800279D1
:10F4F0001802EC0612EA5A947AE9940C2274EE127D
:10F50000187A8A088B09890B8C0E8D0F90073CE0C6
:10F51000700990073EE0700302F5CA900308E060AE
:10F520000302F5CA890C750D00E92407FAE43400DA
:10F53000FB1212D48A108B11AE10AF11EE4F700374
:10F5400002F5DB74186508700474206509600C749A
:10F55000176508700474206509701090073EE0601C
:10F560000AF50A8E828F837492800C90073CE0F536
:10F570000A8E828F837491F0A3740E12FE2B740195
:10F5800012FE33E508F0A3E509F0EE2405F8E43FA8
:10F59000F9E8FAE9FBEE2407F8E43FF98A828B8365
:10F5A000E8F0A3E9F0780C121A8DAC0EAD0F8A8248
:10F5B0008B83E0FAA3E0FB1212AA7402121820EE69
:10F5C000FAEFFBA90A1212E08011780E121A8DAC24
:10F5D0000B790E12095C74021218207F0A02194C72
:10F5E00074F512187A890AEAFEEBFF90073CE06096
:10F5F00039900308E070337A067B001212D4EA4B8C
:10F6000060358A828B837491F0A3740F12F7CFA3B5
:10F61000A3E50A12FB95740112FBA4EEF0A3EFF030
:10F6200090073CE0F91212E0800DEEFCEFFDAA0A13
:10F630007B00790F1209567F0302194C12FF011249
:10F64000F649740412F649A32212F64D22F088827C
:10F650008983E0FCA3E0F5838C822274F712187A88
:10F6600074FC12180AEA851882851983F074011255
:10F6700018567401F07402121856ECF07403121844
:10F6800056EDF0AC18AD197A041209627404121820
:10F69000207F0102194C74F212187A89098A0A8BA8
:10F6A0000B8C0874072CFA74FF65096004780380DA
:10F6B000027802E82AFA7B001212D48A0C8B0DAE73
:10F6C0000CAF0DEE4F700302F7B48E828F8374017E
:10F6D000F0A374FFF0EE2402FAE43FFBEE2404F8FA
:10F6E000E43F12F85DE50912F7CFE02402F8A3E049
:10F6F0003400F9890DE50BF9740E12185612FAA6AA
:10F7000074FF6509602E740325088882850D8312B5
:10F71000F856A3740112F7D9E50A12F7D9A3E9F054
:10F7200085080A750B00780A121A8D8A828B83E08D
:10F7300024068066740225088882850D83F08C82F9
:10F740008D83E0C0E08A828B8312F7B9D0E0F08C21
:10F75000828D83A3E0C0E012F7C4D0E0F08C828DEC
:10F7600083A3A3E0C0E012F7C4A3D0E012F7C8124D
:10F77000FA99E50A12F7C812FA9DE9F0E50824FDA6
:10F78000F50AE434FFF50B780A121A8DEC2403FC19
:10F7900050010D8A828B83E02408FAA3E03400FB39
:10F7A0001212AA7402121820EEFAEFFB90073AE048
:10F7B000F91212E07F0602194C12F7BD2212FC9FCB
:10F7C000A3A3A32212F7DE2212F7CF12FC87221284
:10F7D000F7D322F08A828B8322F012F7DE228A820C
:10F7E0008B8312F7BDA32274F212187A890A8A0B4E
:10F7F000ECFEEDFF74072AFA7B001212D48A088B04
:10F8000009EA4509604D12FAEDE435090A0AFBE5FB
:10F81000082404F8E4350912F85DE50A12F856E503
:10F820000BF06023F50C750D00780C121A8DEEFCB0
:10F83000EFFD8A828B83E02403FAA3E03400FB12FD
:10F8400012AA7402121820AA08AB0990073AE0F92C
:10F850001212E002F7B412F7CF12FAE022F98A820C
:10F860008B83E8F0A3E912FC94740412FC94A322A5
:10F870007F1002194C74E812187A8917EAFEEBFF20
:10F880008C168D13741A121856E0F50CA3E0F50DC2
:10F89000741C121856E0F508A3E0F509741E12183E
:10F8A00056E0F50AA3E0F50B7420121856E0F512A5
:10F8B00090073CE0700302F97B7A157B001212D4AA
:10F8C0008A0E8B0FEA450F700302FA9612FAAC7497
:10F8D00001F0EA2408FAE4350FFBE50E2403F58273
:10F8E000E4350FF583E517701EE4F0751006F51189
:10F8F0007810121A8D741A12185612FAA61212AA39
:10F900007402121820800C7431F07C067D0079009E
:10F910001212C2850E82850F83A3A3A3A3EEF0A3C8
:10F92000EF12FAC0E51612FAC0A3E513F0E50E24B3
:10F930000EF582E4350FF583E50CF0A3E50DF0E557
:10F940000E2410F582E4350FF583E508F0A3E509F0
:10F95000F0E50E2412F582E4350FF583E50AF0A3F5
:10F96000E50BF0E50E2414F582E4350FF583E5127E
:10F97000F0AA0EAB0F90073C02FA91900314E0A29C
:10F98000E5500890030CE0A2E0400302FA967A1AD0
:10F990007B001212D48A108B11EA4511700302FA0F
:10F9A0009612FAEDF50EE43511F50FEA2404F8E4A9
:10F9B0003511F9850E82850F83E8F0A3E912FACAA2
:10F9C000740412FACAA3743E12FAD1741312FAD153
:10F9D000A3740112FAE6E51712FAE6A3EE12FB0091
:10F9E00012FA99EF12FB0012FA9DE51612FB0012B3
:10F9F000FC74E513F07514067515007814121A8D51
:10FA0000741A12185612FAA6850E82850F83E02406
:10FA100009FAA3E03400FB1212AA74021218201291
:10FA2000FC7D240FF582E438F583E50CF0E50DF557
:10FA30000C12FC7D2410F582E438F583E50C12FBF2
:10FA4000002411F582E438F583E508F0E509F508AE
:10FA500012FC7D2412F582E438F583E50812FB00E0
:10FA60002413F582E438F583E50AF0E50BF50A1274
:10FA7000FC7D2414F582E438F583E50A12FB0024AA
:10FA800015F582E438F583E512F0AA10AB11900762
:10FA90003AE0F91212E002F87012FB8C222407F50A
:10FAA00082E438F58322E0FCA3E0FD228A828B8386
:10FAB000749112FAB622F0A3743E12F7D3A3A322D4
:10FAC00012FAD8A3A3A3A3A3A32212FAD812FC97D5
:10FAD0002212FAD812FAE022F0850E82850F8322D4
:10FAE00012FC9BA3A32212FAD812F7E22212FAF117
:10FAF000228A828B837401F0A374FFF0EA2402222D
:10FB000012FAD812FC872274F412187AEAFEEBFF7C
:10FB1000890890073CE0602E7A067B001212D4EA36
:10FB20004B605F8A828B837491F0A3740512F7CFC8
:10FB3000A3A3E412FB95EEF0A3EF12FBA4A3E50848
:10FB4000F090073C803790030DE0A2E450347A0B2C
:10FB50007B001212D4EA4B602912F63C740512FBAA
:10FB6000A9740412FBA9A3E412FBB3EE12FBB3A326
:10FB7000EF12FE2512FB85E508F090073AE0F91236
:10FB800012E002FE8C12FC8712FB8C222406F58206
:10FB9000E438F5832212FB992212FB9D2212F7D33F
:10FBA000A3A3A32212FB99A32212FBAD2212F64DAE
:10FBB000A3A32212FBADA3A32274F412187A89081E
:10FBC000EAFEEBFF8C0990030EE0A2E3400302FC87
:10FBD000717A0F7B001212D4EA4B700302FC71128F
:10FBE000FAEDF50AE43BF50BEA2404F8E43BF98569
:10FBF0000A82850B83E8F0A3E912FC8D740412FCE1
:10FC00008DA3740C12FCA8740812FCA8A3E50812BA
:10FC1000FCAFEE12FCAFA3EF12FCBE12FA99E5099D
:10FC2000F0740C12185612FAA6850A82850B8312FC
:10FC3000FC8312FA9DEC12FCBE12FC74EDF0740E03
:10FC4000121856E0F8A3E0F9850A82850B83E0FCE0
:10FC5000A3E0CC2409F582E43CF583E812FCBE2441
:10FC60000AF582E438F583E9F090073AE0F91212D8
:10FC7000E002FE8C2408F582E438F58322850E82AA
:10FC8000850F8312FC8722E0F8A3E0C82212FCB69D
:10FC900012FC972212F7D312FC9B2212FC9F22E047
:10FCA000F8A3E0F58388822212FCB612FAE0221251
:10FCB000FCB612F7E222F0850A82850B832212FC41
:10FCC000B612FC872274EC12187A8A0C8B0D8C0EFB
:10FCD0008D0F7414121856E0F50AA3E0F50B850A8F
:10FCE00082F583A385821085831190073EE06077BB
:10FCF0007A0F7B001212D48A088B09AE08AF09EE86
:10FD00004F700302FE208E828F837492F0A3743EA4
:10FD100012FE2B740512FE33E50CF0A3E50DF07511
:10FD200008087509007808121A8DAC0EAD0FEE2484
:10FD300005FAE43FFB1212AA7402121820850A8207
:10FD4000850B83E0FA851082851183E0F9EAF8EEED
:10FD5000240DF582E43FF583E8F0A3E9F0EEFAEF35
:10FD6000FB90073E02FE1B900314E0A2E5500890B2
:10FD7000030CE0A2E44006120B7802FE207A147B0A
:10FD8000001212D48A088B09EA4509700302FE208A
:10FD900012FAEDF8E43509F9EA2404FAE43509FB2E
:10FDA00088828983EAF0A3EB12FE25E0FEA3E0FF40
:10FDB0008E828F837404F0A3743EF0A3740DF0A3BD
:10FDC0007405F0A3E50CF0A3E50DF0A3AE82AF83BC
:10FDD000750C08750D00780C121A8DAC0EAD0FEE77
:10FDE000FAEFFB1212AA7402121820EE2408FE5039
:10FDF000010F850A82850B83E08E828F83F0851048
:10FE00000A85110BA30EAF83850A82850B83E08ED2
:10FE1000828F83F0AA08AB0990073AE0F91212E04A
:10FE20007F0C02194CF08882898322F08E828F83A6
:10FE3000A3A32212FE2BA32274F412187AEAFEEB7B
:10FE4000FF89088C0990073EE060167A077B001254
:10FE500012D4EA4B603612FF18E509F090073E8095
:10FE60002690030DE0A2E750237A0B7B001212D4F8
:10FE7000EA4B601812FEED7408F0A3740412FEE160
:10FE8000A3E509F090073AE0F91212E07F040219A5
:10FE90004C74F412187AEAFEEBFF890890073EE0F2
:10FEA00060167A077B001212D4EA4B603212FF18F8
:10FEB0007401F090073E8022900312E0A2E7501FE9
:10FEC0007A0A7B001212D4EA4B601412FEED7430F1
:10FED000F0A3740312FEE190073AE0F91212E080F9
:10FEE000ABF0A3E508F0A3EEF0A3EFF02212FF01C0
:10FEF00012FE25E0F8A3E0F9888289837404F0A358
:10FF00002212FAF1F8E43BF9EA2404FCE43BFD8810
:10FF1000828983ECF0A3ED228A828B83749212FA99
:10FF2000B6740812FB99EEF0A3EF12FF34E5081245
:10FF3000FF34A32212FB9DA3A322C082C08390089A
:10FF4000027480F0D083D08202013274F612187AE3
:10FF5000E9FCEAFD7901ECC39408501078008004B4
:10FF6000C333F908E8C39CE940F642F2ED14600897
:10FF700014600914600A800C7800800A78108006EA
:10FF8000782080027830900802E0FAEC484AF5B612
:10FF9000E5B4A2E750FAECC39408500574FF695227
:10FFA000F2A8BAABBBE8FAC3EB9400A2D265D03397
:10FFB00050047A007B00ED14600814600D14601288
:10FFC00080188A088B09740880168A088B097406C1
:10FFD000800E8A088B09740480068A088B097402D3
:10FFE00078081217D8AA08AB097F0202194C7408C6
:0FFFF000F5D575D4037408F5D375D20B02013221
:020000040001F9
:100000007F0102194C74F412187A74FD12180AEA6E
:10001000FEEBFF8C088D09EE4F6005EC450970047E
:10002000790280517903AA18AB19120EFC740212DE
:100030001856E0543F4440F07808121A8D740212AA
:100040001870EEFAEFFB120EE47402121820E9FEAB
:100050007021750A03750B00780A121A8D7402124A
:100060001870E5082403FAE43509FB1212AA740299
:10007000121820EEF97403801B121856AC82AD835F
:10008000743E12185612853A1212B07402121820D9
:10009000EEF974301218207F0402194C74F412180F
:1000A0007A74FA12180A8A088B09ECFEEDFFEA4509
:1000B000096004EE4F700479028074750A03750BB1
:1000C00000780A121A8DEE2403FCE43FFD7402123C
:1000D00018681212AA74021218207402121856E03C
:1000E000543F4440F07403121860880A890B780A60
:1000F000121A8D7402121870AA08AB09120EE47459
:1001000002121820E9F970277508037509007808AC
:10011000121A8DEEFCEFFD74051218681212BC74F1
:1001200002121820E96401700479008002790174D8
:100130000602809474F412187A89081282197003E6
:10014000028208E508705C128213E0750A08750BDC
:1001500000780A702E121A8DEAFCEBFD900731E050
:100160002402FAA3E03400FB1212AA74021218202F
:10017000120914E9700812820D74010282037508D5
:1001800001801B121A8DEAFCEBFD900731E0240A76
:10019000FAA3E03400FB1212AA7402121820128291
:1001A0001960617A127B001212D48A0A8B0BAE0A94
:1001B000AF0BEE4F603E8E828F8374C1F0A3E508D3
:1001C000F0750A10750B00780A121A8D900731E04D
:1001D0002402FCA3E03400FDEE2402FAE43FFB120B
:1001E00012AA7402121820EEFAEFFB12820DA3E09D
:1001F000F91212E090073112853A12137C90073100
:10020000E4F0A3F079018002790002809790073131
:10021000E0F8A3E0F583888222900731E0F8A3E0BC
:10022000F9E8492274F212187A7A207B0012055AF2
:100230008A088B09E4F50AF50B8B0DEA450D60166B
:100240007808121A897A017B00900739E0F91214B4
:100250001274041218207F0602194CC082C0837ADF
:10026000017B00900739E0F912141E02857F74F4B7
:1002700012187A74D012180A8A088B09ECFEEDFF66
:100280007C307D007900AA18AB191212C2750A10D1
:10029000750B00780A121A8DAC08AD097402121899
:1002A000681212B0740212182075080375090078DC
:1002B00008121A8DEEFCEFFD741F121856AA82ABBD
:1002C000831212B07402121820AA18AB19120F0E62
:1002D000E9FE7808121A8D742F02807974F21218D0
:1002E0007A74B012180A8A088B09ECFEEDFF890AAD
:1002F0007C307D00790074201218681212C2750CCF
:1003000010750D00780C121A8DAC08AD097422120C
:1003100018681212B074021218207C107D00790047
:10032000AA18AB191212C2750807750900780812CD
:100330001A8D7460121856128534740212186812DD
:1003400012B074021218207808121A8D74621218F2
:10035000561285347409121856AA82AB831212B051
:1003600074021218207464121856E06009740E1298
:10037000185674018006740E121856E4F0E50A60EF
:1003800009740F12185674018006740F121856E47F
:10039000F07C107D007900EC1218681212C275080A
:1003A000067808121A8D7464121856128534741661
:1003B000121856AA82AB831212B074021218207857
:1003C00008121A8D7467121856128534741C12188C
:1003D00056AA82AB831212B074021218207508104C
:1003E0007808121A8DEEFCEFFD7432121856AA82AC
:1003F000AB831212B07402121820AC18AD1974300D
:10040000121856AA82AB83120EF0742012186812CA
:100410000F0EE9FF7808121A8D7442121856AC823A
:10042000AD837432121856AA82AB831212AA7402D8
:1004300012182074101218707430121856AA82AB59
:1004400083120EF07420121868120F0EE9FE78085D
:10045000121A8D7442121856AC82AD837469121848
:100460005612853A1212B07402121820EF4EF97427
:100470005012182002825674F712187A78108C8263
:100480008D83E0F98A828B83E069F0A3AA82AB8333
:100490008C828D83A3AC82AD83D8E302800074F696
:1004A00012187A74D012180AECFEEDFF7508107558
:1004B00009007808121A8DEAFCEBFD740212186824
:1004C0001212B074021218207508087808121A8DDA
:1004D000EEFCEFFD7412121856AA82AB831212B012
:1004E00074021218207808121A8D743C12185612D1
:1004F0008534741A121856AA82AB831212B0740291
:10050000121820AA18AB19120F0EE9FE7508107800
:1005100008121A8D7422121856AC82AD83743E12E2
:10052000185612853A1212B07402121820EEF9749D
:10053000300285F7E0FCA3E0FD22E0FAA3E0FB2215
:1005400074F412187AEAFEEBFF8909750800801B23
:100550001212CEA808128D32EBF00508E508C395FB
:1005600009500808128D32EAF00508E508C395091C
:1005700040DE028097C082C0838A828B83E0F9D0FC
:1005800083D08202013274F612187AE9FCA2E2509A
:1005900004D2F08002C2F0A2F0E433F5087509003D
:1005A000E9A2E35004D2F08002C2F08A828B83E099
:1005B00054FCFEA3E0FFEE4CFCEFFDEC54FBFC749E
:1005C0000278081217F7EC45085407FCA2F0E43350
:1005D000F508740378081217F7EC4508FCE9C454D1
:1005E0000FF508740478081217F7EC45088A828B17
:1005F00083F0A3EDF080031218207F0202194C74DF
:10060000F612187AEA2420F508E43BF50978081276
:100610001A8DEA2410FCE43BFD120F14740280D7FB
:10062000C082C083851882851983121AA4120B30E8
:10063000740212182002857F74E812187A74E81286
:10064000180A8A0A8B0B89178C088D09EA450B60FA
:1006500005EC45097005790202877C740429F516BA
:10066000FA7B001213768A0C8B0DAE0CAF0DEE4F99
:1006700070030287771205968A0C8B0D8C0E8D0FF6
:100680008517107511007810121A8DAC0AAD0BEE9B
:100690002404FAE43FFB1212B074021218208E8276
:1006A0008F83A3A3A3E50CF0E50DF5158E828F8350
:1006B000A3A3F0850C10F511850E12850F1374108D
:1006C000781012160FE510F5148E828F83A3F08533
:1006D0000C10850D11F512850F1374187810121671
:1006E0000FE510F50A8E828F83F01205908A108B29
:1006F00011AC10AD117510107511007810121A8D13
:10070000740A1218681212B07402121820A818A9DC
:1007100019881089117810121A8DA916EEFCEFFDB8
:10072000740A121868120F267402121820E9F50BC9
:10073000703C850882850983E50CF0A3E5151287D6
:1007400086E514128786A3E50AF0750C08750D007E
:10075000780C121A8D7402121870E5082404FAE459
:100760003509FB1212B0740212182012059CEEFA21
:10077000EFFB12137C8003750B13A90B741812186E
:10078000207F1002194CF0850882850983A3A322DB
:1007900074E812187A74DD12180A7401121856EAF5
:1007A000F0A3EB128BDF8C168D17EC45177003024C
:1007B000885C743C12185612898D700302885C7430
:1007C0000112185612853A120ABE8A148B15EA4590
:1007D0001570057914028988850882850983E0F5FA
:1007E00010E4F511F512F513A3E0F50CE4F50DF5A1
:1007F0000EF50F7408780C1216287810790C121662
:1008000047850882850983A3A3E0F50CE4F50D7400
:1008100010780C1216287810790C12164785088269
:10082000850983A3A3A3E0F50CE4F50E7418780CF6
:100830001216287810790C121647EA2420F582E463
:100840003515F583780C1216CE7810790C1214E158
:10085000400F90825B780C1214CC600579020289FB
:1008600088851882851983E060118A828B83A3A30F
:10087000A3E0A2E1400579010289887C087D007926
:100880000074031218681212C2743B121856E0F575
:100890000E7404250EF50AFA7B001213768A0C8B6F
:1008A0000DAE0CAF0DEE4F70057913028988750FF0
:1008B00000780E121A8DAC16AD17EE2404FAE43F40
:1008C000FB1212B07402121820750C04750D00781A
:1008D0000C121A8DAC08AD09EEFAEFFB1212B074CF
:1008E00002121820750C10780C121A8DE5142410C1
:1008F000FCE43515FD74151218681212B07402125A
:1009000018207403121860880C890D780C121A8D47
:10091000A90AEEFCEFFD7415121868120F26740276
:10092000121820E9F50A7057750C08750D00780C3F
:10093000121A8D7405121870740D1218681212B004
:100940007402121820780C121A8DE5082404FCE4B5
:100950003509FD740D1218681212BC7402121820A9
:10096000E964016005750A0180157810121A89740E
:100970000512185612853A1205FC7404121820EE5E
:10098000FAEFFB12137CA90A742302877EE0F508B4
:10099000A3E0F509E50845092274E812187A74ED18
:1009A00012180A7401121856ECF0A3ED128BDF8AAC
:1009B000168B177A107B001213768A128B137A101B
:1009C0007B001213768A108B11E512451370030217
:1009D0008BBCEA45117003028BBC7810121A8DACE7
:1009E00012AD13AA16AB17120F2C7402121820E9BD
:1009F000FE6003028BC47A107B001213768A0C8B84
:100A00000D7A107B001213768A0E8B0FE50C450DC4
:100A10007003028B9EEA450F7003028B9E8518823D
:100A2000851983E07900240FF85001097A107B00C2
:100A300012177788088909E0540FF50AE84509700C
:100A4000087508017509008008E50A70047C0180BA
:100A5000027C00E50814C454F0F87401121856E042
:100A600028FAA3E03400FBECA2E0500B780E121A37
:100A70008DAC12AD138048AF0A750A00A80A740342
:100A8000121856E58228FCE43583FDE8C39F50091F
:100A9000128D288C828D83800EEF650A8C828D8367
:100AA000700474808001E4F0050AE50AC3941040E4
:100AB000CB780E121A8DAC10AD1174051218681295
:100AC0000F3274021218207C107D007900AA0CAB42
:100AD0000D1212C2750A00750B00804D74031218B6
:100AE00060881489157814121A8DE50AC454F0F838
:100AF0007403121856E028FCA3E03400FDAA0CABE6
:100B00000D120F327402121820780C121A8D74050F
:100B1000121870AA16AB17120F147402121820E9DB
:100B2000FE050AE50A7002050BE50824FFF8E50951
:100B300034FFF9C3E50A98E50B99A2D265D033508A
:100B400003EE6098EE705F740312186088088909DC
:100B50007808121A8DAC0EAD0FAA0CAB0D120F3225
:100B60007402121820780C121A8D7405121870AACB
:100B700016AB17120F147402121820E9FE7508083C
:100B80007509007808121A8DAC0CAD0D742D121871
:100B90005612853A1212AA740212182080087E1387
:100BA000E50C450D6007AA0CAB0D12137CE50E4554
:100BB0000F6011AA0EAB0F12137C80087E13E51292
:100BC00045136007AA12AB1312137CE510451160A0
:100BD00007AA10AB1112137CEEF9741302877EF092
:100BE000E9851882851983F02274EE12187A8A0832
:100BF0008B098C0E8D0F7A107B001213768A0C8B6A
:100C00000D7A107B001213768A0A8B0BAE0AAF0B9B
:100C1000E50C450D7003028CCAEE4F7003028CCABE
:100C20007C107D0079001212C2780C121A8DEEFC35
:100C3000EFFDAA08AB09120F147402121820E9F58F
:100C40000A6003028CD3750812750981850C8285B0
:100C50000D83E0A2E7400DAC0EAD0FAA0CAB0D1258
:100C60000F388020EEFCEFFDAA0CAB0D120F387888
:100C70000E121A8DAC08AD09EEFAEFFB120F3274AA
:100C8000021218207412121856E0F510A3E0F511A4
:100C9000850E82850F83E0A2E7400DAC10AD11AA4E
:100CA0000EAB0F120F38802BEEFCEFFDAA0EAB0F30
:100CB000120F387810121A8DAC08AD09EEFAEFFB5E
:100CC000120F3274021218208009750A13E50C45C0
:100CD0000D6007AA0CAB0D12137CEE4F6007EEFA05
:100CE000EFFB12137CA90A7F0A02194C74F6121842
:100CF0007A750800740A121856E0F8A3E0F9E8FEC5
:100D0000E9FFA808EC28F582E43DF583E0F5091237
:100D10008D286509C0E0128D32D0E0F00508E508A5
:100D2000C3941040DD0285FAEA28F582E43BF5839E
:100D3000E022EE28F582E43FF5832274F512187A5A
:100D400075080075090FE509F83395E0F9EA28FE02
:100D5000EB39FF8E828F83E0C3334508C0E0EC2877
:100D6000F582ED39F583D0E0F08E828F83E0A2E743
:100D7000E433F50874FF28F509C39400A2D265D0C6
:100D80003350C37F0302194CC082C083900283E0BA
:100D9000A2E250067A287B1680047A007B00120FAC
:100DA0004A7900D083D08202013274F212187A7428
:100DB000E012180A8A088B09ECFEEDFF7C107D001A
:100DC0007900AA18AB191212C2742E121856E0F547
:100DD0000AA3E0F50B9007331293317003028EA53E
:100DE00012931E65087004A3E065096003028EA5D6
:100DF0009007341293176003028EA5129323F874A0
:100E0000066870457410121860880C890D780C12F1
:100E10001A8D900733E0244BF50CA3E03400F50D58
:100E2000780C121A8D12945F120EF67404121820A8
:100E3000E97072120FC8E9F50A750B00780A121AE8
:100E40008D7412121870028F0A900733E0F9A3E034
:100E5000C9245BF582E439129874604912952874AC
:100E600011686003028F24E0650A7004A3E0650B3B
:100E7000702E750C08750D00780C121A8D128F7B70
:100E80001212BC7402121820E964017013120FC808
:100E9000E9F50A750B00780A121A8D128F87806A9D
:100EA0007932120FC2AA08AB09120ABE8A0C8B0D46
:100EB000A80CA90DE8497003028F5BE82424F50C07
:100EC000E439F50D850C821298747003028F5B1261
:100ED0009820650A7004A3E0650B707F750A087599
:100EE0000B00780A121A8D128F7B1212BC74021238
:100EF0001820E964017064850C82850D83E0FCA3F1
:100F0000E0FD128F6E780A121A8D740212186812A0
:100F100012AA7402121820AA08AB09AC18AD191253
:100F2000091A803EE0650A7004A3E0650B600302C5
:100F30008EA5750C08750D00780C121A8D128F7B1A
:100F40001212BC7402121820E964016003028EA51B
:100F5000128F87128F6E750B0080AAAA08AB091238
:100F60000920790174201218207F0602194CEC2404
:100F70001AF582E43DF583E0F50A22EA2412FCE446
:100F80003BFDEEFAEFFB22129446245B129434FCF4
:100F9000A3E0FD2274F212187A74F012180A89097B
:100FA000ECFEEDFF7508008A828B83A385820C8599
:100FB000830D8E828F83A385820A85830B900733EE
:100FC0001293317060740165097055EE2402FAE4E1
:100FD0003FFB120F02E9F98E828F83A3A3A3A3A381
:100FE0007402121AA88E828F83A3A3A3A3E0F5082C
:100FF0007808121A91E9F5087808121A91850A8280
:10100000850B83E0FD8E828F83E0FC850C82850D4D
:1010100083E0FAA3E0FB790012064474041218205E
:1010200079000292FF12931EF8A3E0F9850C8285E5
:101030000D83E0687003A3E069600579080292FF00
:101040001293116401700579070292FFE50914609B
:101050003124FE60371470030290EC147003029286
:10106000F41470030291711470030291D814700388
:101070000291E514700302922F14700302927A0217
:1010800091D2EEFAEFFB120FE60291DF750A0075BE
:101090000C10750D00780C121A8D900733E0243B6C
:1010A000FAA3E03400FB1212AA740212182012955F
:1010B0003688828983E0640470047403802C90076E
:1010C00033E0241BF50CA3E03400F50D780C121A64
:1010D0008D12945F120F747402121820120F8CE993
:1010E0006003750A0812940974058079750A007501
:1010F0000C10750D00780C121A8D900733E0244BFC
:10110000FAA3E03400FB1212AA7402121820A818E5
:10111000A919880C890D780C121A8D900733E024D8
:101120004B129465120F747402121820750C10750E
:101130000D00780C121A8D900733E0243BFCA3E0DD
:101140003400FD74021218681212BC7402121820C6
:10115000E964017013120F92E96005750A08800BAB
:101160001294097406F08003750A04850A08029235
:10117000FD129323640C705A900734E0C8245D126A
:10118000932B700F7A1B7B00121376129860245DEC
:1011900012930412986B603A750A10750B00780A66
:1011A000121A8DEEFCEFFD1212AA74021218201210
:1011B0000FC8129422245DF582E438F58312942539
:1011C000241AF582E438F583E9F0129409740D02CB
:1011D00092767508070292FDEEFAEFFB120FECE92A
:1011E000F5080292FD129323640E70E6900734E036
:1011F000C8245F12932B700F7A167B00121376129D
:101200009860245F129304129422245F12987060F5
:1012100017750A10750B00780A121A8DEEFCEFFD97
:101220001212AA7402121820129409740F80471225
:101230009323640F709C750C06750D00780C121AC0
:101240008DAC0AAD0B129422245F1294342410FA50
:10125000A3E03400FB1212AA740212182012954364
:10126000540470030292F012944FA3A3A3A3E0547A
:1012700004607D12983AF00292FD900734E0C82491
:101280006112932B702A7A147B0012137690073325
:10129000E02461F8A3E03400F988828983EAF0A3AE
:1012A000EBF0888289831293317005750808804DB0
:1012B00012942224611298706036750A10750B0022
:1012C000780A121A8DEEFCEFFD1212AA740212189F
:1012D000201294222461F582E438F58312942524A7
:1012E00010F582E438F58374FFF0A3F0A3F0A3F0C7
:1012F000790080068E828F83E0F9120FC2A90874EC
:1013000010028F66F582E43AF583E50AF0A3EBF06C
:1013100022900733E0F8A3E0F5838882E022129858
:101320004AE02290073412941BE022F582E438F55B
:1013300083E0F8A3E0F9E8492274F612187A7E00F7
:10134000120F98E9F860030293F7120F86900733A3
:10135000E0F8A3129840C82412129434A2E050136B
:1013600012944FE0540364017009129422129432D3
:10137000D2E0F0129429F8740268601D740368606A
:10138000057404687017790112988612064A12943F
:101390003C1294097404F08069790280EB7401684E
:1013A0006005740568705B1294097402F012942948
:1013B0006401700E7C107D00790012946F1212C2CD
:1013C00080227508108E097808121A8D129409A3CC
:1013D000A3A3A3E024021294651212AA74021218A5
:1013E0002012943C7910900733E0242BFAA3E034C8
:1013F00000FB120EFC800B74186870047E038002E0
:101400007E08EEF97F0202194C12940D22900733E8
:1014100012941422E0F8A312941B22E0F583888230
:10142000A32290073312944922129446241A12944C
:1014300034222417F582E438F583E0221294461210
:101440009432D2E2F022900733E0F8A3E0C82212EF
:1014500094462418F582E438F583129410A3229060
:101460000733E0242BFCA3E03400FD12946F22909C
:101470000733E02407FAA3E03400FB2274F61218C5
:101480007AEAFCEBFD12986B700302952312982FF9
:10149000640D60030295238C828D83E0F8A3E0F94C
:1014A000129528E8F0A3E9F0750808750900780896
:1014B000121A8DEC2402FC50010DEA2412FA50019C
:1014C0000B1212AA7402121820129543FB129536C1
:1014D000EB54026025900733E0FCA3E0CC2418F520
:1014E00082E43CF583129825A3A3A3A3A3E05402AE
:1014F000600888828983740E801DEB5404601B127F
:101500009850F5838A82A3A3A3A3A3A3E054046005
:1015100009888289837410F080057900120FC279DE
:10152000008002790702940412952C22EA2410F517
:1015300082E43BF58322900733E02401F8A3E034F2
:1015400000F92212988FA3A31294492413F582E480
:1015500038F583A3E02274F012187A129311600315
:1015600002981B900734129840F9129850FB90078C
:1015700033129825E0F50CEA2405FEE43BFFE8244D
:1015800013F50EE439F50F7406650C7067850E824D
:10159000850F83E0F8A2E0500E8E828F83E0A2E0F8
:1015A0005005750C078067E8540260178E828F83A0
:1015B000E05402600E750C091205AE12987E120FEF
:1015C000AA8020E85404700302974C8E828F83E037
:1015D0005404700302974C750C0B12059012987E00
:1015E000120FB67407650C60030296FD129409741D
:1015F00008029799E50C24F960141470030296A56B
:101600001460B51470030296CF1460CE80D5129882
:101610003412932B701A7A1B7B001213768A0812ED
:101620009862245BF582E43AF583E508F0A3EBF0D9
:10163000129834129434F508A3E0F509E508450939
:1016400060A1E508241AF50AE43509F50B120FC864
:10165000E9850A82850B83F07C107D007900AA0859
:10166000AB091212C2850A82850B83E0F9600CC3B4
:1016700094115007AA08AB09120EFC1212CEE5080D
:101680002410F582E43509F583EAF0A3EBF079083C
:10169000E5082412FAE43509FB120EFC12988212B6
:1016A0000F9E0295E31298341298706056EA241245
:1016B000F508E43BF5097808121A8D129820FCA36E
:1016C000E0FD129886120FA474021218208034755F
:1016D00009011205A2E9F50874016508700575098C
:1016E000008003750800A9091205A88A0A8B0BACB3
:1016F0000AAD0BA908129886120FB08034740865E1
:101700000C701B850E82850F83E0540260238E824D
:101710008F83E05402601A1294097409807B740963
:10172000650C7007129409740A806E740A650C7057
:101730001B850E82850F83E0540460108E828F8398
:10174000E054046007129409740B804D850E828565
:101750000F83A3E0F9540160118E828F83A3E054BC
:10176000016007129409740C802FE9540260118EF5
:10177000828F83A3E054026007129409740E8019CB
:10178000E95404600F8E828F83A3E0540460051235
:10179000983A80051294097412F012982FF8740781
:1017A000686014740868600F740968600A740A68D5
:1017B0006005740B687064129886120ABE8A088BE2
:1017C00009A808A909E8496030E8240CF582E43941
:1017D000F583E0F8A3E0F9880C890DE4F50EF50F28
:1017E000E9C313F9E813F888088909E4F50AF50B49
:1017F000780C7908121647800C750CF4750D01757C
:101800000E00750F00780C121A897A027B0090077F
:1018100039E0F912141274041218207F0802194CCE
:1018200012952CE022E0FCA3E0F5838C82A3221227
:10183000940DE022129446245B2212940D7410221F
:1018400012984AA3A3E0F8A3E02212941BA3A322B8
:101850001298622418F582E43AF583E0FAA3E022B4
:101860008A0A900733E0FAA3E0CA22129446245D64
:10187000F582E438F583E0FAA3E0FBEA4B228A081C
:101880008B09AC08AD0912988FE0FAA3E0FB229017
:101890000733129414A3A32274F712187A74FF2941
:1018A000F804C313FE6032EA28FCE43BFDEAF8EBDF
:1018B000F9EEFF88828983E0FA8C828D83E088824A
:1018C0008983F0EA8C828D8312A1F4A882A983EC2B
:1018D00024FFED34FF1CFDDFDA8003120CF27F01E0
:1018E00002194CC082C08390618FE0F9029A107493
:1018F000F412187A8908E9700579120299B1906199
:101900009AE0643F70047E0180027E00906186E070
:10191000FF53B4F390619A743FF0A3745AF090614E
:10192000A0E4F0906184F0E5E170FC75E1027509D6
:10193000009061BFE070090509E509C394FA40F120
:1019400074FA65096029750900E0F50AE0F50BF9FC
:10195000E50AF849600A74036870037480697009C5
:101960000509E509C394FA40E074FA650970047941
:101970001F803EEAF8EBF98508099061BF1299B61D
:101980001299B6E5BC88828983F0A3A882A9831541
:1019900009E50970E5E5E170FC75E101850BBC85A1
:1019A0000ABC120BC0EEF9120BD8EF906186F079E9
:1019B000007F0402194CE0F5BDE0F5BDE0F5BDE0A7
:1019C000F5BD22C082C083784179051299F164493E
:1019D0007003E9640570F4029A10C082C0837849EC
:1019E00079051299F1644D7003E9640570F4029A67
:1019F0001088828983E08A828B83F088828983A31E
:101A0000A882A9838A828B83A3AA82AB83E822F06F
:101A1000D083D08202013274F712187AECFEEDFF07
:101A2000120CFE7508107808121A91EEFCEFFD7981
:101A300010740A121856E0FAA3E0FB120CEC7401C1
:101A400012182079000298DBC082C08390080D74C0
:101A500070F0A374B1F0A3E0541FF0900811741D4E
:101A6000F0A37442F0A37470F0A374B2F09008175E
:101A7000E0541FF0900819741EF0A37412029A0F1C
:101A8000C082C083EA6C7002EB6D6036129AC5F0BA
:101A9000ED900803F0ECA3F0EBA3F0EAA3F08518B7
:101AA00082851983E0F8A3E0F9E8900808F0E9904E
:101AB0000807F075D11E75D60175D701E5D1A2E0F2
:101AC00050FA029A10900807E0541FF09008097429
:101AD00020F0A3745222C082C083EB90080BF0EA7E
:101AE000A3F0E9900810129DEF029A1074F71218F3
:101AF0007AED90080BF0ECA3F07409121856E09000
:101B00000810129DFDEB900815F0EAA3F0E990088B
:101B100018F0900817E054E0F075D11D75D11B75D1
:101B2000D60275D6040298DEE5B354F849F5B343FE
:101B3000B301E5B3A2E350FA020132C082C083E5EB
:101B4000B3548F4450F5B3748090080BF074301286
:101B50009B874406F5B343B301E5B3A2E350FA0211
:101B60009A10C082C083E5B3548F4440F5B3EB9024
:101B7000080BF0EA129B874404F5B343B301E5B3C5
:101B8000A2E350FA029A10A3F09008107410129D6C
:101B9000F3E5B354F82274F212187A74E012180ABA
:101BA0008A088B09890BECFEEDFF740F550B60045E
:101BB000780180027800E9C4540F28F50A750C10EA
:101BC000750D00780C121A8D7C307D8074121218FD
:101BD00068120CE074021218207410121856129C2D
:101BE000AC121A8DAC08AD097413121856AA82AB48
:101BF00083120CE07402121820129DD1E9121868A9
:101C0000120CE67906120CF27508107808121A9177
:101C1000742F121856129EF8121868120CEC7401E8
:101C20001218207900120CF2741F121856129DDC43
:101C30007910E9121868120CE67906120CF2E50A1E
:101C4000C454F0F9F5087808121A91EEFCEFFDEE95
:101C5000FAEFFB120CEC7401121820E50A6011FA7D
